:020000040800F2
:10000000FCFF002095020008E5020008E502000858
:10001000E5020008E5020008E50200080000000013
:10002000000000000000000000000000E5020008E1
:10003000E502000800000000E5020008ED3C0008B1
:10004000E5020008E5020008E5020008E5020008F4
:10005000E5020008E5020008E5020008E5020008E4
:10006000E5020008E5020008E5020008E5020008D4
:10007000E5020008E5020008E5020008E5020008C4
:10008000E5020008E5020008E5020008E5020008B4
:10009000E5020008E5020008E5020008E5020008A4
:1000A000E5020008E5020008E5020008E502000894
:1000B000E5020008E5020008E5020008E502000884
:1000C000E5020008E5020008E5020008E502000874
:1000D000E5020008E5020008E5020008E502000864
:1000E000E5020008E5020008E5020008E502000854
:1000F000E5020008E5020008E5020008E502000844
:10010000E5020008E5020008E5020008E502000833
:10011000E5020008E5020008E5020008E502000823
:10012000E5020008E5020008E5020008E502000813
:10013000E50200080000000000000000E5020008E1
:10014000E5020008E5020008E50200082D3D000870
:10015000E5020008E5020008E5020008E5020008E3
:10016000E5020008E5020008E5020008E5020008D3
:10017000E5020008E50200080000000000000000A1
:08018000E5020008E502000899
:1001900010F8012B11F8013B012A28BF9A42F7D031
:1001A000D01A7047034613F8012B002AFBD1181A06
:1001B000013870470000000000000000000000004F
:1001C00001F0FF01102A2BDB10F0070F08D010F808
:1001D000013B013A8B422DD010F0070F42B3F6D10C
:1001E000F0B441EA012141EA014122F007047FF025
:1001F00000070023F0E80256083C85EA010586EA7C
:10020000010685FA47F5A3FA87F586FA47F6A5FAB7
:1002100087F68EB9EED1F0BC01F0FF0102F00702C3
:1002200032B110F8013B013A83EA010313B1F8D16E
:100230000020704701387047002D06BF354603384F
:10024000073815F0010F07D1013015F4807F02BF88
:10025000013015F4C03F0130F0BC0138704700BFD9
:1002600053B94AB9002908BF00281CBF4FF0FF311D
:100270004FF0FF3000F00CB8ADF1080C6DE904CE82
:1002800004F092FBDDF804E0DDE9022304B07047DE
:10029000704700BFDFF834D0002103E00C4B5B58FF
:1002A000435004310B480C4B42189A42F6D30B4A88
:1002B00002E0002342F8043B094B9A42F9D303F0D1
:1002C0009BFE03F0A7FE03F029F87047FCFF002017
:1002D000CC4F0008000000207803002078030020A5
:1002E0004C220020FEE7000010B50A49002002233E
:1002F0000A698B82C2F30804520A002C18BF01322B
:1003000013449BB206305A1E1828CA8201F1180104
:10031000EED110BDC80200200A4492B291424FEAC9
:10032000400001D8824201DB121A92B21046704797
:1003300002468088138952899BB292B2934236BF9B
:10034000C2EB40029B1A9B189BB2984228BF1846EA
:10035000704703894189828889B29BB28B4236BF3C
:10036000C1EB42015B1A5B189BB29A4286BFD01A5E
:1003700080B2002070470020704700004B6902499E
:100380000B610121184700BFB0160020002000F0CB
:1003900097BA012000F094BA01207047BFF34F8F45
:1003A0000549064BCA6802F4E0621343CB60BFF311
:1003B0004F8F00BFFDE700BF00ED00E00400FA052D
:1003C000034B10B120229A6170474FF40012FAE7F4
:1003D000000402400B4B4FF47A721B68B3FBF2F33C
:1003E00058430138B0F1807F0AD24FF0E023064A2B
:1003F0005861F02182F8231000229A6107221A61C5
:10040000704700BF3001002000ED00E04FF0E02217
:10041000136923F001031361704700000A4910B506
:100420000A24FF20FFF7CCFF0A680B689B1A322BC7
:10043000FBD90020FFF7C4FF0A680B689B1A322B18
:10044000FBD9013CEDD110BDDC1E0020014670B58A
:100450000020104E08700246012502F1006303F5EA
:1004600000431C68B44211D15C68013CB4F5804F74
:100470000CD20D705B68033323F00303083313447D
:10048000104603F10802B2F5804F00D370BD1A4642
:10049000E3E700BF43494E492DE9F74F684A00237F
:1004A0004FF0010E4FF003080E680EFA03F404EA51
:1004B0000605B44340F0AF804C6824F010045E00A1
:1004C000013C08FA06FC012C6FEA0C0C11D8846878
:1004D00004EA0C09CC68B44044EA09048460446826
:1004E00024EA05094C68C4F300149C4044EA09045A
:1004F0004460C46804EA0C098C68B44044EA090406
:10050000C4604C6824F01004022C16D14FEAD30AC0
:1005100000EB8A0A03F0070BDAF820404FEA8B0B56
:100520004FF00F0909FA0BF924EA09090C6904FADA
:100530000BF444EA0904CAF82040046804EA0C0CED
:100540004C6804F00304B44044EA0C0404604C68B2
:10055000E40060D53B4E00240194746C44F4804464
:100560007464746C23F0030606F1804604F480443E
:1005700006F59C36019403F0030C019CD6F8089014
:100580004FEA8C0C0F2404FA0CF429EA04092E4CCF
:10059000A04247D004F58064A04245D004F58064B1
:1005A000A04243D004F58064A04241D004F58064A9
:1005B000A0423FD004F58064A0423DD004F58064A1
:1005C000A0423BD004F58064A04214BF0824072455
:1005D00004FA0CF444EA0904B4604F681468EE436A
:1005E000FF034CBF2C43344014604F685468BF0372
:1005F0004CBF2C43344054604F689468FF024CBF9A
:100600002C43344094604F68D468BF0254BF06EA5C
:1006100004052543D5600133102B7FF445AF03B0AB
:10062000BDE8F08F0024D3E70124D1E70224CFE70F
:100630000324CDE70424CBE70524C9E70624C7E754
:10064000003C0140003802400000024030B5254B1C
:10065000254C0022DA612568244AD168C90339D4BF
:10066000D168C80744BF0121D160D06810F0F20002
:100670002FD0D168C90605D5D96941F01001D961DB
:100680001021D160194AD1688D0605D5D96941F08C
:100690000801D9612021D160D1684C0605D5D969FE
:1006A00041F00401D9614021D160104AD1680806A7
:1006B00005D5D96941F00201D9618021D160D168A5
:1006C000890705D5D96941F02001D9610223D3609A
:1006D000012030BD411CC0D02168491B8142BCD9DA
:1006E0000320F6E74C040020DC1E0020003C024002
:1006F00070B5254D022834BF0346002305EB0010DA
:100700001B01067AEC5801F07F05AE4208D84FF085
:10071000E023D3F8F03DD90700D500BE002070BD1E
:10072000D31CC909C3F38D030DD108333344626A66
:100730005B009BB29A4204D2144A92889A42E6D352
:1007400063620120EBE7407A104920B18A79904238
:10075000DDD901328A71A268606A12065CBF5B0053
:100760009BB28A8818448242D1D3D21A92B28A802C
:1007700042EA03430DB9A362E3E705F13F0204EB4C
:1007800082046360DDE700BF404F0008C420002002
:10079000022834BF014600210A4B0901595803EBD6
:1007A00000131A7ADB68183252004A628A6C064AD1
:1007B0009B0893801A0412FA83F3CB6540228021B0
:1007C000FFF796BF404F0008C4200020022828BF32
:1007D00000202D4B0001F0B5551E1C582B4E18BFA4
:1007E0000125002941D12A4F06EB021037F81230BB
:1007F0004089984228BF18461B1A27F81230012357
:1008000001EB051504EB4515C3F3090340EAC343A7
:10081000C5F81039D5F800391F46C7F30747C3F3A9
:10082000076C07F00C076CF07B0C042F6CF31F6354
:100830000ED102EB410706EB0716367B012E07D1DE
:10084000D4F80868F6054CBF43F0805343F00053DA
:10085000012AA66CC5F8003906D128B1D4F834387D
:100860008A401A43C4F83428F0BD02EB410306EB7A
:1008700003135F891889C319013BB3FBF7F39BB2DC
:10088000012B38BF0123BBE7404F00088C15002027
:10089000C4200020084B03EB001393F90430002B15
:1008A00008DB0122590903F01F0302FA03F3034A8C
:1008B00042F82130704700BF404F000800E100E0DF
:1008C0000D4B1A7810B11046FFF7E4BF0B4B03EB4A
:1008D000021393F90430002B0DDB5A09012103F0B8
:1008E0001F03994002F12003054A42F82310BFF389
:1008F0004F8FBFF36F8F7047C4020020404F000836
:1009000000E100E0022828BF00203F4B000110B5A5
:100910001A5801F07F00C90981F00103B9B31B0126
:1009200030B1191802EB4111D1F80049002C11DB4C
:10093000034402EB4313D3F8001941F00261C3F8FA
:100940000019830143F02003136113699B06FCD453
:10095000B8BB25E0D1F8004944F00064C1F8004973
:10096000D1F808496406FBD5D1F8004944F0804429
:1009700044F400140344C1F8004902EB4313D3F8D4
:1009800008198907FBD50221C3F80819D9E748B926
:1009900002EB4323D3F8001941F40011C3F8001906
:1009A000936C0EE0190100EB031302EB4313D3F831
:1009B0000049002C06DBD3F8002942F40012C3F8EA
:1009C000002910BDD2F8044844F40074C2F8044869
:1009D00054692406FCD5D3F8004944F0804444F41B
:1009E0000014C3F800490B1802EB4313D3F808199D
:1009F0008907FBD50221C3F80819D2F8043843F45B
:100A00008063C2F80438DCE7404F0008036943F014
:100A100001030361036C44F209229BB2934206D89E
:100A20000369DA07FCD40369002BFCDA7047036919
:100A30009B00FCD5036923F0005323F0010343F02E
:100A400000530361EFE700001D4B1E4A1B689342F1
:100A500026D21D4A934225D81C4A934224D21C4ACE
:100A6000934223D8A2F5DB12A2F5BA5293421FD8C3
:100A7000A2F5B712A2F5587293421BD8154A9342B9
:100A80001AD2154A934219D2144A934234BF0F2303
:100A90000E23C26822F4705242EA8323C360704777
:100AA0000623F6E70723F4E70823F2E70923F0E734
:100AB0000A23EEE70B23ECE70C23EAE70D23E8E734
:100AC000300100200048E801DF9DA30100366E01DF
:100AD0003FA44C01807306010024F400C0E1E4004F
:100AE000034B43F602229A87002283F83E20704788
:100AF0008C140020F8B5444B81781D7801F07F03F9
:100B0000052B044608D94FF0E023D3F8F03DDB076E
:100B100000D500BE0020F8BD3C4BA6889878E3784D
:100B200003F00303022BC6F30A020CD0032B5ED0A2
:100B3000012BE8D1022840F2FF3308BF4FF4806355
:100B40009A4219D904E002280AD1B2F5007F13D0E5
:100B50004FF0E023D3F8F03DDA07D4D500BED2E75A
:100B6000202A42D816F4FF6FF2D0294BA2F10800D8
:100B700080B2C340D807EBD52846FFF7B9FD00285F
:100B8000C1D0A678234B2449022D28BF002506F0AA
:100B90007F022D01570007EBD6175D59A38801EBA3
:100BA0000711C3F30A034B81A7790F73E17801F0B2
:100BB0000304611E43F4004318BF012143EA844348
:100BC00043EA0173F609194615D002F148035B01A7
:100BD00062F39951E950D5F81C1800231A440123F7
:100BE00093400B43C5F81C3895E7402AAFE702282D
:100BF00018BF4023A1E702F1580149016B501023AF
:100C0000D5F81C18EAE700BFC4020020E02000204D
:100C100001010001404F00088C1500202DE9F04330
:100C20002D4C2E4D002101274FF00F0C4FF0030EDD
:100C300007FA01F333EA000248D121F0030202F17E
:100C4000804202F59C3201F00306B600D2F808900B
:100C50000CFA06F809EA080907FA06F6B1456FEA40
:100C600003030FD12E681E402E606E681E406E601A
:100C7000AE681E40AE60EE681E40EE60966826EAE2
:100C80000806966022684E000EFA06F622EA060270
:100C90002260CA08920002F1804202F5013201F09E
:100CA0000708D2F820904FEA88080CFA08F829EAD9
:100CB0000808C2F82080E26822EA0602E260626860
:100CC00013406360A36823EA0603A360013110297F
:100CD000AED1BDE8F08300BF00040240003C0140FB
:100CE000134B00F07F0203EB420303EBD01393F8A6
:100CF000200010F0010016D193F82020C2F38001EB
:100D0000520713D493F8200010F001000DD193F88E
:100D1000202052070AD493F8202042F0040283F8DE
:100D2000202001207047002070470846704700BF10
:100D3000E020002010B50D4B044601461878FFF75F
:100D4000E1FD0B4B04F07F0203EB420303EBD410F5
:100D500090F8203043F0020380F8203090F82030E3
:100D600043F0010380F8203010BD00BFC402002012
:100D7000E02000202DE9F84F284C00F07F0604EB1E
:100D8000460404EBD014174694F82080244A18F047
:100D9000010892F800908A464FEAD01B4FEA4605B8
:100DA00007D04FF0E023D3F8F03DDB0733D4002029
:100DB0002FE094F8203043F0010384F82030FFF74F
:100DC000E5FA184A05EB0B03190102EB03135D89E1
:100DD00075B9FFF7DEFA94F8203065F3000384F864
:100DE000203094F8203065F3820384F82030D8E76F
:100DF00042F801A0C3F804801F8116B90A4B23F8FA
:100E00001B7048465A463146FFF7E0FCFFF7C1FA2F
:100E10000120BDE8F88F00BEC9E700BFE020002038
:100E2000C40200208C150020C42000200B4B1A693E
:100E300022F440721A611A6942F400721A611A6946
:100E400022F0F8021A611A6942EAC00242F0020274
:100E50001A611A6942F480321A617047003C0240FC
:100E600070B51B4C637893B323785A072FD4194D70
:100E7000EE7866B305F11000FFF76BFA3F2826D92C
:100E80003046FFF72DFF10B305F11000FFF761FAB0
:100E90003F28EB7806D9BDE870400F49402218463C
:100EA000FFF768BF03F07F0204EB420404EBD310AA
:100EB00090F820305B070AD590F8203013F001023B
:100EC00002BF90F8203062F3820380F8203070BDBA
:100ED000E02000200C210020CC140020F8B50446AE
:100EE0000D46164602276378052B04D1E37803F0FC
:100EF0000303022B08D04FF0E023D3F8F03DDB07CB
:100F000000D500BE0020F8BD2046FFF7F3FD002805
:100F1000F1D0A378DA0914BF33702B702378012F36
:100F20001C44F0D00127DEE770B54B79022B35D198
:100F30008B79022B32D11E4EB37843BB8B78337042
:100F40000B780925CC186378242B1AD1954213D934
:100F50006378042B0DD163790A2B0AD12678154AC0
:100F6000A019511CFFF7BAFF88B10E3516FA85F5A6
:100F7000ADB2FFF775FF12E023781D44ADB21C44FB
:100F8000E1E7052BE4D12046FFF7B4FD48B94FF067
:100F9000E023D3F8F03DDB0700D500BE002528464E
:100FA00070BDA378737023781D44ADB21C44CFE7A5
:100FB0000C2100200E21002010B54B79082B08468B
:100FC0000ED18B79062B0BD1CB79502B08D1162A59
:100FD00008D84FF0E023D3F8F03DDA0700D500BE83
:100FE000002010BD104C8B7884F82D300B7804F164
:100FF0002E0204F12F011844FFF770FF0028E8D0FB
:1010000000230A4994F82F0084F830301F22FFF79C
:10101000B1FE30B94FF0E023D3F8F03DDB0700D547
:1010200000BE1720DDE700BF8C1400208C040020D8
:1010300010B4114B99689A6B83F82C00022083F846
:10104000300093F83C008A1A9A6220B942F20504F3
:101050009C8783F83E0059B152B11A7B5DF8044B6E
:10106000D20914BF93F82E0093F82F00FFF762BE49
:101070005DF8044B704700BF8C140020144B10B572
:10108000144C6BB1607BAFF3008048B942F2077338
:1010900084F83E00A387BDE810400120FFF7C8BFD9
:1010A000A268A36B0C4994F82F00D21AB2F5805FA6
:1010B00028BF4FF4805292B2FFF75CFE30B94FF078
:1010C000E023D3F8F03DDB0700D500BE10BD00BF24
:1010D000000000008C1400208C040020024A1369D8
:1010E00043F0004313617047003C0240054B1A690E
:1010F000002A05DA044A5A6002F188325A601B69F4
:10110000704700BF003C024023016745C0430022F6
:10111000114600F08000FFF72DBE000010B403461A
:10112000064C00685968224603C20022C4E9022224
:1011300018785DF8044BFFF7E9BF00BFB016002038
:1011400010B5144C227A32B1134B04221A60BDE858
:101150001040FFF75BB92368D3B1104B197861B128
:101160001A700D4B032219201A60FFF733F90C4A4D
:101170000C4B1188927819809A70D4E900329A4207
:1011800006D3054B04221A60FFF740F9FFF706F972
:1011900010BD00BFC4160020DC2000202901002063
:1011A000864C0008D9200020F8B5144D2B7E012B69
:1011B000064617461FD001234CF250302B76FFF71E
:1011C00045FAA8B90E4C236923F4407323612369BF
:1011D00043F400732361236943F0010323614CF25C
:1011E00050303760FFF732FA236923F0010323619F
:1011F00000232B76F8BD0220FCE700BF4C04002042
:10120000003C02402DE9F0411A4E1B4F3278DFF8C6
:101210007080002405462346A2420DD9D8F800303C
:1012200013EB44130BD14FF0E023D3F8F03DDB0771
:1012300000D500BEBDE8F0819B1A07EB4313DB68C5
:101240002846984732780134E4B2511CA142234623
:10125000E2DA0A4C2C220021204602F043FF102241
:10126000FF21201D02F03EFF4FF0FF336361A361B9
:10127000E361DFE7D0200020604F0008E02000207D
:10128000CC20002008B50E4BE8220021184602F0C1
:1012900029FFFF2242714FF4E132826008228273FB
:1012A00000F1280200F168010261064A4261C16151
:1012B00000220549428301620283C284828408BD00
:1012C0000C2100204000010080000180084B00221A
:1012D0005A831A601A831A71DA849A8493F8232045
:1012E000D10904BF42F0800283F82320704700BF79
:1012F0000C21002002484022002102F0F3BE00BF72
:101300008C14002002484022002102F0EBBE00BFF6
:101310008C14002013B5930800EB8303984209D185
:1013200012F0030204D00B68019301A902F0EAFE57
:1013300002B010BD0C6840F8044BEFE7930813B5FA
:1013400001EB8303044699420BD112F0030206D04D
:10135000002301A8019302F0D5FE019B236002B097
:1013600010BD51F8040B2060EDE72DE9F74F8846DA
:1013700001894489858889B2A4B2A14236BFC4EBF1
:1013800045060E1B7618B6B2074656B3B54206D2CE
:10139000A9422CBF491B49198CB244812E46964262
:1013A00028BF1646A54227D9FA883968A5EB040953
:1013B000751BC2F30E0025441FFA89FC15FB00F5CE
:1013C00019FB00F9012B02461FFA89F9ADB200FBA7
:1013D00004141ED0664512D872432146404602F0DE
:1013E00091FE7989B888324689B2FEF795FF7881F7
:1013F000304603B0BDE8F08F641BA4B2D2E74A4682
:101400002146404602F07EFE39682A4608EB090074
:10141000E5E7664507D816FB00F292B22146404642
:10142000FFF78CFFDDE729F0030B1FFA8BFB5A4611
:1014300021464046FFF782FF19F0030923D0C9F186
:10144000040A1FFA8AFAAA454FF0000304EB0B01C5
:101450004A4601A828BFAA46019302F053FE3C6801
:1014600001AB214603EB0900524602F04BFEA5EB0F
:101470000A05019BC8F80030ADB204EB0A01002D4B
:10148000AFD02A46CBE73968F9E7000070B5204CA9
:1014900063781BB323785907C3F380051ED41D4816
:1014A000FEF746FFD0B11C4EB078FFF719FCA8B18B
:1014B0002B461A49402206F11C00FFF756FF05464D
:1014C000B0787DB115492A46FFF754FC40B94FF07A
:1014D000E023D3F8F03DDA0700D500BE002070BD50
:1014E0002846FCE700F07F0304EB430404EBD01034
:1014F00090F820305B07F1D590F8203013F001020E
:10150000ECD190F8203062F3820380F82030E5E7D8
:10151000E0200020282100200C2100200C150020B4
:1015200070B505890389428986889BB292B293423D
:1015300036BFC2EB46029B1A9B189BB29E420446E2
:10154000ADB217D8C079C00914D170BD801B80B26C
:10155000B042FBD2E2882368C2F30E0202FB0030E5
:1015600002F0D0FDA08801222946FEF7D5FE208199
:101570000120EAE72846EBE72DE9F0434378023BF8
:1015800085B004460E46042B00F28280DFE803F0AB
:1015900071038B93BB00604FDFF88C813A78DFF8E2
:1015A0008C9100252B46AA4240F28E80D9F800305B
:1015B00013EB451340F08B803A780135EDB2511CA6
:1015C000A9422B46EFDA554F3B78580724D53B7894
:1015D0006FF382033B700023CDF80630CDF80A305C
:1015E000ADF80E3023788DF8043005238DF80530E2
:1015F0004B4BD3F8008008F10405002E6FD028462D
:1016000001A9FFF78DFF054635B94FF0E023D3F868
:10161000F03DD90700D500BEFB78DA0726D50023B8
:10162000CDF80630CDF80A30ADF80E3023788DF8BD
:10163000043003238DF8053063680293384B1D682E
:101640002C1D002E59D130462B68984701A9204601
:10165000FFF766FF2B6804460120984734B94FF026
:10166000E023D3F8F03DDB0700D500BE05B0BDE8B0
:10167000F0832A4B1A786FF300021A701A7800214F
:101680006FF341021A7059701A7861F382021A706E
:10169000234B1D682F1D002E3AD130462B689847EA
:1016A00021463846D4E71D4B1A78D707DED51A787D
:1016B00042F00402EBE7194A1378DD07D6D5137818
:1016C0006FF382031370E3E79B1A08EB4313DB69A4
:1016D000002B3FF471AF6168207898476CE7D8F829
:1016E00000303046984701A92846FFF719FFD8F87F
:1016F000003005460120984786E701A92046FFF7FC
:101700000FFF0446AAE7074A13780133DBB2D9E793
:1017100021463846F3E700BFD0200020E02000201B
:10172000D4200020D8200020604F0008CC200020CA
:101730002DE9F04F4FF0A0498BB0D9F84830D9F8D7
:101740004830764DC3F38323013380F001060193C3
:1017500033017602DBB24E440746039306F510666A
:101760000024039AD9F818382244D340DA0753D515
:101770006301049306EB4413012FD3F80880C3F8E8
:101780000880E2B240F0958018F0010F0AD0002CDA
:101790004CD1634B5B88002B48D03A46214620460B
:1017A000FFF714F818F0800F36D04FF0A0434FF039
:1017B0000108D3F8343808FA04F818EA030F2BD0DC
:1017C000630103F1A04B2103DBF8103901F1A041C3
:1017D000C3F3C943029301F580514FF0000A029A06
:1017E0001FFA8AF39A420DD9DBF810296B8B4D480A
:1017F00092B29A4228BF1A46DBF8183900EA8303EE
:101800009A4225D9049B4FF0A0421344D3F81039D3
:10181000C3F31203002B45D0019A0134E3B29A427C
:1018200005F120059DD80BB0BDE8F08F2B8B0993F7
:101830004FF4E061ADF81C1062F07F02002301213B
:1018400007A88DF820208DF82130FFF795FEA9E735
:10185000686938B101230591FFF787FD05990AF101
:10186000010ABCE72B69900803EB8000984214D171
:1018700012F0030C5FFA82FE0BD01EF0020F1878F4
:1018800018BF1888BCF1030F04BF9B7840EA0340DF
:1018900008602B6913442B61E1E753F804CBC1F8CE
:1018A00000C0E3E7D2F8343823EA0803C2F834383A
:1018B000B2E718F0080F5FFA88F30ED04FF4C06358
:1018C000ADF81C30184B93E803000AAB03E90300A2
:1018D000012107A8FFF750FE9EE7DB079CD528F4FF
:1018E000FF4828F05F081FFA88F3002B94D144B911
:1018F0000B4B1B882BB1224621462046FEF766FF84
:101900008AE72B8909934FF4E0610023ADF81C109E
:101910008DF820208DF82130DAE700BF8C150020EB
:10192000C4200020FCFF03006C0400202DE9F04FD0
:101930001546C2790689848888464189D20985B0CE
:101940000746B6B289B214D18E4236BFC1EB44010C
:10195000711A891989B2A14280F09880611A89B2FE
:101960008D4228BF0D46002D4BD1284605B0BDE85D
:10197000F08FA54209D32BB9C2882D1BC2F30E02EA
:1019800002FB05880E462546EDE78E424FEA4400ED
:1019900036BF421A721A921992B22A448242E2DB8C
:1019A000621B92B22046FEF7B7FC0646DBE7AAEBC5
:1019B000040A1FFA8AFAA245F9D2FA883868A4EB19
:1019C0000A092C1BC2F30E0154441FFA89FC14FBB4
:1019D00001F419FB01F9012B0A461FFA89F9A4B297
:1019E00001FB0A0A19D065450DD86A4341465046A5
:1019F00002F088FBB8882A463146FEF78DFC388114
:101A0000B3E7B246D7E74A464146504602F07AFB72
:101A10003868224608EB0901EAE7654507D815FB57
:101A200001F292B241465046FFF774FCE2E729F01A
:101A300003039BB21A46414650460193FFF76AFCE6
:101A400019F0030920D0019BD8F800200392C9F1B6
:101A5000040B1FFA8BFBA3454A4603A90AEB0300BC
:101A600028BFA34602F04EFB3B6803A95A464944EF
:101A7000184602F047FBA4EB0B04A4B25844002C18
:101A8000B8D022464146CFE73868F8E700256CE732
:101A90002DE9F041334C1D46E3788B420E460DD1C3
:101AA000AAB2BAB9304BE3B9304B8BBBFFF7D8F9C8
:101AB000A378B34236D00120BDE8F081A3788B42F1
:101AC000F6D04FF0E023D3F8F03DDB0700D500BEA1
:101AD0000020F1E72649002304F11000FFF726FF5C
:101AE000E0E76379FF2BDFD0214F07EB0508B8450E
:101AF000DAD0617917F8013B9942F8D1228B638BD8
:101B000092B29BB29A42F2D00020AFF30080EEE78F
:101B1000228B638B92B29BB29A42C7D00020AFF364
:101B20000080C3E7134B13B10020AFF30080FFF731
:101B3000ADFC0028BFD11048FEF7FAFB0028BAD14F
:101B4000002DB8D015F03F05B5D1A078FFF7C8F843
:101B50000028B0D0A0782A462946FFF70BF90028C4
:101B6000A9D1AEE70C210020000000000000000019
:101B7000CC140020000000002821002010B5A1B1E5
:101B80004FF6FF728A4228BF0A460023014692B2EE
:101B90000748FFF7CBFE04460548FEF7C9FB3F2880
:101BA00001D9FFF773FC204610BD0C46F4E700BFD7
:101BB0002821002013B50DF10700FEF747FC9DF822
:101BC00007407CB100F1006303F5004307495C68FE
:101BD000B4F5EE7F28BF4FF4EE740144224604486A
:101BE00002F090FA204602B010BD00BF0880000845
:101BF000E41E002070B40B4C0B4EA26BA3689B1A22
:101C0000A362032384F8303004F120030FCB354660
:101C100007C52B7094F82E0031460D2270BCFFF7DB
:101C2000A9B800BF8C1400208C0400202DE9F743D4
:101C30001546FFF75BFA07460E4600244FF0FF39C2
:101C4000A5420CD92A1B032A06EB040104EB070862
:101C50000AD9325900234046FFF7A6FA58B1FFF7D8
:101C60003DFA03B0BDE8F08301A8CDF8049002F07E
:101C700049FA019AEEE74FF0FF30FEF7E7FC043433
:101C8000DEE7000010B5114B9989DA8993F900005D
:101C90008C1AA4B2402C28BF402400280DDA9142AF
:101CA00011D099680A48224602F02CFA802008498F
:101CB0002246BDE81040FFF75DB891424FF00000AA
:101CC000F5D10146F4E780200021F1E7B0160020AD
:101CD0004C15002070B50346124D00680C4659683B
:101CE000AC602E4603C60021E981D9888A4228BF0C
:101CF0000A46AA81D98881B14AB144B94FF0E0239C
:101D0000D3F8F03DDB0700D500BE002004E0FFF76C
:101D1000B9FF0028F2D0012070BD1878FFF7F6F95E
:101D2000F7E700BFB01600202DE9F04FDFF88482FE
:101D300091B09A4B1D6800202B689847AB89E989C0
:101D400028899BB289B28B4236BFC1EB40025A1A36
:101D5000D21894B29CB1A04205D283422CBF1B1A68
:101D60001B1899B2E981884225D96A896B68C2F348
:101D70000E0202FB013105A802F0C4F90124E98931
:101D80002889224689B2FEF7C7FA2B68E88101202C
:101D90009847002C40D09DF81530013B072B00F2EE
:101DA000C883DFE813F00B00190049043D043D042B
:101DB0002F00A6034104091A89B2D4E79DF8140044
:101DC000FFF720FA76481422002102F08BF99DF8E3
:101DD000183088F80230ACE79DF81400FFF712FACB
:101DE000002114226E4802F07DF96E4B0222012080
:101DF0001A60FEF7EFFA6C4A6C4B118892781980E2
:101E00009A7096E76A4A13784BB94FF0E023D3F8FB
:101E1000F03DDA0700D500BE11B0BDE8F08F1378B1
:101E2000013BDBB21370127802F0FF03002A80D16D
:101E3000604C5B4E2278336142F00102227094F8CC
:101E400020209DF8145063F3000284F8202094F8B9
:101E5000202063F3820284F8202094F8212063F389
:101E6000000284F8212094F8212063F3820284F890
:101E700021209DF8182002F06003602B07D14FF05D
:101E8000E023D3F8F03DD90705D500BE03E0402B91
:101E90000CD1494B33619DF814000021FEF732FD4F
:101EA0009DF814008021FEF72DFD42E702F01F028D
:101EB000012A00F06782022A00F09782002ADED110
:101EC000202B1BD19DF81C300F2BE4D83B4A234418
:101ED00012781B79934209D2394A116811EB4311E8
:101EE000D9D006AA2846FEF749FA98E1511C994232
:101EF000D1DB34499B1A01EB4311F2E7002BBED131
:101F00009DF81920092ABAD801A151F822F000BF82
:101F100067230008552300087F1E0008412300089E
:101F20007F1E0008391F0008E52100087F1E0008F9
:101F3000931F0008D51F0008012D98BF2B461B01D9
:101F4000214ADDE90601D258D2F80038C6E900017D
:101F50009DF81A1023F4FE6343EA0113C2F8003817
:101F60000027C6E90277FEF711FA184B5A8B4AB1DF
:101F7000C3E904771F83164B0122394628465F8048
:101F8000FEF724FCFEF705FA237843F002032370E2
:101F9000CFE663788DF830300122EEE1D4200020C6
:101FA000B0160020DC200020804C0008D920002042
:101FB000D8200020E020002077030008D020002057
:101FC000CC200020604F0008404F00088C150020F6
:101FD000C42000209DF81A906378994500F0918004
:101FE0006378002B50D0022D34BF2A460022A64B26
:101FF000DFF8D0B2120100279E588BF80770B26943
:1020000003EB051322F00802B26193F808A0FEF773
:10201000BDF94FF001139D4A8BF80670C6F81C38C5
:102020000121CBB29A451AD906EB41132032D3F8DD
:1020300000090028BEBFD3F8000940F09040C3F863
:1020400000095783D3F8000B0028BEBFD3F8000B5C
:1020500040F09040C3F8000B01315781E1E74FF4A5
:102060008463336133699B06FCD410233361336985
:10207000DF06FCD42846FEF78BFBFEF78AF9A6782C
:102080002846FFF7BFF8A67084F80190B9F1000F59
:1020900000F09F807E494B78022B10D04FF0E02358
:1020A000D3F8F03DDE0700D500BE4FF0E023D3F8B3
:1020B000F03DDD0700D500BE00236370EBE6CB7971
:1020C000DFF804A2C3F38012C3F340131B0143EAF9
:1020D0004213227822F03002134323704B880B44C2
:1020E00001930931019B8B420FD86A4B01220520D5
:1020F0001A60FEF76FF9684B684A11889278198068
:102100009A7006A8FFF70AF813E64B780B2B03BF6B
:102110000B7891F80390C9184FF001094B78042B04
:10212000BCD1019B9AF800605A1A002792B2BB46B4
:10213000B74227D25A4B1E6816EB4716AED033690A
:102140002846CDE9021298470828DDE9021237D95E
:10215000824235D3B9F1010F05D13269514B9A4210
:1021600008BF4FF002090022D3B2994510D84E4E55
:102170000844884217D89AF8003001335B458DDB5C
:102180000146AFE7494BABEB060603EB4616D6E735
:102190008E78334454FA83F301321E79FF2E7FF494
:1021A0007DAF1F71E0E74B78052B06D18B7803F0EC
:1021B0007F0206EB4202DB09D7540B781944D8E7BB
:1021C0009AF800600137FFB2731C9F42BB46AFDD37
:1021D00064E7304B022201201A60FEF7FBF82E4B19
:1021E000334A8AE7BDF81A30190A4A1E062A3FF612
:1021F00052AE01A050F822F0152200082722000854
:1022000035220008971E0008971E0008971E000838
:10221000272200082749122206A8FFF75BFD0028A5
:102220007FF487AD37E602297FF435AE224931F8D5
:102230000229F1E713F0FF0318D0032B46D0062B39
:102240003FF629AE1D4A52F823402046FDF7AAFF6B
:10225000C2B2302A28BF3022194B2046A118814231
:1022600009D010F8014B23F8024FF8E7144B40F265
:1022700009425A8001220132D2B21149520042F47D
:1022800040730B80C8E700BF404F00088C1500204A
:10229000B5000020DC200020D9200020834C00085D
:1022A000CC200020290F0008F4200020604F0008F7
:1022B000804C000817010020B7000020144F0008D0
:1022C0004C160020C4200020D0200020BA4BBB4C6C
:1022D000D3F8102A0892D3F8142A0992D3F8183A9E
:1022E0000A930DF1200C0027B54B0CAD03F1100E35
:1022F0002A46186859682E4603C608337345354682
:10230000F7D11CF8015B05F00F0340336B4413F861
:10231000103CA380AA4B18685968164603C60833B8
:1023200073453246F7D110AB03EB1515013715F89D
:10233000103C63800C2F04F10404D5D118229AE7D5
:10234000BDF81A30012B7FF4A6AD237843F00803C3
:102350002370D6E6BDF81A30012B7FF49CAD2378AC
:102360006FF3C303F4E72378C3F340129B0803F031
:1023700002031343ADF8303002220CA906A8FFF780
:10238000A9FCD6E49DF81C300F2B3FF684AD8D4A96
:10239000234412781B7993421ED28B4A116811EBA9
:1023A00043113FF478AD06AA2846FDF7E7FF002861
:1023B0007FF4BFAC9DF8183013F060037FF46BAD71
:1023C0009DF81920A2F10A0101293FF664AD0A2AFD
:1023D00033617FF496AEDDE5511C9942FFF65BADAB
:1023E0007A499B1A01EB4311DDE79DF81C0000F0D0
:1023F0007F0105293FF643AD04EB410707EBD017FA
:102400004FEAD01E97F814C06E4F3F78BC454FEA94
:10241000410215D26C4F3F6807EB4C171BBB9DF870
:10242000193003F0FD0CBCF1010F20D0002B7FF41C
:1024300026AD2244724492F82030C3F3400399E75A
:1024400007F10109E14509DBACEB070C5F4F07EB36
:102450004C17002BE3D006AA394643E5002B7FF446
:102460001AAD0027DBE7002F3FF415ADF3E7BDF809
:102470001AC0BCF1000F29D1012B37D1544B1B7866
:10248000022B8EF0010028BF002301EB00111B017D
:102490005048C35803EB4113D3F8001921F400113D
:1024A000C3F80019D3F8001941F08051C3F800199E
:1024B000A318734493F820206CF3410283F8202082
:1024C00093F820206CF3000283F82020002F3FF4C3
:1024D00030AC06AA39462846FDF750FF0023336189
:1024E00094F82130D8073FF524AC0AE6FEF722FC29
:1024F000ECE79DF8181001F07F0008EB400303EBB8
:10250000D113CF0993F820206FF3000283F8202025
:1025100093F820206FF3820283F82020002862D1F4
:102520002D4C9DF814602378079DB7EBD31F14D072
:102530004DB14FF0E023D3F8F03DDB077FF5F9AB69
:1025400000BEFFF7F6BB2369002B3FF4F2AB224637
:10255000032130469847FFF7ECBB94F90030A068A0
:10256000002B06DB00283FF4E4AB1C492A4601F0AF
:10257000C9FDA268E3892A442B44A260E2889BB289
:102580009A42E38101D03F2D2AD8236933B92078BC
:10259000FEF7BCFD00287FF4CCABCAE702210E4A4F
:1025A0003046984701460028F1D13046FEF7AAF997
:1025B0008021304677E400BF0070FF1F4C160020DA
:1025C000894C0008D0200020CC200020604F00085B
:1025D000C4020020404F0008B01600204C15002017
:1025E000FFF750FBD6E71A7D154B1B789A420ED2A7
:1025F000144B1B6813EB42133FF407AC9C699DF826
:102600001920079B9DF81400A047FFF792BB581CA8
:102610009042FFF6FAABD21A0B4B03EB4213EDE7F5
:1026200098F80030FFF785BB069B002B3FF481AB89
:1026300007989847FFF77DBB98F80330FFF779BB01
:10264000D0200020CC200020604F000873B5FEF79A
:102650004DFD104E04242E252046FEF7E7FB4FF0DB
:10266000FF30FDF7F3FF01210DF107008DF8075052
:10267000FFF784FAFEF70AFF3378FF2B01D0FFF74C
:1026800053FB01340C2CE7D102B0BDE87040FEF7DB
:1026900025BD00BFC4020020F8B50546FDF782FD48
:1026A0000C4F044694B10C4E04E03B78FF2B01D054
:1026B000FFF73AFB3046FDF74CFE0028F5D02146E7
:1026C0002846FFF75BFA0544241AEBE7BDE8F8401B
:1026D000FEF7DCBEC40200202821002010B51378CC
:1026E00003F06003202B10464FD1294A84881378C9
:1026F0009C424AD14378203B032B46D8DFE803F0C5
:1027000002141739012905D122490722FFF7E2FAFD
:10271000012010BD0329FBD11F4B002BF8D01D4910
:102720000020AFF30080F3E70129F1D1ECE70129A4
:1027300002D1FEF7F3FCEBE70329E9D143881371DB
:1027400003F0010192F8233081F00100B0EBD31FB8
:102750001CBF60F3C71382F823300029D8D00F487C
:10276000FFF79AFF0E48FFF797FF0E4B00221A70F3
:10277000CEE70129DDD00329CAD10B4B002BC7D0EE
:1027800041880020AFF30080C2E70020C1E700BF0E
:102790000C21002014210020000000009A4C0008A9
:1027A000B54C00083422002000000000012913B5B8
:1027B000144613D1137803F07F02022A3ED16278C7
:1027C000012A3BD16288002A38D1384AA08892F881
:1027D0003030042BC0B203D1FEF7ACFA012011E077
:1027E00092F82E1081420FD1022BF7D1FFF702FA97
:1027F0000028F3D14FF0E023D3F8F03DDB0700D5FC
:1028000000BE002002B010BD92F82F208242E5D118
:10281000002BE3D1264B00F07F0203EB420303EBD6
:10282000D01393F82020D107D8D493F820309A07FA
:10283000D4D420491F22FEF79DFAD9E703F06003A4
:10284000202BDED16378FE2B14D0FF2BD9D16388E7
:10285000002BD6D1E1888AB2002AD2D1134B204670
:10286000C3E90D2283F83020998783F83E20FEF7D4
:1028700055FCB3E76388002BC3D1E388012BC0D19B
:102880008DF807300C4B1BB1AFF300808DF80700BB
:102890009DF80730002BB4D0013B01220DF1070158
:1028A00020468DF80730FFF715FA97E78C140020C3
:1028B000E02000208C040020000000002DE9F04FF3
:1028C000DFF84C838BB0B8F81630D8F80870049055
:1028D00023B15BBA9BB2B7FBF3F39BB2D8F8386075
:1028E000D8F81150B6FBF3F2B91BB1F5805F28BFE1
:1028F0004FF480512DBA03FB1266154401910A462C
:10290000B948002101F0EEFBD6B9B84C019AB242A9
:10291000A4F1200323D898F82E00002E00F0528155
:10292000B149B2B2FEF726FA002840F05A814FF0C2
:10293000E023D3F8F03DDB0740F1538100BE50E1C6
:102940004FF0E023D3F8F03DDB0700D500BEFEF7E3
:10295000C7F801200BB0BDE8F04FFEF769BB184681
:102960004FF40072002101F0BDFB0346EDB9A04A0F
:1029700002F1380E106851689C46ACE8030008323A
:1029800072456346F6D11068CCF800009288ACF826
:102990000420552384F8DE31AA2384F8DF31013581
:1029A00006F5007604F50074B0E7B5F5017F40D870
:1029B000681E904AB0F5817F28BF6FF4817CB2F821
:1029C0005EE028BF05EB0C0001020EF1010EA4F140
:1029D000220901F5807A0A46724538BF02F1010CDE
:1029E00002F1010234BF1FFA8CFC4FF0000C52457B
:1029F00029F802CFF0D148B9F82204F8202CFF22A0
:102A000004F81F2C4FF6FF7224F81E2CDFF8E4C1E7
:102A100004204FF6FF7EBCF81620914204D8521ACB
:102A2000FF2A98BF23F812E001380CF1180CF2D1FC
:102A3000B5E7B5F5027F5DD840F2052295424FD14A
:102A40006D49A4F115000A78002A47D0013103F836
:102A5000012B8342F7D12822234604F8152C0021AC
:102A6000664A64481268120A52020392182202FB54
:102A700001004FF0000A42F6AC5B45F6DE4C03293C
:102A80008DD8828A029203F10B021F46814605927D
:102A900099F800E0BEF1000F27D009F101093A468C
:102AA00002F801EB1746059A9742F1D1029A5A8330
:102AB000C26883F80DA0A3F80EB0A3F810C0A3F865
:102AC00012C0A3F814A0A3F816B0A3F818C07AB1E6
:102AD0000269DA61013120331830D0E72022B6E7ED
:102AE0002901A1F501511139BAE74FF0200ED6E7BF
:102AF000039AEEE7424A95423FF651AF3D486FF4E4
:102B00000277EA1900218646A5F2072CB0F8149046
:102B1000E14503D8B0F81690E14505D2013104290A
:102B200000F11800F2D10321182000FB01E0032975
:102B3000B0F814C0A2EB0C0202F1020C12D0026930
:102B4000B2EB4C2F4FEA4C217FF629AF521AC068E6
:102B5000B2F5007F014428BF4FF40072184601F01F
:102B6000D1FA1CE702F50023244A126803F58173A9
:102B700002F10060B0EB032F4FEA03217FF60FAFA5
:102B8000204B44F8203C03F1144303F52C1303F6C7
:102B9000023344F81C3C1C4BC4F8DC31120A4FF4DD
:102BA000005344F8082C44F8183C4FF48072174B3B
:102BB00044F80CCC44F8141C44F8102C44F8043CA1
:102BC0002046CCE7049B8DF81C308DF820000723AD
:102BD000314607A88DF81D3009968DF82160FEF763
:102BE000CBFC0BB0BDE8F08F8C040020AC040020BF
:102BF00077000020C8020020A2000020C020002092
:102C0000080101005546320A306FB10A575A75570C
:102C10008C1400202DE9F04FAF4C94F83090B9F1AE
:102C2000010F95B084468E461F4600F0C481B9F16D
:102C3000030F00F0D582B9F1000F50D194F82F3076
:102C40008B4268D1DFF8A0821F2FD8F800204746BA
:102C500002D1A24B9A420ED094F82E00042384F89D
:102C60003030FEF767F894F82F00FEF763F8002085
:102C700015B0BDE8F08F46460FCE25460FC596E845
:102C80000F0007C525F8023B1B0C2B70944B2362E9
:102C90006368A26884F82C90C4E90939012384F898
:102CA0003030E37B282BC4E90D290ED1E38A82B1B1
:102CB000217BC90910D0002B41D05BBA9BB29A424C
:102CC0000AD36046FFF7FAFD09E02A2B30D1E38AE8
:102CD0001ABB002B00F06B810220FEF7A9F994F8D3
:102CE0003030022B17D194F82E007E4B00F07F027B
:102CF00003EB420303EBD01393F820309B070AD475
:102D0000A268A36B9A4240F29182237BDB0900F018
:102D10008D82FEF70FF80120AAE7217BC909DBD1DC
:102D20006BB15BBA9BB29A42D6D3FEF7A7F9D6E74E
:102D3000B2B1217BC90913D1B2F5805F01D901205D
:102D4000CBE7694992B27046FEF714F80028C6D165
:102D50004FF0E023D3F8F03DDE0788D500BE86E7CC
:102D6000252B94F80D9009D8192B1CD8032B00F0B3
:102D7000E380122B6DD0002B00F0158194F83C20DD
:102D8000002ADCD1E17B636B1E2900F00C8184F802
:102D90003E2098B24FF6FF7242F205019042A187A1
:102DA00040F0FE8037E01A3B0B2BE7D801A252F827
:102DB00023F000BF052F0008A72F00087D2D000875
:102DC0007D2D0008E52D00087D2D00087D2D0008D3
:102DD0007D2D00087D2D00082F2E00087D2D000878
:102DE0000B2E0008414B002B00F0DD80227DE17CA2
:102DF0004846AFF30080002840F0D58094F83C307E
:102E0000002BBBD1FDF76CFEB8E7394D4FF4003312
:102E1000C8E900530820A368002B90D0984228BF2F
:102E20001846606382B2304994F82E008CE74FF068
:102E300000630B9303F1012303F580330C934FF0F0
:102E400002130D930BAB93E8070087E807000C20F3
:102E5000E1E72848284A1F23CDE90B0342F220036B
:102E600010685168ADF84A3020238DF84F3004AB1C
:102E700003C3127A1A70214B07AA03F108070DF158
:102E8000100C164618685968154603C50833BB422E
:102E90002A46F7D1186899889B792860AB71A98078
:102EA0009CE803000DAB83E80300154F039796E8F9
:102EB0000F000FAD07C52B803023ADF84C708DF897
:102EC0004E300BAE0FCE084D0FC50FCE0FC5336879
:102ED0002B6024209FE700BF8C14002055534243F1
:102EE00055534253E02000208C04002000000000D5
:102EF0000001010800800202D24C0008DB4C0008EF
:102F0000312E30000B9B03F4000343F003030B93BB
:102F1000A74B7BB14846AFF300809DF82E3080F080
:102F2000010060F3C7138DF82E300B9BC8F80030FA
:102F3000042070E70120F0E794F83C5094F83E60DC
:102F400094F83D70122200210BA801F0CBF8F02379
:102F50008DF82C3005F00F050A238DF82E508DF8D2
:102F600039608DF833308DF838700BAD0FCD914E40
:102F70000FC62B683380904B23B9A38784F83E306B
:102F8000122048E74FF48052A6F110014846AFF3F3
:102F9000008000230028A38784F83E30FFF6EEAEC1
:102FA00000287FF438AFA368002B7FF4C8AE02235B
:102FB00084F8303093E6B3F5805F3FF6C9AEE17B2D
:102FC000282906D1A36B626B3B449342A363EED2E4
:102FD00077E62A2940F0D280784D4FF000094F451E
:102FE00006D8A36B626B3B449342A363DFD29CE69B
:102FF00055F8203C724A934238D102F1144255F8F8
:103000001C3C02F52C1202F6023293422ED1D5F866
:10301000DC216C4B9A4229D155F8186CF10725D464
:1030200016F4405F22D016F4805B24D055F8106C63
:10303000B6F5EE7F1AD26448A91910F8012B002AC0
:1030400000F0FA8011F8013B83B1A2F1410CBCF110
:10305000190F98BF2032A3F1410C98BFD2B2BCF136
:10306000190F9CBF2033DBB29A42E6D009F50079F4
:1030700005F50075B3E755F8043C544A9342F5D181
:1030800055E9058AFEF732F8514B98452ED2514B3F
:1030900001221A700CE052F8041F03EB010CE0450A
:1030A00012D363460130182802D0B3F1016FF2D376
:1030B0002E1F4FF0000BDA4524DC524629464046CD
:1030C00001F000F840B325E0DFF808C11CF800204B
:1030D0004FF0010E0CF800E0002AE9D19142E7D947
:1030E0009E58013640F003810432F7E73A4A5846C9
:1030F000D8E753F80B200132DAD10BF1040B594514
:10310000F7D8D5E756F8042F00230BEB0800FEF79D
:103110004BF850B3FDF782F9FDF7E0FF55F8082CA6
:10312000002AA3D02D4B19688A4207D044F26300CD
:10313000824200D809B14FF0FF321A6055F80C2CCA
:1031400044F263018A4291D802F0070003EBD202F5
:103150000121567A81403142C8B287D140EA060146
:1031600051725A6801325A6080E74FF0FF30FDF724
:103170006DFA0028CED10BF1040B9CE7A36B227BE8
:103180003B44D209A36306D11E291EBF42F20501AA
:10319000A18784F83E20626B9342BFF408AF4FF0E2
:1031A000E023D3F8F03DDA077FF599AD00BE96E550
:1031B000000000008C04002000000000AC0400208F
:1031C0005546320A306FB10AE04E0008575A75571B
:1031D0000040000874040020804E0008C41600203F
:1031E00094F82E308B427FF47AAD0D2F7FF477ADBB
:1031F000E37B282B09D02A2B14D0424B53B1607BA0
:1032000004F10F01AFF3008004E03F4B13B1607B8A
:10321000AFF3008000233D4994F82F0084F830304C
:103220001F2291E5607BFDF78BFFF3E7FEF7E2FCE1
:1032300000287FF470AD8BE50B78002B7FF416AF80
:1032400055F80C0C55F8148CC0BBDFF8CCA000F17D
:10325000006303F500431A6852450ED15B685A1E9D
:10326000B2F5804F09D2033323F003030833184427
:1032700000F10803B3F5804FE9D355F804BC0BF116
:10328000030222F0030208320244B2F5804F0BD948
:103290000220FDF72BFFFDF7C9FD4FF0FF30FDF7D2
:1032A000D5F9FDF71BFF002000F1006008220BA9F3
:1032B00000F50040CDE90BABFEF7B8FC0BA8FDF71D
:1032C000C5F8134B4344324618442946FEF7AEFC7A
:1032D00055F80C3C55F8082C01339342FFF4C6AE68
:1032E000FEF768FC0B4B1864FCF7FEFFBEE6CDE969
:1032F0000031FDF79BFD4FF0FF30FDF7A7F9DDE949
:103300000031FCE600000000000000008C040020FA
:1033100008800008C802002043494E4980B59EB08D
:103320001D4B002108911A6C42F080521A641A6CED
:1033300002F080520892089A184A0791116841F4E5
:1033400080411160126802F480420792079A9A68DD
:1033500002F00C02042A29D11B680F4B9A6802F074
:103360000C02082A00F0BC810D4A002111660D4AAA
:10337000106819688D0100F177810B495960084B7D
:1033800001211966106804490B689C0122D4136856
:103390001B1A022BF8D91DE00038024000700040D3
:1033A00000004742DC1E0020085440079A6802F0E3
:1033B0000C02082A00F053811A68AE4942F48032A8
:1033C0001A60AD4A10680B689E03C6D413681B1AB6
:1033D000642BF8D9A94B1A6802F00F02042A40F2B4
:1033E0008181A4498B6843F4E0538B608B6843F47C
:1033F00060438B608B6823F0F0038B600B6898014F
:1034000000F179819B4B9A6802F00C02042A00F0CB
:103410000282082A40F0018259685A685B684902B2
:10342000C3F388134CBF9649964902F03F02B1FBA3
:10343000F2F253438F4A5268C2F301420132520002
:10344000B3FBF2F38B4990488A68C2F3031200245D
:10345000825C8E48D3408E4A1360FCF7D7FF0694F7
:103460000B6B43F001030B630B6B03F0010306933B
:10347000069B05940B6B43F002030B630B6B03F08D
:1034800002030593059B04940B6B43F004030B6349
:103490000B6B03F004030493049B03940B6B43F046
:1034A00008030B630B6B03F008030393039B4FF4B8
:1034B0000063CDE90A34012502230AA9CDE90C53A2
:1034C000FCF7EAFF2023CDE90A35FCF7E5FF2046AB
:1034D000FCF776FF6F4B0BB1AFF300806E4B6F4A7A
:1034E00019685B680A40B2F1005F0FD103F17743BE
:1034F00003F57F03B3F5801F08D8694B002B40F01C
:103500008E81624B1B691B0500F18F814FF4C05304
:103510000A93032300240D930223CDE90B34614861
:10352000614F624D0A230AA90E93FCF7B5FF4FF4D1
:10353000806E1223CDE90AE301230C93FCF7ACFF64
:103540004C4B5A6B42F080025A6309945A6C42F415
:1035500080425A645B6C4FF0A04203F480430993AD
:10356000099B936B43F400139363514B4FF4801208
:103570001A6038464FF40013AB65FCF713FEC0F534
:10358000BF730133082B044631D94A4B07EB000CBB
:103590000AAA03F1100E18685968164603C60833C4
:1035A00073453246F7D11B7833700CF1FF311C2282
:1035B0004FF4801020FA02F303F00F0378336B44CA
:1035C000043A13F8503C01F8013F161DF2D10023D4
:1035D0008CF80830C4F5BB730133062B04F10800E6
:1035E00040F297813449384400F084FD0E342C6158
:1035F000FEF7E0FA2864314DFCF776FE2B78FF2BBE
:1036000040F052822C222E482E4E002100F06AFDFE
:103610002D4B00221A702D4BDA819A812C4A1360AF
:103620002C4B23B13046AFF300802B4B18600023A6
:1036300032782A4FDFF8A0801C46944280F06B81DC
:10364000D8F8003013EB441340F068814FF0E023CA
:10365000D3F8F03DDC0740F1278200BE24E25A682F
:1036600057027FF5A9AE77E61168091A02297FF69D
:1036700080AEAFE600380240DC1E0020003C024075
:1036800000127A000024F400304F000800040240C9
:10369000300100200000000000000108030000FFCE
:1036A000000000000000024034010020C802002099
:1036B000C0200020894C0008EA4C0008C402002009
:1036C000E0200020D0200020D8200020B4020020DC
:1036D000D420002000000000CC200020604F000813
:1036E0005B6877E605221A701B6803F00F039342AC
:1036F0003FF477AE86E68B68A44A23F0030343F0D9
:1037000002038B60106841F288348B6803F00C036D
:10371000082B55D19E4B1A6802F00F02052A54D887
:103720008B6823F4E05343F4A0538B608B6823F43D
:10373000604343F400438B608B6803F00C03042B5D
:1037400067D0082B4AD09348934B944A9B68944C7B
:10375000C3F303132168D35CD840924B18604FF435
:103760007A73B0FBF3F00138B0F1807FBFF44AAE5A
:103770004FF0E023F02258618B48072580F8232082
:103780000F294FF000029A611D613FF63BAEC368FE
:10379000C3F30223E81A042803F1040528BF042018
:1037A000062D88BFDA1E4FF0FF33834021EA030362
:1037B00093401B017C4ADBB282F82330216021E672
:1037C00013681B1AA342A0D91CE605221A701B68B5
:1037D00003F00F0393427FF415AEA1E74A684B68EC
:1037E000496813F4800314BF70486A48C1F3881114
:1037F00018BF002302F03F02A1FB0001FCF730FDDF
:10380000654B5B68C3F3014301335B00B0FBF3F02E
:103810009AE7664898E7654B14E65E4B12E6AFF30D
:10382000008000287FF46DAE70E6614C614B226829
:103830009A422FD0604B9A424FF0000304D05F4968
:103840008A4215D1236061E623605D4C0323192071
:103850002360FCF7BFFD5B4A5B4B118892781980AF
:103860009A70FEF7F3FE04232360FCF7CFFD4DE6CC
:10387000564D216001202B60FCF7ACFDFF20FCF7CA
:103880009FFD2B68B3F5FA7FFBD30020FCF7BEFD4C
:10389000FCF796FD002323604D4B0BB1AFF3008086
:1038A0004C4B0BB1AFF300804B4C4FF400602568DC
:1038B0006668FDF7B3F92020FDF7B0F9364B1A6BB7
:1038C00022F001021A631A6B22F002021A631A6BC9
:1038D00022F004021A631A6B22F008021A634FF0F6
:1038E000E02300221A615A619A614FF0FF32C3F857
:1038F0008021C3F88421C3F88821C3F88C21C3F840
:10390000084DBFF36F8F85F3088885F3098830472A
:10391000FEE704466BE69B1A07EB43135B68002B3C
:103920003FF494AE984732780134E4B2511C8C4293
:1039300023467FF782AE294A00234FF0A04113604F
:1039400053602B708B6C0B6C254A1B0C1B04934231
:103950004AD0244A934247D002F58032934243D062
:103960004FF0E023D3F8F02DD20700D500BED3F8F6
:10397000F03DDB0700D500BE4FF0E023D3F8F02D7B
:10398000D6077FF565AE00BE62E600BFDC1E0020F4
:10399000003C02400024F40000380240304F000890
:1039A0002C0100203001002000ED00E000127A0020
:1039B000FCFF0020EF6926F0B40AE8F5EF6916F085
:1039C000DC200020864C0008D9200020E01E0020CA
:1039D000000000000000000000000108C4200020DA
:1039E0000000544F000031558B6823F001038B60B9
:1039F000CC6844F04003CB608B6B24F4705443F4E8
:103A000080338B634FF0A04044F4A254FCF7FEFFD8
:103A1000CC60FDF719F8CB6843F00703CB60D1F811
:103A2000003E23F00F03C1F8003E4FF484630B61A6
:103A300003699F06FCD4102303614FF0A04318696B
:103A400010F01000FBD14FF0FF325A615A609861BC
:103A50009A6942F010029A61D3F8002842F00702F6
:103A6000C3F80028D3F8042842F00202C3F804285F
:103A7000DA6822F0C04242F08042DA601A6822F02E
:103A8000D00242F0C0021A609969764A0A439A61EC
:103A90009A6842F081029A60D3F8042822F0020268
:103AA000C3F80428FCF7F6FE6F4B704C022201208D
:103AB0001A60FCF78FFC6E4A6E4B11889278198061
:103AC0009A706D4E6D4F07F110082B78FF2B01D0C7
:103AD000FEF72AF97378002BF7D033785807F4D41F
:103AE0003B79D907F1D54046FCF722FC0028ECD001
:103AF000634FDFF8F0813846FCF71AFC0028E1D06C
:103B0000002301220AA93846FDF72FFC8146FDF764
:103B1000A7F9B9F1000FD4D09DF828200D2A02D0C2
:103B20000A2A40F0818002214046FEF727F8DFF89C
:103B3000B091FDF7ABFC2378002209F803201BB9F4
:103B40005048FEF7A9FDD6E74F494846FCF720FB51
:103B500020B14E494846FCF71BFBA0B94C48FEF784
:103B60009BFD4C48FEF798FD4B48FEF795FD4B48F2
:103B7000FEF792FD4A48FEF78FFD4248FEF78CFDA6
:103B800000232370B7E747494846FCF701FB30BBE9
:103B90004548FEF781FD454B454A50210AA800F0F3
:103BA0005DFA0AA8FEF778FD424A4FF47073CDE93A
:103BB00000325021404A4FF480630AA800F04EFAC8
:103BC0000AA8FEF769FD4DF2054300933B4A4CF607
:103BD000FE2350210AA800F041FA0AA8CBE7384991
:103BE0004846FCF7D5FA30B93648FEF755FDFEF7E2
:103BF0002DFD3548BFE748463449FCF7C9FA8146F0
:103C000080B93348FEF748FDFDF740FC314ACDF856
:103C100028900A9B934201DDFCF7C0FB0A9B01330D
:103C20000A93F6E72C48A6E7082A237801D07F2AD2
:103C30000BD1002B3FF45FAF013B284823700321D9
:103C4000FDF79CFFFDF722FC55E73E2B3FF653AFF7
:103C5000591C217022498DF82820CA540AA8012134
:103C6000EEE700BF04380080DC2000203422002072
:103C7000804C0008D9200020E02000200C210020EA
:103C80001C210020CF4C0008F14C0008F64C000825
:103C9000F84C0008064D0008224D0008444D00086D
:103CA000694D00088B4D0008904D0008A74D000895
:103CB000B94D000800000108C64D0008EE4D00088F
:103CC000024E0008084E00082F4E0008374E00082C
:103CD0003D4E00089F8601004E4E0008794E0008B8
:103CE000F4210020EB4D0008704700000D4B1A68CE
:103CF00001321A600C4A1268022A09D88AB118687F
:103D00001B68DB05C0B201D5C043C0B2FCF758BB8D
:103D1000032A00D07047186810F0010018BFFF2078
:103D2000F4E77047E01E0020DC2000202DE9F0437E
:103D30004FF0A04385B09D695A691540EE046AD5DD
:103D40004FF480525A619C6CA748C022002100F0B9
:103D5000C9F9A64AC4F3832400230134D3805A014D
:103D600002F1A0420133D2F8001B41F00061C2F819
:103D7000001BDAB29442F2D80022530103F1A043AF
:103D80000132D3F800190029BEBFD3F8001941F061
:103D90009041C3F80019D3B29C42EED84FF0A04333
:103DA0004FF00112C3F81C280922C3F81428C3F8E5
:103DB00010284FF484621A611A699406FCD4102208
:103DC0001A614FF0A044266916F01006FBD1304668
:103DD000FCF7DEFCD4F8003866F30A13C4F80038A8
:103DE000D4F8003923F00303C4F80039D4F8003BB9
:103DF00023F00303C4F8003B7B4B40225A815A83D3
:103E0000A36CD4F8103B43F0C043C4F8103BA36943
:103E100043F44023A361A80419D54FF0A0434FF405
:103E200000525A61D3F8082812F0060FC2F341037A
:103E300000F09080991E4B424B414FF4807201215B
:103E400001A8ADF804208DF80830FDF795FB2A0590
:103E50000CD54FF0A0434FF400625A6101214FF49A
:103E6000806301A8ADF80430FDF786FB002D0CDA65
:103E70004FF0A0434FF000425A6101214FF4A0637C
:103E800001A8ADF80430FDF777FB6B070FD54FF0B5
:103E9000A0435C68670707D54FF40073012101A8B0
:103EA000ADF80430FDF768FB4FF0A0435C602E07CF
:103EB00017D54FF0A04308224C495A61D3F808287F
:103EC000C979C2F30D2219B9996921F008019961E4
:103ED0004FF44073012101A8ADF804300292FDF7C0
:103EE0004BFBEC0645D54FF0A047DFF8FC80BB69E3
:103EF00023F01003BB613C6AC4F34343042B04F07A
:103F00000F0643D0062B27D0022B2BD1C4F30A1463
:103F100044B308EB46134FEA4619586800283FD0CF
:103F2000334901232246FDF701FD08EB09025389BD
:103F3000A34217D909F1A0491389D9F8101B5B1ABC
:103F40009BB2138176B9294A118816805B1AA8F8AA
:103F5000083007E0022370E7254A264B11681960F4
:103F600012685A607B69D906C5D4BB6943F0100357
:103F7000BB612A0302D50020FDF7DAFB6B0330D5C5
:103F8000012005B0BDE8F043FDF7D2BB760106F194
:103F9000A046D6F8103B43F0C043C6F8103BE1E71B
:103FA00058F809301249A20803EB82029A4214D150
:103FB00014F00301E0B20AD00D4A12681A708007AB
:103FC00044BF100A5870032904BF120C9A7058F8A5
:103FD0000930234448F80930A7E7086843F8040B80
:103FE000E4E705B0BDE8F0838C150020C420002074
:103FF000001000506C040020054BD3F8882042F4D8
:104000007002C3F888204FF000629A60704700BFCA
:1040100000ED00E070B50D4D0D4C641BA4100026A2
:10402000A64209D10B4D0C4CFFF75EFE641BA41099
:104030000026A64205D170BD55F8043B98470136CD
:10404000EEE755F8043B98470136F2E7CC4F0008FD
:10405000CC4F0008CC4F0008CC4F00080CB430B552
:10406000174B0C1E1D689DB008DA8B232B604FF098
:10407000FF301DB0BDE8304002B070474FF402730E
:10408000ADF8143014BF04F1FF33234604930793B3
:104090004FF6FF7302900690ADF81630209A21ABD0
:1040A00002A92846019300F097F8431CBCBF8B235C
:1040B0002B60002CDDD0029B00221A70D9E700BFD4
:1040C0002803002010B501390244904201D100209C
:1040D00005E0037811F8014FA34201D0181B10BD71
:1040E0000130F2E702440346934200D1704703F8DF
:1040F000011BF9E7034611F8012B03F8012B002AF5
:10410000F9D170470A44914200F1FF3300D1704762
:1041100010B511F8014B03F8014F9142F9D110BDD0
:104120002DE9F0478E681F46BE420B6882460C465A
:1041300090462DD8B1F90C2012F4906F26D0656905
:10414000096905EB4505A3EB010905EBD5757B1C5A
:104150004B446D109D4238BF1D46530527D5294657
:1041600000F056FB064660B321694A46FFF7CAFFD6
:10417000A38923F4906343F08003A38126616561E2
:104180004E44A5EB09052660A5603E46BE4200D917
:104190003E4620683246414600F0B4FAA3689B1BB5
:1041A000A3602368334423600020BDE8F0872A46DB
:1041B00000F0B2FB06460028E0D12169504600F02D
:1041C000BBFA0C23CAF80030A38943F04003A38153
:1041D0004FF0FF30E9E700002DE9F04F98468B895A
:1041E0001B069DB007460D46144610D50B6973B9E2
:1041F000402100F00DFB2860286130B90C233B60A2
:104200004FF0FF301DB0BDE8F08F40236B610023FD
:10421000099320238DF82930CDF80C803023DFF866
:104220009C818DF82A304FF0010923469A4613F8F5
:10423000012B0AB1252AF9D1BAEB040B0BD05B464E
:10424000224629463846FFF76BFF013000F0A78071
:10425000099A5A4409929AF80030002B00F09F8086
:1042600000234FF0FF32CDE905230AF1010A049340
:1042700007938DF853301A935446052214F8011B06
:104280004E48FBF79DFF049AD8B9D00644BF2023BF
:104290008DF85330110744BF2B238DF853309AF813
:1042A00000302A2B15D0079A544600204FF00A0CF4
:1042B000214611F8013B303B092B4BD9B0B1079295
:1042C00014E0A0EB080309FA03F313430493A24696
:1042D000D2E7039B191D1B680391002BBBBF5B42F8
:1042E00042F0020207930793B8BF049223782E2B63
:1042F0000AD163782A2B32D1039B1A1D1B680392C3
:1043000043EAE37302340593DFF8C0A02178032267
:104310005046FBF755FF38B1049BA0EB0A00402242
:10432000824013430134049314F8011B24488DF890
:1043300028100622FBF744FF002836D0214B1BBB78
:10434000039B073323F0070308330393099B33448C
:1043500009936AE70CFB02320C460120A8E7002310
:104360000134059319464FF00A0C204610F8012B32
:10437000303A092A03D9002BC6D00591C4E70CFBBB
:10438000012104460123F0E703AB00932A460E4BBC
:1043900004A93846AFF30080421C0646D6D1AB894B
:1043A0005B063FF52DAF09982CE703AB00932A4637
:1043B000054B04A9384600F079F8EDE7A04F000856
:1043C000AA4F00080000000021410008A64F000885
:1043D0002DE9F047164698468A680B69DDF820906B
:1043E0009342B8BF1346336091F8432007460C460A
:1043F0000AB1013333602368990642BF3368023340
:104400003360256815F0060506D104F1190AE36842
:1044100032689B1AAB4226DC94F843302268003B9A
:1044200018BF012392062BD404F1430241463846BB
:10443000C84701301ED02368226903F00603042B0D
:1044400002BFE5683368ED1AA3680CBF25EAE5757D
:1044500000259342C4BF9B1AED1800261A34B542BA
:104460001AD1002008E00123524641463846C84789
:10447000013003D14FF0FF30BDE8F0870135C6E7CA
:10448000E1185A1C302081F84300224494F845106A
:1044900082F843100233C7E70123224641463846DB
:1044A000C8470130E6D00136D9E700002DE9FF47C3
:1044B0000F7E0C9E782F914680460C469A4601F15D
:1044C000430207D8622F0AD8002F00F0DD80582F52
:1044D00000F0C38004F1420684F842703AE0A7F18C
:1044E0006303152BF6D801A151F823F045450008C8
:1044F00059450008D5440008D5440008D5440008B3
:10450000D544000859450008D5440008D5440008A2
:10451000D5440008D54400086F460008E745000868
:1045200027460008D5440008D544000891460008F5
:10453000D5440008E7450008D5440008D5440008E4
:104540002F46000833681A1D1B68326004F14206CA
:1045500084F842300123A8E031682368081D3060E8
:104560001E0601D50D6803E05D06FBD5B1F90050CC
:104570006168002D78DA2D20002984F84300A160BD
:104580002DDA5E486D420A231646B5FBF3F103FBB4
:104590001157C75D06F8017D2F46BB420D46F4D981
:1045A000082B0BD12368DF0708D52369616899427E
:1045B000DEBF302306F8013C06F1FF36921B226174
:1045C000CDF800A04B4603AA21464046FFF700FF66
:1045D00001306FD14FF0FF3004B0BDE8F08723F019
:1045E00004032360CDE721683368080653F8045BB1
:1045F00002D4490648BFADB26F2F4048336014BFA4
:104600000A230823002184F843106668A660002E60
:10461000BADB216821F004012160002DB4D1002E05
:10462000B2D11646BCE7236843F020032360344828
:10463000782784F84570236831681F0651F8045BB9
:1046400002D45F0648BFADB23160D90744BF43F022
:10465000200323601DB11023D4E72848E9E723682D
:1046600023F020032360F6E724480A23CDE73368CC
:1046700025686169181D30602E061B6801D5196018
:1046800002E06806FBD5198000232361164697E7F0
:1046900033681A1D32601E68626800213046FBF7DD
:1046A0008FFD08B1801B606063682361002384F87C
:1046B000433085E72369324649464046D0470130BA
:1046C00088D023689B0714D4E068039B9842B8BF46
:1046D000184681E70123324649464046D04701301B
:1046E0003FF478AF0135E36803995B1AAB42F1DC24
:1046F000EAE7002504F11906F5E700BF894C000838
:10470000B14F0008884210B501EB020402D984427F
:10471000234607D8431EA14208D011F8012B03F805
:10472000012FF8E7024401468A4200D110BD13F878
:10473000014D02F8014DF7E738B50546002941D093
:1047400051F8043C0C1F002BB8BFE41800F0D8F857
:104750001D4A136833B9636014602846BDE83840C9
:1047600000F0D4B8A34208D9206821188B4201BFB9
:1047700019685B6809182160EDE71A465B680BB1A0
:10478000A342FAD911685018A0420BD12068014405
:10479000501883421160E0D118685B685360084488
:1047A0001060DAE702D90C232B60D6E720682118C5
:1047B0008B4204BF19685B68636004BF09182160FD
:1047C0005460CAE738BD00BF3C22002070B50F4ED0
:1047D0000C463168054611B900F0CCF8306021462E
:1047E000284600F0C7F8431C03D14FF0FF342046A1
:1047F00070BDC41C24F00304A042F8D0211A28463E
:1048000000F0B8F80130F2D1EFE700BF3822002005
:104810002DE9F041CD1C25F0030508350C2D38BFDE
:104820000C25002D064601DBA94204D90C23336078
:104830000020BDE8F081314F00F062F83B681C4673
:1048400044BB29463046FFF7C1FF431C044650D104
:104850003C682146002941D1002C44D023683046D1
:1048600004EB030800F086F880453CD121686D1AFE
:1048700029463046FFF7AAFF013034D023682B4485
:1048800023603B68002B36D05A68A24229D100220F
:104890005A600EE02268521B1DD40B2A16D96119EA
:1048A000A342256018BF5960636808BF3960625130
:1048B0004B60304600F02AF804F10B00231D20F075
:1048C0000700C21AB5D01B1AA350B2E7A342626810
:1048D000DED13A60EDE723466468B1E70C464968EB
:1048E000B8E71346CEE70C233360304600F00EF8ED
:1048F0009EE70560DDE75B60FFDE00BF3C22002035
:10490000014800F047B800BF40220020014800F0F5
:1049100042B800BF402200202DE9F04180461546F4
:104920000C4621B9BDE8F0411146FFF771BF2AB925
:10493000FFF702FF00242046BDE8F08100F02CF8CC
:104940008542064602D8B5EB500FF4D829464046BA
:10495000FFF75EFF07460028ECD0B5422A46214605
:1049600028BF3246FFF7CEFB21464046FFF7E4FE64
:104970003C46E0E738B5064D0023044608462B6068
:1049800000F070F9431C02D12B6803B1236038BDDD
:10499000442200207047704751F8043C181F002B38
:1049A000BCBF0B58C01870472DE9F047089D0C4656
:1049B000002B4ED194468C458646B2FA82F262D9DB
:1049C0004AB1C2F12003914020FA03F30CFA02FC31
:1049D000194300FA02FE4FEA1C471FFA8CF6B1FB9E
:1049E000F7F44FEA1E4307FB141143EA014304FBAB
:1049F00006F199420AD91CEB030304F1FF3080F061
:104A00001381994240F21081023C6344591A1FFA03
:104A10008EF3B1FBF7F007FB101143EA014300FBF3
:104A200006F69E420AD91CEB030300F1FF3180F029
:104A3000FD809E4240F2FA80634402389B1B40EAAC
:104A4000044000211DB1D3400022C5E90032BDE879
:104A5000F0878B4205D90DB1C5E900010021084658
:104A6000F5E7B3FA83F1002946D1A34202D390427D
:104A7000C0F0F180861A64EB03030120002DE6D01C
:104A8000C5E90063E3E7002A40F09180A1EB0C0444
:104A90004FEA1C481FFA8CF70121B4FBF8F64FEAE5
:104AA0001E4308FB164443EA044307FB06F0984202
:104AB00008D91CEB030306F1FF3402D2984200F23E
:104AC000CE8026461C1A1FFA8EF3B4FBF8F008FBC2
:104AD000104443EA044300FB07F79F4208D91CEB4C
:104AE000030300F1FF3402D29F4200F2B18020465E
:104AF000DB1B40EA0640A5E7C1F120068B4022FA05
:104B000006F71F4320FA06FC04FA01F343EA0C03FC
:104B1000F44000FA01F8380C4FEA1349B4FBF0FEF8
:104B20001FFA87FC00FB1E4449EA04440EFB0CF903
:104B3000A14502FA01F20AD93C190EF1FF3A80F0C0
:104B40008580A14540F28280AEF1020E3C44A4EB88
:104B500009041FFA83F9B4FBF0F300FB134449EA9C
:104B6000044403FB0CFCA44507D93C1903F1FF30B6
:104B700068D2A44566D9023B3C4443EA0E40A0FB00
:104B80000293A4EB0C049C42CE469C4652D34FD0D9
:104B900055B1B8EB0E0364EB0C0404FA06F6CB40F7
:104BA000CC401E43C5E900640021BDE8F087C2F196
:104BB000200320FA03F10CFA02FC24FA03F39440D8
:104BC0000C434FEA1C4800FA02FE1FFA8CF7B3FBB5
:104BD000F8F008FB1031230C43EA014300FB07F116
:104BE000994208D91CEB030300F1FF362CD29942FD
:104BF0002AD9023863445B1AA4B2B3FBF8F108FB6C
:104C0000113344EA034401FB07F3A34208D91CEB28
:104C1000040401F1FF3613D2A34211D902396444CE
:104C2000E41A41EA004138E70446EFE6084605E7A2
:104C3000C845ADD2B9EB020E63EB070C0138A7E70C
:104C40003146EDE7034698E73046D4E7D6467EE79F
:104C5000634402384CE70646234608460EE7023E08
:104C600063442FE7044A05491368002B08BF0B462D
:104C70001844106018467047482200205022002037
:104C8000FF000000FF00CC6600303132333435368F
:104C9000373839414243444546000D0A426F6F742C
:104CA00055463220426F6F746C6F616465722043A9
:104CB0004C490D0A0054797065202768656C70278F
:104CC00020666F7220636F6D6D616E64730D0A3EB6
:104CD0002000416461667275697400554632204255
:104CE0006F6F746C6F6164657200206279746573B4
:104CF0000068656C70003F000D0A436F6D6D616E5A
:104D000064733A0D0A00202068656C702020202D05
:104D10002053686F7720746869732068656C700D24
:104D20000A002020696E666F2020202D2053686FB6
:104D30007720626F6F746C6F6164657220696E6654
:104D40006F0D0A002020657261736520202D2045BB
:104D500072617365206170706C69636174696F6EF4
:104D600020666C6173680D0A00202072657365749B
:104D700020202D20526573657420746F206170703F
:104D80006C69636174696F6E0D0A00696E666F000D
:104D90000D0A426F6F7455463220426F6F746C6F0C
:104DA000616465720D0A0053544D33324634303518
:104DB0002D5245564F2D463400426F6172643A20A1
:104DC0002025730D0A00466C6173683A2020256C1B
:104DD000754B4220286170703A20256C754B42203B
:104DE00061742030782530386C58290D0A005553ED
:104DF000423A20202020253034583A253034580DAE
:104E00000A006572617365000D0A45726173696E0F
:104E1000672061707020666C617368202873656319
:104E2000746F727320342D37292E2E2E0D0A0064D4
:104E30006F6E652E0D0A007265736574000D0A525F
:104E40006573657474696E672E2E2E0D0A000D0A47
:104E5000556E6B6E6F776E20636F6D6D616E642E35
:104E60002054797065202768656C702720666F7202
:104E7000206C6973742E0D0A0008200800090400D4
:104E80000040000000400000004000000040000022
:104E9000000001000000020000000200000002000B
:104EA00000000200000002000000020000000200FA
:104EB00000400000004000000040000000400000F2
:104EC00000000100000002000000020000000200DB
:104ED00000000200000002000000020000000200CA
:104EE000636F6E6669672E696E6900626F6F7475B5
:104EF0006632005265766F6C7574696F6E20463449
:104F0000303500426F6F745546322043444300559C
:104F1000463200007D4E0008EB4E0008F34E0008BC
:104F200078030020034F0008000000000F4F000826
:104F30000000000000000000010203040607080949
:104F400000000050430000000400000000050000C5
:104F5000000004404D0000000600000000100000AA
:104F6000000000008512000899030008CD12000817
:104F7000290F0008DD260008911A00080000000033
:104F800000000000F51200080000000005130008F2
:104F9000B90F0008AD270008152C0008000000001C
:104FA000232D302B2000686C4C0065666745464712
:104FB00000303132333435363738396162636465F5
:044FC0006600000087
:084FC400E4F9FF7F0100000089
:104FCC003C21646F63747970652068746D6C3E0A63
:104FDC003C68746D6C3E3C626F64793E3C736372EA
:104FEC006970743E0A6C6F636174696F6E2E7265C2
:104FFC00706C616365282268747470733A2F2F6724
:10500C0069746875622E636F6D2F67656F736D6160
:10501C006C6C2F626F6F7475663222293B0A3C2FC1
:10502C007363726970743E3C2F626F64793E3C2FDF
:10503C0068746D6C3E0A00EB3C9055463220554628
:10504C00322000020101000240000000F8020101C0
:10505C00000100000000000901010080002942004D
:10506C0042005245564F4634424F4F54004641542D
:10507C00313620202009026200030100A032080B07
:10508C0000020202000009040000010202000405F3
:10509C002400200105240100010424020605240635
:1050AC0000010705820308001009040100020A0030
:1050BC0000000705030240000007058302400000C2
:1050CC000904020002080650060705010240000010
:1050DC000705810240000012010002EF020140FEB0
:1050EC00CA05D401010102030101000010000000F7
:1050FC000024F400426F6F7455463220426F6F7477
:10510C006C6F616465722076322E302E310D0A4D33
:10511C006F64656C3A20626F6F74756632205265ED
:10512C00766F6C7574696F6E20463430350D0A429B
:10513C006F6172642D49443A2053544D33324634D6
:10514C0030352D5245564F2D46340D0A4461746549
:10515C003A204A756E20333020323032360D0A46F2
:10516C006C6173682053697A653A203078000000CE
:10517C000000000000000000000000000000000023
:10518C000000000000000000000000000000000013
:10519C000000000000000000000000000000000003
:1051AC0000000000000000000000000000000000F3
:1051BC0000000000000000000000000000000000E3
:1051CC0000000000000000000000000000000000D3
:1051DC0000000000000000000000000000000000C3
:1051EC0000000000000000000000000000000000B3
:1051FC0000000000000000000000000000000000A3
:10520C000000000000000000000000000000000092
:10521C000000000000000000000000000000000082
:10522C000000000000000000000000000000000072
:10523C000000000000000000000000000000000062
:10524C000000000000000000000000000000000052
:10525C000000000000000000000000000000000042
:10526C000000000000000000000000000000000032
:10527C0000000000C10800088903002010000C0089
:10528C0000000000FF000000494E464F5F554632BB
:10529C0054585400340100207F010000000000002D
:1052AC00494E44455820202048544D000000002011
:1052BC007600000000000000434F4E464947202076
:1052CC00494E4900E41E00200000000000000000D0
:1052DC0043555252454E54205546320000000000B2
:1052EC0000000000000000002C0300200000000063
:1052FC000000000068000000D0000000000000006A
:10530C000000000000000000000000000000000091
:10531C000000000000000000000000000000000081
:10532C000000000000000000000000000000000071
:08533C00000000000000000069
:040000050800029558
:00000001FF
