:020000040800F2
:10000000FCFF0020A5020008F5020008F502000828
:10001000F5020008F5020008F502000800000000E3
:10002000000000000000000000000000F5020008D1
:10003000F502000800000000F5020008D53C0008A9
:10004000F5020008F5020008F5020008F5020008B4
:10005000F5020008F5020008F5020008F5020008A4
:10006000F5020008F5020008F5020008F502000894
:10007000F5020008F5020008F5020008F502000884
:10008000F5020008F5020008F50200080000000073
:10009000000000000000000000000000F502000861
:1000A000F5020008F5020008F5020008F502000854
:1000B000F5020008F5020008F5020008F502000844
:1000C000F5020008F5020008F5020008F502000834
:1000D000F5020008F5020008F50200080000000023
:1000E000F5020008F5020008F50200080000000013
:1000F000000000000000000000000000F502000801
:1001000000000000F5020008F5020008F5020008F2
:1001100000000000000000000000000000000000DF
:10012000F5020008F5020008F5020008F5020008D3
:10013000F5020008000000000000000000000000C0
:10014000000000000000000000000000153D000855
:10015000F5020008F5020008F5020008F5020008A3
:10016000F5020008F5020008000000000000000091
:10017000000000000000000000000000000000007F
:1001800000000000F5020008000000000000000070
:08019000F5020008F502000869
:1001A00010F8012B11F8013B012A28BF9A42F7D021
:1001B000D01A7047034613F8012B002AFBD1181AF6
:1001C000013870470000000000000000000000003F
:1001D00001F0FF01102A2BDB10F0070F08D010F8F8
:1001E000013B013A8B422DD010F0070F42B3F6D1FC
:1001F000F0B441EA012141EA014122F007047FF015
:1002000000070023F0E80256083C85EA010586EA6B
:10021000010685FA47F5A3FA87F586FA47F6A5FAA7
:1002200087F68EB9EED1F0BC01F0FF0102F00702B3
:1002300032B110F8013B013A83EA010313B1F8D15E
:100240000020704701387047002D06BF354603383F
:10025000073815F0010F07D1013015F4807F02BF78
:10026000013015F4C03F0130F0BC0138704700BFC9
:1002700053B94AB9002908BF00281CBF4FF0FF310D
:100280004FF0FF3000F00CB8ADF1080C6DE904CE72
:1002900004F07EFBDDF804E0DDE9022304B07047E2
:1002A000704700BFDFF834D0002103E00C4B5B58EF
:1002B000435004310B480C4B42189A42F6D30B4A78
:1002C00002E0002342F8043B094B9A42F9D303F0C1
:1002D00087FE03F093FE03F013F87047FCFF002045
:1002E000984F0008000000207803002078030020C9
:1002F0000C220020FEE7000010B50A49002002236E
:100300000A698B82C2F30804520A002C18BF01321A
:1003100013449BB206305A1E1828CA8201F11801F4
:10032000EED110BDC80200200A4492B291424FEAB9
:10033000400001D8824201DB121A92B21046704787
:1003400002468088138952899BB292B2934236BF8B
:10035000C2EB40029B1A9B189BB2984228BF1846DA
:10036000704703894189828889B29BB28B4236BF2C
:10037000C1EB42015B1A5B189BB29A4286BFD01A4E
:1003800080B2002070470020704700004B6902498E
:100390000B610121184700BF70160020002000F0FB
:1003A000A7BA012000F0A4BA01207047BFF34F8F15
:1003B0000549064BCA6802F4E0621343CB60BFF301
:1003C0004F8F00BFFDE700BF00ED00E00400FA051D
:1003D000044B18B14FF400529A6170474FF000522D
:1003E000FAE700BF000802400B4B4FF47A721B681B
:1003F000B3FBF2F358430138B0F1807F0AD24FF0DB
:10040000E023064A5861F02182F8231000229A6105
:1004100007221A61704700BF3001002000ED00E0A4
:100420004FF0E022136923F00103136170470000CD
:100430000A4910B50A24FF20FFF7CAFF0A680B68B3
:100440009B1A322BFBD90020FFF7C2FF0A680B680A
:100450009B1A322BFBD9013CEDD110BD9C1E002014
:10046000014670B50020104E08700246012502F1C9
:10047000006303F500431C68B44211D15C68013C81
:10048000B4F5804F0CD20D705B68033323F0030387
:1004900008331344104603F10802B2F5804F00D32D
:1004A00070BD1A46E3E700BF43494E492DE9F74FB7
:1004B0005F4A00234FF0010E4FF003080E680EFA5A
:1004C00003F404EA0605B44340F0A3804C6824F02A
:1004D00010045E00013C08FA06FC012C6FEA0C0CCB
:1004E00011D8846804EA0C09CC68B44044EA0904D1
:1004F0008460446824EA05094C68C4F300149C40F5
:1005000044EA09044460C46804EA0C098C68B440F5
:1005100044EA0904C4604C6824F01004022C16D18B
:100520004FEAD30A00EB8A0A03F0070BDAF82040FF
:100530004FEA8B0B4FF00F0909FA0BF924EA09096E
:100540000C6904FA0BF444EA0904CAF82040046870
:1005500004EA0C0C4C6804F00304B44044EA0C04B4
:1005600004604C68E40054D5324E00240194746C4D
:1005700044F480447464746C23F0030606F18046EE
:1005800004F4804406F59C36019403F0030C019CAE
:10059000D6F808904FEA8C0C0F2404FA0CF429EAE0
:1005A0000409254CA0423BD004F58064A04239D018
:1005B00004F58064A04237D004F58064A04235D0B1
:1005C00004F58064A04214BF0724042404FA0CF448
:1005D00044EA0904B4604F681468EE43FF034CBF5B
:1005E0002C43344014604F685468BF034CBF2C4305
:1005F000344054604F689468FF024CBF2C43344031
:1006000094604F68D468BF0254BF06EA04052543CE
:10061000D5600133102B7FF451AF03B0BDE8F08FEC
:100620000024D3E70124D1E70224CFE70324CDE758
:10063000003C014000380240000002403B4A2DE9E6
:10064000F04F00234FF0010A4FF00F084FF0030B5B
:100650000AFA03FC3CEA01040CEA010658D123F033
:10066000030404F1804404F59C3403F00307A568F7
:10067000BF0008FA07F909EA050E2D4DA8424CD033
:1006800005F58065A8424AD005F58065A84248D0A6
:1006900005F58065A84246D005F58065A8420CBFE7
:1006A00004250725BD40754513D1156825EA0605C3
:1006B0001560556825EA06055560956825EA060522
:1006C0009560D56825EA0605D560A56825EA09057F
:1006D000A56005685C000BFA04F4DE0825EA040551
:1006E00000EB8606056003F00705376AAD0008FADF
:1006F00005F527EA05073762C56825EA0405C560E0
:10070000456825EA0C054560856825EA040484608F
:100710000133102B9CD1BDE8F08F0025C2E70125E5
:10072000C0E70225BEE70325BCE700BF003C01404F
:100730000000024030B52B4B2B4C0022DA612568BB
:100740002A4AD168C90344D4D168C80744BF0121EB
:10075000D160D06810F4F9703AD0D168C90605D5D7
:10076000D96941F01001D9611021D1601F4AD168C7
:100770008D0605D5D96941F00801D9612021D160E4
:10078000D1684C0605D5D96941F00401D9614021F1
:10079000D160164AD168080605D5D96941F0020131
:1007A000D9618021D160D168C90506D5D96941F0E8
:1007B0000101D9614FF48071D1600C49CA68920778
:1007C00005D5DA6942F02002DA610223CB6001200C
:1007D00030BD411CB5D02168491B8142B1D90320ED
:1007E000F6E700BF4C0400209C1E0020003C0240A5
:1007F000254B03EB001030B5057A01F07F04A542CC
:1008000008D84FF0E023D3F8F03DD90700D500BE5B
:10081000002030BDD31CC909C3F38D030FD10833A9
:100820004FF0A0422B44516A5B009BB2994204D224
:10083000164989889942E4D353620120E9E7407A56
:10084000124920B18A799042DBD901328A714FF086
:10085000A0424FF0A0459268686A12065CBF5B0038
:100860009BB28A8818448242CBD3D21A92B28A8031
:1008700042EA03430CB9AB62DFE7A20002F1A042F7
:10088000C2F80031D9E700BF0C4F000884200020D7
:10089000094B03EB00134FF0A0421B7A18335B00A7
:1008A0005362936C054B4FF4A0719980044BD36550
:1008B00080214022FFF79CBF0C4F000884200020BD
:1008C00040014001084B03EB001393F90430002B67
:1008D00008DB0122590903F01F0302FA03F3034A5C
:1008E00042F82130704700BF0C4F000800E100E0E3
:1008F0000D4B1A7810B11046FFF7E4BF0B4B03EB1A
:10090000021393F90430002B0DDB5A09012103F087
:100910001F03994002F12003054A42F82310BFF358
:100920004F8FBFF36F8F7047C40200200C4F000839
:1009300000E100E0034B43F602229A87002283F88D
:100940003E2070478C14002070B50446424BA178BD
:10095000187801F07F03052B08D94FF0E023D3F876
:10096000F03DDB0700D500BE002070BD3B4BA688E4
:100970009D78E37803F00303022BC6F30A020CD040
:10098000032B5BD0012BE8D1022D40F2FF3308BFCF
:100990004FF480639A4219D904E0022D0AD1B2F5CE
:1009A000007F13D04FF0E023D3F8F03DDA07D4D521
:1009B00000BED2E7202A3FD816F4FF6FF2D0284BB2
:1009C000A2F10805ADB2EB40DD07EBD5FFF710FF54
:1009D0000028C2D0A5782349A38805F07F025600DD
:1009E00006EBD51601EB0611C3F30A034B81A6797A
:1009F0000E73E17801F00304611E43F4004318BF55
:100A0000012143EA844343EA0173ED0919464FF09B
:100A1000A04417D05301234462F39951C3F800193D
:100A2000D4F81C1800231A44012393404FF0A0422D
:100A30000B43C2F81C3898E7402AB2E7022D18BFD2
:100A40004023A4E7510101F1A041C1F8003BD4F8D3
:100A50001C181023E7E700BFC4020020A0200020DC
:100A6000010100018C1500204FF0A04344F2092140
:100A70001A6942F001021A611A6C92B28A4208D8CD
:100A80001A69D107FCD44FF0A0421369002BFCDA9D
:100A900070471A699200FCD51A6922F0005222F0C0
:100AA000010242F000521A61EDE700001E4B1F4A9E
:100AB0001B68934228D21E4A934227D81D4A93426C
:100AC00026D21D4A934225D8A2F5DB12A2F5BA52CE
:100AD000934221D8A2F5B712A2F5587293421DD8BD
:100AE000164A93421CD2164A93421BD2154A93428D
:100AF00034BF0F230E234FF0A041CA6822F4705276
:100B000042EA8323CB6070470623F4E70723F2E72A
:100B10000823F0E70923EEE70A23ECE70B23EAE7D3
:100B20000C23E8E70D23E6E7300100200048E80148
:100B3000DF9DA30100366E013FA44C0180730601C6
:100B40000024F400C0E1E400134B00F07F0203EB4B
:100B5000420303EBD01393F8200010F0010016D1EC
:100B600093F82020C2F38001520713D493F8200099
:100B700010F001000DD193F8202052070AD493F809
:100B8000202042F0040283F820200120704700203A
:100B900070470846704700BFA02000204A1EF0B5ED
:100BA00018BF01222C4D002846D12C4E05EB011414
:100BB00036F8113064899C4228BF1C461B1B26F85E
:100BC0001130012300EB0212520102F1A042C3F3E3
:100BD000090344EAC343C2F81039D2F800391E466B
:100BE000C6F30746C3F3076706F00C0667F07B07FA
:100BF000042E67F31F6310D101EB400605EB0615C9
:100C00002D7B012D09D14FF0A045D5F80858ED05F1
:100C10004CBF43F0805343F000534FF0A0450129EF
:100C2000AE6CC2F8003906D12CB1D5F83438814009
:100C30001943C5F83418F0BD01EB400305EB03136D
:100C40005E891C89A319013BB3FBF6F39BB2012B10
:100C500038BF0123B6E700BF8C1500208420002098
:100C60002DE9F047264C00F07F0604EB460404EB28
:100C7000D0148A4694F8208018F0010817464FEAED
:100C8000D0194FEA460507D04FF0E023D3F8F03DE6
:100C9000DB0732D400202EE094F8203043F001032B
:100CA00084F82030FFF77AFB164A05EB0903190197
:100CB00002EB03135D8975B9FFF773FB94F82030DD
:100CC00065F3000384F8203094F8203065F3820344
:100CD00084F82030D8E742F801A0C3F804801F81CF
:100CE00016B9094B23F8197030464946FFF756FFED
:100CF000FFF757FB0120BDE8F08700BECAE700BF41
:100D0000A02000208C150020842000200B4B1A69A5
:100D100022F440721A611A6942F400721A611A6967
:100D200022F0F8021A611A6942EAC00242F0020295
:100D30001A611A6942F480321A617047003C02401D
:100D400070B51B4C637893B323785A072FD4194D91
:100D5000EE7866B305F11000FFF703FB3F2826D9B4
:100D60003046FFF7F1FE10B305F11000FFF7F9FA76
:100D70003F28EB7806D9BDE870400F49402218465D
:100D8000FFF76EBF03F07F0204EB420404EBD310C5
:100D900090F820305B070AD590F8203013F001025C
:100DA00002BF90F8203062F3820380F8203070BDDB
:100DB000A0200020CC200020CC140020F8B5044650
:100DC0000D46164602276378052B04D1E37803F01D
:100DD0000303022B08D04FF0E023D3F8F03DDB07EC
:100DE00000D500BE0020F8BD2046FFF7ADFD00286D
:100DF000F1D0A378DA0914BF33702B702378012F58
:100E00001C44F0D00127DEE770B54B79022B35D1B9
:100E10008B79022B32D11E4EB37843BB8B78337063
:100E20000B780925CC186378242B1AD1954213D955
:100E30006378042B0DD163790A2B0AD12678154AE1
:100E4000A019511CFFF7BAFF88B10E3516FA85F5C7
:100E5000ADB2FFF775FF12E023781D44ADB21C441C
:100E6000E1E7052BE4D12046FFF76EFD48B94FF0CE
:100E7000E023D3F8F03DDB0700D500BE002528466F
:100E800070BDA378737023781D44ADB21C44CFE7C6
:100E9000CC200020CE20002010B54B79082B08462E
:100EA0000ED18B79062B0BD1CB79502B08D1162A7A
:100EB00008D84FF0E023D3F8F03DDA0700D500BEA4
:100EC000002010BD104C8B7884F82D300B7804F185
:100ED0002E0204F12F011844FFF770FF0028E8D01C
:100EE00000230A4994F82F0084F830301F22FFF7BE
:100EF000B7FE30B94FF0E023D3F8F03DDB0700D563
:100F000000BE1720DDE700BF8C1400208C040020F9
:100F100000F07F01C00910B580F0010300283CD02B
:100F20001B0139B15A18520102F1A042D2F800094E
:100F3000002814DB0B445B0103F1A043D3F8002924
:100F400042F00262C3F800298B014FF0A04243F047
:100F50002003136113699B06FCD4E1BB27E0D2F8A0
:100F6000000940F00060C2F80009D2F80809400604
:100F7000FBD5D2F800090B4440F0804040F400104B
:100F80005B01C2F8000903F1A043D3F808299207D6
:100F9000FBD50222C3F80829D6E761B95B0203F149
:100FA000A043D3F8002942F40012C3F800294FF0FF
:100FB000A0439B6C0FE01A0101EB03135B0103F1EB
:100FC000A043D3F80009002806DBD3F8002942F437
:100FD0000012C3F8002910BD4FF0A040D0F804481B
:100FE00044F40074C0F8044844692406FCD5D3F8DE
:100FF000000940F0804040F40010C3F80009531885
:101000004FF0A0405B010344D3F808299207FBD5B9
:101010000222C3F80829D0F8043843F48063C0F8EA
:101020000438D8E710B50446FFF772FF094B04F007
:101030007F0203EB420303EBD41090F8203043F01F
:10104000020380F8203090F8203043F0010380F84C
:10105000203010BDA020002010B4114B99689A6B6D
:1010600083F82C00022083F8300093F83C008A1AA1
:101070009A6220B942F205049C8783F83E0059B178
:1010800052B11A7B5DF8044BD20914BF93F82E00BD
:1010900093F82F00FFF7C6BF5DF8044B704700BF01
:1010A0008C140020144B10B5144C6BB1607BAFF363
:1010B000008048B942F2077384F83E00A387BDE878
:1010C00010400120FFF7C8BFA268A36B0C4994F839
:1010D0002F00D21AB2F5805F28BF4FF4805292B22F
:1010E000FFF7BEFD30B94FF0E023D3F8F03DDB074A
:1010F00000D500BE10BD00BF000000008C14002011
:101100008C040020024A136943F0004313617047C6
:10111000003C0240054B1A69002A05DA044A5A606D
:1011200002F188325A601B69704700BF003C0240E0
:1011300023016745C0430022114600F08000FFF7FD
:101140008FBD000010B40346064C00685968224663
:1011500003C20022C4E9022218785DF8044BFFF7AD
:10116000E9BF00BF7016002010B5144C227A32B1CE
:10117000134B04221A60BDE81040FFF751B92368F1
:10118000D3B1104B197861B11A700D4B032219209D
:101190001A60FFF729F90C4A0C4B118892781980D4
:1011A0009A70D4E900329A4206D3054B04221A60A1
:1011B000FFF736F9FFF7FAF810BD00BF84160020DC
:1011C0009C200020290100206E4C0008992000205E
:1011D000F8B5144D2B7E012B064617461FD0012370
:1011E0004CF250302B76FFF7A5FAA8B90E4C2369C4
:1011F00023F440732361236943F40073236123695B
:1012000043F0010323614CF250303760FFF792FA4C
:10121000236923F00103236100232B76F8BD02200C
:10122000FCE700BF4C040020003C02402DE9F041E7
:101230001A4E1B4F3278DFF8708000240546234693
:10124000A2420DD9D8F8003013EB44130BD14FF064
:10125000E023D3F8F03DDB0700D500BEBDE8F08108
:101260009B1A07EB4313DB68284698473278013412
:10127000E4B2511CA1422346E2DA0A4C2C2200219E
:10128000204602F023FF1022FF21201D02F01EFF46
:101290004FF0FF336361A361E361DFE7902000203B
:1012A0002C4F0008A02000208C20002008B50E4BF9
:1012B000E8220021184602F009FFFF2242714FF494
:1012C000E13282600822827300F1280200F1680195
:1012D0000261064A4261C1610022054942830162FE
:1012E0000283C284828408BDCC200020400001001B
:1012F00080000180084B00225A831A601A831A71F9
:10130000DA849A8493F82320D10904BF42F0800242
:1013100083F82320704700BFCC20002002484022E1
:10132000002102F0D3BE00BF8C14002002484022EE
:10133000002102F0CBBE00BF8C14002013B593082F
:1013400000EB8303984209D112F0030204D00B682A
:10135000019301A902F0CAFE02B010BD0C6840F86A
:10136000044BEFE7930813B501EB8303044699425E
:101370000BD112F0030206D0002301A8019302F062
:10138000B5FE019B236002B010BD51F8040B206034
:10139000EDE72DE9F74F884601894489858889B2B0
:1013A000A4B2A14236BFC4EB45060E1B7618B6B2F6
:1013B000074656B3B54206D2A9422CBF491B49196C
:1013C0008CB244812E46964228BF1646A54227D9A4
:1013D000FA883968A5EB0409751BC2F30E00254491
:1013E0001FFA89FC15FB00F519FB00F9012B0246D9
:1013F0001FFA89F9ADB200FB04141ED0664512D85D
:1014000072432146404602F071FE7989B88832461F
:1014100089B2FEF789FF7881304603B0BDE8F08FCE
:10142000641BA4B2D2E74A462146404602F05EFE63
:1014300039682A4608EB0900E5E7664507D816FB38
:1014400000F292B221464046FFF78CFFDDE729F01B
:10145000030B1FFA8BFB5A4621464046FFF782FFDB
:1014600019F0030923D0C9F1040A1FFA8AFAAA4520
:101470004FF0000304EB0B014A4601A828BFAA461F
:10148000019302F033FE3C6801AB214603EB0900F7
:10149000524602F02BFEA5EB0A05019BC8F800306E
:1014A000ADB204EB0A01002DAFD02A46CBE7396874
:1014B000F9E7000070B5204C63781BB32378590717
:1014C000C3F380051ED41D48FEF73AFFD0B11C4E71
:1014D000B078FFF739FBA8B12B461A49402206F134
:1014E0001C00FFF756FF0546B0787DB115492A4626
:1014F000FFF7B6FB40B94FF0E023D3F8F03DDA0731
:1015000000D500BE002070BD2846FCE700F07F0338
:1015100004EB430404EBD01090F820305B07F1D5C6
:1015200090F8203013F00102ECD190F8203062F3F3
:10153000820380F82030E5E7A0200020E82000208A
:10154000CC2000200C15002070B505890389428944
:1015500086889BB292B2934236BFC2EB46029B1A78
:101560009B189BB29E420446ADB217D8C079C00901
:1015700014D170BD801B80B2B042FBD2E2882368D8
:10158000C2F30E0202FB003002F0B0FDA08801227F
:101590002946FEF7C9FE20810120EAE72846EBE74D
:1015A0002DE9F0434378023B85B004460E46042BF8
:1015B00000F28280DFE803F071038B93BB00604F81
:1015C000DFF88C813A78DFF88C9100252B46AA420F
:1015D00040F28E80D9F8003013EB451340F08B8039
:1015E0003A780135EDB2511CA9422B46EFDA554F3E
:1015F0003B78580724D53B786FF382033B70002378
:10160000CDF80630CDF80A30ADF80E3023788DF8DD
:10161000043005238DF805304B4BD3F8008008F1DA
:101620000405002E6FD0284601A9FFF78DFF05465F
:1016300035B94FF0E023D3F8F03DD90700D500BE0F
:10164000FB78DA0726D50023CDF80630CDF80A302E
:10165000ADF80E3023788DF8043003238DF8053073
:1016600063680293384B1D682C1D002E59D13046FB
:101670002B68984701A92046FFF766FF2B680446B0
:101680000120984734B94FF0E023D3F8F03DDB0751
:1016900000D500BE05B0BDE8F0832A4B1A786FF381
:1016A00000021A701A7800216FF341021A70597003
:1016B0001A7861F382021A70234B1D682F1D002EC9
:1016C0003AD130462B68984721463846D4E71D4B1F
:1016D0001A78D707DED51A7842F00402EBE7194AE8
:1016E0001378DD07D6D513786FF382031370E3E721
:1016F0009B1A08EB4313DB69002B3FF471AF616861
:10170000207898476CE7D8F800303046984701A910
:101710002846FFF719FFD8F8003005460120984702
:1017200086E701A92046FFF70FFF0446AAE7074A0C
:1017300013780133DBB2D9E721463846F3E700BF1F
:1017400090200020A020002094200020982000203D
:101750002C4F00088C2000202DE9F04F4FF0A049BD
:101760008BB0D9F84830D9F84830734DC3F3832390
:10177000013380F00106029333017602DBB24E445E
:101780000746049306F510660024049AD9F8183821
:101790002244D340DA074ED506EB4413012FD3F889
:1017A00008A0C3F808A0E2B24FEA441840F09180C4
:1017B0001AF0010F09D0002C47D1604B5B88002B39
:1017C00043D039462046FFF7E9F91AF0800F32D0AE
:1017D0004FF0A0430122D3F83438A2401A420192BC
:1017E00029D008F1A04B2103DBF8103901F1A04109
:1017F000C3F3C943039301F580514FF0000A039AE4
:101800001FFA8AF39A420DD9DBF810296B8B4C48EA
:1018100092B29A4228BF1A46DBF8183900EA8303CD
:101820009A4224D94FF0A0429044D8F81039C3F31B
:101830001203002B45D0029A0134E3B29A4205F11B
:101840002005A2D80BB0BDE8F08F2B8B09934FF485
:10185000E061ADF81C1062F07F020023012107A8AF
:101860008DF820208DF82130FFF79AFEADE76869EA
:1018700038B101230591FFF78CFD05990AF1010AA2
:10188000BDE72B69900803EB8000984214D112F059
:10189000030C5FFA82FE0BD01EF0020F187818BFFF
:1018A0001888BCF1030F04BF9B7840EA034008602E
:1018B0002B6913442B61E1E753F804CBC1F800C056
:1018C000E3E7D2F83438019923EA0103C2F8343847
:1018D000B1E71AF0080F5FFA8AF30ED04FF4C06335
:1018E000ADF81C30174B93E803000AAB03E9030083
:1018F000012107A8FFF754FE9DE7DB079BD52AF4DB
:10190000FF4A2AF05F0A1FFA8AF3002B93D13CB9F1
:101910000A4B1B8823B121462046FFF73FF98AE78F
:101920002B8909934FF4E0610023ADF81C108DF86A
:1019300020208DF82130DBE78C150020842000204A
:10194000FCFF03006C0400202DE9F04F1546C2791E
:101950000689848888464189D20985B00746B6B28F
:1019600089B214D18E4236BFC1EB4401711A891974
:1019700089B2A14280F09880611A89B28D4228BF55
:101980000D46002D4BD1284605B0BDE8F08FA5428D
:1019900009D32BB9C2882D1BC2F30E0202FB0588A6
:1019A0000E462546EDE78E424FEA440036BF421A06
:1019B000721A921992B22A448242E2DB621B92B2FC
:1019C0002046FEF7B1FC0646DBE7AAEB040A1FFA45
:1019D0008AFAA245F9D2FA883868A4EB0A092C1BC6
:1019E000C2F30E0154441FFA89FC14FB01F419FBE5
:1019F00001F9012B0A461FFA89F9A4B201FB0A0A70
:101A000019D065450DD86A434146504602F06EFB39
:101A1000B8882A463146FEF787FC3881B3E7B246DC
:101A2000D7E74A464146504602F060FB38682246F6
:101A300008EB0901EAE7654507D815FB01F292B208
:101A400041465046FFF77AFCE2E729F003039BB2D8
:101A50001A46414650460193FFF770FC19F00309FE
:101A600020D0019BD8F800200392C9F1040B1FFA83
:101A70008BFBA3454A4603A90AEB030028BFA346F4
:101A800002F034FB3B6803A95A464944184602F069
:101A90002DFBA4EB0B04A4B25844002CB8D0224672
:101AA0004146CFE73868F8E700256CE72DE9F041BB
:101AB000334C1D46E3788B420E460DD1AAB2BAB91B
:101AC000304BE3B9304B8BBBFFF73AF9A378B34205
:101AD00036D00120BDE8F081A3788B42F6D04FF0DC
:101AE000E023D3F8F03DDB0700D500BE0020F1E78E
:101AF0002649002304F11000FFF726FFE0E7637991
:101B0000FF2BDFD0214F07EB0508B845DAD061790C
:101B100017F8013B9942F8D1228B638B92B29BB2AA
:101B20009A42F2D00020AFF30080EEE7228B638B65
:101B300092B29BB29A42C7D00020AFF30080C3E7B5
:101B4000134B13B10020AFF30080FFF7B3FC002864
:101B5000BFD11048FEF7F4FB0028BAD1002DB8D051
:101B600015F03F05B5D1A078FEF7EEFF0028B0D004
:101B7000A0782A462946FFF773F80028A9D1AEE7D6
:101B8000CC2000200000000000000000CC14002049
:101B900000000000E820002010B5A1B14FF6FF7250
:101BA0008A4228BF0A460023014692B20748FFF73F
:101BB000CBFE04460548FEF7C3FB3F2801D9FFF7DB
:101BC00079FC204610BD0C46F4E700BFE820002059
:101BD00013B50DF10700FEF743FC9DF807407CB1FB
:101BE00000F1006303F5004307495C68B4F5EE7F3C
:101BF00028BF4FF4EE7401442246044802F076FAFE
:101C0000204602B010BD00BF08800008A41E0020BE
:101C100070B40B4C0B4EA26BA3689B1AA3620323F8
:101C200084F8303004F120030FCB354607C52B7004
:101C300094F82E0031460D2270BCFFF711B800BF9A
:101C40008C1400208C0400202DE9F7431546FFF783
:101C500061FA07460E4600244FF0FF39A5420CD921
:101C60002A1B032A06EB040104EB07080AD93259A0
:101C700000234046FFF7ACFA58B1FFF743FA03B030
:101C8000BDE8F08301A8CDF8049002F02FFA019A84
:101C9000EEE74FF0FF30FEF74DFD0434DEE70000C5
:101CA00010B5114B9989DA8993F900008C1AA4B206
:101CB000402C28BF402400280DDA914211D09968A9
:101CC0000A48224602F012FA802008492246BDE85E
:101CD0001040FEF7C5BF91424FF00000F5D101461C
:101CE000F4E780200021F1E7701600204C15002059
:101CF00070B50346124D00680C465968AC602E461C
:101D000003C60021E981D9888A4228BF0A46AA81F0
:101D1000D98881B14AB144B94FF0E023D3F8F03DFE
:101D2000DB0700D500BE002004E0FFF7B9FF002864
:101D3000F2D0012070BD1878FFF7FCF9F7E700BF7B
:101D4000701600202DE9F04FDFF8748291B0964BA9
:101D50001D6800202B689847AB89E98928899BB2C8
:101D600089B28B4236BFC1EB40025A1AD21894B2E4
:101D70009CB1A04205D283422CBF1B1A1B1899B2FA
:101D8000E981884225D96A896B68C2F30E0202FB99
:101D9000013105A802F0AAF90124E989288922461F
:101DA00089B2FEF7C1FA2B68E88101209847002C20
:101DB00040D09DF81530013B072B00F2B883DFE8D7
:101DC00013F00B0019002E04220422042F009603A6
:101DD0002604091A89B2D4E79DF81400FFF726FA01
:101DE00072481422002102F071F99DF8183088F829
:101DF0000230ACE79DF81400FFF718FA0021142216
:101E00006A4802F063F96A4B022201201A60FEF769
:101E1000EBFA684A684B1188927819809A7096E7B5
:101E2000664A13784BB94FF0E023D3F8F03DDA0758
:101E300000D500BE11B0BDE8F08F1378013BDBB2D6
:101E40001370127802F0FF03002A80D15C4C574DCA
:101E500022782B6142F00102227094F820209DF834
:101E6000147063F3000284F8202094F8202063F3B8
:101E7000820284F8202094F8212063F3000284F881
:101E8000212094F8212063F382029DF8183084F811
:101E9000212003F06001602907D14FF0E023D3F83F
:101EA000F03DD90705D500BE03E0402908D1454BD8
:101EB0002B610020FFF72CF88020FFF729F846E778
:101EC00003F01F03012B00F06382022B00F09382CA
:101ED000002BE2D120291BD19DF81C300F2BE8D814
:101EE000394A234412781B79934209D2374A116840
:101EF00011EB4311DDD006AA3846FEF747FA94E10C
:101F0000511C9942D5DB32499B1A01EB4311F2E790
:101F10000029C2D19DF81930092BBED801A151F872
:101F200023F000BF73230008612300089B1E0008F4
:101F30004D2300089B1E00084D1F0008EF210008DC
:101F40009B1E00089D1F0008DD1F0008DDE906013B
:101F50000026C5E90001C5E902664FF0A0429DF8E0
:101F60001A10D2F8003823F4FE6343EA0113C2F8D2
:101F70000038FEF713FA174B5A8B42B1C3E90466D7
:101F80001E83154B012130465E80FEF707FEFEF7EB
:101F900008FA237843F002032370D8E663788DF8BB
:101FA00030300122EFE100BF9420002070160020A5
:101FB0009C200020684C00089920002098200020D8
:101FC000A020002087030008902000208C20002003
:101FD0002C4F00088C150020842000209DF81A60EA
:101FE00063789E4200F092806378002B53D0DFF834
:101FF000E0B24FF0A04A00258BF80750DAF818300D
:1020000023F00803CAF81830A24B03EB071393F828
:102010000890FEF7C3F94FF001139F4A8BF8065062
:102020000121CAF81C38CBB24B451BD24B0103F13E
:10203000A0430131D3F800090028BEBFD3F800093E
:1020400040F09040C3F800095587D3F8000B0028F2
:10205000BEBFD3F8000B40F09040C3F8000B203215
:102060005581E0E74FF0A0434FF484621A611A698A
:102070009206FCD410221A614FF0A0421369DB06CD
:10208000FCD43846FEF704FCFEF78BF9A5783846F9
:10209000FFF7CCF8A5706670002E00F09F807F4996
:1020A0004B78022B10D04FF0E023D3F8F03DDE0741
:1020B00000D500BE4FF0E023D3F8F03DDD0700D59A
:1020C00000BE00236370F4E6CB79DFF808A2C3F307
:1020D0008012C3F340131B0143EA4213227822F01B
:1020E0003002134323704B880B4401930931019B49
:1020F0008B420FD86A4B012205201A60FEF774F953
:10210000684B694A1188927819809A7006A8FFF77F
:1021100019F81CE64B780B2B03BF0B7891F8039052
:10212000C9184FF001094B78042BBCD1019B9AF8D8
:1021300000505A1A002692B2B346AE4227D25B4BE9
:102140001D6815EB4615AED02B693846CDE9021255
:1021500098470828DDE9021237D9824235D3B9F110
:10216000010F05D12A69524B9A4208BF4FF002096C
:102170000022D3B2994510D84E4D0844884217D852
:102180009AF8003001335B458DDB0146AFE74A4BDF
:10219000ABEB050503EB4515D6E78D782B4454FAD8
:1021A00083F301321D79FF2D7FF47DAF1E71E0E7CF
:1021B0004B78052B06D18B7803F07F0205EB4202AA
:1021C000DB09D6540B781944D8E79AF80050013649
:1021D000F6B26B1C9E42B346AFDD64E7304B022281
:1021E00001201A60FEF700F92E4B344A8AE7BDF849
:1021F0001A30190A4A1E062A3FF65BAE01A050F8B3
:1022000022F000BF212200083322000841220008EA
:10221000B31E0008B31E0008B31E000833220008D6
:102220002749122206A8FFF763FD00287FF48FAD2F
:102230003FE602297FF43DAE224931F80229F1E759
:1022400013F0FF0318D0032B46D0062B3FF631AE18
:102250001D4A52F823402046FDF7ACFFC2B2302A97
:1022600028BF3022194B2046A118814209D010F80E
:10227000014B23F8024FF8E7144B40F209425A8011
:1022800001220132D2B21149520042F440730B8054
:10229000C8E700BF0C4F00088C150020B5000020D7
:1022A0009C200020992000206B4C00088C200020EE
:1022B000090E0008B42000202C4F0008684C0008CC
:1022C00017010020B7000020F04E00080C16002077
:1022D0008420002090200020B44BB54CD3F8102A65
:1022E0000892D3F8142A0992D3F8183A0A930DF1F8
:1022F000200C0027AF4B0CAD03F1100E2A461868D6
:1023000059682E4603C6083373453546F7D11CF885
:10231000015B05F00F0340336B4413F8103CA380BE
:10232000A44B18685968164603C6083373453246ED
:10233000F7D110AB03EB1515013715F8103C63808E
:102340000C2F04F10404D5D118229AE7BDF81A30F5
:10235000012B7FF4AEAD237843F008032370D5E65C
:10236000BDF81A30012B7FF4A4AD23786FF3C303BB
:10237000F4E72378C3F340129B0803F002031343EE
:10238000ADF8303002220CA906A8FFF7B1FCDEE45C
:102390009DF81C300F2B3FF68CAD874A23441278F2
:1023A0001B7993421ED2854A116811EB43113FF409
:1023B00080AD06AA3846FDF7E9FF00287FF4C7ACD8
:1023C0009DF8183013F060037FF473AD9DF8192069
:1023D000A2F10A0101293FF66CAD0A2A2B617FF4B4
:1023E00095AEDCE5511C9942FFF663AD74499B1A2A
:1023F00001EB4311DDE79DF81C0000F07F03052B86
:102400003FF64BAD04EB430606EBD0164FEAD01C6B
:1024100096F814E0684E3678B6454FEA430215D276
:10242000664E366806EB4E1619BB9DF819E00EF0A5
:10243000FD01012921D0BEF1000F7FF42EAD224411
:10244000624492F82030C3F3400399E706F1010992
:10245000F14509DBAEEB060E594E06EB4E16002990
:10246000E3D006AA314647E500297FF422AD0026D5
:10247000DBE7002E3FF41DADF3E7BDF81A1019BBE2
:10248000BEF1010F30D18CF0010003EB00135B01B2
:1024900003F1A043D3F8000920F40010C3F80009A9
:1024A000D3F8000940F08050C3F80009A318634432
:1024B00093F8202061F3410283F8202093F8202034
:1024C00061F3000283F82020002E3FF440AC06AAFE
:1024D00031463846FDF75AFF00232B6194F821302E
:1024E000D8073FF534AC11E6FEF79CFDECE79DF80C
:1024F000181001F07F0008EB400303EBD113CF0964
:1025000093F820206FF3000283F8202093F8202016
:102510006FF3820283F82020002857D1294C9DF8C0
:1025200014602378079DB7EBD31F13D045B14FF04C
:10253000E023D3F8F03DDB077FF509AC00BE06E4ED
:102540002369002B3FF403AC224603213046984711
:10255000FFF7FDBB94F90030A068002B06DB0028D4
:102560003FF4F5AB18492A4601F0C0FDA268E389A3
:102570002A442B44A260E2889BB29A42E38101D0B4
:102580003F2D0FD8236933B92078FEF7D3FD0028FB
:102590007FF4DDABCBE70B4A022130469847002899
:1025A000F2D187E4FFF77CFBF1E700BF0070FF1F6B
:1025B0000C160020714C0008902000208C20002078
:1025C0002C4F0008701600204C1500201A7D164B69
:1025D0001B789A420ED2154B1B6813EB42133FF443
:1025E00022AC9C699DF81920079B9DF81400A04718
:1025F000FFF7ADBB581C9042FFF615ACD21A0C4B3E
:1026000003EB4213EDE798F80030FFF7A0BB069B01
:10261000002B3FF49CAB07989847FFF798BB98F8BE
:102620000330FFF794BB00BF902000208C200020D7
:102630002C4F000873B5FEF76DFD104E04242E25B7
:102640002046FEF763FB4FF0FF30FEF773F80121E1
:102650000DF107008DF80750FFF79EFAFEF72AFFED
:102660003378FF2B01D0FFF76DFB0134082CE7D145
:1026700002B0BDE87040FEF745BD00BFC4020020B7
:10268000F8B50546FDF796FD0C4F044694B10C4E87
:1026900004E03B78FF2B01D0FFF754FB3046FDF7F9
:1026A00060FE0028F5D021462846FFF775FA05445C
:1026B000241AEBE7BDE8F840FEF7FCBEC402002098
:1026C000E820002010B5137803F06003202B10469B
:1026D0004FD1294A848813789C424AD14378203BC1
:1026E000032B46D8DFE803F002141739012905D17E
:1026F00022490722FFF7FCFA012010BD0329FBD174
:102700001F4B002BF8D01D490020AFF30080F3E7EA
:102710000129F1D1ECE7012902D1FEF713FDEBE726
:102720000329E9D14388137103F0010192F82330A2
:1027300081F00100B0EBD31F1CBF60F3C71382F818
:1027400023300029D8D00F48FFF79AFF0E48FFF733
:1027500097FF0E4B00221A70CEE70129DDD0032926
:10276000CAD10B4B002BC7D041880020AFF30080AB
:10277000C2E70020C1E700BFCC200020D420002009
:1027800000000000824C00089D4C0008F42100204D
:1027900000000000012913B5144613D1137803F08B
:1027A0007F02022A3ED16278012A3BD16288002A48
:1027B00038D1384AA08892F83030042BC0B203D107
:1027C000FEF730FC012011E092F82E1081420FD16B
:1027D000022BF7D1FFF71CFA0028F3D14FF0E023CA
:1027E000D3F8F03DDB0700D500BE002002B010BDDD
:1027F00092F82F208242E5D1002BE3D1264B00F046
:102800007F0203EB420303EBD01393F82020D107A0
:10281000D8D493F820309A07D4D420491F22FEF749
:102820001FFAD9E703F06003202BDED16378FE2B7B
:1028300014D0FF2BD9D16388002BD6D1E1888AB27E
:10284000002AD2D1134B2046C3E90D2283F8302051
:10285000998783F83E20FEF775FCB3E76388002B69
:10286000C3D1E388012BC0D18DF807300C4B1BB1CD
:10287000AFF300808DF807009DF80730002BB4D02F
:10288000013B01220DF1070120468DF80730FFF7CB
:102890002FFA97E78C140020A02000208C04002041
:1028A000000000002DE9F04FDFF8408389B0B8F850
:1028B0001630D8F80870039023B15BBA9BB2B7FB0F
:1028C000F3F39BB2D8F83860D8F81150B6FBF3F2A6
:1028D000BF1BB7F5805F28BF4FF480572DBA03FBAD
:1028E00012661544B7483A46002101F0EFFBCEB915
:1028F000B54CB742A4F1200323D898F82E00002E3F
:1029000000F04E81AF49B2B2FEF7AAF9002840F0BC
:1029100056814FF0E023D3F8F03DDB0740F14F81C3
:1029200000BE4CE14FF0E023D3F8F03DDB0700D5CB
:1029300000BEFDF7FFFF012009B0BDE8F04FFEF734
:102940008BBB18464FF40072002101F0BFFB034619
:10295000EDB99E4A02F1380E106851689C46ACE809
:102960000300083272456346F6D11068CCF80000C7
:102970009288ACF80420552384F8DE31AA2384F829
:10298000DF31013506F5007604F50074B1E7B5F5E1
:10299000017F3FD8681E8E4AB0F5817F24BF6FF457
:1029A000817E05EB0E00B2F85EE001020EF1010E31
:1029B000A4F1220901F5807A0A46724538BF02F176
:1029C000010C02F1010234BF1FFA8CFC4FF0000C25
:1029D000524529F802CFF0D148B9F82204F8202C4A
:1029E000FF2204F81F2C4FF6FF7224F81E2CDFF88C
:1029F000E0C104204FF6FF7EBCF81620914204D8B7
:102A0000521AFF2A98BF23F812E001380CF1180C73
:102A1000F2D1B6E7B5F5027F59D840F205229542CA
:102A20004BD16C49A4F115000A78002A43D001313A
:102A300003F8012B8342F7D12822234604F8152CF2
:102A40000021654A62481268120A52020292182254
:102A500002FB010043F2DF1A45F6734C032990D8BC
:102A6000828A019281461A4603F10B0B99F800E025
:102A7000BEF1000F26D009F1010902F801EB5A4519
:102A8000F4D14FF064025A734FF000029A82019A17
:102A90005A83C268A3F80EA0A3F810C0A3F812C00E
:102AA000A3F816A0A3F818C07AB10269DA6101315F
:102AB00020331830D2E72022BAE72901A1F50151CD
:102AC0001139BEE74FF0200ED7E7029AEEE7434AEE
:102AD00095423FF656AF3E486FF4027C05EB0C0280
:102AE00000218646A5F2072CB0F81490E14503D8E2
:102AF000B0F81690E14505D20131042900F1180023
:102B0000F2D10321182000FB01E00329B0F814C022
:102B1000A2EB0C0202F1020C12D00269B2EB4C2FB4
:102B20004FEA4C217FF62DAF521AC068B2F5007FF4
:102B3000014428BF4FF40072184601F0D7FA20E78D
:102B400002F50023244A126803F5817302F1006044
:102B5000B0EB032F4FEA03217FF613AF204B44F86D
:102B6000203C03F1144303F52C1303F6023344F81D
:102B70001C3C1C4BC4F8DC31120A4FF4005344F8DF
:102B8000082C44F8183C4FF48072174B44F80CCCD6
:102B900044F8141C44F8102C44F8043C2046CCE7BC
:102BA000039B8DF814308DF818000723314605A8D3
:102BB0008DF8153007968DF81960FEF7F1FC09B015
:102BC000BDE8F08F8C040020AC04002077000020CA
:102BD000C8020020A200002080200020080101007F
:102BE0005546320A306FB10A575A75578C14002077
:102BF0002DE9F04FAF4C94F83090B9F1010F95B03A
:102C000084468E461F4600F0C481B9F1030F00F0E0
:102C1000D982B9F1000F50D194F82F308B4268D18E
:102C2000DFF8A0821F2FD8F80020474602D1A24B20
:102C30009A420ED094F82E00042384F83030FEF728
:102C4000F1F994F82F00FEF7EDF9002015B0BDE87A
:102C5000F08F46460FCE25460FC596E80F0007C5F4
:102C600025F8023B1B0C2B70944B23626368A2680F
:102C700084F82C90C4E90939012384F83030E37BCF
:102C8000282BC4E90D290ED1E38A82B1217BC90921
:102C900010D0002B41D05BBA9BB29A420AD3604657
:102CA000FFF700FE09E02A2B30D1E38A1ABB002B84
:102CB00000F06B810220FEF7CFF994F83030022B40
:102CC00017D194F82E007E4B00F07F0203EB4203F5
:102CD00003EBD01393F820309B070AD4A268A36BB0
:102CE0009A4240F29582237BDB0900F09182FEF745
:102CF00099F90120AAE7217BC909DBD16BB15BBA45
:102D00009BB29A42D6D3FEF7CDF9D6E7B2B1217B7A
:102D1000C90913D1B2F5805F01D90120CBE7694918
:102D200092B27046FDF79CFF0028C6D14FF0E02319
:102D3000D3F8F03DDE0788D500BE86E7252B94F852
:102D40000D9009D8192B1CD8032B00F0E380122B0F
:102D50006DD0002B00F0158194F83C20002ADCD1C6
:102D6000E17B636B1E2900F00C8184F83E2098B251
:102D70004FF6FF7242F205019042A18740F0FE80BB
:102D800037E01A3B0B2BE7D801A252F823F000BF23
:102D9000E12E0008832F0008592D0008592D000846
:102DA000C12D0008592D0008592D0008592D000883
:102DB000592D00080B2E0008592D0008E72D00089A
:102DC000414B002B00F0DD80227DE17C4846AFF3D3
:102DD0000080002840F0D58094F83C30002BBBD117
:102DE000FDF7A8FDB8E7394D4FF40033C8E90053AB
:102DF0000820A368002B90D0984228BF1846606333
:102E000082B2304994F82E008CE74FF000630B93A8
:102E100003F1012303F580330C934FF002130D935C
:102E20000BAB93E8070087E807000C20E1E7284890
:102E3000284A1F23CDE90B0342F220031068516892
:102E4000ADF84A3020238DF84F3004AB03C3127A1B
:102E50001A70214B07AA03F108070DF1100C164652
:102E600018685968154603C50833BB422A46F7D18E
:102E7000186899889B792860AB71A9809CE8030049
:102E80000DAB83E80300154F039796E80F000FADD5
:102E900007C52B803023ADF84C708DF84E300BAE4B
:102EA0000FCE084D0FC50FCE0FC533682B60242001
:102EB0009FE700BF8C1400205553424355534253A3
:102EC000A02000208C040020000000000001010868
:102ED00000800202BA4C0008C34C0008312E3000BA
:102EE0000B9B03F4000343F003030B93A84B7BB14C
:102EF0004846AFF300809DF82E3080F0010060F36B
:102F0000C7138DF82E300B9BC8F80030042070E7F3
:102F10000120F0E794F83C5094F83E6094F83D703E
:102F2000122200210BA801F0D1F8F0238DF82C30EB
:102F300005F00F050A238DF82E508DF839608DF8B5
:102F400033308DF838700BAD0FCD924E0FC62B6815
:102F50003380914B23B9A38784F83E30122048E791
:102F60004FF48052A6F110014846AFF300800023D1
:102F70000028A38784F83E30FFF6EEAE00287FF4E9
:102F800038AFA368002B7FF4C8AE022384F830303A
:102F900093E6B3F5805F3FF6C9AEE17B282906D101
:102FA000A36B626B3B449342A363EED277E62A297C
:102FB00040F0D380794D4FF000094F4506D8A36B00
:102FC000626B3B449342A363DFD29CE655F8203CFE
:102FD000734A934238D102F1144255F81C3C02F571
:102FE0002C1202F6023293422ED1D5F8DC216D4B21
:102FF0009A4229D155F8186CF10725D416F4405F90
:1030000022D016F4805B24D055F8106CB6F5EE7F14
:103010001AD26548A91910F8012B002A00F0FE8089
:1030200011F8013B83B1A2F1410CBCF1190F98BF1B
:103030002032A3F1410C98BFD2B2BCF1190F9CBF52
:103040002033DBB29A42E6D009F5007905F5007528
:10305000B3E755F8043C554A9342F5D155E9058A42
:10306000FEF758F8524B98452DD2524B01221A7058
:103070000BE052F8041F03EB010CE04511D363464B
:103080000130182801D07345F3D92E1F4FF0000BE3
:10309000DA4526DC52462946404601F007F850B38F
:1030A00027E0DFF810C11CF800204FF0010E0CF8EB
:1030B00000E0002AE9D19142E7D99E58013640F05C
:1030C00008810432F7E73C4ADFF8F4E05846D7E7D6
:1030D00053F80B200132D8D10BF1040B5945F7D826
:1030E000D3E756F8042F00230BEB0800FEF770F827
:1030F00050B3FDF79DF9FEF705F855F8082C002AA6
:10310000A2D02E4B19688A4207D044F26300824253
:1031100000D809B14FF0FF321A6055F80C2C44F278
:1031200063018A4290D802F0070003EBD20201212A
:10313000567A81403142C8B286D140EA06015172C6
:103140005A6801325A607FE74FF0FF30FDF7F2FA1C
:103150000028CED10BF1040B9AE7A36B227B3B44F2
:10316000D209A36306D11E291EBF42F20501A18721
:1031700084F83E20626B9342BFF407AF4FF0E02328
:10318000D3F8F03DDA077FF598AD00BE95E500BFB6
:10319000000000008C04002000000000AC040020AF
:1031A0005546320A306FB10AC84E0008575A755753
:1031B0000040000874040020684E000884160020B7
:1031C000FFFF070894F82E308B427FF476AD0D2F69
:1031D0007FF473ADE37B282B09D02A2B14D0424B0C
:1031E00053B1607B04F10F01AFF3008004E03F4B6B
:1031F00013B1607BAFF3008000233D4994F82F00AA
:1032000084F830301F228DE5607BFDF7ADFFF3E7DA
:10321000FEF7FEFC00287FF46CAD87E50B78002BF1
:103220007FF412AF55F80C0C55F8148CC0BBDFF8C6
:10323000CCA000F1006303F500431A6852450ED19B
:103240005B685A1EB2F5804F09D2033323F00303A3
:103250000833184400F10803B3F5804FE9D355F85B
:1032600004BC0BF1030222F0030208320244B2F55F
:10327000804F0BD90220FDF74DFFFDF747FD4FF0C2
:10328000FF30FDF757FAFDF73DFF002000F1006029
:1032900008220BA900F50040CDE90BABFEF7D4FCEA
:1032A0000BA8FDF7DDF8134B43443246184429467A
:1032B000FEF7CAFC55F80C3C55F8082C0133934234
:1032C000FFF4C2AEFEF784FC0B4B1864FDF714F854
:1032D000BAE6CDE90031FDF719FD4FF0FF30FDF7FB
:1032E00029FADDE90031F9E60000000000000000E5
:1032F0008C04002008800008C802002043494E4981
:1033000080B59EB01E4B002108911A6C42F080528D
:103310001A641A6C02F080520892089A07911949AF
:103320000A6822F4404242F400420A600A6802F449
:1033300040420792079A9A6802F00C02042A29D1A7
:103340001B680F4B9A6802F00C02082A00F0BC813F
:103350000D4A002111660D4A106819688D0100F1AF
:10336000AD810B495960084B012119661068044969
:103370000B689C0122D413681B1A022BF8D91DE09C
:103380000038024000700040000047429C1E0020B0
:10339000085441079A6802F00C02082A00F0548190
:1033A0001A68AC4942F480321A60AB4A10680B6864
:1033B0009E03C6D413681B1A642BF8D9A74B1A684E
:1033C00012F00E0F00F08281A2498B6843F4E053A3
:1033D0008B608B6843F460438B608B6823F0F00351
:1033E0008B600B68980100F17A819A4B9A6802F021
:1033F0000C02042A00F00182082A40F00082596879
:103400005A685B684902C3F388134CBF94499549D5
:1034100002F03F02B1FBF2F253438E4A5268C2F30C
:10342000014201325200B3FBF2F38A498E488A68A6
:10343000C2F303120024825C8C48D3408C4A136090
:10344000FCF7EEFF06940B6B43F001030B630B6B71
:1034500003F001030693069B05940B6B43F00203F4
:103460000B630B6B03F002030593059B04940B6B3A
:1034700043F004030B630B6B03F004030493049BFE
:1034800003940B6B43F008030B630B6B03F008030F
:103490000393039B0823CDE90A34012502230AA9DB
:1034A000CDE90C53FDF702F84FF4005300F500602E
:1034B000CDE90A35FCF7FAFF2046FCF789FF6D4B92
:1034C0000BB1AFF300806C4B6C4A19685B680A4023
:1034D000B2F1005F0FD103F1774303F57F03B3F53A
:1034E000002F08D8664B002B40F08B815F4B1B6987
:1034F0001B0700F18C814FF4C0530A93032300246F
:103500000D930223CDE90B3458485E4F5E4D0A23DC
:103510000AA90E93FCF7CAFF4FF4806E1223CDE97F
:103520000AE301230C93FCF7C1FF4A4B5A6B42F0AC
:1035300080025A6309945A6C42F480425A645B6C6C
:103540004FF0A04203F480430993099B936B43F42B
:10355000001393634D4B4FF400221A6038464FF42A
:103560008013AB65FCF726FEC0F5BF730133082B53
:10357000044631D9464B07EB000C0AAA03F1100EA2
:1035800018685968164603C6083373453246F7D1A2
:103590001B7833700CF1FF311C224FF4002020FA0D
:1035A00002F303F00F0378336B44043A13F8503CF2
:1035B00001F8013F161DF2D100238CF80830C4F544
:1035C000BB730133062B04F1080040F297813149A7
:1035D000384400F083FD0E342C61FEF7F9FA2864BC
:1035E0002D4DFCF789FE2B78FF2B40F053822C22C7
:1035F0002A482B4E002100F069FD2A4B00221A7048
:10360000294BDA819A81294A1360294B23B130462C
:10361000AFF30080274B186000233278264FDFF885
:1036200094801C46944280F06B81D8F8003013EBF4
:10363000441340F068814FF0E023D3F8F03DDC07FD
:1036400040F1288200BE25E25A6857027FF5A8AEF5
:1036500076E600BF003802409C1E0020003C02407D
:1036600000127A000024F4001C4F00080000024001
:10367000300100200000000000000108030000FFEE
:103680000000000034010020C8020020802000203B
:10369000714C0008D24C0008C4020020A020002079
:1036A0009020002098200020B402002094200020C8
:1036B000000000008C2000202C4F00081168091A1F
:1036C00002297FF64AAE79E65B6877E602221A7035
:1036D0001B6803F00F0393423FF476AE85E68B68D8
:1036E000A44A23F0030343F002038B60106841F205
:1036F00088348B6803F00C03082B53D19E4B1A6857
:1037000002F00F02022A52D88B6823F4E05343F4EC
:1037100080538B608B6823F460438B608B6803F06D
:103720000C03042B67D0082B4AD09448944B954A3D
:103730009B68954CC3F303132168D35CD840934B2B
:1037400018604FF47A73B0FBF3F00138B0F1807F6A
:10375000BFF44BAE4FF0E023F02258618C480725B0
:1037600080F823200F294FF000029A611D613FF677
:103770003CAEC368C3F30223E81A042803F104052E
:1037800028BF0420062D88BFDA1E4FF0FF33834088
:1037900021EA030393401B017D4ADBB282F8233008
:1037A000216022E613681B1AA342A2D91DE6022259
:1037B0001A701B6803F00F0393427FF416AEA3E761
:1037C0004A684B68496813F4800314BF71486B481A
:1037D000C1F3881118BF002302F03F02A1FB0001D2
:1037E000FCF746FD664B5B68C3F3014301335B00A6
:1037F000B0FBF3F09AE7674898E7664B15E65F4B36
:1038000013E6AFF3008000287FF470AE73E6624CDD
:10381000624B22689A422FD0614B9A424FF00003CC
:1038200004D060498A4215D1236064E623605E4C6F
:10383000032319202360FCF7D7FD5C4A5C4B1188F9
:10384000927819809A70FEF7F5FE04232360FCF746
:10385000E7FD50E6574D216001202B60FCF7C4FDC9
:10386000FF20FCF7B5FD2B68B3F5FA7FFBD30020F2
:10387000FCF7D6FDFCF7ACFD002323604E4B0BB1EB
:10388000AFF300804D4B0BB1AFF300804C4C4D4873
:10389000256866680821FCF7D1FE4FF4005100F559
:1038A0000060FCF7CBFE364B1A6B22F001021A6364
:1038B0001A6B22F002021A631A6B22F004021A63D6
:1038C0001A6B22F008021A634FF0E02300221A61FB
:1038D0005A619A614FF0FF32C3F88021C3F8842106
:1038E000C3F88821C3F88C21C3F8084DBFF36F8F4C
:1038F00085F3088885F309883047FEE704466BE6C0
:103900009B1A07EB43135B68002B3FF494AE984778
:1039100032780134E4B2511C8C4223467FF782AEE8
:10392000294A00234FF0A040136053602B70836C32
:10393000036C264A1B0C1B0493424BD0244A93422F
:1039400048D002F58032934244D04FF0E023D3F8C0
:10395000F02DD20700D500BED3F8F03DDB0700D52F
:1039600000BE4FF0E023D3F8F02DD6077FF565AE0B
:1039700000BE62E69C1E0020003C02400024F400D1
:10398000003802401C4F00082C01002030010020AC
:1039900000ED00E000127A00FCFF0020EF6926F045
:1039A000B40AE8F5EF6916F09C2000206E4C000880
:1039B00099200020A01E0020000000000000000050
:1039C0000000010800000240842000200000544F45
:1039D00000003155836823F001038360C46844F01C
:1039E0004003C360836B24F4705443F480338363D7
:1039F00044F4A254FDF738F8C460FDF757F8C368E3
:103A000043F00703C360D0F8003E23F00F03C0F873
:103A1000003E4FF4846303614FF0A0431A69970698
:103A2000FCD410221A614FF0A043186910F0100066
:103A3000FBD14FF0FF325A615A6098619A6942F0A7
:103A400010029A61D3F8002842F00702C3F8002858
:103A5000D3F8042842F00202C3F80428DA6822F0FE
:103A6000C04242F08042DA601A6822F0D00242F08E
:103A7000C0021A609969754A0A439A619A6842F0CD
:103A800081029A60D3F8042822F00202C3F80428C5
:103A9000FCF718FF6E4B6F4C022201201A60FCF7F6
:103AA000A3FC6D4A6D4B1188927819809A706C4E08
:103AB0006C4F07F110082B78FF2B01D0FEF742F96D
:103AC0007378002BF7D033785807F4D43B79D907B3
:103AD000F1D54046FCF734FC0028ECD0624FDFF80B
:103AE000EC813846FCF72CFC0028E1D000230122B1
:103AF0000AA93846FDF74DFC8146FDF721F9B9F1D9
:103B0000000FD4D09DF828200D2A01D00A2A7FD199
:103B100002214046FEF740F8DFF8AC91FDF7CAFC01
:103B20002378002209F803201BB95048FEF7A8FDAE
:103B3000D7E74F494846FCF733FB20B14D4948468B
:103B4000FCF72EFBA0B94C48FEF79AFD4B48FEF758
:103B500097FD4B48FEF794FD4A48FEF791FD4A4811
:103B6000FEF78EFD4148FEF78BFD00232370B8E77A
:103B700046494846FCF714FB28BB4548FEF780FD44
:103B8000444B454A50210AA800F05CFA0AA8FEF707
:103B900077FD424A4FF4E073CDE900325021404AAC
:103BA0004FF400730AA800F04DFA0AA8FEF768FD6A
:103BB0006B2300933B4A42F29A3350210AA800F04B
:103BC00041FA0AA8CCE738494846FCF7E9FA30B987
:103BD0003648FEF755FDFEF72DFD3548C0E748464F
:103BE0003449FCF7DDFA814680B93348FEF748FDD9
:103BF000FDF760FC314ACDF828900A9B934201DD25
:103C0000FCF7D4FB0A9B01330A93F6E72C48A7E79D
:103C1000082A237801D07F2A0BD1002B3FF461AF13
:103C2000013B284823700321FDF7B6FFFDF742FC56
:103C300057E73E2B3FF655AF591C217022498DF8AE
:103C40002820CA540AA80121EEE700BF04380080EA
:103C50009C200020F4210020684C000899200020BE
:103C6000A0200020CC200020DC200020B74C000841
:103C7000D94C0008DE4C0008E04C0008EE4C00086F
:103C80000A4D00082C4D0008514D0008734D0008E6
:103C9000784D00088F4D0008A14D00080000010874
:103CA000AE4D0008D64D0008EA4D0008F04D000862
:103CB000174E00081F4E0008254E00089F86010081
:103CC000364E0008614E0008B4210020D34D000894
:103CD000704700000D4B1A6801321A600C4A1268D6
:103CE000022A09D88AB118681B68DB05C0B201D561
:103CF000C043C0B2FCF76CBB032A00D07047186801
:103D000010F0010018BFFF20F4E77047A01E00204C
:103D10009C2000202DE9F0434FF0A04385B09D6921
:103D20005A691540EE046AD54FF480525A619C6C72
:103D3000A7488022002100F0C9F9A64AC4F38324D1
:103D400000230134D3805A0102F1A0420133D2F89A
:103D5000001B41F00061C2F8001BDAB29442F2D8B5
:103D60000022530103F1A0430132D3F800190029C6
:103D7000BEBFD3F8001941F09041C3F80019D3B287
:103D80009C42EED84FF0A0434FF00112C3F81C281C
:103D90000922C3F81428C3F810284FF484621A616A
:103DA0001A699406FCD410221A614FF0A0442669C7
:103DB00016F01006FBD13046FCF76AFDD4F8003847
:103DC00066F30A13C4F80038D4F8003923F003036B
:103DD000C4F80039D4F8003B23F00303C4F8003BD7
:103DE0007B4B40225A815A83A36CD4F8103B43F09A
:103DF000C043C4F8103BA36943F44023A361A80463
:103E000019D54FF0A0434FF400525A61D3F8082857
:103E100012F0060FC2F3410300F09080991E4B424E
:103E20004B414FF48072012101A8ADF804208DF8B8
:103E30000830FDF7B5FB2A050CD54FF0A0434FF431
:103E400000625A6101214FF4806301A8ADF804308B
:103E5000FDF7A6FB002D0CDA4FF0A0434FF0004217
:103E60005A6101214FF4A06301A8ADF80430FDF7B9
:103E700097FB6B070FD54FF0A0435C68670707D52A
:103E80004FF40073012101A8ADF80430FDF788FB61
:103E90004FF0A0435C602E0717D54FF0A0430822D7
:103EA0004C495A61D3F80828C979C2F30D2219B9CF
:103EB000996921F0080199614FF44073012101A82B
:103EC000ADF804300292FDF76BFBEC0645D54FF0E0
:103ED000A047DFF8FC80BB6923F01003BB613C6A9C
:103EE000C4F34343042B04F00F0643D0062B27D022
:103EF000022B2BD1C4F30A1444B308EB46134FEA48
:103F00004619586800283FD0334901232246FDF75F
:103F10001BFD08EB09025389A34217D909F1A049F7
:103F20001389D9F8101B5B1A9BB2138176B9294A01
:103F3000118816805B1AA8F8083007E0022370E7A2
:103F4000254A264B1168196012685A607B69D906A8
:103F5000C5D4BB6943F01003BB612A0302D500201E
:103F6000FDF7FAFB6B0330D5012005B0BDE8F04347
:103F7000FDF7F2BB760106F1A046D6F8103B43F000
:103F8000C043C6F8103BE1E758F809201249A308DE
:103F900002EB83039A4214D114F00301E0B20AD079
:103FA0000D4A12681A70800744BF100A587003291E
:103FB00004BF120C9A7058F80930234448F80930AD
:103FC000A7E7086842F8040BE4E705B0BDE8F08312
:103FD0008C15002084200020001000506C0400206C
:103FE000054BD3F8882042F47002C3F888204FF0C4
:103FF00000629A60704700BF00ED00E070B50D4DA3
:104000000D4C641BA4100026A64209D10B4D0C4C8C
:10401000FFF75EFE641BA4100026A64205D170BD0A
:1040200055F8043B98470136EEE755F8043B9847AE
:104030000136F2E7984F0008984F0008984F0008A3
:10404000984F00080CB430B5174B0C1E1D689DB07E
:1040500008DA8B232B604FF0FF301DB0BDE83040F5
:1040600002B070474FF40273ADF8143014BF04F17E
:10407000FF332346049307934FF6FF730290069095
:10408000ADF81630209A21AB02A92846019300F022
:1040900097F8431CBCBF8B232B60002CDDD0029B08
:1040A00000221A70D9E700BF2803002010B501399B
:1040B0000244904201D1002005E0037811F8014F3D
:1040C000A34201D0181B10BD0130F2E702440346A1
:1040D000934200D1704703F8011BF9E7034611F83A
:1040E000012B03F8012B002AF9D170470A449142B1
:1040F00000F1FF3300D1704710B511F8014B03F800
:10410000014F9142F9D110BD2DE9F0478E681F464D
:10411000BE420B6882460C4690462DD8B1F90C2061
:1041200012F4906F26D06569096905EB4505A3EB8C
:10413000010905EBD5757B1C4B446D109D4238BFC2
:104140001D46530527D5294600F056FB064660B3A9
:1041500021694A46FFF7CAFFA38923F4906343F01D
:104160008003A381266165614E44A5EB09052660A5
:10417000A5603E46BE4200D93E46206832464146D2
:1041800000F0B4FAA3689B1BA36023683344236048
:104190000020BDE8F0872A4600F0B2FB0646002862
:1041A000E0D12169504600F0BBFA0C23CAF8003078
:1041B000A38943F04003A3814FF0FF30E9E70000FB
:1041C0002DE9F04F98468B891B069DB007460D469A
:1041D000144610D50B6973B9402100F00DFB28601F
:1041E000286130B90C233B604FF0FF301DB0BDE8B3
:1041F000F08F40236B610023099320238DF8293031
:10420000CDF80C803023DFF89C818DF82A304FF0F8
:10421000010923469A4613F8012B0AB1252AF9D140
:10422000BAEB040B0BD05B46224629463846FFF713
:104230006BFF013000F0A780099A5A4409929AF85E
:104240000030002B00F09F8000234FF0FF32CDE9BB
:1042500005230AF1010A049307938DF853301A934A
:104260005446052214F8011B4E48FBF7B1FF049A8F
:10427000D8B9D00644BF20238DF85330110744BF6E
:104280002B238DF853309AF800302A2B15D0079A3B
:10429000544600204FF00A0C214611F8013B303BF8
:1042A000092B4BD9B0B1079214E0A0EB080309FA2F
:1042B00003F313430493A246D2E7039B191D1B6823
:1042C0000391002BBBBF5B4242F0020207930793AE
:1042D000B8BF049223782E2B0AD163782A2B32D1CF
:1042E000039B1A1D1B68039243EAE3730234059390
:1042F000DFF8C0A0217803225046FBF769FF38B1F0
:10430000049BA0EB0A004022824013430134049333
:1043100014F8011B24488DF828100622FBF758FFDB
:10432000002836D0214B1BBB039B073323F0070328
:1043300008330393099B334409936AE70CFB023269
:104340000C460120A8E700230134059319464FF0DD
:104350000A0C204610F8012B303A092A03D9002B09
:10436000C6D00591C4E70CFB012104460123F0E708
:1043700003AB00932A460E4B04A93846AFF30080E6
:10438000421C0646D6D1AB895B063FF52DAF099896
:104390002CE703AB00932A46054B04A9384600F0EE
:1043A00079F8EDE76C4F0008764F00080000000038
:1043B00009410008724F00082DE9F047164698465B
:1043C0008A680B69DDF820909342B8BF13463360CA
:1043D00091F8432007460C460AB101333360236845
:1043E000990642BF336802333360256815F006052D
:1043F00006D104F1190AE36832689B1AAB4226DC45
:1044000094F843302268003B18BF012392062BD456
:1044100004F1430241463846C84701301ED02368A4
:10442000226903F00603042B02BFE5683368ED1A26
:10443000A3680CBF25EAE57500259342C4BF9B1A0B
:10444000ED1800261A34B5421AD1002008E00123E5
:10445000524641463846C847013003D14FF0FF303D
:10446000BDE8F0870135C6E7E1185A1C302081F815
:104470004300224494F8451082F843100233C7E702
:104480000123224641463846C8470130E6D001366E
:10449000D9E700002DE9FF470F7E0C9E782F91464B
:1044A00080460C469A4601F1430207D8622F0AD88B
:1044B000002F00F0DD80582F00F0C38004F1420689
:1044C00084F842703AE0A7F16303152BF6D801A1F6
:1044D00051F823F02D45000841450008BD4400086F
:1044E000BD440008BD440008BD4400084145000823
:1044F000BD440008BD440008BD440008BD44000898
:1045000057460008CF4500080F460008BD44000884
:10451000BD44000879460008BD440008CF450008A6
:10452000BD440008BD4400081746000833681A1D42
:104530001B68326004F1420684F842300123A8E08F
:1045400031682368081D30601E0601D50D6803E040
:104550005D06FBD5B1F900506168002D78DA2D2099
:10456000002984F84300A1602DDA5E486D420A23D9
:104570001646B5FBF3F103FB1157C75D06F8017D45
:104580002F46BB420D46F4D9082B0BD12368DF0719
:1045900008D5236961689942DEBF302306F8013CE3
:1045A00006F1FF36921B2261CDF800A04B4603AA0C
:1045B00021464046FFF700FF01306FD14FF0FF303A
:1045C00004B0BDE8F08723F004032360CDE7216841
:1045D0003368080653F8045B02D4490648BFADB2FD
:1045E0006F2F4048336014BF0A230823002184F84A
:1045F00043106668A660002EBADB216821F0040132
:104600002160002DB4D1002EB2D11646BCE723683C
:1046100043F0200323603448782784F845702368EA
:1046200031681F0651F8045B02D45F0648BFADB283
:104630003160D90744BF43F0200323601DB110232C
:10464000D4E72848E9E7236823F020032360F6E74E
:1046500024480A23CDE7336825686169181D306056
:104660002E061B6801D5196002E06806FBD519808B
:1046700000232361164697E733681A1D32601E68CF
:10468000626800213046FBF7A3FD08B1801B606023
:1046900063682361002384F8433085E72369324649
:1046A00049464046D047013088D023689B0714D440
:1046B000E068039B9842B8BF184681E70123324661
:1046C00049464046D04701303FF478AF0135E368B2
:1046D00003995B1AAB42F1DCEAE7002504F1190605
:1046E000F5E700BF714C00087D4F0008884210B507
:1046F00001EB020402D98442234607D8431EA1429B
:1047000008D011F8012B03F8012FF8E70244014605
:104710008A4200D110BD13F8014D02F8014DF7E7B0
:1047200038B50546002941D051F8043C0C1F002B38
:10473000B8BFE41800F0D8F81D4A136833B96360B5
:1047400014602846BDE8384000F0D4B8A34208D928
:10475000206821188B4201BF19685B680918216025
:10476000EDE71A465B680BB1A342FAD911685018FD
:10477000A0420BD120680144501883421160E0D15F
:1047800018685B68536008441060DAE702D90C23AC
:104790002B60D6E7206821188B4204BF19685B683C
:1047A000636004BF091821605460CAE738BD00BFC8
:1047B000FC21002070B50F4E0C463168054611B93A
:1047C00000F0CCF830602146284600F0C7F8431CC2
:1047D00003D14FF0FF34204670BDC41C24F0030405
:1047E000A042F8D0211A284600F0B8F80130F2D1E2
:1047F000EFE700BFF82100202DE9F041CD1C25F0A6
:10480000030508350C2D38BF0C25002D064601DBAD
:10481000A94204D90C2333600020BDE8F081314F58
:1048200000F062F83B681C4644BB29463046FFF75F
:10483000C1FF431C044650D13C682146002941D1A8
:10484000002C44D02368304604EB030800F086F8BF
:1048500080453CD121686D1A29463046FFF7AAFFF2
:10486000013034D023682B4423603B68002B36D0C2
:104870005A68A24229D100225A600EE02268521BD7
:104880001DD40B2A16D96119A342256018BF59609F
:10489000636808BF396062514B60304600F02AF807
:1048A00004F10B00231D20F00700C21AB5D01B1A1B
:1048B000A350B2E7A3426268DED13A60EDE7234637
:1048C0006468B1E70C464968B8E71346CEE70C23A5
:1048D0003360304600F00EF89EE70560DDE75B6070
:1048E000FFDE00BFFC210020014800F047B800BFF8
:1048F00000220020014800F042B800BF0022002042
:104900002DE9F041804615460C4621B9BDE8F0413D
:104910001146FFF771BF2AB9FFF702FF00242046B6
:10492000BDE8F08100F02CF88542064602D8B5EBD0
:10493000500FF4D829464046FFF75EFF074600288F
:10494000ECD0B5422A46214628BF3246FFF7CEFBBF
:1049500021464046FFF7E4FE3C46E0E738B5064D09
:104960000023044608462B6000F070F9431C02D176
:104970002B6803B1236038BD0422002070477047C4
:1049800051F8043C181F002BBCBF0B58C0187047CF
:104990002DE9F047089D0C46002B4ED194468C45DE
:1049A0008646B2FA82F262D94AB1C2F1200391403E
:1049B00020FA03F30CFA02FC194300FA02FE4FEA54
:1049C0001C471FFA8CF6B1FBF7F44FEA1E4307FBB6
:1049D000141143EA014304FB06F199420AD91CEB86
:1049E000030304F1FF3080F01381994240F21081FB
:1049F000023C6344591A1FFA8EF3B1FBF7F007FB30
:104A0000101143EA014300FB06F69E420AD91CEB53
:104A1000030300F1FF3180F0FD809E4240F2FA80F6
:104A2000634402389B1B40EA044000211DB1D3407F
:104A30000022C5E90032BDE8F0878B4205D90DB1EF
:104A4000C5E9000100210846F5E7B3FA83F1002922
:104A500046D1A34202D39042C0F0F180861A64EBA3
:104A600003030120002DE6D0C5E90063E3E7002A37
:104A700040F09180A1EB0C044FEA1C481FFA8CF720
:104A80000121B4FBF8F64FEA1E4308FB164443EA43
:104A9000044307FB06F0984208D91CEB030306F118
:104AA000FF3402D2984200F2CE8026461C1A1FFA2A
:104AB0008EF3B4FBF8F008FB104443EA044300FB18
:104AC00007F79F4208D91CEB030300F1FF3402D221
:104AD0009F4200F2B1802046DB1B40EA0640A5E77A
:104AE000C1F120068B4022FA06F71F4320FA06FC8C
:104AF00004FA01F343EA0C03F44000FA01F8380C1D
:104B00004FEA1349B4FBF0FE1FFA87FC00FB1E447A
:104B100049EA04440EFB0CF9A14502FA01F20AD954
:104B20003C190EF1FF3A80F08580A14540F2828069
:104B3000AEF1020E3C44A4EB09041FFA83F9B4FB66
:104B4000F0F300FB134449EA044403FB0CFCA445C6
:104B500007D93C1903F1FF3068D2A44566D9023B5E
:104B60003C4443EA0E40A0FB0293A4EB0C049C429D
:104B7000CE469C4652D34FD055B1B8EB0E0364EBF2
:104B80000C0404FA06F6CB40CC401E43C5E9006491
:104B90000021BDE8F087C2F1200320FA03F10CFAEE
:104BA00002FC24FA03F394400C434FEA1C4800FA39
:104BB00002FE1FFA8CF7B3FBF8F008FB1031230C50
:104BC00043EA014300FB07F1994208D91CEB0303B8
:104BD00000F1FF362CD299422AD9023863445B1A7D
:104BE000A4B2B3FBF8F108FB113344EA034401FB20
:104BF00007F3A34208D91CEB040401F1FF3613D2DA
:104C0000A34211D902396444E41A41EA004138E769
:104C10000446EFE6084605E7C845ADD2B9EB020EFB
:104C200063EB070C0138A7E73146EDE7034698E749
:104C30003046D4E7D6467EE7634402384CE7064662
:104C4000234608460EE7023E63442FE7044A05491F
:104C50001368002B08BF0B461844106018467047B5
:084C60000822002010220020B0
:104C6800FF000000FF00CC660030313233343536A7
:104C7800373839414243444546000D0A426F6F7444
:104C880055463220426F6F746C6F616465722043C1
:104C98004C490D0A0054797065202768656C7027A7
:104CA80020666F7220636F6D6D616E64730D0A3ECE
:104CB800200041646166727569740055463220426D
:104CC8006F6F746C6F6164657200206279746573CC
:104CD8000068656C70003F000D0A436F6D6D616E72
:104CE80064733A0D0A00202068656C702020202D1E
:104CF8002053686F7720746869732068656C700D3D
:104D08000A002020696E666F2020202D2053686FCE
:104D18007720626F6F746C6F6164657220696E666C
:104D28006F0D0A002020657261736520202D2045D3
:104D380072617365206170706C69636174696F6E0C
:104D480020666C6173680D0A0020207265736574B3
:104D580020202D20526573657420746F2061707057
:104D68006C69636174696F6E0D0A00696E666F0025
:104D78000D0A426F6F7455463220426F6F746C6F24
:104D8800616465720D0A0053544D33324634313133
:104D98002D4E4F58452D563300426F6172643A20AC
:104DA8002025730D0A00466C6173683A2020256C33
:104DB800754B4220286170703A20256C754B422053
:104DC80061742030782530386C58290D0A00555305
:104DD800423A20202020253034583A253034580DC6
:104DE8000A006572617365000D0A45726173696E28
:104DF800672061707020666C617368202873656332
:104E0800746F727320342D37292E2E2E0D0A0064EC
:104E18006F6E652E0D0A007265736574000D0A5277
:104E28006573657474696E672E2E2E0D0A000D0A5F
:104E3800556E6B6E6F776E20636F6D6D616E642E4D
:104E48002054797065202768656C702720666F721A
:104E5800206C6973742E0D0A0008200800090400EC
:104E6800004000000040000000400000004000003A
:104E78000000010000000200000002000000020023
:104E88000000020000000200000002000000020012
:104E9800004000000040000000400000004000000A
:104EA80000000100000002000000020000000200F3
:104EB80000000200000002000000020000000200E2
:104EC800636F6E6669672E696E69004A48454600D9
:104ED8004E4F584520563300426F6F745546322066
:104EE8004344430055463200654E0008D34E00083F
:104EF800D84E000878030020E04E000800000000AB
:104F0800EC4E0008000000504300000004000000C0
:104F1800000500000000000000000000010203047A
:104F28000607080900000000AD120008A9030008E0
:104F3800F5120008090E0008C5260008AD1A000879
:104F480000000000000000001D1300080000000021
:104F58002D130008990E000895270008F12B00086A
:104F680000000000232D302B2000686C4C00656683
:104F78006745464700303132333435363738396182
:084F880062636465660000002D
:084F900000FAFF7F01000000A0
:104F98003C21646F63747970652068746D6C3E0A97
:104FA8003C68746D6C3E3C626F64793E3C7363721E
:104FB8006970743E0A6C6F636174696F6E2E7265F6
:104FC800706C616365282268747470733A2F2F6758
:104FD80069746875622E636F6D2F67656F736D6195
:104FE8006C6C2F626F6F7475663222293B0A3C2FF6
:104FF8007363726970743E3C2F626F64793E3C2F14
:1050080068746D6C3E0A00EB3C905546322055465C
:10501800322000020101000240000000F8020101F4
:105028000001000000000009010100800029420081
:1050380042004E4F58455633424F4F540046415454
:10504800313620202009026200030100A032080B3B
:105058000002020200000904000001020200040527
:105068002400200105240100010424020605240669
:1050780000010705820308001009040100020A0064
:1050880000000705030240000007058302400000F6
:105098000904020002080650060705010240000044
:1050A8000705810240000012010002EF0201409A48
:1050B800236B000101010203010100001000000040
:1050C8000024F400426F6F7455463220426F6F74AB
:1050D8006C6F616465722076322E302E300D0A4D69
:1050E8006F64656C3A204A484546204E4F58452023
:1050F80056330D0A426F6172642D49443A20535465
:105108004D3332463431312D4E4F58452D56330DDF
:105118000A446174653A204D617220313920323079
:1051280032360D0A466C6173682053697A653A20F5
:1051380030780000000000000000000000000000BF
:105148000000000000000000000000000000000057
:105158000000000000000000000000000000000047
:105168000000000000000000000000000000000037
:105178000000000000000000000000000000000027
:105188000000000000000000000000000000000017
:105198000000000000000000000000000000000007
:1051A80000000000000000000000000000000000F7
:1051B80000000000000000000000000000000000E7
:1051C80000000000000000000000000000000000D7
:1051D80000000000000000000000000000000000C7
:1051E80000000000000000000000000000000000B7
:1051F80000000000000000000000000000000000A7
:105208000000000000000000000000000000000096
:105218000000000000000000000000000000000086
:105228000000000000000000000000000000000076
:105238000000000000000000000000000000000066
:1052480000000000F10800088903002010000C008D
:1052580000000000FF000000494E464F5F554632EF
:1052680054585400340100207F0100000000000061
:10527800494E44455820202048544D000000002045
:105288007600000000000000434F4E4649472020AA
:10529800494E4900A41E0020000000000000000044
:1052A80043555252454E54205546320000000000E6
:1052B80000000000000000002C0300200000000097
:1052C8000000000068000000D0000000000000009E
:1052D80000000000000000000000000000000000C6
:1052E80000000000000000000000000000000000B6
:1052F80000000000000000000000000000000000A6
:0853080000000000000000009D
:04000005080002A548
:00000001FF
