:020000040800F2
:10000000FCFF0020E5020008350300083503000866
:100010003503000835030008350300080000000020
:100020000000000000000000000000003503000890
:100030003503000800000000350300080D3F0008EC
:1000400035030008350300083503000835030008B0
:1000500035030008350300083503000835030008A0
:100060003503000835030008350300083503000890
:100070003503000835030008350300083503000880
:100080003503000835030008350300083503000870
:100090003503000835030008350300083503000860
:1000A0003503000835030008350300083503000850
:1000B0003503000835030008350300083503000840
:1000C0003503000835030008350300083503000830
:1000D0003503000835030008350300083503000820
:1000E0003503000835030008350300083503000810
:1000F0003503000835030008350300083503000800
:1001000035030008350300083503000835030008EF
:1001100035030008350300083503000835030008DF
:1001200035030008350300083503000835030008CF
:10013000350300080000000000000000000000007F
:100140000000000000000000000000004D3F00081B
:10015000350300083503000835030008350300089F
:10016000350300083503000835030008350300088F
:1001700035030008350300080000000000000000FF
:10018000350300083503000835030008350300086F
:10019000350300083503000800000000350300089F
:1001A000000000000000000000000000350300080F
:1001B00035030008350300080000000000000000BF
:1001C000000000000000000000000000000000002F
:1001D00000000000000000000000000035030008DF
:1001E00010F8012B11F8013B012A28BF9A42F7D0E1
:1001F000D01A7047034613F8012B002AFBD1181AB6
:1002000001387047000000000000000000000000FE
:1002100001F0FF01102A2BDB10F0070F08D010F8B7
:10022000013B013A8B422DD010F0070F42B3F6D1BB
:10023000F0B441EA012141EA014122F007047FF0D4
:1002400000070023F0E80256083C85EA010586EA2B
:10025000010685FA47F5A3FA87F586FA47F6A5FA67
:1002600087F68EB9EED1F0BC01F0FF0102F0070273
:1002700032B110F8013B013A83EA010313B1F8D11E
:100280000020704701387047002D06BF35460338FF
:10029000073815F0010F07D1013015F4807F02BF38
:1002A000013015F4C03F0130F0BC0138704700BF89
:1002B00053B94AB9002908BF00281CBF4FF0FF31CD
:1002C0004FF0FF3000F00CB8ADF1080C6DE904CE32
:1002D00004F078FCDDF804E0DDE9022304B07047A7
:1002E000704700BFDFF834D003F098FF0C480D4989
:1002F0000D4A002302E0D458C4500433C4188C4281
:10030000F9D30A4A0A4C002301E013600432A242E6
:10031000FBD303F08DFF03F095F87047FCFF00203E
:10032000000000207803002090510008780300208E
:10033000A4220020FEE700000B490020022310B594
:100340000A6906308B821831C2F30804520A002C65
:1003500018BF0132182813449BB203F1FF3221F871
:10036000022CEDD110BD00BFC80200200A4440009D
:1003700092B2914201D8824201DB121A92B2104627
:10038000704702468088138952899BB292B2934289
:1003900036BFC2EB40029B1A9B189BB2984228BF03
:1003A00018467047038941899BB2828889B28B4283
:1003B00036BFC1EB42015B1A5B189BB29A4286BF03
:1003C000D01A80B200207047002070474B69024964
:1003D0000B610121184700BFFC160020002000F02F
:1003E00065BB012000F062BB01207047BFF34F8F57
:1003F0000549064BCA6802F4E0621343CB60BFF3C1
:100400004F8F00BFFDE700BF00ED00E00400FA05DC
:10041000034B10B140229A6170474FF48002FAE713
:10042000000402400B4B4FF47A721B68B3FBF2F3EB
:1004300058430138B0F1807F0AD24FF0E023064ADA
:10044000F021586182F8231000229A6107221A6174
:10045000704700BF3001002000ED00E04FF0E022C7
:10046000136923F0010313617047000010B50A49B6
:100470000A24FF20FFF7CCFF0A680B689B1A322B77
:10048000FBD90020FFF7C4FF0A680B689B1A322BC8
:10049000FBD9013CEDD110BD2C1F002001460020EE
:1004A00070B502460F4E0125087002F1006303F596
:1004B00000431C68B44211D15C68013CB4F5804F24
:1004C0000CD20D7010465B68033323F0030308332E
:1004D000134403F10802B2F5804F00D370BD1A46F1
:1004E000E3E700BF43494E491A4B4FF47A7210B507
:1004F0001B68B3FBF2F3013BB3F1807F01D3012012
:1005000010BD4FF0E021F02207240F284B61124B61
:1005100083F823204FF000028A610C61EFD8DB687A
:10052000C3F30223E11A1C1D042928BF0421062C51
:1005300088BFDA1E4FF0FF338B4020EA030393405D
:10054000054A1B01DBB282F82330044B18600020FF
:10055000D6E700BF3001002000ED00E02C010020B4
:100560002DE9F74F00234FF00108DFF8A4C14FF049
:100570000F0E654A08FA03F40E6804EA0605B44350
:1005800040F0AC8003245F0004FA07F64C6804F0E6
:100590000304F643013C012C11D8846804EA0609DF
:1005A000CC68BC4044EA09048460446824EA050934
:1005B0004C68C4F300149C4044EA090444604C684D
:1005C00004F00304032C21D0C46804EA06098C68F3
:1005D000BC4044EA0904C4604C6804F00304022CE3
:1005E00014D14FEAD30903F0070A00EB89094FEA57
:1005F0008A0AD9F820400EFA0AFB24EA0B0B0C6990
:1006000004FA0AF444EA0B04C9F8204004682640BE
:100610004C6804F00304BC40344304604C6814F498
:10062000403F5BD0DCF8444023F0030603F00307AF
:1006300044F4804406F18046BF00CCF8444006F5FF
:100640009C36DCF844400EFA07F904F48044019427
:10065000019CB46824EA09092C4CA04245D004F559
:100660008064A04243D004F58064A04241D004F5E8
:100670008064A0423FD004F58064A0423DD004F5E0
:100680008064A0423BD004F58064A04239D004F5D8
:100690008064A04214BF08240724BC4044EA090433
:1006A000B460EE434C689768E40254BF37402F4370
:1006B00097604C68D768A40254BF37402F43D76077
:1006C0004C685768A40354BF37402F4357604C68A9
:1006D0001768E40354BF37402F4317600133102BD2
:1006E0007FF448AF03B0BDE8F08F0024D5E70124C4
:1006F000D3E70224D1E70324CFE70424CDE7052480
:10070000CBE70624C9E700BF003C014000000240DF
:10071000003802402DE9F04F00224FF0010A4FF05F
:100720000F084FF0030B404C0AFA02FC3CEA0103AD
:100730000CEA010664D122F0030502F0030705F17B
:100740008045BF0005F59C3508FA07F9AB6809EA52
:10075000030E364B984258D003F58063984256D02A
:1007600003F58063984254D003F58063984252D0D9
:1007700003F58063984250D003F5806398424ED0D1
:1007800003F5806398424CD003F5806398420CBF18
:1007900007230823BB40734513D1236823EA0603CC
:1007A0002360636823EA06036360E36823EA0603C1
:1007B000E360A36823EA0603A360AB6823EA0903A6
:1007C000AB6053000568D6080BFA03F300EB86060E
:1007D00025EA0305056002F00705376AAD0008FA4F
:1007E00005F527EA05073762C56825EA0305C560F0
:1007F000456825EA0C054560856825EA03038360A2
:100800000132102A90D1BDE8F08F0023C2E7012306
:10081000C0E70223BEE70323BCE70423BAE70523AE
:10082000B8E70623B6E700BF003C014000000240E5
:1008300030B50022264B274C9A61274A2568D1689B
:10084000C90335D4D16811F4F97F39D0D268920741
:1008500003D59A6942F020029A611F49CA68D506F9
:1008600003D59A6942F010029A61CA68940603D5CA
:100870009A6942F008029A611749CA68500603D57E
:100880009A6942F004029A61CA68110603D59A690E
:1008900042F002029A611049CA68D20503D59A69EA
:1008A00042F040029A614FF4F9730120CB6030BDF1
:1008B000411CC4D02168491B8142C0D90320F6E7FE
:1008C000D368DB0701D50123D3600020EFE700BF29
:1008D0004C0400202C1F0020003C0240022870B570
:1008E00038BF0346234D28BF002305EB00101B0132
:1008F000067AEC5801F07F05AE4208D84FF0E023AD
:10090000D3F8F03DD90700D500BE002070BDD31C40
:10091000C909C3F38D030DD10833626A33445B0008
:100920009BB29A4204D2144A92889A42E6D36362F6
:100930000120EBE7407A104920B18A799042DDD955
:1009400001328A71A268606A12068A885CBF5B0005
:100950009BB218448242D1D3D21A92B242EA0343E4
:100960008A800DB9A362E3E705F13F0204EB82043C
:100970006360DDE7045100081021002002280C4BC1
:1009800034BF014600210901595803EB00131A7ABC
:10099000DB6818329B0852004A628A6C054A9380D1
:1009A0001A0412FA83F34022CB658021FFF796BF29
:1009B000045100081021002002282E4B28BF0020DF
:1009C000F0B50001551E2C4E1C5818BF01250029FA
:1009D00041D12A4F06EB021037F812304089984275
:1009E00028BF18461B1A27F812300123C3F3090346
:1009F00001EB051540EAC34304EB4515C5F8103972
:100A0000D5F800391F46C3F3076CC7F307476CF0EE
:100A10007B0C07F00C076CF31F63042F0ED102EB65
:100A2000410706EB0716367B012E07D1D4F808687C
:100A3000F6054CBF43F0805343F00053012AA66CE7
:100A4000C5F8003906D128B1D4F834388A401A43A1
:100A5000C4F83428F0BD02EB410306EB03135F89B1
:100A60001889C319013BB3FBF7F39BB2012B38BFC5
:100A70000123BBE704510008781500201021002055
:100A8000084B03EB001393F90430002B08DB012221
:100A9000590903F01F0302FA03F3034A42F8213015
:100AA000704700BF0451000800E100E00D4B1A78C8
:100AB00010B11046FFF7E4BF0B4B03EB021393F9A1
:100AC0000430002B0DDB5A09012103F01F0399406C
:100AD00002F12003054A42F82310BFF34F8FBFF302
:100AE0006F8F7047C40200200451000800E100E04D
:100AF0000228404B28BF002000011A5801F07F0057
:100B0000C90910B581F00103B9B31B0130B119183F
:100B100002EB4111D1F80049002C11DB034402EB38
:100B20004313D3F8001941F00261C3F8001983019F
:100B300043F02003136113699B06FCD4B8BB25E086
:100B4000D1F8004944F00064C1F80049D1F80849DF
:100B50006406FBD5D1F80049034444F0804402EB1D
:100B6000431344F40014C1F80049D3F80819890765
:100B7000FBD50221C3F80819D9E748B902EB432392
:100B8000D3F8001941F40011C3F80019936C0EE07A
:100B9000190100EB031302EB4313D3F80049002CB7
:100BA00006DBD3F8002942F40012C3F8002910BD77
:100BB000D2F8044844F40074C2F804485469240686
:100BC000FCD5D3F8004944F0804444F40014C3F841
:100BD00000490B1802EB4313D3F808198907FBD51A
:100BE0000221C3F80819D2F8043843F48063C2F82C
:100BF0000438DCE704510008036944F2092243F099
:100C000001030361036C9BB2934206D80369DA07C0
:100C1000FCD40369002BFCDA704703699B00FCD508
:100C2000036923F0005323F0010343F000530361F1
:100C3000EFE700001D4B1E4A1B68934226D21D4A57
:100C4000934225D81C4A934224D21C4A934223D86B
:100C5000A2F5DB12A2F5BA5293421FD8A2F5B71241
:100C6000A2F5587293421BD8154A93421AD2154ADC
:100C7000934219D2144A934234BF0F230E23C26801
:100C800022F4705242EA8323C36070470623F6E7DA
:100C90000723F4E70823F2E70923F0E70A23EEE746
:100CA0000B23ECE70C23EAE70D23E8E730010020F3
:100CB0000048E801DF9DA30100366E013FA44C010E
:100CC000807306010024F400C0E1E400034B43F606
:100CD00002229A87002283F83E2070477814002071
:100CE000F8B5444B044681781D7801F07F03082B4A
:100CF00008D94FF0E023D3F8F03DDB0700D500BE64
:100D00000020F8BD3C4BA6889878E378C6F30A0229
:100D100003F00303022B0CD0032B5ED0012BE8D190
:100D2000022840F2FF3308BF4FF480639A4219D97A
:100D300004E002280AD1B2F5007F13D04FF0E0237F
:100D4000D3F8F03DDA07D4D500BED2E7202A42D846
:100D500016F4FF6FF2D0A2F10800284B80B2C34016
:100D6000D807EBD52846FFF7B9FD0028C1D0A678F3
:100D7000022D234B28BF002506F07F0221492D01BB
:100D800057005D5907EBD617A38801EB0711C3F392
:100D90000A034B8143F40043A7790F73E17801F014
:100DA0000304611E43EA844318BF0121F60943EAA4
:100DB0000173194615D002F1480362F399515B01A2
:100DC000E9500023D5F81C181A44012393400B4323
:100DD000C5F81C3895E7402AAFE7022818BF402322
:100DE000A1E702F1580149016B501023D5F81C18F6
:100DF000EAE700BFC40200202C210020010100010D
:100E0000045100087815002000F07F02104B03EB1E
:100E1000420303EBD01393F82600203310F00100B7
:100E200011D19A79C2F3800152070FD4987910F04A
:100E300001000AD19A79520708D49A79012042F028
:100E400004029A717047002070470846704700BF3F
:100E50002C2100200D4B014610B504461878FFF7F1
:100E600047FE0B4B04F07F0203EB420303EBD4106D
:100E700090F8263043F0020380F8263090F82630B0
:100E800043F0010380F8263010BD00BFC4020020EB
:100E90002C2100202DE9F84F00F07F06244C254B33
:100EA000894604EB460490461F784FEAD01A04EBBB
:100EB000D014750094F826B020341BF0010B07D035
:100EC0004FF0E023D3F8F03DDB072ED400202AE0DA
:100ED000A37943F00103A371FFF780FA05EB0A033E
:100EE000154A190102EB03135D8955B9FFF779FA29
:100EF000A37965F30003A371A37965F38203A3715A
:100F0000DEE742F80190C3F804B0A3F8088016B9F0
:100F10000A4B23F81A80384652463146FFF74CFDFB
:100F2000FFF75FFA0120BDE8F88F00BECEE700BFF3
:100F30002C210020C4020020781500201021002060
:100F40000C4B1A6922F440721A611A6942F4007259
:100F50001A611A6922F0F8021A611A6942EAC0029B
:100F600042F002021A611A6942F480321A61BFF338
:100F70004F8F7047003C024070B51B4C637893B3B1
:100F800023785A072FD4194DEE7866B305F1100077
:100F9000FFF708FA3F2826D93046FFF735FF10B390
:100FA00005F11000FFF7FEF93F28EB7806D9402243
:100FB0000F491846BDE87040FFF76CBF03F07F0291
:100FC00004EB420404EBD31494F826305B070AD5F3
:100FD00094F8263013F0010205D194F8263062F31C
:100FE000820384F8263070BD2C210020642100206B
:100FF000B8140020F8B504460D461646022763785B
:10100000052B04D1E37803F00303022B08D04FF043
:10101000E023D3F8F03DDB0700D500BE0020F8BD8B
:101020002046FFF75DFE0028F1D0A378DA0914BF4F
:1010300033702B70012F23781C44F0D00127DEE79A
:1010400070B54B79022B35D18B79022B32D11E4EE4
:10105000B37843BB8B78092533700B78CC18637851
:10106000242B1AD1954213D96378042B0DD16379BF
:101070000A2B0AD12678154AA019511CFFF7BAFF8E
:1010800088B10E3516FA85F5ADB2FFF775FF12E09F
:1010900023781D441C44ADB2E1E7052BE4D1204682
:1010A000FFF71EFE48B94FF0E023D3F8F03DDB0711
:1010B00000D500BE0025284670BDA3787370237844
:1010C0001D441C44ADB2CFE76421002066210020FE
:1010D00010B54B790846082B0ED18B79062B0BD116
:1010E000CB79502B08D1162A08D84FF0E023D3F83B
:1010F000F03DDA0700D500BE002010BD8B78104C03
:1011000084F82D3004F12E020B7804F12F011844DD
:10111000FFF770FF0028E8D000231F22094994F848
:101120002F0084F83030FFF7B5FE30B94FF0E023E0
:10113000D3F8F03DDB0700D500BE1720DDE700BF88
:101140007814002078040020114B10B483F82C0090
:10115000022099689A6B83F830008A1A93F83C0051
:101160009A6220B942F2050483F83E009C8759B187
:1011700052B11A7B5DF8044BD20914BF93F82E00CC
:1011800093F82F00FFF766BE5DF8044B704700BF71
:1011900078140020144B10B5144C6BB1607BAFF386
:1011A000008048B942F2077384F83E000120A3870B
:1011B000BDE81040FFF7C8BFA268A36B0C49D21A64
:1011C00094F82F00B2F5805F28BF4FF4805292B29E
:1011D000FFF760FE30B94FF0E023D3F8F03DDB07B6
:1011E00000D500BE10BD00BF000000007814002034
:1011F00078040020024A136943F0004313617047EA
:10120000003C0240054B1A69002A05DA044A5A607C
:1012100002F188325A601B69704700BF003C0240EF
:1012200023016745C043002200F080001146FFF70C
:1012300031BE000010B40346064C006822465968CF
:1012400003C20022C4E9022218785DF8044BFFF7BC
:10125000E9BF00BFFC16002010B5144C227A32B151
:10126000134B04221A60BDE81040FFF7F7B823685B
:10127000D3B1104B197861B11A7003220C4B1920AD
:101280001A60FFF7CFF80C4A0C4B1188927819803E
:101290009A70D4E900329A4206D3054B04221A60B0
:1012A000FFF7DCF8FFF7A2F810BD00BF1017002011
:1012B0002821002029010020A24E0008252100201D
:1012C000F8B5154D064617462B7D012B21D001237D
:1012D0004CF250302B75FFF7ABFAB8B90F4C2369BD
:1012E00023F440732361236943F40073236123696A
:1012F00043F0010323613760BFF34F8F4CF250304E
:10130000FFF796FA236923F00103236100232B756D
:10131000F8BD0220FCE700BF4C040020003C024066
:101320002DE9F0411A4E002405461A4F3278234623
:10133000DFF87080A2420DD9D8F8003013EB4413C7
:101340000BD14FF0E023D3F8F03DDB0700D500BE12
:10135000BDE8F0819B1A07EB4313DB6828469847EA
:1013600001343278E4B2511C2346A142E2DA382239
:101370000021094802F0C4FF1022FF21074802F0B3
:10138000BFFF1222FF210648BDE8F04102F0B8BFBE
:101390001C210020245100082C2100203021002095
:1013A000402100201821002008B50E4BE822002122
:1013B000184602F0A5FFFF2200F1680142714FF4C8
:1013C000E132C161826008220749827300F128027C
:1013D00001620261054A4261002242830283C284A3
:1013E000828408BD6421002080000180400001004B
:1013F000084B00225A831A601A831A71DA849A847D
:1014000093F82320D10904BF42F0800283F82320FF
:10141000704700BF6421002040220021014802F0F3
:101420006FBF00BF7814002040220021014802F065
:1014300067BF00BF78140020930800EB830313B547
:10144000984209D112F0030204D00B6801A901935C
:1014500002F066FF02B010BD0C6840F8044BEFE7E5
:10146000930813B501EB8303044699420BD112F0A4
:10147000030206D0002301A8019302F051FF019B53
:10148000236002B010BD51F8040B2060EDE72DE998
:10149000F74F884601894489074689B28588A4B2F6
:1014A000A14236BFC4EB45060E1B7618B6B256B342
:1014B000B54206D2A9422E462CBF491B49198CB20F
:1014C0004481964228BF1646A54227D9A5EB0409B8
:1014D000FA88751B3968C2F30E001FFA89FC25448F
:1014E000012B19FB00F9024615FB00F500FB041463
:1014F0001FFA89F9ADB21ED0664512D87243214653
:10150000404602F00DFF79893246B88889B2FEF76D
:101510002DFF7881304603B0BDE8F08F641BA4B284
:10152000D2E74A462146404602F0FAFE2A4639688A
:1015300008EB0900E5E7664507D816FB00F22146EF
:1015400092B24046FFF78CFFDDE729F0030B2146FE
:1015500040461FFA8BFB5A46FFF782FF19F003093A
:1015600022D0C9F1040A002304EB0B014A461FFAFA
:101570008AFA01A80193AA4528BFAA4602F0D0FE24
:101580003C6801ABA5EB0A055246214603EB090076
:1015900002F0C6FE019BADB204EB0A01C8F80030B0
:1015A000002DB0D02A46CCE73968F9E770B5204C59
:1015B00063781BB323785907C3F380051ED41D48F5
:1015C000FEF7DFFED0B11C4EB078FFF71DFCA8B1CE
:1015D0002B464022194906F11C00FFF758FF05462B
:1015E000B0787DB12A461549FFF754FC40B94FF059
:1015F000E023D3F8F03DDA0700D500BE002070BD2F
:101600002846FCE700F07F0304EB430404EBD0140E
:1016100094F826305B07F1D594F8263013F00102D8
:10162000ECD194F8263062F3820384F82630E5E7A3
:101630002C2100208021002064210020F8140020AB
:1016400070B50589044603894289ADB29BB286888C
:1016500092B2934236BFC2EB46029B1A9B189BB2D2
:101660009E4217D8C079C00914D170BD801B80B2CA
:10167000B042FBD2E2882368C2F30E0202FB0030C4
:1016800002F04EFE01222946A088FEF76FFE20815F
:101690000120EAE72846EBE72DE9F043437885B0DF
:1016A00004460E46023B042B00F28280DFE803F082
:1016B00071038B93BB00604F0025DFF88C813A7873
:1016C0002B46DFF88891AA4240F28E80D9F800308C
:1016D00013EB451340F08B8001353A78EDB2511C85
:1016E000A9422B46EFDA554F3B78580724D53B7873
:1016F0006FF382033B700023CDF80630CDF80A303B
:10170000ADF80E3023788DF8043005238DF80530C0
:101710004B4BD3F8008008F10405002E6FD028460B
:1017200001A9FFF78DFF054635B94FF0E023D3F847
:10173000F03DD90700D500BEFB78DA0726D5002397
:10174000CDF80630CDF80A30ADF80E3023788DF89C
:10175000043003238DF8053063680293384B1D680D
:101760002C1D002E59D130462B68984701A92046E0
:10177000FFF766FF2B6804460120984734B94FF005
:10178000E023D3F8F03DDB0700D500BE05B0BDE88F
:10179000F0832A4B00211A786FF300021A701A782E
:1017A0006FF341021A7059701A7861F382021A704D
:1017B000234B1D682F1D002E3AD130462B689847C9
:1017C00021463846D4E71D4B1A78D707DED51A785C
:1017D00042F00402EBE7194A1378DD07D6D51378F7
:1017E0006FF382031370E3E79B1A08EB4313DB6983
:1017F000002B3FF471AF6168207898476CE7D8F808
:1018000000303046984701A92846FFF719FFD8F85D
:10181000003005460120984786E701A92046FFF7DA
:101820000FFF0446AAE7074A13780133DBB2D9E772
:1018300021463846F3E700BF1C2100202C21002060
:1018400020210020242100202451000818210020FC
:101850002DE9F04F4FF0A0498BB080F0010607460C
:10186000D9F848300024D9F84830734DC3F38323A6
:101870000133019333017602DBB24E44039306F544
:101880001066039AD9F818382244D340DA0753D5A2
:101890006301012FE2B2049306EB4413D3F80880EE
:1018A000C3F8088040F0948018F0010F0AD0002C93
:1018B0004BD1624B5B88002B47D03A4621462046ED
:1018C000FFF77AF818F0800F36D04FF0A0434FF0B2
:1018D0000108D3F8343808FA04F818EA030F2BD0BB
:1018E00063014FF0000A210303F1A04B01F1A04175
:1018F000DBF8103901F58051C3F3C94302931FFA95
:101900008AF3029A9A420DD9DBF810296B8B92B2B6
:101910004B489A4228BF1A46DBF8183900EA83037D
:101920009A4224D94FF0A042049B1344D3F81039B3
:10193000C3F31203002B44D00134019A2035E3B2E3
:101940009A429ED80BB0BDE8F08F2B8B4FF4E0612C
:1019500062F07F0207A809930023ADF81C10012153
:101960008DF820208DF82130FFF796FEAAE76869F0
:1019700038B101230591FFF78AFD05990AF1010AA3
:10198000BDE72B69900803EB8000984214D112F058
:10199000030C5FFA82FE0BD01EF0020F187818BFFE
:1019A0001888BCF1030F04BF9B7840EA034008602D
:1019B0002B6913442B61E1E753F804CBC1F800C055
:1019C000E3E7D2F8343823EA0803C2F83438B3E73F
:1019D00018F0080F5FFA88F30ED04FF4C063ADF82B
:1019E0001C30184B93E803000AAB03E90300012104
:1019F00007A8FFF751FE9FE7DB079DD528F4FF48B6
:101A000028F05F081FFA88F3002B95D144B90B4BDF
:101A10001B882BB1224621462046FEF7CDFF8BE7DF
:101A20002B894FF4E0618DF8202009930023ADF855
:101A30001C108DF82130DAE77815002010210020E5
:101A4000FCFF0300680400202DE9F04F1546C27921
:101A500006898846D209418985B00746B6B284888E
:101A600089B214D18E4236BFC1EB4401711A891973
:101A700089B2A14280F09880611A89B28D4228BF54
:101A80000D46002D4BD1284605B0BDE8F08FA5428C
:101A900009D32BB9C2882D1BC2F30E0202FB0588A5
:101AA0000E462546EDE78E424FEA440036BF421A05
:101AB000721A921992B22A448242E2DB621B2046D9
:101AC00092B2FEF753FC0646DBE7AAEB040A1FFAC4
:101AD0008AFAA245F9D2A4EB0A09FA882C1B3868C5
:101AE000C2F30E011FFA89FC5444012B19FB01F9C2
:101AF0000A4614FB01F401FB0A0A1FFA89F9A4B291
:101B000019D065450DD86A434146504602F008FC9D
:101B10002A463146B888FEF729FC3881B3E7B24639
:101B2000D7E74A464146504602F0FAFB224608EB08
:101B300009013868EAE7654507D815FB01F2504608
:101B4000414692B2FFF778FCE2E729F003034146F1
:101B500050469BB21A460193FFF76EFC19F0030939
:101B600020D0C9F1040BD8F80020019B03A91FFA6B
:101B70008BFB03920AEB03004A46A34528BFA3460A
:101B800002F0CEFB3B6803A9A4EB0B045A46494480
:101B9000184602F0C5FB5844A4B2002CB8D0224627
:101BA0004146CFE73868F8E700256CE72DE9F041BA
:101BB000334C1D460E46E3788B420DD1AAB2BAB91A
:101BC000304BE3B9304B8BBBFFF7D6F9A378B34268
:101BD00036D00120BDE8F081A3788B42F6D04FF0DB
:101BE000E023D3F8F03DDB0700D500BE0020F1E78D
:101BF0000023264904F11000FFF726FFE0E7637990
:101C0000FF2BDFD0214F07EB0508B845DAD061790B
:101C100017F8013B9942F8D1228B638B92B29BB2A9
:101C20009A42F2D00020AFF30080EEE7228B638B64
:101C300092B29BB29A42C7D00020AFF30080C3E7B4
:101C4000134B13B10020AFF30080FFF7AFFC002867
:101C5000BFD11048FEF795FB0028BAD1002DB8D0AF
:101C600015F03F05B5D1A078FFF7CEF80028B0D029
:101C70002A462946A078FFF70DF90028A9D1AEE73A
:101C8000642100200000000000000000B8140020C3
:101C9000000000008021002010B5A1B14FF6FF72B6
:101CA00000238A4228BF0A460146084892B2FFF73D
:101CB000CBFE04460548FEF764FB3F2801D9FFF739
:101CC00075FC204610BD0C46F4E700BF80210020C3
:101CD00013B50DF10700FEF7E1FB9DF807407CB15D
:101CE00000F10063084903F50043014407485C68BC
:101CF000B4F5EE7F28BF4FF4EE74224602F010FBDD
:101D0000204602B010BD00BF08800008301F002030
:101D100070B40B4C0B4EA26BA36835469B1AA362A2
:101D2000032384F8303004F120030FCB07C531467C
:101D300094F82E002B700D2270BCFFF7ABB800BFDB
:101D400078140020780400202DE9F74307460E465A
:101D500000244FF0FF391546FFF754FAA5420BD97E
:101D60002A1B311904EB0708032A0AD93259002328
:101D70004046FFF7A5FA58B1FFF73CFA03B0BDE8BB
:101D8000F08301A8CDF8049002F0CAFA019AEEE7B8
:101D90004FF0FF300434FEF74BFDDFE7114B10B579
:101DA0009989DA8993F900008C1AA4B2402C28BFD3
:101DB000402400280DDA914211D0224699680A4841
:101DC00002F0AEFA802008492246BDE81040FFF735
:101DD00061B891424FF00000F5D10146F4E7802050
:101DE0000021F1E7FC1600203815002070B50346ED
:101DF000124D00680C462E465968AC6003C600219F
:101E0000E981D9888A4228BF0A46AA81D98881B146
:101E10004AB144B94FF0E023D3F8F03DDB0700D5D9
:101E200000BE002004E0FFF7B9FF0028F2D0012037
:101E300070BD1878FFF7F6F9F7E700BFFC16002031
:101E40002DE9F04FDFF8848291B09A4B00201D6895
:101E50002B689847AB89E9899BB2288989B28B4264
:101E600036BFC1EB40025A1AD21894B29CB1A042BC
:101E700005D283422CBF1B1A1B1899B2E9818842F4
:101E800025D96A8901246B6805A8C2F30E0202FBFA
:101E9000013102F045FAE9892246288989B2FEF724
:101EA00065FA2B68E88101209847002C40D09DF806
:101EB0001530013B072B00F2CB83DFE813F00B005A
:101EC00019004B043F043F042F00A9034304091ADF
:101ED00089B2D4E79DF81400FFF722FA14220021FA
:101EE000754802F00DFA9DF8183088F80230ACE71A
:101EF0009DF81400FFF714FA002114226E4802F036
:101F0000FFF96E4B022201201A60FEF78BFA6C4A31
:101F10006C4B1188927819809A7096E76A4A137808
:101F20004BB94FF0E023D3F8F03DDA0700D500BEFF
:101F300011B0BDE8F08F1378013BDBB2137012785B
:101F400002F0FF03002A80D1604C5B4E227833619F
:101F500042F001029DF81450227094F8262063F399
:101F6000000284F8262094F8262063F3820284F885
:101F7000262094F8272063F3000284F8272094F8A1
:101F8000272063F3820284F827209DF8182002F0AE
:101F90006003602B07D14FF0E023D3F8F03DD90761
:101FA00005D500BE03E0402B0CD1494B3361002125
:101FB0009DF81400FEF79CFD80219DF81400FEF7AB
:101FC00097FD42E702F01F02012A00F06B82022A0D
:101FD00000F09B82002ADED1202B1BD19DF81C3003
:101FE0000F2BE4D823443B4A1B791278934209D241
:101FF000394A116811EB4311D9D006AA2846FEF7D9
:10200000E5F99AE1511C9942D1DB9B1A334901EB66
:102010004311F2E7002BBED19DF81920092ABAD846
:1020200001A151F822F000BF8724000875240008A0
:10203000971F000861240008971F0008512000081E
:10204000FF220008971F0008AB200008ED200008C1
:10205000012D98BF2B46224A00271B01D258DDE9EB
:102060000601D2F80038C6E9000123F4FE639DF8AA
:102070001A1043EA0113C2F80038C6E90277FEF7E6
:10208000ADF9184B5A8B4AB11F83012239462846B5
:10209000C3E90477144B5F80FEF78EFCFEF7A1F9CD
:1020A000237843F002032370CFE6637801228DF892
:1020B0003030F2E120210020FC16002028210020F1
:1020C0009C4E000825210020242100202C210020E6
:1020D000C90300081C2100201821002024510008F9
:1020E0000451000878150020102100209DF81A9056
:1020F0006378994500F092806378002B51D0022DCF
:10210000A84BDFF8DCB24FF0000734BF2A460022AC
:102110008BF8077012019E5803EB0513B26993F810
:1021200008A022F00802B261FEF758F94FF001133F
:102130009D4A01218BF80670C6F81C38CBB29A452F
:102140001AD906EB4113D3F80009002805DAD3F8B1
:10215000000940F09040C3F800095787D3F8000BFE
:10216000002805DAD3F8000B40F09040C3F8000BCC
:10217000578501312032E1E74FF4846333613369DD
:102180009B06FCD4102333613369DF06FCD4284658
:10219000FEF7F4FBFEF725F9A6782846FFF7C0F80E
:1021A000A67084F80190B9F1000F00F09F807F497C
:1021B0004B78022B10D04FF0E023D3F8F03DDE0730
:1021C00000D500BE4FF0E023D3F8F03DDD0700D589
:1021D00000BE00236370EAE6CB79DFF808A2C3F300
:1021E0008012C3F340131B0143EA4213227822F00A
:1021F0003002134323704B880B4409310193019B38
:102200008B420FD86A4B012205201A60FEF70AF9AB
:10221000684B694A1188927819809A7006A8FFF76E
:1022200009F812E64B780B2B09BF0B784FF0010928
:1022300091F80390C9184B78042BBCD1019B00275F
:102240009AF800605A1ABB4692B2B74227D25B4B4B
:102250001E6816EB4716AED033692846CDE9021248
:1022600098470828DDE9021237D9824235D3B9F1FF
:10227000010F05D13269524B9A4208BF4FF0020953
:102280000022D3B2994510D808444E4E884217D840
:102290009AF8003001335B458DDB0146AFE7ABEBCD
:1022A0000606494B03EB4616D6E78E7801323344D7
:1022B00054FA83F31E79FF2E7FF47DAF1F71E0E7A0
:1022C0004B78052B06D18B7803F07F02DB0906EBF8
:1022D0004202D7540B781944D8E701379AF80060C6
:1022E000FFB2731C9F42BB46AFDD64E7304B022256
:1022F00001201A60FEF796F82E4B344A8AE7BDF8A3
:102300001A30190A4A1E062A3FF651AE01A050F8AB
:1023100022F000BF312300084323000851230008A6
:10232000AF1F0008AF1F0008AF1F000843230008BD
:102330001222274906A8FFF759FD00287FF485AD32
:1023400035E602297FF433AE224931F80229F1E75C
:1023500013F0FF0318D0032B46D0062B3FF627AE11
:102360001D4A52F823402046FDF744FF1B4BC2B2E2
:102370002046302A28BF3022A118814209D010F807
:10238000014B23F8024FF8E740F20942134B5A8001
:10239000012201321149D2B2520042F440730B8043
:1023A000C8E700BF0451000878150020B5000020E0
:1023B00028210020252100209F4E00081821002000
:1023C0004110000840210020245100089C4E0008C4
:1023D00017010020B7000020D850000898160020F0
:1023E000102100201C210020BA4B0DF1200CBA4C0A
:1023F0000027D3F8102A0892D3F8142A0992D3F8A8
:10240000183A0A93B54B0CAD03F1100E2A46186822
:10241000083353F8041C2E46734503C63546F6D1DF
:102420001CF8015B05F00F0340336B4413F8103CBC
:10243000A380AA4B1868083353F8041C164673454A
:1024400003C63246F6D110AB0137043403EB151541
:102450000C2F15F8103C24F8023CD3D1182298E731
:10246000BDF81A30012B7FF4A2AD237843F00803A6
:102470002370D3E6BDF81A30012B7FF498AD237892
:102480006FF3C303F4E72378C3F340129B0803F010
:10249000020313430222ADF830300CA906A8FFF75F
:1024A000A5FCD2E49DF81C300F2B3FF680AD2344F1
:1024B0008B4A1B79127893421ED28A4A116811EB1B
:1024C00043113FF474AD06AA2846FDF77FFF0028AC
:1024D0007FF4BBAC9DF8183013F060037FF467AD58
:1024E0009DF81920A2F10A0101293FF660AD0A2AE0
:1024F00033617FF493AED9E5511C9942FFF657AD95
:102500009B1A794901EB4311DDE79DF81C0000F0AF
:102510007F0108293FF63FAD04EB41074FEAD01E8B
:1025200007EBD0174A0097F814C06D4F3F78BC45B1
:1025300015D26C4F3F6807EB4C171BBB9DF8193049
:1025400003F0FD0CBCF1010F20D0002B7FF423AD74
:102550002244724492F82630C3F340039AE707F10D
:102560000109E14509DBACEB070C5F4F07EB4C17AA
:10257000002BE3D006AA394640E5002B7FF417ADC7
:102580000027DBE7002F3FF412ADF3E7BDF81AC0D8
:10259000BCF1000F29D1012B37D1544B8EF0010033
:1025A0001B7801EB00115248022B28BF00231B01AE
:1025B000C35803EB4113D3F8001921F40011C3F8F9
:1025C0000019D3F8001941F08051C3F80019A3187D
:1025D000734493F826206CF3410283F8262093F885
:1025E00026206CF3000283F82620002F3FF42DAC48
:1025F00006AA39462846FDF7E9FE0023336194F820
:102600002730D8073FF521AC08E6FEF723FCECE7BE
:102610009DF8181001F07F04CF0908EB440303EB89
:10262000D11393F826006FF3000083F8260093F887
:1026300026006FF3820083F82600002C61D12D4C18
:102640009DF814602378079DB7EBD31F14D04DB1CC
:102650004FF0E023D3F8F03DDB077FF5F6AB00BE8B
:10266000FFF7F3BB2369002B3FF4EFAB22460321B6
:1026700030469847FFF7E9BB94F90030A068002B7B
:1026800006DB00283FF4E1AB2A461B4901F048FE77
:10269000E389A2682B442A449BB2A260E288E381CA
:1026A0009A4201D03F2D29D8236933B92078FEF70B
:1026B000B9FD00287FF4C9ABCAE702210D4A3046B4
:1026C000984701460028F1D13046FEF711FA8021E3
:1026D000304674E40070F01F98160020A54E0008E4
:1026E0001C2100201821002024510008C4020020D1
:1026F00004510008FC16002038150020FFF74EFB9F
:10270000D7E71A7D154B1B789A420ED2144B1B68E3
:1027100013EB42133FF405AC9C699DF81920079B0D
:102720009DF81400A047FFF790BB581C9042FFF69D
:10273000F8ABD21A0B4B03EB4213EDE798F80030DD
:10274000FFF783BB069B002B3FF47FAB07989847AE
:10275000FFF77BBB98F80330FFF777BB1C21002005
:10276000182100202451000873B504242E25104E92
:10277000FEF748FD2046FEF7E3FB4FF0FF30FEF783
:1027800057F801210DF107008DF80750FFF784FA83
:10279000FEF70CFF3378FF2B01D0FFF751FB01341C
:1027A000082CE7D102B0BDE87040FEF723BD00BFA2
:1027B000C4020020F8B505460D4FFDF71BFD044689
:1027C00094B10C4E04E03B78FF2B01D0FFF738FBAF
:1027D0003046FDF7E7FD0028F5D021462846FFF7F3
:1027E0005BFA0544241AEBE7BDE8F840FEF7DEBECD
:1027F000C40200208021002010B51378104603F099
:102800006003202B4FD1294A848813789C424AD1F7
:102810004378203B032B46D8DFE803F00214173936
:10282000012905D107222249FFF7E0FA012010BD56
:102830000329FBD11F4B002BF8D01D490020AFF31B
:102840000080F3E70129F1D1ECE7012902D1FEF77D
:10285000F1FCEBE70329E9D1438803F0010113718F
:1028600092F8233081F00100B0EBD31F1CBF60F35E
:10287000C71382F823300029D8D00F48FFF79AFFFA
:102880000E48FFF797FF0E4B00221A70CEE7012982
:10289000DDD00329CAD10B4B002BC7D041880020C3
:1028A000AFF30080C2E70020C1E700BF6421002031
:1028B0006C21002000000000B64E0008D14E000838
:1028C0008C22002000000000012913B5144613D10A
:1028D000137803F07F02022A3ED16278012A3BD1AD
:1028E0006288002A38D1384AA08892F83030C0B2C5
:1028F000042B03D1FEF7AEFA012011E092F82E105E
:1029000081420FD1022BF7D1FFF702FA0028F3D151
:102910004FF0E023D3F8F03DDB0700D500BE0020E8
:1029200002B010BD92F82F208242E5D1002BE3D1F6
:1029300000F07F02254B03EB420303EBD01393F827
:1029400026202033D107D7D49B799A07D4D41F22CD
:102950001F49FEF79FFAD9E703F06003202BDED171
:102960006378FE2B14D0FF2BD9D16388002BD6D1EE
:10297000E1888AB2002AD2D1134B204683F8302056
:10298000998783F83E20C3E90D22FEF753FCB3E795
:102990006388002BC3D1E388012BC0D18DF80730A9
:1029A0000C4B1BB1AFF300808DF807009DF807308A
:1029B000002BB4D0013B01220DF1070120468DF818
:1029C0000730FFF713FA97E7781400202C21002036
:1029D00078040020000000002DE9F04FDFF84C8360
:1029E0008BB0B8F81630D8F80870049023B15BBAF1
:1029F0009BB2B7FBF3F39BB2D8F83860D8F811500C
:102A0000B91BC0482DBAB1F5805FB6FBF3F228BF01
:102A10004FF4805103FB1266154401910A460021D0
:102A200001F06EFCD6B9B84C019AA4F12003B24271
:102A300023D898F82E00002E00F05181B2B2B1498F
:102A4000FEF728FA002840F059814FF0E023D3F830
:102A5000F03DDB0740F1528100BE4FE14FF0E02333
:102A6000D3F8F03DDB0700D500BE0120FEF72EF9BC
:102A70000BB0BDE8F04FFEF767BB18464FF400728D
:102A8000002101F03DFC0346F5B9A04A02F1380EE1
:102A90001068083252F8041C9C467245ACE80300EA
:102AA0006346F5D110685523CCF800009288ACF845
:102AB000042084F8DE31AA2384F8DF31013506F5DD
:102AC000007604F50074AFE7B5F5017F40D8681EC5
:102AD0008F4AA4F12209B0F5817FB2F85EE028BFE9
:102AE0006FF4817C0EF1010E28BF05EB0C00010292
:102AF00001F5807A0A46724538BF02F1010C02F1F5
:102B000001022CBF4FF0000C1FFA8CFC524529F833
:102B100002CFF0D148B9F82204F8202CFF2204F8A3
:102B20001F2C4FF6FF7224F81E2CDFF8E4C104209E
:102B30004FF6FF7EBCF81620914204D8521AFF2AA5
:102B400098BF23F812E001380CF1180CF2D1B5E768
:102B5000B5F5027F5DD840F2052295424FD16D490F
:102B6000A4F115000A78002A47D0013103F8012B9F
:102B70008342F7D128222346002104F8152C664A07
:102B80004FF0000A624843F2E21B126845F6734CAC
:102B9000120A52020392182202FB010003298DD867
:102BA000828A1F468146029203F10B02059299F830
:102BB00000E0BEF1000F27D009F101093A4602F802
:102BC00001EB1746059A9742F1D1029A83F80DA0BE
:102BD0005A83C268A3F80EB0A3F810C0A3F812C0BD
:102BE000A3F814A0A3F816B0A3F818C07AB102692C
:102BF000DA61013120331830D0E72022B6E729010D
:102C0000A1F501511139BAE74FF0200ED6E7039A2A
:102C1000EEE7424A95423FF651AF6FF402773C48E7
:102C20000021A5F2072CEA198646B0F81490E14578
:102C300003D8B0F81690E14504D2013118300429C8
:102C4000F3D103211820032900FB01E0B0F814C0E0
:102C5000A2EB0C0202F1020C12D002694FEA4C21E5
:102C6000B2EB4C2F7FF62AAF521AC068B2F5007F44
:102C70000144184628BF4FF4007201F051FB1DE7D4
:102C800002F50023244A126803F5817302F1006003
:102C90001902B0EB032F7FF611AF214B120A204629
:102CA00044F80CCC44F8203C03F1144344F8082CBD
:102CB0004FF4807203F52C1344F8141C44F8102CC4
:102CC00003F6023344F81C3C164BC4F8DC314FF4D5
:102CD000005344F8183C144B44F8043CCDE7049BE3
:102CE00031468DF8200007A88DF81C30072309967F
:102CF0008DF81D308DF82160FEF7CEFC0BB0BDE8DD
:102D0000F08F00BF78040020980400207700002096
:102D1000C8020020A20000200C21002008010100B0
:102D20005546320A306FB10A000FB85378140020AC
:102D30002DE9F04F8E4C95B084468E4694F8309035
:102D40001F46B9F1010F00F0BD81B9F1030F00F08A
:102D5000D982B9F1000F50D194F82F308B4268D14D
:102D6000DFF81C821F2FD8F80020474602D1814B84
:102D70009A420ED0042394F82E0084F83030FEF7E7
:102D800069F894F82F00FEF765F8002015B0BDE84B
:102D9000F08F464625460FCE0FC596E80F0007C5B3
:102DA00025F8023B1B0CA2682B70734B84F82C9007
:102DB00023626368C4E90939012384F83030E37B76
:102DC000282BC4E90D290ED1E38A82B1217BC909E0
:102DD00010D0002B41D05BBA9BB29A420AD3604616
:102DE000FFF7FAFD09E02A2B30D1E38A1ABB002B4A
:102DF00000F064810220FEF7A7F994F83030022B2E
:102E000017D194F82E005D4B00F07F0203EB4203D4
:102E100003EBD01320339B799B070AD4A268A36BE2
:102E20009A4240F29582237BDB0900F09182FEF703
:102E300011F80120AAE7217BC909DBD16BB15BBA8C
:102E40009BB29A42D6D3FEF7A5F9D6E7B2B1217B61
:102E5000C90913D1B2F5805F01D90120CBE792B245
:102E600047497046FEF716F80028C6D14FF0E02318
:102E7000D3F8F03DDE0788D500BE86E7252B94F811
:102E80000D9009D8192B1CD8032B00F0DC80122BD5
:102E90007CD0002B00F00E8194F83C20002ADCD17D
:102EA000E17B636B1E2900F0058198B284F83E2017
:102EB0004FF6FF7242F205019042A18740F0F78081
:102EC00037E01A3B0B2BE7D801A252F823F000BFE2
:102ED00013300008B5300008992E0008992E00081C
:102EE000012F0008992E0008992E0008992E00083D
:102EF000992E00084B2F0008992E0008272F000854
:102F0000204B002B00F0D680227D4846E17CAFF3B9
:102F10000080002840F0CE8094F83C30002BBBD1DC
:102F2000FDF7D4FEB8E7184D4FF400330820C8E988
:102F30000053A368002B90D09842114928BF18462F
:102F400082B2606394F82E008CE74FF000630B931D
:102F500003F1012303F580330C934FF002130D931B
:102F60000BAB93E8070087E807000C20E1E700BF00
:102F70007814002055534243555342532C210020CE
:102F8000780400200000000000010108A1481F2370
:102F9000A14A0DF1100CCDE90B0342F22003106899
:102FA0005168ADF84A302023127A8DF84F3004ABC7
:102FB00003C31A7007AA994B164603F1080718684D
:102FC000083353F8041C1546BB4203C52A46F6D104
:102FD000186899889B792860AB710DABA9800FADFB
:102FE0008F4F9CE80300039783E8030096E80F00E7
:102FF0000BAE07C52B803023ADF84C708DF84E30EA
:10300000884D0FCE0FC50FCE0FC5336824202B601F
:103010008FE70B9B03F4000343F003030B93824BF6
:103020007BB14846AFF3008080F001009DF82E3060
:1030300060F3C71304208DF82E300B9BC8F80030C6
:1030400077E70120F0E794F83C50122200210BA80A
:1030500094F83E6005F00F0594F83D7001F050F9CA
:10306000F0238DF82E500BAD8DF839608DF82C3093
:103070000A238DF838708DF833306A4E0FCD0FC6A5
:103080002B683380694B23B91220A38784F83E3024
:103090004FE74FF48052A6F110014846AFF300808D
:1030A00000230028A38784F83E30FFF6F5AE002801
:1030B0007FF43FAFA368002B7FF4CFAE022384F8E8
:1030C00030309AE6B3F5805F3FF6D0AEE17B282939
:1030D00006D1A36B626B3B449342A363EED27EE6C0
:1030E0002A2940F0F580524D4FF000094F4506D88F
:1030F000A36B626B3B449342A363DFD2A3E655F814
:10310000203C4C4A934237D102F1144255F81C3C02
:1031100002F52C1202F6023293422DD1D5F8DC31A1
:10312000454A934228D155F8186CF10724D416F477
:10313000405F21D016F4805B23D055F8106CB6F5B3
:10314000EE7F19D23D48A91910F8012B002A00F092
:10315000058111F8013B7BB1A2F1410CBCF1190FC3
:10316000A3F1410C9CBF2032D2B2BCF1190F9CBF1D
:103170002033DBB29A42E7D009F5007905F50075F6
:10318000B4E755F8042C2E4B9A42F5D155E9058A3F
:10319000FEF738F82B4B98452ED22B4B01221A7094
:1031A0000BE052F8041F03EB010CE04512D3634619
:1031B0000130082801D07345F3D92E1F4FF0000BC2
:1031C000DA4547DC52462946404601F089F8002896
:1031D0004AD047E0DFF870C04FF0010E1CF8002025
:1031E0000CF800E0002AE8D19142E6D99E58013659
:1031F00040F00F810432F7E7144A5846DFF850E0F8
:10320000D6E753F80B200132D7D10BF1040B594507
:10321000F7D8D2E700800202EE4E0008F74E000811
:10322000312E300078040020000000000000000073
:10323000980400205546320A306FB10AB050000899
:10324000000FB853004000087004002090500008A0
:10325000FFFF070856F8042F00230BEB0800FEF7CA
:103260002FF860B3FDF702F9FDF7C4FF55F8082CFD
:10327000002A81D06C4B19688A4207D044F263005F
:10328000824200D809B14FF0FF321A6055F80C2C79
:1032900044F263018A423FF66FAF02F0070001215A
:1032A00003EBD2028140567AC8B231427FF464AF58
:1032B00040EA060151725A6801325A605CE74FF0E9
:1032C000FF30FDF7B5FA0028CCD10BF1040B77E7FE
:1032D000A36B227B3B44D209A36306D11E291EBFE8
:1032E00042F2050184F83E20A187626B9342BFF44D
:1032F000E5AE4FF0E023D3F8F03DDA077FF57DAD82
:1033000000BE7AE594F82E308B427FF476AD0D2F17
:103310007FF473ADE37B282B09D02A2B14D0434BC9
:1033200053B104F10F01607BAFF3008004E0404B28
:1033300013B1607BAFF3008000231F223D4994F856
:103340002F0084F830308DE5607BFDF785FFF3E7D3
:10335000FEF7DEFC00287FF46CAD87E50B78002BD0
:103360007FF40AAF55F80C0C55F8148CC0BBDFF88D
:10337000D0A000F1006303F500431A6852450ED156
:103380005B685A1EB2F5804F09D2033323F0030362
:103390000833184400F10803B3F5804FE9D355F81A
:1033A00004BC0BF1030222F0030208320244B2F51E
:1033B000804F0BD90220FDF725FFFDF7C1FD4FF02F
:1033C000FF30FDF735FA0020FDF714FF00F1006033
:1033D00008220BA900F50040CDE90BABFEF7B4FCC9
:1033E0000BA8FDF75BF8144B3246294643441844BA
:1033F000FEF7AAFC55F80C3C55F8082C0133934213
:10340000FFF4BAAEFEF764FC0C4B1864FCF794FFB3
:10341000B2E6CDE90031FDF793FD4FF0FF30FDF747
:1034200007FADDE90031F2E6101700200000000085
:10343000000000007804002008800008C802002076
:1034400043494E491E4B80B51A6C9EB042F08052E3
:103450001A641A6C02F080520792079A194A11688E
:1034600041F440411160126802F440420692069A0B
:103470009A6802F00C02042A2AD11B68104B9A6841
:1034800002F00C02082A00F0DC811A6822F0807237
:103490001A600D4A106819688D0100F1CC810B4942
:1034A0005960196841F080711960054910680B680E
:1034B0009C0121D413681B1A022BF8D91CE000BF11
:1034C00000380240007000402C1F0020086C40298A
:1034D0009A6802F00C02082A00F0A8811A68AE4926
:1034E00042F480321A60AD4A10680B689E03C5D45E
:1034F00013681B1A642BF8D9A94B1A6842F480325E
:103500001A605A68D203FCD51A6842F400321A6075
:10351000A34A53689F03FCD5A24A136803F00F0324
:10352000062B40F290819C4B9A6842F4E0529A60DC
:103530009A6842F460429A609A6822F0F0029A60B7
:103540001A68960100F18C81934B9A6802F00C0284
:10355000042A00F0E981082A40F0E88159685A6895
:103560004C025B6802F03F0248BF8F49C3F38813E7
:1035700058BF8E49B1FBF2F25343874A5268C2F3F7
:10358000014201325200B3FBF2F383490024884820
:1035900001268A68874DC2F30312825C8648D340B5
:1035A0002B60FCF75BFF0B6B43F001030B630B6BB2
:1035B00003F001030593059B0B6B43F002030B63C0
:1035C0000B6B03F002030493049B0B6B43F00403A7
:1035D0000B630B6B03F004030393039B0B6B43F030
:1035E00008030B630B6B0AA903F008030293029B09
:1035F0004FF48063CDE90A340223CDE90C63FCF774
:10360000AFFF402300F58060CDE90A36FCF7A8FF44
:103610002046FCF7FDFE694B0BB1AFF30080684B11
:10362000684A19685B680A40B2F1005F0FD103F184
:10363000774303F57F03B3F5002F08D8624B002BC7
:1036400040F076815C4B1B69580500F177814FF49F
:10365000C0534FF0020E0AA957480A9303234FF4B0
:1036600080685A4F0D930023594DCDE90BE30A238F
:103670000E93FCF775FF1223CDE90A8301230C9307
:10368000FCF76EFF444B38465A6B42F080025A6397
:103690005A6B02F080020892089A5A6C42F48042F7
:1036A0005A645B6C03F480430993099B4FF0A04379
:1036B0009A6B22F400129A631A6842F040021A6070
:1036C0001A6842F080021A604FF40022414B1A60DF
:1036D0004FF48013AB65FCF78DFDC0F5BF73044656
:1036E0000133082B33D93C4B07EB000C0AAA03F13A
:1036F000100E1868083353F8041C1646734503C6A9
:103700003246F6D11B780CF1FF311C224FF4002019
:10371000337020FA02F3043A03F00F03161D03F18D
:1037200078036B4413F8503C01F8013FF1D10023BA
:1037300004F108008CF80830C4F5BB730133062B84
:1037400040F220820E342549384400F0E1FD2C611E
:10375000FEF7BEFA2864FCF7EFFD214D2B78FF2B16
:1037600040F0AC82382200211E4800F0C9FD002242
:103770001D4B1E4E1A701E4BDA819A811D4A136032
:103780001D4B23B13046AFF300801C4B1860002363
:1037900032781B4F1C4635E0003802402C1F0020B9
:1037A00000700040003C024000127A000024F40047
:1037B000F45000083001002000000240000000002A
:1037C00000000108030000FF000000003401002099
:1037D000C80200200C210020A54E0008064F00085A
:1037E000C40200202C210020242100201C210020C4
:1037F000B402002020210020000000001821002039
:1038000024510008DFF83C83944280F0BD81D8F851
:10381000003013EB441340F0BA814FF0E023D3F8AB
:10382000F03DDC0740F14A8200BE47E25A68570289
:103830007FF554AE21E61168091A02297FF62BAEF6
:103840005AE65B6858E6136823F00F0343F007035A
:103850001360136803F00F03072B3FF464AE73E6A5
:103860009A6841F28834A24922F0030242F002022F
:103870009A6008689A6802F00C02082A26D19D4ACC
:1038800013681D0727D49C498B6823F4E05343F445
:10389000A0538B608B6823F4604343F400438B6038
:1038A0008B6803F00C03042B3CD0082B20D09348EA
:1038B000914B934A9B68C3F30313D35CD840914B5D
:1038C0001860914B1868FCF70FFE3DE60A68121A63
:1038D000A242CFD938E6136823F00F0343F0070361
:1038E0001360136803F00F03072B7FF42DAECAE7B4
:1038F0004A684B68496802F03F0213F48003C1F341
:1039000088111ABF814800237C48A1FB0001FCF705
:10391000CFFC794B5B68C3F3014301335B00B0FB21
:10392000F3F0C5E77948C3E7784B2EE6734B2CE6F6
:10393000AFF3008000287FF485AE88E6744C754BA9
:1039400022689A422FD0744B9A424FF0000304D061
:1039500072498A4215D1236079E623600323704CB3
:1039600019202360FCF75EFD6E4A6F4B1188927838
:1039700019809A70FEF7F8FE04232360FCF76EFDB1
:1039800065E66A4E012021603360FCF74BFDFF20A5
:10399000FCF73EFD3368B3F5FA7FFBD30020FCF75C
:1039A0005DFDFCF735FD00232360614B0BB1AFF3E8
:1039B0000080604B0BB1AFF300805F4B4FF4806130
:1039C0005E481C685E68FCF7A5FE402100F580603B
:1039D000FCF7A0FE484B1A6B22F001021A631A6B27
:1039E00022F002021A631A6B22F004021A631A6BA5
:1039F00022F008021A633E4A1068196841F001017A
:103A000019601968890754D5196841F2883741F05F
:103A100080011960002110689960374B996811F096
:103A20000C0F40F091801068196821F45021196042
:103A3000314B19688F0300F18D801068196821F0EF
:103A4000807119602C4B1968890100F18980106818
:103A5000196821F080611960274B19680F0100F186
:103A600085801068196821F080511960224B19680F
:103A7000890000F18180324A5A60103AC3F88420EC
:103A8000C3F88820DA6822F4FE42DA60DA6842F489
:103A90007F02DA605A6F22F001025A675A6F42F0D1
:103AA00080725A67154B2B60174B1868FCF71CFD8A
:103AB00003E01168091A0229A3D94FF0E02300227C
:103AC0001A615A619A614FF0FF32C3F88021C3F83E
:103AD0008421C3F88821C3F88C21174AC3F8082D24
:103AE000BFF36F8F84F3088884F309883047FEE7BB
:103AF0002C1F0020003C0240003802400024F4004B
:103B0000F4500008300100202C01002000127A003F
:103B1000FCFF0020EF6926F0B40AE8F5EF6916F023
:103B200028210020A24E000825210020281F002067
:103B3000000000000000000000000108000002403A
:103B400010300024182100201168091AB9427FF6AC
:103B500065AFB2E71168091A64297FF66AAFACE76E
:103B60001168091A02297FF66EAFA6E71168091AD3
:103B700064297FF672AFA0E71168091A64297FF6FD
:103B800076AF9AE70446E2E59B1A07EB43135B68BE
:103B9000002B3FF442AE984701343278E4B2511C16
:103BA00023468C427FF730AE0023AC4A4FF0A04151
:103BB000136053602B708B6C0B6CA94A1B0C1B049D
:103BC00093421BD0A74A934218D002F58032934209
:103BD00014D04FF0E023D3F8F02DD20700D500BE6B
:103BE000D3F8F03DDB0700D500BE4FF0E023D3F85B
:103BF000F02DD6077FF513AE00BE10E68B684FF0B0
:103C0000A04023F001038B60CC6844F0400324F40F
:103C10007054CB6044F4A2548B6B43F480338B63B9
:103C2000FCF7EAFFCC60FDF705F8CB6843F007032B
:103C3000CB60D1F8003E23F00F03C1F8003E4FF4F3
:103C400084630B6103699F06FCD4102303614FF06A
:103C5000A043186910F01000FBD14FF0FF325A61F9
:103C60005A6098619A6942F010029A61D3F800286C
:103C700042F00702C3F80028D3F8042842F00202F9
:103C8000C3F80428DA6822F0C04242F08042DA60C9
:103C90001A6822F0D00242F0C0021A60724A996992
:103CA0000A439A619A6842F081029A60D3F8042824
:103CB00022F00202C3F80428FCF7E2FE6B4B02225A
:103CC00001206B4C1A60FCF7ADFB6A4A6A4B118805
:103CD000927819809A70694E694F07F110082B7815
:103CE000FF2B01D0FEF7ACF87378002BF7D03378B8
:103CF0005807F4D43B79D907F1D54046FCF741FB8E
:103D00000028ECD05F4FDFF8DC813846FCF739FB48
:103D10000028E1D0002301220AA93846FDF7B7FBAD
:103D20008146FDF729F9B9F1000FD4D09DF828207C
:103D30000D2A01D00A2A7FD102214046FDF7ACFFAF
:103D4000DFF8A491FDF732FC2378002209F8032064
:103D50001BB94D48FEF72EFDD7E74C494846FCF706
:103D60003FFA20B14A494846FCF73AFAA0B9494817
:103D7000FEF720FD4848FEF71DFD4848FEF71AFDF6
:103D80004748FEF717FD4748FEF714FD3E48FEF78B
:103D900011FD00232370B8E743494846FCF720FA99
:103DA00028BB4248FEF706FD414B424A50210AA873
:103DB00000F062FA0AA8FEF7FDFC4FF4E0733E4AF9
:103DC00050210AA8CDE900324FF400733B4A00F0BD
:103DD00053FA0AA8FEF7EEFC6A23394A50210093F1
:103DE0000AA842F29A3300F047FA0AA8CCE735490C
:103DF0004846FCF7F5F930B93348FEF7DBFCFEF72F
:103E0000B3FC3248C0E748463149FCF7E9F981463E
:103E100080B93048FEF7CEFCFDF7C8FB2E4ACDF83E
:103E200028900A9B934201DDFCF7E0FA0A9B0133DC
:103E30000A93F6E72948A7E7082A237801D07F2AC2
:103E400054D1002B3FF461AF013B03212448237080
:103E5000FDF722FFFDF7AAFB57E700BF1021002066
:103E60000000544F00003155043800802821002004
:103E70008C2200209C4E0008252100202C210020AF
:103E80006421002074210020EB4E00080D4F000833
:103E9000124F0008144F0008224F00083E4F000840
:103EA000604F0008854F0008A74F0008AC4F00087E
:103EB000C34F0008D54F000800000108E24F00087A
:103EC0000A5000081E500008245000083D50000809
:103ED000455000084B5000089F8601005C500008C8
:103EE00087500008075000084C2200203E2B3FF668
:103EF0000CAF591C0AA88DF8282021700149CA541A
:103F00000121A5E74C220020704700000D4B1A68E4
:103F100001321A600C4A1268022A09D88AB118685C
:103F20001B68C0B2DB0501D5C043C0B2FCF770BA54
:103F3000032A00D07047186810F0010018BFFF2056
:103F4000F4E77047281F0020282100204FF0A043ED
:103F50002DE9F0439D6985B05A691540EE046BD593
:103F60004FF480520021A9485A614FF490729C6C22
:103F700000F0C6F90023A64AC4F38324D380013499
:103F80005A01013302F1A042D2F8001B41F0006156
:103F9000C2F8001BDAB29442F2D80022530103F1B6
:103FA000A043D3F80019002905DAD3F8001941F02D
:103FB0009041C3F800190132D3B29C42EED84FF0C1
:103FC000A0434FF00112C3F81C280922C3F814289B
:103FD000C3F810284FF484621A611A699406FCD45D
:103FE00010224FF0A0441A61266916F01006FBD18A
:103FF0003046FCF7C3FCD4F80038402266F30A13BD
:10400000C4F80038D4F8003923F00303C4F80039A9
:10401000D4F8003B23F00303C4F8003B7B4B5A81E8
:104020005A83A36CD4F8103B43F0C043C4F8103B50
:10403000A36943F44023A361A80419D54FF0A0431A
:104040004FF400525A61D3F8082812F0060FC2F359
:10405000410300F09080991E4B424B414FF4807217
:10406000012101A88DF80830ADF80420FDF714FBFC
:104070002A050CD54FF0A0434FF40062012101A89E
:104080005A614FF48063ADF80430FDF705FB002D55
:104090000CDA4FF0A0434FF00042012101A85A6111
:1040A0004FF4A063ADF80430FDF7F6FA6B070FD5B7
:1040B0004FF0A0435C68670707D54FF400730121F8
:1040C00001A8ADF80430FDF7E7FA4FF0A0435C60BB
:1040D0002E0717D54FF0A04308224D495A61D3F857
:1040E0000828C979C2F30D2219B9996921F008018C
:1040F00099614FF44073012101A80292ADF8043098
:10410000FDF7CAFAEC0645D54FF0A047DFF8FC8072
:10411000BB6923F01003BB613C6AC4F3434304F062
:104120000F06042B43D0062B27D0022B2BD1C4F330
:104130000A1444B308EB46134FEA4619586800289E
:104140003FD0012322463349FDF77EFC08EB0902EC
:104150005389A34217D909F1A0491389D9F8101B33
:104160005B1A9BB2138176B9294A118816805B1AB3
:10417000A8F8083007E0022370E7264A264B1168AA
:10418000196012685A607B69D906C5D4BB6943F0CF
:104190001003BB612A0302D50020FDF759FB6B0316
:1041A00031D5012005B0BDE8F043FDF751BB7601E4
:1041B00006F1A046D6F8103B43F0C043C6F8103BCA
:1041C000E1E758F80930A208124903EB82029A424B
:1041D00015D114F00301E0B20BD00E4A800712682B
:1041E00048BF100A1A7048BF5870032904BF120C48
:1041F0009A7058F80930234448F80930A6E708684F
:1042000043F8040BE3E705B0BDE8F0837815002020
:10421000102100200010005068040020034AD2F84A
:10422000883043F47003C2F88830704700ED00E036
:1042300070B50D4D0D4C641BA4100026A64209D18B
:104240000B4D0C4CFFF760FE641BA4100026A64229
:1042500005D170BD55F8043B98470136EEE755F897
:10426000043B98470136F2E790510008905100084E
:1042700090510008905100080CB430B5174B0C1E3B
:104280001D689DB008DA8B232B604FF0FF301DB006
:10429000BDE8304002B070474FF40273ADF81430FF
:1042A00014BF04F1FF332346049307934FF6FF73C3
:1042B00002900690ADF81630209A21AB02A928464C
:1042C000019300F097F8431CBCBF8B232B60002C9C
:1042D000DDD0029B00221A70D9E700BF280300201E
:1042E00010B501390244904201D1002005E0037865
:1042F00011F8014FA34201D0181B10BD0130F2E7A5
:1043000002440346934200D1704703F8011BF9E7CA
:10431000034611F8012B03F8012B002AF9D170474D
:104320000A44914200F1FF3300D1704710B511F8F3
:10433000014B03F8014F9142F9D110BD2DE9F0472F
:104340008E681F46BE420B6882460C4690462DD8AA
:10435000B1F90C2012F4906F26D06569096905EB5C
:104360004505A3EB010905EBD5757B1C4B446D108E
:104370009D4238BF1D46530527D5294600F056FB00
:10438000064660B321694A46FFF7CAFFA38923F4B2
:10439000906343F08003A381266165614E44A5EBE1
:1043A00009052660A5603E46BE4200D93E4620680B
:1043B0003246414600F0B4FAA3689B1BA360236811
:1043C000334423600020BDE8F0872A4600F0B2FBAA
:1043D00006460028E0D12169504600F0BBFA0C23C4
:1043E000CAF80030A38943F04003A3814FF0FF30A7
:1043F000E9E700002DE9F04F98468B891B069DB038
:1044000007460D46144610D50B6973B9402100F0DC
:104410000DFB2860286130B90C233B604FF0FF3062
:104420001DB0BDE8F08F40236B610023099320236A
:104430008DF82930CDF80C803023DFF89C818DF881
:104440002A304FF0010923469A4613F8012B0AB18E
:10445000252AF9D1BAEB040B0BD05B46224629463C
:104460003846FFF76BFF013000F0A780099A5A44E5
:1044700009929AF80030002B00F09F8000234FF043
:10448000FF32CDE905230AF1010A049307938DF861
:1044900053301A935446052214F8011B4E48FBF77B
:1044A000B7FE049AD8B9D00644BF20238DF8533004
:1044B000110744BF2B238DF853309AF800302A2B74
:1044C00015D0079A544600204FF00A0C214611F8E7
:1044D000013B303B092B4BD9B0B1079214E0A0EB64
:1044E000080309FA03F313430493A246D2E7039B9C
:1044F000191D1B680391002BBBBF5B4242F00202F7
:1045000007930793B8BF049223782E2B0AD16378C0
:104510002A2B32D1039B1A1D1B68039243EAE373D3
:1045200002340593DFF8C0A0217803225046FBF740
:104530006FFE38B1049BA0EB0A0040228240134377
:104540000134049314F8011B24488DF82810062226
:10455000FBF75EFE002836D0214B1BBB039B0733C5
:1045600023F0070308330393099B334409936AE755
:104570000CFB02320C460120A8E70023013405930E
:1045800019464FF00A0C204610F8012B303A092A40
:1045900003D9002BC6D00591C4E70CFB01210446CA
:1045A0000123F0E703AB00932A460E4B04A93846DB
:1045B000AFF30080421C0646D6D1AB895B063FF5BF
:1045C0002DAF09982CE703AB00932A46054B04A9AD
:1045D000384600F079F8EDE7645100086E510008A4
:1045E000000000003D4300086A5100082DE9F04733
:1045F000164698468A680B69DDF820909342B8BF4A
:104600001346336091F8432007460C460AB1013344
:1046100033602368990642BF3368023333602568EC
:1046200015F0060506D104F1190AE36832689B1AF1
:10463000AB4226DC94F843302268003B18BF0123CC
:1046400092062BD404F1430241463846C847013054
:104650001ED02368226903F00603042B02BFE5681D
:104660003368ED1AA3680CBF25EAE575002593426F
:10467000C4BF9B1AED1800261A34B5421AD1002087
:1046800008E00123524641463846C847013003D16D
:104690004FF0FF30BDE8F0870135C6E7E1185A1C3E
:1046A000302081F84300224494F8451082F84310EA
:1046B0000233C7E70123224641463846C847013046
:1046C000E6D00136D9E700002DE9FF470F7E0C9EAA
:1046D000782F914680460C469A4601F1430207D84E
:1046E000622F0AD8002F00F0DD80582F00F0C38021
:1046F00004F1420684F842703AE0A7F16303152BF7
:10470000F6D801A151F823F0614700087547000869
:10471000F1460008F1460008F1460008F14600089D
:1047200075470008F1460008F1460008F146000808
:10473000F14600088B480008034800084348000879
:10474000F1460008F1460008AD480008F1460008AF
:1047500003480008F1460008F14600084B480008ED
:1047600033681A1D1B68326004F1420684F8423037
:104770000123A8E031682368081D30601E0601D5BA
:104780000D6803E05D06FBD5B1F900506168002DAE
:1047900078DA2D20002984F84300A1602DDA5E48E4
:1047A0006D420A231646B5FBF3F103FB1157C75DB3
:1047B00006F8017D2F46BB420D46F4D9082B0BD1DC
:1047C0002368DF0708D5236961689942DEBF30237B
:1047D00006F8013C06F1FF36921B2261CDF800A0DD
:1047E0004B4603AA21464046FFF700FF01306FD138
:1047F0004FF0FF3004B0BDE8F08723F004032360DE
:10480000CDE721683368080653F8045B02D44906F3
:1048100048BFADB26F2F4048336014BF0A2308234E
:10482000002184F843106668A660002EBADB216878
:1048300021F004012160002DB4D1002EB2D1164622
:10484000BCE7236843F0200323603448782784F8CA
:104850004570236831681F0651F8045B02D45F0677
:1048600048BFADB23160D90744BF43F02003236095
:104870001DB11023D4E72848E9E7236823F020037B
:104880002360F6E724480A23CDE733682568616989
:10489000181D30602E061B6801D5196002E06806FD
:1048A000FBD5198000232361164697E733681A1D4C
:1048B00032601E68626800213046FBF7A9FC08B12F
:1048C000801B606063682361002384F8433085E7C0
:1048D0002369324649464046D047013088D0236894
:1048E0009B0714D4E068039B9842B8BF184681E741
:1048F0000123324649464046D04701303FF478AF65
:104900000135E36803995B1AAB42F1DCEAE7002565
:1049100004F11906F5E700BFA54E0008755100081F
:10492000884210B501EB020402D98442234607D81D
:10493000431EA14208D011F8012B03F8012FF8E71C
:10494000024401468A4200D110BD13F8014D02F81D
:10495000014DF7E738B50546002941D051F8043C30
:104960000C1F002BB8BFE41800F0D8F81D4A1368DC
:1049700033B9636014602846BDE8384000F0D4B80D
:10498000A34208D9206821188B4201BF19685B68CF
:1049900009182160EDE71A465B680BB1A342FAD90A
:1049A00011685018A0420BD120680144501883426E
:1049B0001160E0D118685B68536008441060DAE762
:1049C00002D90C232B60D6E7206821188B4204BF44
:1049D00019685B68636004BF091821605460CAE706
:1049E00038BD00BF9422002070B50F4E0C463168D0
:1049F000054611B900F0CCF830602146284600F099
:104A0000C7F8431C03D14FF0FF34204670BDC41CCF
:104A100024F00304A042F8D0211A284600F0B8F888
:104A20000130F2D1EFE700BF902200202DE9F041E4
:104A3000CD1C25F0030508350C2D38BF0C25002DA5
:104A4000064601DBA94204D90C2333600020BDE8EF
:104A5000F081314F00F062F83B681C4644BB2946A8
:104A60003046FFF7C1FF431C044650D13C68214645
:104A7000002941D1002C44D02368304604EB0308C0
:104A800000F086F880453CD121686D1A29463046F1
:104A9000FFF7AAFF013034D023682B4423603B6822
:104AA000002B36D05A68A24229D100225A600EE06B
:104AB0002268521B1DD40B2A16D96119A342256006
:104AC00018BF5960636808BF396062514B60304657
:104AD00000F02AF804F10B00231D20F00700C21A91
:104AE000B5D01B1AA350B2E7A3426268DED13A6088
:104AF000EDE723466468B1E70C464968B8E713461A
:104B0000CEE70C233360304600F00EF89EE70560D8
:104B1000DDE75B60FFDE00BF94220020014800F06B
:104B200047B800BF98220020014800F042B800BFFB
:104B3000982200202DE9F041804615460C4621B907
:104B4000BDE8F0411146FFF771BF2AB9FFF702FF38
:104B500000242046BDE8F08100F02CF8854206468E
:104B600002D8B5EB500FF4D829464046FFF75EFF58
:104B700007460028ECD0B5422A46214628BF3246D7
:104B8000FFF7CEFB21464046FFF7E4FE3C46E0E758
:104B900038B5064D0023044608462B6000F070F936
:104BA000431C02D12B6803B1236038BD9C22002036
:104BB0007047704751F8043C181F002BBCBF0B58BE
:104BC000C01870472DE9F047089D0C46002B4ED1C8
:104BD00094468C458646B2FA82F262D94AB1C2F155
:104BE0002003914020FA03F30CFA02FC194300FA67
:104BF00002FE4FEA1C471FFA8CF6B1FBF7F44FEAAE
:104C00001E4307FB141143EA014304FB06F19942DA
:104C10000AD91CEB030304F1FF3080F013819942A1
:104C200040F21081023C6344591A1FFA8EF3B1FB23
:104C3000F7F007FB101143EA014300FB06F69E4222
:104C40000AD91CEB030300F1FF3180F0FD809E4286
:104C500040F2FA80634402389B1B40EA0440002182
:104C60001DB1D3400022C5E90032BDE8F0878B4278
:104C700005D90DB1C5E9000100210846F5E7B3FAF1
:104C800083F1002946D1A34202D39042C0F0F180C3
:104C9000861A64EB03030120002DE6D0C5E900630A
:104CA000E3E7002A40F09180A1EB0C044FEA1C4896
:104CB0001FFA8CF70121B4FBF8F64FEA1E4308FBFC
:104CC000164443EA044307FB06F0984208D91CEB5C
:104CD000030306F1FF3402D2984200F2CE8026464A
:104CE0001C1A1FFA8EF3B4FBF8F008FB104443EAD9
:104CF000044300FB07F79F4208D91CEB030300F1B4
:104D0000FF3402D29F4200F2B1802046DB1B40EA12
:104D10000640A5E7C1F120068B4022FA06F71F43A3
:104D200020FA06FC04FA01F343EA0C03F44000FA0B
:104D300001F8380C4FEA1349B4FBF0FE1FFA87FC68
:104D400000FB1E4449EA04440EFB0CF9A14502FA9B
:104D500001F20AD93C190EF1FF3A80F08580A14595
:104D600040F28280AEF1020E3C44A4EB09041FFA2B
:104D700083F9B4FBF0F300FB134449EA044403FB5A
:104D80000CFCA44507D93C1903F1FF3068D2A445B7
:104D900066D9023B3C4443EA0E40A0FB0293A4EBDD
:104DA0000C049C42CE469C4652D34FD055B1B8EB32
:104DB0000E0364EB0C0404FA06F6CB40CC401E4311
:104DC000C5E900640021BDE8F087C2F1200320FAA4
:104DD00003F10CFA02FC24FA03F394400C434FEA6B
:104DE0001C4800FA02FE1FFA8CF7B3FBF8F008FB30
:104DF0001031230C43EA014300FB07F1994208D923
:104E00001CEB030300F1FF362CD299422AD9023859
:104E100063445B1AA4B2B3FBF8F108FB113344EA14
:104E2000034401FB07F3A34208D91CEB040401F17E
:104E3000FF3613D2A34211D902396444E41A41EA7D
:104E4000004138E70446EFE6084605E7C845ADD21D
:104E5000B9EB020E63EB070C0138A7E73146EDE72B
:104E6000034698E73046D4E7D6467EE763440238E7
:104E70004CE70646234608460EE7023E63442FE70A
:104E8000044A05491368002B08BF0B4618441060FC
:0C4E900018467047A0220020A822002035
:104E9C00FF000000FF00CC66003031323334353671
:104EAC00373839414243444546000D0A426F6F740E
:104EBC0055463220426F6F746C6F6164657220438B
:104ECC004C490D0A0054797065202768656C702771
:104EDC0020666F7220636F6D6D616E64730D0A3E98
:104EEC002000416461667275697400554632204237
:104EFC006F6F746C6F616465720020627974657396
:104F0C000068656C70003F000D0A436F6D6D616E3B
:104F1C0064733A0D0A00202068656C702020202DE7
:104F2C002053686F7720746869732068656C700D06
:104F3C000A002020696E666F2020202D2053686F98
:104F4C007720626F6F746C6F6164657220696E6636
:104F5C006F0D0A002020657261736520202D20459D
:104F6C0072617365206170706C69636174696F6ED6
:104F7C0020666C6173680D0A00202072657365747D
:104F8C0020202D20526573657420746F2061707021
:104F9C006C69636174696F6E0D0A00696E666F00EF
:104FAC000D0A426F6F7455463220426F6F746C6FEE
:104FBC00616465720D0A0053544D333246373232F8
:104FCC002D4E45524F2D463700426F6172643A2088
:104FDC002025730D0A00466C6173683A2020256CFD
:104FEC00754B4220286170703A20256C754B42201D
:104FFC0061742030782530386C58290D0A005553CF
:10500C00423A20202020253034583A253034580D8F
:10501C000A006572617365000D0A45726173696EF1
:10502C00672061707020666C6173682E2E2E0D0ADD
:10503C0000646F6E652E0D0A007265736574000D49
:10504C000A526573657474696E672E2E2E0D0A00F4
:10505C000D0A556E6B6E6F776E20636F6D6D616EA2
:10506C00642E2054797065202768656C7027206643
:10507C006F72206C6973742E0D0A000820080009E9
:10508C000400000000400000004000000040000050
:10509C0000400000000001000000020000000200BF
:1050AC0000000200636F6E6669672E696E690042CC
:1050BC004B4D4E004E65726F20463700426F6F7439
:1050CC005546322043444300554632008B5000086D
:1050DC00BB500008C050000878030020C8500008DE
:1050EC0000000000D4500008000000000000000088
:1050FC0001020304060708090000005043000000E9
:10510C000600000000050000000004404D000000F7
:10511C00090000000010000000000000A9130008A6
:10512C00E9030008F113000841100008F9270008F2
:10513C00AD1B00080000000000000000191400085E
:10514C000000000029140008D1100008C92800082C
:10515C00312D000800000000232D302B2000686C3E
:10516C004C0065666745464700303132333435367E
:0C517C003738396162636465660000002A
:085188003CFAFF7F010000006A
:105190003C21646F63747970652068746D6C3E0A9D
:1051A0003C68746D6C3E3C626F64793E3C73637224
:1051B0006970743E0A6C6F636174696F6E2E7265FC
:1051C000706C616365282268747470733A2F2F675E
:1051D00069746875622E636F6D2F67656F736D619B
:1051E0006C6C2F626F6F7475663222293B0A3C2FFC
:1051F0007363726970743E3C2F626F64793E3C2F1A
:1052000068746D6C3E0A00EB3C9055463220554662
:10521000322000020101000240000000F8020101FA
:105220000001000000000009010100800029420087
:1052300042004E45524F4637424F4F54004641546C
:10524000313620202009026200030100A032080B41
:10525000000202020000090400000102020004052D
:10526000240020010524010001042402060524066F
:1052700000010705820308001009040100020A006A
:1052800000000705030240000007058302400000FC
:10529000090402000208065006070501024000004A
:1052A0000705810240000012010002EF0201409A4E
:1052B000236A000101010203010100001000000047
:1052C0000024F400426F6F7455463220426F6F74B1
:1052D0006C6F616465722076322E302E300D0A4D6F
:1052E0006F64656C3A20424B4D4E204E65726F20C4
:1052F00046370D0A426F6172642D49443A20535477
:105300004D3332463732322D4E45524F2D46370DF2
:105310000A446174653A204D61722031392032307F
:1053200032360D0A466C6173682053697A653A20FB
:1053300030780000000000000000000000000000C5
:10534000000000000000000000000000000000005D
:10535000000000000000000000000000000000004D
:10536000000000000000000000000000000000003D
:10537000000000000000000000000000000000002D
:10538000000000000000000000000000000000001D
:10539000000000000000000000000000000000000D
:1053A00000000000000000000000000000000000FD
:1053B00000000000000000000000000000000000ED
:1053C00000000000000000000000000000000000DD
:1053D00000000000000000000000000000000000CD
:1053E00000000000000000000000000000000000BD
:1053F00000000000000000000000000000000000AD
:10540000000000000000000000000000000000009C
:10541000000000000000000000000000000000008C
:10542000000000000000000000000000000000007C
:10543000000000000000000000000000000000006C
:1054400000000000AD0A00088903002010000C00D5
:1054500000000000FF000000494E464F5F554632F5
:1054600054585400340100207F0100000000000067
:10547000494E44455820202048544D00000000204B
:105480007600000000000000434F4E4649472020B0
:10549000494E4900301F00200000000000000000BD
:1054A00043555252454E54205546320000000000EC
:1054B00000000000000000002C030020000000009D
:1054C0000000000068000000D000000000000000A4
:1054D00000000000000000000000000000000000CC
:1054E00000000000000000000000000000000000BC
:1054F00000000000000000000000000000000000AC
:085500000000000000000000A3
:04000005080002E508
:00000001FF
