:020000040800F2
:10000000FCFF0120B1020008010300080103000801
:1000100001030008010300080103000800000000BC
:1000200000000000000000000000000001030008C4
:100030000103000800000000010300081D3C000847
:100040000103000801030008010300080103000880
:100050000103000801030008010300080103000870
:100060000103000801030008010300080103000860
:100070000103000801030008010300080103000850
:10008000010300080103000801030008753C000893
:10009000554100080103000801030008010300089E
:1000A0000103000801030008010300080103000820
:1000B0000103000801030008010300080103000810
:1000C0000103000801030008010300080103000800
:1000D00001030008010300080103000801030008F0
:1000E000010300080103000859410008010300084A
:1000F00001030008010300080103000801030008D0
:1001000001030008010300080103000801030008BF
:1001100001030008010300080103000801030008AF
:10012000010300080103000801030008010300089F
:10013000010300080103000801030008010300088F
:10014000010300080103000801030008000000008B
:10015000000000000000000000000000000000009F
:100160000000000000000000000000000103000883
:10017000010300080103000801030008010300084F
:10018000010300080103000801030008010300083F
:10019000010300080000000001030008010300083B
:1001A000010300080103000801030008010300081F
:1001B000010300080103000801030008010300080F
:1001C00001030008010300080103000801030008FF
:0801D00001030008010300080F
:1001E00010F8012B11F8013B012A28BF9A42F7D0E1
:1001F000D01A7047034613F8012B002AFBD1181AB6
:1002000001387047000000000000000000000000FE
:1002100001F0FF01102A2BDB10F0070F08D010F8B7
:10022000013B013A8B422DD010F0070F42B3F6D1BB
:10023000F0B441EA012141EA014122F007047FF0D4
:1002400000070023F0E80256083C85EA010586EA2B
:10025000010685FA47F5A3FA87F586FA47F6A5FA67
:1002600087F68EB9EED1F0BC01F0FF0102F0070273
:1002700032B110F8013B013A83EA010313B1F8D11E
:100280000020704701387047002D06BF35460338FF
:10029000073815F0010F07D1013015F4807F02BF38
:1002A000013015F4C03F0130F0BC0138704700BF89
:1002B0000D48854603F054FF0C480D490D4A0023B4
:1002C00002E0D458C4500433C4188C42F9D30A4A0B
:1002D0000A4C002301E013600432A242FBD303F076
:1002E00049FF02F0BBFFFEE7FCFF012000000020F9
:1002F0009C030020C84D00089C030020942300208C
:10030000FEE7000010B50A49002002230A698B822B
:10031000C2F30804520A002C18BF013213449BB2E6
:1003200006305A1E1828CA8201F11801EED110BDFC
:10033000EC0200200A4492B291424FEA400001D8F8
:10034000824201DB121A92B2104670470246808840
:10035000138952899BB292B2934236BFC2EB4002DC
:100360009B1A9B189BB2984228BF18467047038976
:100370004189828889B29BB28B4236BFC1EB420170
:100380005B1A5B189BB29A4286BFD01A80B20020DB
:1003900070470020704700004B6902490B61012142
:1003A000184700BFF417002001207047BFF34F8F9C
:1003B0000549064BCA6802F4E0621343CB60BFF301
:1003C0004F8F00BFFDE700BF00ED00E00400FA051D
:1003D0000B4B4FF47A721B68B3FBF2F358430138AE
:1003E000B0F1807F0AD24FF0E023064A5861F02135
:1003F00082F8231000229A6107221A61704700BF19
:100400005401002000ED00E04FF0E022136923F0DA
:10041000010313617047000038B5144B03281860BE
:1004200015D004281DD00228114C124D07D10120EF
:10043000FFF7CEFF2B882380AB78A37038BD052053
:10044000FFF7C6FFB5F8033023806B79F5E7192075
:10045000FFF7BEFF084A064B1188927819809A7000
:10046000ECE7BDE83840FFF7CFBF00BF24200020F5
:1004700020200020044B00080A4B0008014670B5FC
:100480000020104E08700246012502F1006303F5BA
:1004900000431C68B44211D15C68013CB4F5804F44
:1004A0000CD20D705B68073323F007030833134445
:1004B000104603F10802B2F5804F00D370BD1A4612
:1004C000E3E700BF43494E4910B51A4B4FF47A7227
:1004D0001B68B3FBF2F3013BB3F1807F01D3012032
:1004E00010BD4FF0E021F0224B61134B072483F83D
:1004F00023200F284FF000028A610C61EFD8DB68DF
:10050000C3F30223E11A042903F1040428BF0421E0
:10051000062C88BFDA1E4FF0FF338B4020EA03031E
:1005200093401B01044ADBB282F82330034B18606E
:100530000020D5E75401002000ED00E0500100202C
:10054000174B9A6802F00C02042A23D09A6802F032
:100550000C02082A20D09A6802F00C020C2A1DD145
:10056000D968DA68D868DB6801F00301C3F3416336
:100570000329C2F30312C0F3062003F101030CBFE9
:10058000084909495B000132B1FBF2F25043B0FB6C
:10059000F3F07047044870470248704700207047E6
:1005A0000010024000127A000024F4002DE9F04F00
:1005B0003C4C00224FF0010A4FF00F084FF0030BA4
:1005C00031FA02F301D1BDE8F08F0AFA02FC1CEA0D
:1005D00001065AD022F0030505F1804505F5803566
:1005E00002F00307AB68BF0008FA07F9B0F1904FBB
:1005F00009EA030E4BD02C4B98424AD003F5806396
:10060000984248D003F58063984246D003F5806352
:10061000984244D003F5806398420CBF052306231B
:10062000BB40734513D1236823EA06032360636844
:1006300023EA06036360E36823EA0603E360A36832
:1006400023EA0603A360AB6823EA0903AB600568ED
:1006500053000BFA03F3D6081D4300EB8606056032
:1006600002F00705376AAD0008FA05F527EA050725
:100670003762C56825EA0305C560456825EA0C05AB
:100680004560856825EA03038360013298E700230B
:10069000C6E70123C4E70223C2E70323C0E704231C
:1006A000BEE700BF000401400004004810B50F4938
:1006B0000F4B0C681A69D2030BD41A694CF2FA3149
:1006C0000A400CD00B484168114341601A61012077
:1006D00010BD0A68121B8242ECD90320F8E71A69A0
:1006E000D20744BF01221A610020F1E72C2000202C
:1006F00000200240B80000201548037FDAB203F062
:10070000FD03012B10D1134B196821F400711960FE
:10071000196841F400611960196821F400611960D9
:10072000196841F400711960931E012B0CD8094B14
:100730001A6842F480521A601A6822F480521A60D1
:100740001A6842F480621A6000230377704700BF82
:10075000B8000020002002401E4AF0B5C40900F095
:100760007F050023164604F1020C84F0010E12F8F6
:100770000C70D8B237B157788F421DD11778AF427D
:100780001AD1F0BD012904D106EB83077744BF7865
:1007900097B91778FF2F01D0AF420DD15778FF2FAF
:1007A00008D106F8235006EB830301225970234435
:1007B0009A70E6E78F42F4D00133082B02F104026D
:1007C000D5D14FF0E023D3F8F03DDB0700D500BED4
:1007D0000020D6E77216002000F18040530800F593
:1007E000C040F0B50D4606461C46013C06D2D20775
:1007F00044BF11F8132020F81320F0BD35F8027B18
:1008000026F8027BF1E701F18041530801F5C04170
:10081000F0B506460D461C46013C06D2D20744BF41
:1008200031F8132000F81320F0BD35F8027B26F8CC
:10083000027BF1E7034B43F602229A87002283F8FA
:100840003E207047701500202DE9F74F644C0023BF
:100850004FF001084FF00F0E0A6832FA03F502D18B
:1008600003B0BDE8F08F08FA03F919EA020200F0BC
:10087000AB8003255E0005FA06FC4D6805F0030514
:10088000013D012D6FEA0C0C11D8856805EA0C0AB0
:10089000CD68B54045EA0A058560456825EA09093D
:1008A0004D68C5F300159D4045EA09054560D1E94D
:1008B000015905F00305032D02D1B9F1010F21D033
:1008C000C56809FA06F905EA0C0A49EA0A05C5608D
:1008D0004D6805F00305022D14D14FEAD30900EB52
:1008E000890903F0070AD9F820504FEA8A0A0EFA5C
:1008F0000AFB25EA0B0B0D6905FA0AF545EA0B051B
:10090000C9F82050056805EA0C0C4D6805F0030590
:10091000B54045EA0C0505604D6815F4403F53D0DD
:10092000304E356E45F001053566356E23F0030611
:1009300006F1804605F0010506F58036019503F0C5
:100940000309019DB5684FEA89090EFA09FCB0F167
:10095000904F25EA0C0C39D0234DA84238D005F52C
:100960008065A84236D005F58065A84234D005F5EB
:100970008065A84232D005F58065A84214BF0625DF
:10098000052505FA09F545EA0C05B5604F68A56827
:10099000D643FF024CBF15433540A5604F68E5685C
:1009A000BF024CBF15433540E5604F686568BF0323
:1009B0004CBF1543354065604F682568FF0354BF41
:1009C00006EA05022A432260013345E70025D8E7FD
:1009D0000125D6E70225D4E70325D2E70425D0E791
:1009E0000004014000100240000400483E280E4967
:1009F0008BBF1F300130C0F34713C0F34703088893
:100A00008CBF2022022203FB02039BB2B3F5806F4E
:100A10000B8008D94FF0E023D3F8F03DDB0700D579
:100A200000BE4FF6FF707047701600201F4A38B5A1
:100A30000023A2F84C301E4AFF211D460133082B2B
:100A4000117051709570D57002F10402F6D1002139
:100A5000184B402408461C80FFF77EFE8020FFF7DD
:100A60007BFE154B20469D739D779C819C83FFF7F1
:100A7000BDFF85B22046FFF7B9FF10490B4A8D80B4
:100A800080B20880138823F4786323F00F035B049B
:100A90005B0C83F4085383F020034FF48050C8802C
:100AA00013808023A2F84C3038BD00BF005C0040AA
:100AB0007216002070160020F4160020006000401E
:100AC000104B00F07F0203EB420303EBD013203303
:100AD000187910F0010011D11A79C2F38001520780
:100AE0000FD4187910F001000AD11A79520708D4EE
:100AF0001A7942F004021A710120704700207047F1
:100B0000084670471D22002030B50C480C4D0022CD
:100B1000012410F9013B002B0BDB5909203103F0B4
:100B20001F0304FA03F345F82130BFF34F8FBFF3DF
:100B30006F8F0132D2B2032AEBD130BD094D0008CC
:100B400000E100E030B5BFF34F8FBFF36F8F0A496C
:100B50000A4C0022012011F9013B002B06DB5D0944
:100B600003F01F0300FA03F344F825300132D2B238
:100B7000032AF0D130BD00BF094D000800E100E0BC
:100B800008B1FFF7DFBFFFF7BFBF00002DE9F04F4F
:100B90008B46048941898389724A641AA4B29C42B3
:100BA00028BF1C46704B33F82BA01FFA8AFA0AF4B0
:100BB000C0634AF40049B3F5806F89B049F08009F9
:100BC0000CBFC9F3801500258046019305EB4B034C
:100BD000D8F804A032F8230080B2BAF1000F00F078
:100BE000B780002C69D0BAF80860BAF80A20BAF8C1
:100BF00004E0B6B292B2964236BFC2EB4E0CA6EB00
:100C0000020CB4441FFA8CF39E4507D276450DD3EF
:100C1000A6EB0E0292B2AAF80A207346002B7AD0F5
:100C2000B64509D8A6EB0E06B6B2F9E706EB0E02FA
:100C300092B2AAF80A207346964568D9DAF800708D
:100C4000B24207EB02016AD3AEEB0206A3EB0E0E33
:100C5000724492B2B3B2A34228BF2346E61AB6B298
:100C6000964228BF16469C469A1993B22CF0010270
:100C7000029392B20CF0010303932AB1CDE904026E
:100C8000FFF7AAFDDDE90402039B104480B2002BAC
:100C900059D08A5CADF81E20002E43D102220DF1FE
:100CA0001E01FFF799FDBAF80A10029ABAF804007B
:100CB00089B2FFF73FFBAAF80A0005EB4B05B8F82D
:100CC0000A30AD0005F18045234405F5C045A8F87C
:100CD0000A306B88C4F3090403F47C4323436B801C
:100CE000019BB3F5806F04BF012388F80F30FFF735
:100CF0000BFF89F030091C4B29F4E04929F0400929
:100D000023F82B9009B0BDE8F04FFFF71BBFA2EB13
:100D10000E0292B290E71A461F4619469BE700273B
:100D20003A4698E717F8011B039042EA0122ADF812
:100D30001E200DF11E010222FFF74EFD0398013E19
:100D40000230B6B280B2002EADD032463946A8E7A6
:100D5000002CB2D0D8F8003022461944FFF73CFDF1
:100D6000ABE700BF00600040005C00402DE9F843A5
:100D7000857815F0780F804609D04FF0E023D3F83E
:100D8000F03DDB0700D500BE0020BDE8F883C17848
:100D90003D4B82889B7801F003010229C2F30A06C9
:100DA0000CD0032967D00129E7D1022B40F2FF3391
:100DB00008BF4FF480639E4219D904E0022B0AD188
:100DC000B6F5007F13D04FF0E023D3F8F03DDA07FB
:100DD000D3D500BED1E7202E4BD812F4FF6FF2D04E
:100DE0002A4BA6F1080292B2D340D807EBD5284689
:100DF000FFF7B2FC07280746BFD8254B33F8203051
:100E000023F4786323F00F0345F400445B045B0C88
:100E100044F080041C4398F8033003F00303022BD2
:100E200005F07F0903D0032BA7D144F4C0643046FA
:100E3000FFF7DCFDED0985F0010303EB4703154ADD
:100E400080B222F82300144B05EB490903EB091388
:100E50009E819F739DB984F4005424F07004FFF7C1
:100E600053FE0B4BA4B223F82740FFF76BFE012083
:100E70008BE7402EA6E7022B18BF402398E784F0AB
:100E8000200424F4E044EAE71D22002001010001CF
:100E9000005C004000600040F416002038B500F00F
:100EA0007F03154A5B0003EBD01302EB0313C00969
:100EB0009D7B124B33F825309BB214BF23F4E043E3
:100EC00023F4804348F2800215BF23F0400323F04F
:100ED00070031343134314BF04220C2201249440D3
:100EE0005C40FFF711FE054BA4B223F82540BDE896
:100EF0003840FFF727BE00BFF4160020005C00401A
:100F000010B50446FFF7CAFF094804F07F0300EB61
:100F1000430000EBD41090F8243043F0020380F833
:100F2000243090F8243043F0010380F8243010BDC1
:100F30001D22002038B5324B01EB400203EB0212B8
:100F40000129947B05D121461046FFF71FFE0120A1
:100F500038BD2C4A03EB401032F8241003898089F5
:100F600089B221F48042834201F4C06122F0700210
:100F700042F4004228BF0346B1F5806F42F0800280
:100F80004FEAC40123D13E2B17D91F331E48C3F3A8
:100F90004713013B40EA83239BB201F1804101F5F5
:100FA000C0414B80CB8082F44055FFF7ADFD154B1F
:100FB00023F82450FFF7C6FDC9E70133C3F34E03FE
:100FC00098020BB183B2E8E74FF40043E5E73E2B0C
:100FD0000CD91F330C48C3F34713013B40EA83236A
:100FE0009BB201F1804101F5C041DBE70133C3F35E
:100FF0004E0398020BB183B2F3E74FF40043F0E7DE
:10100000F4160020005C00400080FFFFF8B51B4C88
:10101000054600F07F0004EB400404EBD5142034B7
:101020000E46E909257915F001054FEA400308D07D
:101030004FF0E023D3F8F03DDB0700D500BE0020E1
:10104000F8BD277947F0010727710D4F0B444FEA90
:10105000031C07EB031347F80C605D601A815D8188
:10106000FFF768FF0028EBD1227960F300022271BC
:10107000227960F382022271DAE700BF1D2200208C
:10108000F41600202DE9F843484D2B78012B064635
:1010900088463ED001244FF47A702C70FFF706FB8F
:1010A000002834D1424B68601A6812F4007F1A6835
:1010B00031D0570506D51A6822F480621A600323DE
:1010C0002B7700E02C773368012B35D1384C7268D0
:1010D000236A5E022AD5D00742BF636943F0040346
:1010E0006361910703D5636943F4004363616369F6
:1010F00043F4803363614FF47A70FFF7D7FA636982
:1011000023F4004323F004036361FFF7F5FA00239F
:101110002B70BDE8F88312F4806205D01A6822F4BF
:1011200080621A600223CBE72A77CCE7636943F435
:10113000004343F00403D9E74FF0FF33C8F8003011
:10114000B7681B4CDFF86C90D6E9023213449F421B
:10115000DBD2226A736852021FD4636923F40063EE
:1011600063616269FB0022F47E7203F4FF63134340
:101170006361636943F002036361636943F480332D
:1011800063614FF47A70FFF791FA636903EA090328
:10119000636148B1C8F80070B7E713F0010F6369E5
:1011A000DCD143F40063DBE70137CDE7B800002072
:1011B0000020024005FCFFFF70B51B4C637893B321
:1011C00023785A072FD4194DEE7866B305F1100035
:1011D000FFF7CDF83F2826D93046FFF771FC10B352
:1011E00005F11000FFF7C3F83F28EB7806D9BDE8FA
:1011F00070400F4940221846FFF708BF03F07F02F6
:1012000004EB420404EBD31494F824305B070AD5B2
:1012100094F8243013F0010202BF94F8243062F3F2
:10122000820384F8243070BD1D2200205422002047
:10123000B0150020F8B504460D461646022763781F
:10124000052B04D1E37803F00303022B08D04FF001
:10125000E023D3F8F03DDB0700D500BE0020F8BD49
:101260002046FFF783FD0028F1D0A378DA0914BFE8
:1012700033702B702378012F1C44F0D00127DEE758
:1012800070B54B79022B35D18B79022B32D11E4EA2
:10129000B37843BB8B7833700B780925CC1863780F
:1012A000242B1AD1954213D96378042B0DD163797D
:1012B0000A2B0AD12678154AA019511CFFF7BAFF4C
:1012C00088B10E3516FA85F5ADB2FFF775FF12E05D
:1012D00023781D44ADB21C44E1E7052BE4D1204640
:1012E000FFF744FD48B94FF0E023D3F8F03DDB07AA
:1012F00000D500BE0025284670BDA3787370237802
:101300001D44ADB21C44CFE75422002056220020D9
:1013100010B54B79082B08460ED18B79062B0BD1D3
:10132000CB79502B08D1162A08D84FF0E023D3F8F8
:10133000F03DDA0700D500BE002010BD104C8B78C0
:1013400084F82D300B7804F12E0204F12F0118449B
:10135000FFF770FF0028E8D000230A4994F82F0017
:1013600084F830301F22FFF751FE30B94FF0E023F0
:10137000D3F8F03DDB0700D500BE1720DDE700BF46
:10138000701500207005002010B4114B99689A6BFD
:1013900083F82C00022083F8300093F83C008A1A6E
:1013A0009A6220B942F205049C8783F83E0059B145
:1013B00052B11A7B5DF8044BD20914BF93F82E008A
:1013C00093F82F00FFF79CBD5DF8044B704700BFFA
:1013D00070150020144B10B5144C6BB1607BAFF34B
:1013E000008048B942F2077384F83E00A387BDE845
:1013F00010400120FFF7C8BFA268A36B0C4994F806
:101400002F00D21AB2F5805F28BF4FF4805292B2FB
:10141000FFF7FCFD30B94FF0E023D3F8F03DDB07D8
:1014200000D500BE10BD00BF0000000070150020F8
:1014300070050020034B5A6942F000425A615B6913
:10144000704700BF00200240054B5A69002A05DAA8
:10145000044A9A6002F188329A605B69704700BF63
:10146000002002402301674570B586B0FFF7ECFF0E
:10147000202400260125E20202F100620023D15857
:1014800001310CD10433B3F5006FF8D10134B4F558
:10149000807FF0D106B0BDE87040FFF7CBBF02A857
:1014A00001A9CDE90265CDE90445FFF7EBFD4FF059
:1014B000FF30FFF7FBF8E9E7C0430022114600F0D8
:1014C0008000FFF7A3BD000010B40346064C00687F
:1014D0005968224603C20022C4E9022218785DF846
:1014E000044BFFF7E9BF00BFF41700202DE9F041DE
:1014F0001A4E1B4F3278DFF87880002405462346C9
:10150000A2420DD9D8F8003013EB44130BD14FF0A1
:10151000E023D3F8F03DDB0700D500BEBDE8F08145
:101520009B1A07EB4313DB6828469847327801344F
:10153000E4B2511CA1422346E2DA342200210948D8
:1015400002F070FE1022FF21074802F06BFEBDE89A
:10155000F04106481022FF2102F064BE1422002050
:10156000644D00081D22002021220020312200208D
:101570001022002008B50E4BE8220021184602F088
:1015800051FEFF2242714FF4E132826008228273E1
:1015900000F1280200F168010261064A4261C1615E
:1015A00000220549428301620283C284828408BD0D
:1015B000542200204000010080000180084B0022DE
:1015C0005A831A601A831A71DA849A8493F8232052
:1015D000D10904BF42F0800283F82320704700BF86
:1015E0005422002002484022002102F01BBE00BF0E
:1015F0007015002002484022002102F013BE00BFF7
:101600007015002010B50F4C227A32B10E4B042217
:101610001A60BDE81040FEF7F7BE23688BB10B4B94
:10162000197819B103201A70FEF7F6FED4E90032DA
:101630009A4206D3044B04221A60FEF7E5FEFEF739
:10164000B5FE10BD08180020242000204C01002009
:101650002DE9F8431C4D98462B78012B07469146FF
:101660002FD001234FF47A702B70FFF71FF8064636
:1016700010BB164C6860216811F4806117BF2368A5
:10168000297723F4806323601CBF02232B776369CF
:1016900043F001036361C7F80090BFF36F8F4FF40D
:1016A0007A70C7F80480FFF701F8636923F001033B
:1016B00063610646FFF720F800232B703046BDE833
:1016C000F8830226FAE700BFB8000020002002409D
:1016D00070B505890389428986889BB292B293428C
:1016E00036BFC2EB46029B1A9B189BB29E42044631
:1016F000ADB217D8C079C00914D170BD801B80B2BB
:10170000B042FBD2E2882368C2F30E0202FB003033
:1017100002F098FDA08801222946FEF70BFE2081E9
:101720000120EAE72846EBE72DE9F0434378023B46
:1017300085B004460E46042B00F28280DFE803F0F9
:1017400071038B93BB00604FDFF88C813A78DFF830
:101750008C9100252B46AA4240F28E80D9F80030A9
:1017600013EB451340F08B803A780135EDB2511CF4
:10177000A9422B46EFDA554F3B78580724D53B78E2
:101780006FF382033B700023CDF80630CDF80A30AA
:10179000ADF80E3023788DF8043005238DF8053030
:1017A0004B4BD3F8008008F10405002E6FD028467B
:1017B00001A9FFF78DFF054635B94FF0E023D3F8B7
:1017C000F03DD90700D500BEFB78DA0726D5002307
:1017D000CDF80630CDF80A30ADF80E3023788DF80C
:1017E000043003238DF8053063680293384B1D687D
:1017F0002C1D002E59D130462B68984701A9204650
:10180000FFF766FF2B6804460120984734B94FF074
:10181000E023D3F8F03DDB0700D500BE05B0BDE8FE
:10182000F0832A4B1A786FF300021A701A7800219D
:101830006FF341021A7059701A7861F382021A70BC
:10184000234B1D682F1D002E3AD130462B68984738
:1018500021463846D4E71D4B1A78D707DED51A78CB
:1018600042F00402EBE7194A1378DD07D6D5137866
:101870006FF382031370E3E79B1A08EB4313DB69F2
:10188000002B3FF471AF6168207898476CE7D8F877
:1018900000303046984701A92846FFF719FFD8F8CD
:1018A000003005460120984786E701A92046FFF74A
:1018B0000FFF0446AAE7074A13780133DBB2D9E7E2
:1018C00021463846F3E700BF142200201D220020E5
:1018D000182200201C220020644D00081022002045
:1018E0002DE9F84F074688461446002A31D0C379BF
:1018F000068941898588DB09B6B289B22CD18E422E
:1019000035BFC1EB4503711A9B198BB238BF9BB22F
:10191000AB4256D2EB1A9BB29A4228BF1C46B14644
:10192000A94537D2FA883868A5EB090A1FFA8AFA5E
:10193000C2F30E0BA2455A460BFB09002FD362439C
:10194000414602F07FFCB88822463146FEF7F2FCA1
:1019500038812046BDE8F88FAA4209D39DB3C388D9
:10196000541BC3F30E0303FB04880E462C46D6E734
:101970008E424FEA450236BF531A731A9B199BB227
:1019800023449342CBDB2A1B92B22846FEF7D2FCBB
:101990000646C4E7A9EB05091FFA89F9C0E71AFB57
:1019A0000BFA1FFA8AFA52464146651B02F04AFCBE
:1019B00009EB050212FB0BF2386892B208EB0A0140
:1019C000BFE70024C5E72C46C3E72DE9F0470389AC
:1019D000448987889BB2A4B2A34236BFC4EB4705B3
:1019E0001D1BED18ADB206468846F5B1AF4206D2D2
:1019F000BB422CBFDB1BDB199CB244813D469542A8
:101A000028BF1546A7421AD9F2883168A7EB040906
:101A10001FFA89F9C2F30E0A4D4552460AFB04111A
:101A200010D86A43404602F00DFC7189B0882A46FE
:101A300089B2FEF77FFC70812846BDE8F087E41B81
:101A4000A4B2DFE719FB0AF91FFA89F94A464046B2
:101A5000EF1B02F0F7FBE21912FB0AF2316892B2B7
:101A600008EB0900DFE7000070B51F4C637803B393
:101A7000237859071DD41D48FEF768FCC8B11C4ED9
:101A8000B078FFF71DF8A0B11A49402206F11C00FA
:101A9000FFF79BFF0546B0787DB116492A46FFF750
:101AA000B5FA40B94FF0E023D3F8F03DDA0700D59E
:101AB00000BE002070BD2846FCE700F07F0304EB69
:101AC000430404EBD01494F824305B07F1D594F868
:101AD000243013F00102ECD194F8243062F3820335
:101AE00084F82430E5E700BF1D220020702200208A
:101AF00054220020F01500202DE9F041324C1D4603
:101B0000E3788B420F4612D1304EAAB2314604F12F
:101B10001000FFF7E5FE2E4BABB92E4B4BBBFFF78A
:101B20004BFBA378BB422ED00120BDE8F081A37807
:101B30008B42F6D04FF0E023D3F8F03DDB0700D521
:101B400000BE0020F1E76379FF2BE6D006EB050825
:101B50004645E2D0617916F8013B9942F8D1228BD3
:101B6000638B92B29BB29A42F2D00020AFF3008016
:101B7000EEE7228B638B92B29BB29A42CFD00020C9
:101B8000AFF30080CBE7144B13B10020AFF300801C
:101B9000FFF76AFF0028C7D11048FEF7D7FB0028DF
:101BA000C2D1002DC0D015F03F05BDD1A078FEF701
:101BB00087FF0028B8D0A0782A462946FFF726FAE2
:101BC0000028B1D1B6E700BF54220020B015002094
:101BD0000000000000000000000000007022002053
:101BE0004FF6FF73994228BF194610B58AB20146D5
:101BF0000648FFF775FE04460448FEF7A7FB3F289A
:101C000001D9FFF731FF204610BD00BF7022002030
:101C100013B50DF10700FEF731FC9DF807407CB1CC
:101C200000F1006303F5004307495C68B4F5EE7FFB
:101C300028BF4FF4EE7401442246044802F002FB30
:101C4000204602B010BD00BF0880000830200020F0
:101C500070B40B4C0B4EA26BA3689B1AA3620323B8
:101C600084F8303004F120030FCB354607C52B70C4
:101C700094F82E0031460D2270BCFFF7C7B900BFA3
:101C800070150020700500202DE9F3411546FFF77F
:101C9000DBFB07460E4600244FF0FF38A5420AD969
:101CA0002A1B072A06EB04010AD932594B68E019AE
:101CB000FFF7CEFC60B1FFF7BDFB02B0BDE8F081DD
:101CC0006846CDE9008802F0BDFADDE90023EEE7C1
:101CD0004FF0FF30FEF7EAFC0834DFE710B5114B98
:101CE0009989DA8993F900008C1AA4B2402C28BF94
:101CF000402400280DDA914211D099680A48224602
:101D000002F0A0FA802008492246BDE81040FFF703
:101D10007DB991424FF00000F5D10146F4E78020F3
:101D20000021F1E7F41700203016002070B50346BB
:101D3000124D00680C465968AC602E4603C600215F
:101D4000E981D9888A4228BF0A46AA81D98881B107
:101D50004AB144B94FF0E023D3F8F03DDB0700D59A
:101D600000BE002004E0FFF7B9FF0028F2D00120F8
:101D700070BD1878FFF7A0FBF7E700BFF41700204D
:101D80002DE9F04FDFF8B08291B0A84B1D6800201C
:101D90002B689847AB89E98928899BB289B28B4225
:101DA00036BFC1EB40025A1AD21894B29CB1A0427D
:101DB00005D283422CBF1B1A1B1899B2E9818842B5
:101DC00025D96A896B68C2F30E0202FB013105A8AE
:101DD00002F038FA0124E9892889224689B2FEF7FF
:101DE000A9FA2B68E88101209847002C37D09DF88C
:101DF0001530013B072B00F26983DFE813F00B007D
:101E00001900DC03D003D00326004703D403091ACA
:101E100089B2D4E79DF81400FFF768FB84481422C8
:101E2000002102F0FFF99DF8183088F80230ACE785
:101E30009DF81400FFF75AFB142200217C4802F0A1
:101E4000F1F90220FEF7E8FA9FE77A4A13784BB9D6
:101E50004FF0E023D3F8F03DDA0700D500BE11B013
:101E6000BDE8F08F1378013BDBB21370127802F0FB
:101E7000FF03002A89D1704C6D4E2278336142F005
:101E80000102227094F824209DF8147063F300027C
:101E900084F8242094F8242063F3820284F8242018
:101EA00094F8252063F3000284F8252094F8252077
:101EB00063F3820284F825209DF8182002F0600365
:101EC000602B07D14FF0E023D3F8F03DD80705D5BC
:101ED00000BE03E0402B08D1584B33610020FEF7D1
:101EE000DDFF8020FEF7DAFF4FE702F01F02012A34
:101EF00000F0E781022A00F01782002AE2D1202BAD
:101F00001BD19DF81C300F2BE8D84D4A2344127882
:101F10001B79934209D24B4A116811EB4311DDD072
:101F200006AA3846FEF738FA3BE1511C9942D5DB48
:101F300045499B1A01EB4311F2E7002BC2D19DF8F2
:101F40001930092BBED801A252F823F0A5220008AF
:101F500093220008C51E00087F220008C51E000845
:101F6000751F000869210008C51E00089B1F000896
:101F7000A51F0008DDE90601344BC6E90001002079
:101F80000121C3E904009861C6E90200FEF7D2FF0F
:101F9000237843F002032370F7E663788DF830303E
:101FA000012289E19DF81A5063789D4271D06378CF
:101FB0001BB3274EB6F8403023F400731B041B0CF0
:101FC000A6F84030FEF7A0FD224B01220021FF20A1
:101FD00026F822100132082A187158719971D971A6
:101FE00003F10403F4D1FEF7ADFD1B4BA678C0222C
:101FF00038461A80FFF77AFAA6706570002D00F057
:10200000B18016494B78022B2AD04FF0E023D3F849
:10201000F03DDE0700D500BE4FF0E023D3F8F03DE1
:10202000DD0700D500BE0023637057E718220020AB
:10203000F41700201C2200201D220020930300081A
:102040001422002010220020644D0008F416002005
:10205000005C00407216002070160020D80000209E
:10206000CB79DFF868A3C3F38012C3F340131B01DD
:1020700043EA4213227822F03002134323704B8844
:102080000B4401930931019B8B4206D80120FEF7D6
:10209000C3F906A8FFF718FA77E64B780B2B03BFB6
:1020A0000B7891F80390C9184FF001094B78042B75
:1020B000ABD1019B9AF800505A1A002692B2B3464F
:1020C000AE4228D2B74B1D6815EB46159DD02B6943
:1020D0003846CDE9021298470828DDE9021238D9BE
:1020E000824236D3B9F1010F05D12A69AE4B9A422B
:1020F00008BF4FF002090022D3B2994511D8AB4D69
:102100000844884218D89AF8003001335B45FFF63E
:102110007CAF0146B7E7A64BABEB050503EB4515D6
:10212000D5E78D782B4454FA83F301321D79FF2DC6
:102130007FF46BAF1E71DFE74B78052B06D18B78F0
:1021400003F07F0205EB4202DB09D6540B781944F9
:10215000D7E79AF800500136F6B26B1C9E42B346A0
:10216000AEDD52E7022092E7BDF81A30190A4A1E86
:10217000062A3FF6B3AE01A050F822F099210008DC
:10218000AB210008B9210008DD1E0008DD1E000893
:10219000DD1E0008AB2100088649122206A8FFF7C1
:1021A000C5FD00287FF4F1AD98E602297FF496AED4
:1021B000814931F80229F1E713F0FF0318D0032B0E
:1021C00023D0062B3FF68AAE7C4A52F823402046A5
:1021D000FEF710F8C2B2302A28BF3022784B2046D2
:1021E000A118814209D010F8014B23F8024FF8E7FB
:1021F000734B40F209425A8001220132D2B2704937
:10220000520042F440730B80C8E76E4B6C4CD3F81D
:1022100090250892D3F894250992D3F898350A931B
:102220000DF1200C0027684B0CAD03F1100E2A466F
:10223000186859682E4603C6083373453546F7D1EA
:102240001CF8015B05F00F0340336B4413F8103C9E
:10225000A3805D4B18685968164603C6083373455A
:102260003246F7D110AB03EB1515013715F8103CCA
:1022700063800C2F04F10404D5D11822BDE7BDF80A
:102280001A30012B7FF42AAE237843F00803237021
:10229000FFE6BDF81A30012B7FF420AE23786FF3F0
:1022A000C303F4E72378C3F340129B0803F002034F
:1022B0001343ADF8303002220CA906A8FFF736FD13
:1022C00063E59DF81C300F2B3FF608AE3F4A2344D0
:1022D00012781B7993421ED2324A116811EB4311D6
:1022E0003FF4FCAD06AA3846FEF756F800287FF406
:1022F0004CAD9DF8183013F060037FF4EFAD9DF8FE
:102300001920A2F10A0101293FF6E8AD0A2A33613A
:102310007FF4BFAE42E6511C9942FFF6DFAD24497F
:102320009B1A01EB4311DDE79DF81C0010F0780FBC
:102330007FF4C8AD00F07F02550004EB4202234950
:1023400002EBD0120978127D8A424FEAD01B15D2D7
:102350001449096801EB4219002B39D19DF8193055
:1023600003F0FD02012A38D0002B7FF4ABAD2544E9
:102370005D4495F82430C3F340039AE701F1010C62
:10238000944508DB521A0A4901EB4219002BE5D0AB
:1023900006AA4946C5E5002B7FF4A0AD4FF0000921
:1023A000DCE700BF1022002081120008312200204B
:1023B000644D00083A010020DA000020384D000882
:1023C000921600200070FF1F0D4B00081422002001
:1023D000B9F1000F3FF482ADDAE7BDF81A2092BBE5
:1023E000012B50D1764B05EB0B0203EB021348F2A5
:1023F000800A9A7B734B33F822108BB201F4C061D0
:10240000BBF1000F30D123F07003B1F5806F4AEAC1
:10241000030A36D10192FEF777FB6A4B019A1FFA45
:102420008AFA23F822A0FEF78DFB63195B4493F828
:1024300024206FF3410283F8242093F824206FF3C3
:10244000000283F82420B9F1000F3FF49EAC06AAE5
:1024500049463846FDF7A0FF0023336194F8253044
:10246000DC073FF592AC14E623F4E043B1F5806F4E
:102470004AEA030ACED0042102238B408AEA030AE7
:10248000C8E70C21F8E7FEF73BFDDCE79DF81810E4
:1024900001F07F0408EB440303EBD113CF0993F859
:1024A00024006FF3000083F8240093F824006FF3F6
:1024B000820083F82400002C54D1434C9DF8146012
:1024C0002378079DB7EBD31F21D045B14FF0E02310
:1024D000D3F8F03DDB077FF558AC00BE55E4590654
:1024E00008D16378052B01BFA378364A43F08003F7
:1024F000A2F84C30354B4FF48052DA802369002B20
:102500003FF443AC304A0321304698473DE494F908
:102510000030A068002B06DB00283FF436AC2C49C5
:102520002A4601F08FFEA268E3892A442B44A26068
:10253000E2889BB29A42E38101D03F2D0FD82369F4
:1025400033B92078FEF7B8FF00287FF41EACBDE752
:102550001D4A0221304698470028F2D1BFE4FFF718
:10256000BDFBF1E71A7D1B4B1B789A420ED21A4B2A
:102570001B6813EB42133FF46BAC9C699DF8192068
:10258000079B9DF81400A047FFF7FFBB581C904223
:10259000FFF65EACD21A114B03EB4213EDE798F84D
:1025A0000030FFF7F2BB069B002B3FF4EEAB079821
:1025B0009847FFF7EABB98F80330FFF7E6BB00BF88
:1025C000F4160020005C0040F4170020006000407A
:1025D000301600201422002010220020644D000834
:1025E000F8B50546FDF706FE0C4F044694B10C4EB7
:1025F00004E03B78FF2B01D0FFF7C2FB3046FDF72C
:10260000B6FE0028F5D021462846FFF7E9FA054432
:10261000241AEBE7BDE8F840FFF726BAE8020020ED
:102620007022002010B5137803F06003202B1046B1
:102630004FD1294A848813789C424AD14378203B61
:10264000032B46D8DFE803F002141739012905D11E
:1026500022490722FFF76AFB012010BD0329FBD1A5
:102660001F4B002BF8D01D490020AFF30080F3E78B
:102670000129F1D1ECE7012902D1FEF725FFEBE7B3
:102680000329E9D14388137103F0010192F8233043
:1026900081F00100B0EBD31F1CBF60F3C71382F8B9
:1026A00023300029D8D00F48FFF79AFF0E48FFF7D4
:1026B00097FF0E4B00221A70CEE70129DDD00329C7
:1026C000CAD10B4B002BC7D041880020AFF300804C
:1026D000C2E70020C1E700BF542200205C22002096
:1026E000000000001E4B0008394B00087C2300202E
:1026F00000000000012913B5144613D1137803F02C
:102700007F02022A3DD16278012A3AD16288002AEA
:1027100037D1384AA08892F83030042BC0B203D1A8
:10272000FEF7EEFB012011E092F82E1081420FD14E
:10273000022BF7D1FFF78CFA0028F3D14FF0E023FA
:10274000D3F8F03DDB0700D500BE002002B010BD7D
:1027500092F82F208242E5D1002BE3D1264B00F0E6
:102760007F0203EB420303EBD01320331A79D10726
:10277000D8D41B799A07D5D420491F22FEF746FCEE
:10278000DAE703F06003202BDFD16378FE2B14D04F
:10279000FF2BDAD16388002BD7D1E1888AB2002AD7
:1027A000D3D1144B2046C3E90D2283F830209987FA
:1027B00083F83E20FEF788FEB4E76388002BC4D17F
:1027C000E388012BC1D18DF807300D4B1BB1AFF35E
:1027D00000808DF807009DF80730002BB5D0013B35
:1027E00001220DF1070120468DF80730FFF79EFA10
:1027F00098E700BF701500201D2200207005002002
:10280000000000002DE9F04FDFF8448389B0B8F8EC
:102810001630D8F80870039023B15BBA9BB2B7FBAF
:10282000F3F39BB2D8F83860D8F81150B6FBF3F246
:10283000BF1BB7F5805F28BF4FF480572DBA03FB4D
:1028400012661544B9483A46002101F0EBFCCEB9B6
:10285000B74CB742A4F1200323D898F82E00002EDD
:1028600000F05281B149B2B2FEF7D0FB002840F02F
:102870005A814FF0E023D3F8F03DDB0740F153815C
:1028800000BE50E14FF0E023D3F8F03DD80700D56B
:1028900000BEFDF7CFFF012009B0BDE8F04FFEF705
:1028A00073BD18464FF40072002101F0BBFC0346D3
:1028B000EDB9A04A02F1380E106851689C46ACE8A8
:1028C0000300083272456346F6D11068CCF8000068
:1028D0009288ACF80420552384F8DE31AA2384F8CA
:1028E000DF31013506F5007604F50074B1E7B5F582
:1028F000017F3FD8681E904AB0F5817F28BF6FF4F2
:102900008171B2F85EE028BF681801020EF1010E75
:10291000A4F1220901F5807A0A46724538BF02F116
:10292000010C02F1010234BF1FFA8CFC4FF0000CC5
:10293000524529F802CFF0D148B9F82204F8202CEA
:10294000FF2204F81F2C4FF6FF7224F81E2CDFF82C
:10295000E8C104204FF6FF7EBCF81620914204D84F
:10296000521AFF2A98BF23F812E001380CF1180C14
:10297000F2D1B6E7B5F5027F59D840F2052295426B
:102980004BD16E49A4F115000A78002A43D00131D9
:1029900003F8012B8342F7D12822234604F8152C93
:1029A0000021674A64481268120A520202921822F1
:1029B00002FB010043F2E31A45F6734C032990D859
:1029C000828A019281461A4603F10B0B99F800E0C6
:1029D000BEF1000F26D009F1010902F801EB5A45BA
:1029E000F4D14FF064025A734FF000029A82019AB8
:1029F0005A83C268A3F80EA0A3F810C0A3F812C0AF
:102A0000A3F816A0A3F818C07AB10269DA610131FF
:102A100020331830D2E72022BAE72901A1F501516D
:102A20001139BEE74FF0200ED7E7029AEEE7454A8C
:102A300095423FF656AF40486FF40272AA18002143
:102A40008646A5F2072CB0F81490E14503D8B0F8FB
:102A50001690E14505D20131042900F11800F2D1A8
:102A60000321182000FB01E00329B0F814C0A2EBF9
:102A70000C0202F1020C12D00269B2EB4C2F4FEAA9
:102A80004C217FF62EAF521AC068B2F5007F014488
:102A900028BF4FF40072184601F0D4FB21E702F57D
:102AA0000023274A126803F5817302F10060B0EB3E
:102AB000032F4FEA03217FF614AF234B44F8203C49
:102AC00003F1144303F52C1303F6023344F81C3CC2
:102AD0001E4BC4F8DC314FF4005344F8183C03F1AA
:102AE0009843120A03F5E20344F8082C03F20A4360
:102AF0004FF4807244F80CCC44F8141C44F8102CA9
:102B000044F8043C2046C7E7039B8DF814308DF849
:102B100018000723314605A88DF8153007968DF863
:102B20001960FEF701FE09B0BDE8F08F70050020C6
:102B30009005002077000020EC020020A200002079
:102B40000C220020080101005546320A306FB10AFC
:102B5000701500202DE9F04F8E4C94F83090B9F1AB
:102B6000010F93B084468E461F4600F0BC81B9F138
:102B7000030F00F0C382B9F1000F50D194F82F3049
:102B80008B4268D1DFF81C821F2FD8F800204746FF
:102B900002D1814B9A420ED094F82E00042384F87F
:102BA0003030FEF7ADF994F82F00FEF7A9F90020B8
:102BB00013B0BDE8F08F46460FCE25460FC596E808
:102BC0000F0007C525F8023B1B0C2B70734B2362CB
:102BD0006368A26884F82C90C4E90939012384F859
:102BE0003030E37B282BC4E90D290ED1E38A82B172
:102BF000217BC90910D0002B41D05BBA9BB29A420D
:102C00000AD36046FFF7FEFD09E02A2B30D1E38AA4
:102C10001ABB002B00F063810220FEF7B5FB94F88D
:102C20003030022B17D194F82E005D4B00F07F025C
:102C300003EB420303EBD01320331B799B070AD429
:102C4000A268A36B9A4240F27F82237BDB0900F0EB
:102C50007B82FEF755F90120AAE7217BC909DBD168
:102C60006BB15BBA9BB29A42D6D3FEF7B3FBD6E701
:102C7000B2B1217BC90913D1B2F5805F01D901201E
:102C8000CBE7484992B27046FEF7C0F90028C6D19A
:102C90004FF0E023D3F8F03DDB0788D500BE86E790
:102CA000252B94F80D9009D8192B1CD8032B00F074
:102CB000DB80122B7CD0002B00F00D8194F83C209F
:102CC000002ADCD1E17B636B1E2900F0048184F8CB
:102CD0003E2098B24FF6FF7242F205019042A18762
:102CE00040F0F68038E01A3B0B2BE7D801A252F8EF
:102CF00023F000BF352E0008D72E0008BD2C000899
:102D0000BD2C0008252D0008BD2C0008BD2C000896
:102D1000BD2C0008BD2C0008712D0008BD2C00083A
:102D20004B2D0008204B002B00F0D580227DE17C4C
:102D30004846AFF30080002840F0CD8094F83C3046
:102D4000002BBBD1FDF776FDB8E7DFF860C04FF48C
:102D50000033C8E900C30820A368002B8FD0984235
:102D600028BF1846606382B20E4994F82E008BE7A4
:102D70004FF00063099303F1012303F580330A93B5
:102D80004FF002130B9309AB93E8070087E80700A5
:102D90000C20E1E770150020555342435553425330
:102DA0001D22002070050020000000000001010825
:102DB000A84FA94A1F23CDE9097342F220031068E6
:102DC0005168ADF8423020238DF8473002AB03C381
:102DD000127A1A70A14B05AA03F108070DF1080C2D
:102DE000164618685968154603C50833BB422A467B
:102DF000F7D1186899889B792860AB71A9809CE805
:102E000003000BAB83E8030096E80F000DAD07C588
:102E1000934F2B803023ADF844708DF8463009AEC7
:102E20000FCE904D01970FC50FCE0FC533682B60A5
:102E3000242091E7099B03F4000343F00303099363
:102E4000894B7BB14846AFF300809DF8263080F077
:102E5000010060F3C7138DF82630099BC8F80030D5
:102E6000042079E70120F0E794F83C5094F83E60A4
:102E700094F83D701222002109A801F0D3F9F02343
:102E80008DF8243005F00F050A238DF826508DF8B3
:102E900031608DF82B308DF8307009AD0FCD714E4B
:102EA0000FC62B683380714B23B9A38784F83E305B
:102EB000122051E74FF48052A6F110014846AFF3BB
:102EC000008000230028A38784F83E30FFF6F6AE8A
:102ED00000287FF441AFA368002B7FF4D0AE02231B
:102EE00084F830309BE6B3F5805F3FF6D1AEE17BEE
:102EF000282906D1A36B626B3B449342A363EED2B5
:102F00007FE62A2940F0E080594D4FF00008474500
:102F100006D8A36B626B3B449342A363DFD2A4E663
:102F200055F8203C534A934237D102F1144255F8E8
:102F30001C3C02F52C1202F6023293422DD1D5F838
:102F4000DC214D4B9A4228D155F8181CCE0724D4C9
:102F500011F4405F21D011F4805123D055F8109C1A
:102F6000B9F5EE7F19D2454809EB050110F8012BA0
:102F7000002A00F0EF8011F8013B73B1A2F1410685
:102F8000192E98BF2032A3F1410698BFD2B2192E54
:102F90009CBF2033DBB29A42E8D008F5007805F5F3
:102FA0000075B4E755F8043C354A9342F5D155E92C
:102FB000056BFEF749FAB6F1082F11D3DFF8CCC044
:102FC0000A464FF00823634502F101020BD0B2F527
:102FD000807F08D003F50060864259D30346F2E7AC
:102FE000284B01221A70A5F108094FF0000AD345B9
:102FF00007DDF9E902230AEB0600FEF729FB0028AA
:1030000059D0FEF717FA55F8083C002BC5D01E49D9
:103010000A68934207D044F26300834200D80AB1A1
:103020004FF0FF330B6055F80C3C44F263029342BF
:10303000B3D803F0070001EBD30301225E7A82408C
:103040003242D0B2A9D140EA06025A724B6801332B
:103050004B60A2E700800202564B00085F4B00085D
:10306000312E30007005002000000000000000003C
:10307000900500205546320A306FB10A0C4D000809
:103080000A24714C6E040020081800200000080873
:103090006B4810F802C04FF0010E00F802E0BCF1DE
:1030A000000FA0D1C858013040F0B9800431B1F50B
:1030B000006FF7D197E74FF0FF30FDF7F7FA0028E0
:1030C0009FD10AF1080A92E7A36B227B3B44D20905
:1030D000A36306D11E291EBF42F20501A18784F811
:1030E0003E20626B9342BFF4FAAE4FF0E023D3F878
:1030F000F03DDA077FF593AD00BE90E594F82E30F1
:103100008B427FF48CAD0D2F7FF489ADE37B282BB0
:1031100009D02A2B14D04B4B53B1607B04F10F0123
:10312000AFF3008004E0484B13B1607BAFF3008045
:103130000023464994F82F0084F830301F22A3E57D
:10314000607BFEF75FFAF3E7FEF782FD00287FF46D
:1031500082AD9DE50B78002B7FF41FAF55F80C6C0A
:1031600055F814BC002E41D1394A06F1006303F52D
:103170000043196891420ED15B68591EB1F5804F2A
:1031800009D2073323F0070308331E4406F108036E
:10319000B3F5804FE9D355F804AC0AF1070121F0EB
:1031A000070108313144B1F5804F15D900260121BE
:1031B000FEF74AF91020CDE909610821CDE90B019C
:1031C00005A909A80596FDF75DFF4FF0FF30FDF753
:1031D0006DFAFEF72FF91E4A06F10060CDE9092AC3
:1031E00009A9082200F50040FEF74EFD09A8FDF7E9
:1031F00045F9184B5B444A4618442946FEF744FDFE
:1032000055F80C3C55F8082C01339342FFF4C5AE39
:10321000FEF7FEFC104B1864FDF774F8BDE60023C2
:103220000121CDE90931CDE90B2109A805A90593B3
:10323000FDF728FF4FF0FF30FDF738FAD3E600BF67
:103240006E04002000000000000000007005002057
:1032500043494E4908800008EC02002080B5724BBB
:103260001A6802F4C062B2F5806FD3F8802022F4AD
:1032700080729EB0C3F8802013D11A6822F4C06215
:1032800042F400721A60694A126832214A4368495E
:10329000B2FBF1F201325969480501D5002A3FD14C
:1032A0005B69644C644DA368E26803F00C030C2B6B
:1032B00038D102F00303032B236835D1D4F89830BA
:1032C00043F00103C4F898302A68D4F898309B077B
:1032D00040F19C80A36803F00C030C2B00F0A2804B
:1032E000236823F0807323602A6823689F0100F11C
:1032F0009380E368514A1A40514B1343E3602368BB
:1033000043F080732360E36843F08073E3602A68CE
:1033100023689E0113D42B689B1A022BF8D90EE068
:10332000013AB8E7082BC7E743F4803323602A68E3
:1033300023689903C2D42B689B1A642BF8D9414A9D
:10334000136813F00C0F00F089802368980140F196
:103350009180E368E26803F00303032BE3680CBF8A
:1033600039493A49C2F30312C3F306230132B1FBD0
:10337000F2F25343E268C2F3416201325200B3FBFE
:10338000F2F3334A934206D9A368A36823F0F0030B
:1033900043F08003A360A36843F00303A3602A689B
:1033A00041F28831A36803F00C030C2B40F0FC8140
:1033B000A368244A43F4E063A360A36823F47C5326
:1033C00043F4E063A360A36823F0F003A3601368F1
:1033D00003F00F03042B00F2ED81A36823F4E063F4
:1033E000A360A36823F46053A360FDF7A9F8A36862
:1033F000184AC3F30313D35C03F01F03D8400B4BED
:103400001860154B1868FDF75FF833E02B689B1ABE
:10341000022B7FF65AAF92E72B689B1A022B7FF69E
:1034200064AF8CE7E3688AE7007000405401002035
:1034300040420F00001002402C2000200C809F0111
:10344000135500100020024000127A000024F400FE
:1034500000B4C404544D000850010020136823F048
:103460000F0343F004031360136803F00F03042BEE
:103470003FF46BAFD4F88830AE4E23F04063C4F80D
:103480008830A36803F00C03082B00F0A7810C2BF5
:1034900000F0A681042B01D1A74B3360A368A74A93
:1034A000C3F303134FF48061D25C3368D3403360BD
:1034B000FCF7AAFFE36C43F00103E364E36C03F061
:1034C00001030493049BE36C43F00203E364E36CA5
:1034D00003F002030393039BE36C43F00403E364F0
:1034E000E36C03F004030293029B0023CDE90A136B
:1034F0004FF0904002234FF001080AA9CDE90C8358
:103500004FF40047FDF7A0F900F50060CDE90A7817
:10351000FDF79AF98A4B87610BB1AFF30080894BB5
:10352000894A19685B680A40B2F1005F10D103F163
:10353000774303F57F03B3F5002F09D8834B002BA6
:1035400040F067814FF090431B695A0500F1678195
:1035500000234FF4C057CDE90A730C930AA9022344
:103560004FF090400D93FDF76FF9A36D784A794FB6
:10357000794D43F40003A365A36D03F400030693A0
:10358000069BA36D43F48073A365A36D03F480735E
:103590000593059BA36B43F48073A363A36B23F490
:1035A0008073A3636D4B5A601A6822F4FE4242F4A2
:1035B00080421A601A6842F060021A60684B4FF449
:1035C00000221A6038464FF48013AB65FCF712FEF8
:1035D000C0F5BF730133082B044631D9614B07EBAB
:1035E000000C0AAA03F1100E18685968164603C6A3
:1035F000083373453246F7D11B7833700CF1FF3135
:103600001C224FF4002020FA02F303F00F0378335A
:103610006B44043A13F8503C01F8013F161DF2D1F7
:1036200000238CF80830C4F5BB730133062B04F17A
:10363000080040F2B9814C49384400F0FBFD0E34DB
:103640002C61FEF7E5FA2864484DFCF75BFE2B7809
:10365000FF2B2AD134224648464E002100F0E2FDDD
:10366000454B00221A70454BDA819A81444A136017
:10367000444B23B13046AFF30080434B1860002326
:103680003278424FDFF800811C46A24240F28E8120
:10369000D8F8003013EB441340F08B814FF0E02357
:1036A000D3F8F03DDC0700D500BE0220FCF7B4FEE5
:1036B000374F384E2E4C06F110082B78FF2B01D0D7
:1036C000FEF75EFB6378002BF7D023785807F4D41D
:1036D0003379D907F1D54046FCF738FE0028ECD005
:1036E000DFF8C0804046FCF731FE0028E1D001221F
:1036F0000AA94046FEF769F90446FDF75DFD002C76
:10370000D7D09DF828303C780D2B02D00A2B40F002
:10371000398202212048214EFEF762FAFEF7A4F911
:1037200000233355002C40F0BF811D48FEF758FFA1
:10373000D8E700BF540100200024F400544D0008D5
:103740000000000000000108030000FF000000006E
:103750007FBB222058010020EC0200200020004006
:103760000C2200200D4B00086E4B0008E8020020E0
:103770001D220020142200201C220020D80200203C
:10378000182200200000000010220020644D0008D4
:103790007C23002054220020744C00083C2300208D
:1037A000534B0008642200202B689B1A8B427FF643
:1037B000F9AD5FE6136823F00F0343F004031360D1
:1037C000296841F28830136803F00F03042B3FF49B
:1037D00004AE2B685B1A8342F5D94BE6A24B5CE63C
:1037E000E268E36802F00302022AC3F303130CBF8A
:1037F0009E4A9D4A0133B2FBF3F3E268E168C2F3EB
:1038000006225343C1F3416201325200B3FBF2F38B
:1038100043E6AFF3008000287FF494AE98E6944F1F
:10382000944B3A689A422BD0934B9A424FF0000344
:1038300004D092498A420DD13B6089E63B60032067
:10384000FCF7EAFDFDF710FE8D4B04221A60FCF731
:10385000DBFD7DE6DFF84C8239600120C8F80030DE
:10386000FCF7B6FD87494FF400438B62D8F800306F
:10387000B3F5FA7FFAD3FCF7C7FD4FF400438B6131
:1038800000233B60804B0BB1AFF300807F4B0BB14B
:10389000AFF300807E4B4FF480614FF090401F6883
:1038A000D3F80480FCF782FE4FF4004100F500607D
:1038B000FCF77CFE4FF4C0514FF09040FCF776FED1
:1038C000E36C23F00103E364E36C23F00203E3649D
:1038D000E36C23F00403E3642A68236843F48073F1
:1038E000236023685B052BD5636843F080436360E6
:1038F00001232A68A36041F28831A36803F00C0316
:10390000042B47D1594B3360624B1868FCF7DCFD40
:10391000D0B94FF48073236023602A68236813F0C2
:1039200000733CD14FF48052E260A3614FF0FF334B
:103930002362D4F8943043F40003C4F8943003E0D5
:103940002B689B1A022BCCD94FF0E0214FF0FF33AC
:103950000022A363A26323642264A362A262E362DF
:10396000E262236322630A614A618A614A4AC2F8B9
:103970008030C2F88430C2F88830C2F88C30474BAF
:10398000434A9A60BFF36F8F87F3088887F30988EB
:103990004047FEE72B689B1A8B42AED9D4E72B68D1
:1039A0009B1A022BBAD9CFE7044649E69B1A07EBCC
:1039B00043135B68002B3FF471AE984732780134B3
:1039C000E4B2511C8C4223467FF75FAE00232B707C
:1039D0000993099BC72B3AD9314A0323A2F84030F7
:1039E00000230893089BC72B35D9B2F8403023F049
:1039F00002031B041B0CA2F8403000230793079B13
:103A0000C72B2CD9264C0023A4F84030A4F8503002
:103A1000A4F844302380A3802381A3812382A3823E
:103A20002383A383B4F840309BB243F45D43A4F8EE
:103A30004030FCF7FBFFB4F858306FEA43436FEABD
:103A400053439BB2A4F85830FDF77CF82DE600BF35
:103A5000099B0133BCE700BF089B0133C1E700BFEE
:103A6000079B0133CAE700BF00127A000024F4006C
:103A7000FCFF0120EF6926F0B40AE8F5EF6916F0C3
:103A80002420002000080048000000000000000082
:103A9000000001085001002000E100E000ED00E01E
:103AA000005C00402820002044493046FCF798FB89
:103AB00020B143493046FCF793FBA0B94148FEF7DB
:103AC0008FFD4148FEF78CFD4048FEF789FD4048D8
:103AD000FEF786FD3F48FEF783FD3F48FEF780FD79
:103AE00000233B70FEE53D493046FCF779FB28BBDF
:103AF0003B48FEF775FD3B4B3B4A50210AA800F0BE
:103B00005DFB0AA8FEF76CFD384A4FF4E073CDE97F
:103B100000325021364A4FF400730AA800F04EFBE1
:103B20000AA8FEF75DFD6F230093324A42F29A33F2
:103B300050210AA800F042FB0AA8CCE72E493046E3
:103B4000FCF74EFB30B92D48FEF74AFDFDF78CFC23
:103B50002B48C0E72B493046FCF742FB044678B9B6
:103B60002948FEF73DFDFDF77FFF284A0A940A9B8E
:103B7000934201DDFCF71AFC0A9B01330A93F6E736
:103B80002348A8E7082B01D07F2B0BD1002C3FF452
:103B9000A9AD013C1F483C700321FEF721F8FDF759
:103BA00063FF9FE53E2C3FF69DAD621C3A701A4ABA
:103BB0008DF82830135501210AA8EEE7754B00084F
:103BC0007A4B00087C4B00088A4B0008A64B000883
:103BD000C84B0008ED4B0008534B00080F4C000881
:103BE000144C00082B4C0008424C0008000001084F
:103BF0004F4C0008774C00088B4C0008914C000893
:103C0000B94C0008C14C0008C74C00089F86010051
:103C1000D84C0008034D00083C230020124A1368CA
:103C200001331360114B1B68022B0DD8DBB11368F5
:103C30001268DBB2D20544BFDB43DBB20C4A4FF45F
:103C4000004123B991617047032B02D07047916204
:103C50007047136813F0010F4FF40042044B01D07A
:103C60009A6270479A617047282000202420002023
:103C7000000800482DE9F04F944BB3F844208FB072
:103C800091B29005009110D54FF6FF52A3F8442051
:103C9000B3F848304FF44072C3F30A0301210BA874
:103CA000ADF82C200C93FDF73FFD009B874A13F4E1
:103CB000806F13D04FF6FF33A2F84430FCF7B6FE06
:103CC0004FF48073ADF82C30012100230BA88DF840
:103CD0003030FDF729FD0FB0BDE8F08F009BD9040F
:103CE0001BD5B2F8403023F004031B041B0CA2F8D0
:103CF0004030B2F8403023F008031B041B0CA2F83C
:103D000040304EF6FF73A2F8443001214FF4A06317
:103D10000BA8ADF82C30FDF707FD009B1B051AD54D
:103D20006A4BB3F8402092B242F00802A3F8402058
:103D3000B3F8402092B242F00402A3F840204FF2C0
:103D4000FF72A3F8442001214FF480630BA8ADF863
:103D50002C30FDF7E9FC009BDF0516D55C490A789D
:103D6000012A0BD15948B0F8403023F010031B044E
:103D70001B0CA0F84030013A0A7001E0002AFAD189
:103D8000524B4FF6FF62A3F84420504BB3F8443037
:103D900019040FD4009B5A049DD54FF0E023D3F8AB
:103DA000F03DDB0700D500BE484B4BF6FF72A3F891
:103DB000442090E7454BB3F8448008F00F084FEAE1
:103DC000880505F1804505F5B8452B889AB21E0493
:103DD00003923ED512F4006C00F082804FEAC803D3
:103DE00003F1804303F5C0433A4EDC889988C4F35D
:103DF000090489B29CB92A8840F68F733240134077
:103E000043F080032B804FF0E023D3F8F03DDC0734
:103E100000D500BE304B4FF48052DA8019E009A87B
:103E20002246FCF7F0FC2B881E4040F68F7333408F
:103E300043F08003082C2B80E5D103C84FF4C06306
:103E4000ADF82C300EAB03E9030001210BA8FDF700
:103E50006BFC039B180698D52B88204823F4E1437C
:103E600023F070031B041B0C43F400432B802988B0
:103E700001F00F028BB201F4C061B1F5806F4FEA1F
:103E8000421115D14418E57F002D3FF47EAF83F039
:103E90004003C3F3801303EB48039B0003F180430B
:103EA00003F5C0430025E5775C8804F47C445C801E
:103EB0004318598B1B8B8B4200F0348100EB42106E
:103EC00041461030FCF762FE5FE700BF005C004037
:103ED0006D0400208F8FFFFF00600040F41600206B
:103EE0002B8823F070031B051B0D43F080032B80F0
:103EF0002B889AB203F00F0B03F4C063B3F5806F05
:103F0000059304BF134683F48043049208BFC3F3B0
:103F100080338D4A18BF012303EB480302EB830172
:103F20004FEA4B10B1F8029032F82310874B03EBA5
:103F30004B12C9F30909D2F804A089B2BAF1000FF3
:103F400000F09C80B9F1000F52D0BAF80820BAF8FE
:103F50000A00BAF8044092B280B2824236BFC0EB87
:103F60004406161AB618B6B2B4426FD800242746D3
:103F700001944C4528BF4C46A9EB0406B6B26645F1
:103F800028BF6646A21993B224F00102069393B2A9
:103F9000029304F001042AB1019807911A46FCF734
:103FA00032FC0799029B194489B294B102220BA8F2
:103FB0000791FCF728FCDDE901300799BDF82C20BA
:103FC0001A54023189B2120A46B1013E07F8012B98
:103FD000B6B21EB132463846FCF715FCBAF80810E6
:103FE000069ABAF8040089B2FCF7A4F9AAF8080006
:103FF000564B03EB4B134FEA4B1158899A894844AF
:1040000080B29145588144D23E2A47D8531C5B0266
:1040100003F47C434FEAC80202F1804202F5C04239
:104020000026D380494B8DF830B05C184FF4E06225
:104030006389ADF82C2001210BA80D938DF8316018
:10404000FDF772FBA66004E7121B92B29442FBD903
:10405000844210D9DAF80070824207EB02032ABFCB
:10406000A41A801A921B019339BF84B20027A4B20C
:104070001FFA82FC7DE7001B80B2E9E7B9F1000F6F
:10408000B6D05389314A10584A461844FCF7BBFB56
:10409000AEE71B89984213D33E2A08D91F322C4B16
:1040A000C2F34712013A43EA82239BB2B2E70132DC
:1040B000C2F34E029302002AF7D14FF40043A9E75E
:1040C0000599B1F5806F15D01B1A9BB2934228BF9A
:1040D00013463E2B1CD91F331D4AC3F34A13013B21
:1040E00042EA83239BB24FEAC80202F1804202F502
:1040F000C042D380049B23F4804323F0700343F435
:10410000004343F0800383F440539BB22B80A0E62E
:104110000133C3F34E039A020BB193B2E3E74FF4BA
:104120000043E0E74FF4E061ADF82C1062F07F024D
:104130000D93012100230BA88DF830208DF831302C
:10414000FDF7F2FA21E600BF00600040F4160020FF
:104150000080FFFFFFF78EBDFFF78CBD70470000AA
:10416000034AD2F8883043F47003C2F888307047AD
:1041700000ED00E070B50D4D0D4C641BA410002641
:10418000A64209D10B4D0C4CFFF7E8FF641BA410AD
:104190000026A64205D170BD55F8043B984701366C
:1041A000EEE755F8043B98470136F2E7C84D0008A2
:1041B000C84D0008C84D0008C84D00080CB430B503
:1041C000174B0C1E1D689DB008DA8B232B604FF037
:1041D000FF301DB0BDE8304002B070474FF40273AD
:1041E000ADF8143014BF04F1FF3323460493079352
:1041F0004FF6FF7302900690ADF81630209A21AB6F
:1042000002A92846019300F087F8431CBCBF8B230A
:104210002B60002CDDD0029B00221A70D9E700BF72
:104220004C03002002440346934200D1704703F838
:10423000011BF9E7034611F8012B03F8012B002AB3
:10424000F9D170470A44914200F1FF3300D1704721
:1042500010B511F8014B03F8014F9142F9D110BD8F
:104260002DE9F0478E681F46BE420B6882460C4619
:1042700090462DD8B1F90C2012F4906F26D06569C4
:10428000096905EB4505A3EB010905EBD5757B1C19
:104290004B446D109D4238BF1D46530527D5294616
:1042A00000F056FB064660B321694A46FFF7CAFF95
:1042B000A38923F4906343F08003A38126616561A1
:1042C0004E44A5EB09052660A5603E46BE4200D9D6
:1042D0003E4620683246414600F0B4FAA3689B1B74
:1042E000A3602368334423600020BDE8F0872A469A
:1042F00000F0B2FB06460028E0D12169504600F0EC
:10430000BBFA0C23CAF80030A38943F04003A38111
:104310004FF0FF30E9E700002DE9F04F98468B8918
:104320001B069DB007460D46144610D50B6973B9A0
:10433000402100F00DFB2860286130B90C233B6060
:104340004FF0FF301DB0BDE8F08F40236B610023BC
:10435000099320238DF82930CDF80C803023DFF825
:104360009C818DF82A304FF0010923469A4613F8B4
:10437000012B0AB1252AF9D1BAEB040B0BD05B460D
:10438000224629463846FFF76BFF013000F0A78030
:10439000099A5A4409929AF80030002B00F09F8045
:1043A00000234FF0FF32CDE905230AF1010A0493FF
:1043B00007938DF853301A935446052214F8011BC5
:1043C0004E48FBF725FF049AD8B9D00644BF2023F6
:1043D0008DF85330110744BF2B238DF853309AF8D2
:1043E00000302A2B15D0079A544600204FF00A0CB3
:1043F000214611F8013B303B092B4BD9B0B1079254
:1044000014E0A0EB080309FA03F313430493A24654
:10441000D2E7039B191D1B680391002BBBBF5B42B6
:1044200042F0020207930793B8BF049223782E2B21
:104430000AD163782A2B32D1039B1A1D1B68039281
:1044400043EAE37302340593DFF8C0A02178032226
:104450005046FBF7DDFE38B1049BA0EB0A0040227A
:10446000824013430134049314F8011B24488DF84F
:1044700028100622FBF7CCFE002836D0214B1BBBB0
:10448000039B073323F0070308330393099B33444B
:1044900009936AE70CFB02320C460120A8E70023CF
:1044A0000134059319464FF00A0C204610F8012BF1
:1044B000303A092A03D9002BC6D00591C4E70CFB7A
:1044C000012104460123F0E703AB00932A460E4B7B
:1044D00004A93846AFF30080421C0646D6D1AB890A
:1044E0005B063FF52DAF09982CE703AB00932A46F6
:1044F000054B04A9384600F079F8EDE7A44D000813
:10450000AE4D00080000000061420008AA4D0008FE
:104510002DE9F047164698468A680B69DDF8209029
:104520009342B8BF1346336091F8432007460C46C8
:104530000AB1013333602368990642BF33680233FE
:104540003360256815F0060506D104F1190AE36801
:1045500032689B1AAB4226DC94F843302268003B59
:1045600018BF012392062BD404F14302414638467A
:10457000C84701301ED02368226903F00603042BCC
:1045800002BFE5683368ED1AA3680CBF25EAE5753C
:1045900000259342C4BF9B1AED1800261A34B54279
:1045A0001AD1002008E00123524641463846C84748
:1045B000013003D14FF0FF30BDE8F0870135C6E789
:1045C000E1185A1C302081F84300224494F8451029
:1045D00082F843100233C7E701232246414638469A
:1045E000C8470130E6D00136D9E700002DE9FF4782
:1045F0000F7E0C9E782F914680460C469A4601F11C
:10460000430207D8622F0AD8002F00F0DD80582F10
:1046100000F0C38004F1420684F842703AE0A7F14A
:104620006303152BF6D801A151F823F08546000845
:10463000994600081546000815460008154600086A
:10464000154600089946000815460008154600085A
:104650001546000815460008AF4700082747000820
:10466000674700081546000815460008D1470008AE
:10467000154600082747000815460008154600089B
:104680006F47000833681A1D1B68326004F1420648
:1046900084F842300123A8E031682368081D3060A7
:1046A0001E0601D50D6803E05D06FBD5B1F900508B
:1046B0006168002D78DA2D20002984F84300A1607C
:1046C0002DDA5E486D420A231646B5FBF3F103FB73
:1046D0001157C75D06F8017D2F46BB420D46F4D940
:1046E000082B0BD12368DF0708D52369616899423D
:1046F000DEBF302306F8013C06F1FF36921B226133
:10470000CDF800A04B4603AA21464046FFF700FF24
:1047100001306FD14FF0FF3004B0BDE8F08723F0D7
:1047200004032360CDE721683368080653F8045B6F
:1047300002D4490648BFADB26F2F4048336014BF62
:104740000A230823002184F843106668A660002E1F
:10475000BADB216821F004012160002DB4D1002EC4
:10476000B2D11646BCE7236843F0200323603448E7
:10477000782784F84570236831681F0651F8045B78
:1047800002D45F0648BFADB23160D90744BF43F0E1
:10479000200323601DB11023D4E72848E9E72368EC
:1047A00023F020032360F6E724480A23CDE733688B
:1047B00025686169181D30602E061B6801D51960D7
:1047C00002E06806FBD5198000232361164697E7AF
:1047D00033681A1D32601E68626800213046FBF79C
:1047E00017FD08B1801B606063682361002384F8B3
:1047F000433085E72369324649464046D047013079
:1048000088D023689B0714D4E068039B9842B8BF04
:10481000184681E70123324649464046D0470130D9
:104820003FF478AF0135E36803995B1AAB42F1DCE2
:10483000EAE7002504F11906F5E700BF0D4B000873
:10484000B54D0008884210B501EB020402D984423C
:10485000234607D8431EA14208D011F8012B03F8C4
:10486000012FF8E7024401468A4200D110BD13F837
:10487000014D02F8014DF7E738B50546002941D052
:1048800051F8043C0C1F002BB8BFE41800F0D8F816
:104890001D4A136833B9636014602846BDE8384088
:1048A00000F0D4B8A34208D9206821188B4201BF78
:1048B00019685B6809182160EDE71A465B680BB15F
:1048C000A342FAD911685018A0420BD120680144C4
:1048D000501883421160E0D118685B685360084447
:1048E0001060DAE702D90C232B60D6E72068211884
:1048F0008B4204BF19685B68636004BF09182160BC
:104900005460CAE738BD00BF8423002070B50F4E45
:104910000C463168054611B900F0CCF830602146EC
:10492000284600F0C7F8431C03D14FF0FF3420465F
:1049300070BDC41C24F00304A042F8D0211A2846FC
:1049400000F0B8F80130F2D1EFE700BF802300207B
:104950002DE9F041CD1C25F0030508350C2D38BF9D
:104960000C25002D064601DBA94204D90C23336037
:104970000020BDE8F081314F00F062F83B681C4632
:1049800044BB29463046FFF7C1FF431C044650D1C3
:104990003C682146002941D1002C44D02368304690
:1049A00004EB030800F086F880453CD121686D1ABD
:1049B00029463046FFF7AAFF013034D023682B4444
:1049C00023603B68002B36D05A68A24229D10022CE
:1049D0005A600EE02268521B1DD40B2A16D96119A9
:1049E000A342256018BF5960636808BF39606251EF
:1049F0004B60304600F02AF804F10B00231D20F034
:104A00000700C21AB5D01B1AA350B2E7A3426268CE
:104A1000DED13A60EDE723466468B1E70C464968A9
:104A2000B8E71346CEE70C233360304600F00EF8AB
:104A30009EE70560DDE75B60FFDE00BF84230020AA
:104A4000014800F047B800BF88230020014800F06B
:104A500042B800BF882300202DE9F041804615466A
:104A60000C4621B9BDE8F0411146FFF771BF2AB9E4
:104A7000FFF702FF00242046BDE8F08100F02CF88B
:104A80008542064602D8B5EB500FF4D82946404679
:104A9000FFF75EFF07460028ECD0B5422A462146C4
:104AA00028BF3246FFF7CEFB21464046FFF7E4FE23
:104AB0003C46E0E738B5064D0023044608462B6027
:104AC00000F012F8431C02D12B6803B1236038BDFB
:104AD0008C2300207047704751F8043C181F002BAE
:104AE000BCBF0B58C0187047044A05491368002B17
:104AF00008BF0B46184410601846704790230020EA
:044B000098230020D6
:104B0400FF000000FF00CC6600303132333435360C
:104B1400373839414243444546000D0A426F6F74A9
:104B240055463220426F6F746C6F61646572204326
:104B34004C490D0A0054797065202768656C70270C
:104B440020666F7220636F6D6D616E64730D0A3E33
:104B540020004164616672756974005546322042D2
:104B64006F6F746C6F616465720020627974657331
:104B74000068656C70003F000D0A436F6D6D616ED7
:104B840064733A0D0A00202068656C702020202D83
:104B94002053686F7720746869732068656C700DA2
:104BA4000A002020696E666F2020202D2053686F34
:104BB4007720626F6F746C6F6164657220696E66D2
:104BC4006F0D0A002020657261736520202D204539
:104BD40072617365206170706C69636174696F6E72
:104BE40020666C6173680D0A002020726573657419
:104BF40020202D20526573657420746F20617070BD
:104C04006C69636174696F6E0D0A00696E666F008A
:104C14000D0A426F6F7455463220426F6F746C6F89
:104C2400616465720D0A0053544D3332473437338F
:104C34002D426574614650562D4734373300426F18
:104C44006172643A202025730D0A00466C61736812
:104C54003A2020256C754B4220286170703A20253B
:104C64006C754B422061742030782530386C58299B
:104C74000D0A005553423A20202020253034583A5A
:104C8400253034580D0A006572617365000D0A45BC
:104C9400726173696E672061707020666C617368FD
:104CA400202870616765732033322D323535292E03
:104CB4002E2E0D0A00646F6E652E0D0A0072657348
:104CC4006574000D0A526573657474696E672E2EDF
:104CD4002E0D0A000D0A556E6B6E6F776E20636F92
:104CE4006D6D616E642E2054797065202768656C43
:104CF400702720666F72206C6973742E0D0A000889
:104D0400200800090413142A636F6E6669672E690C
:104D14006E6900426574614650560047343733204B
:104D2400464300426F6F7455463220434443005556
:104D340046320000074D0008174D00081F4D0008BB
:104D44009C030020274D000800000000334D00089C
:104D54000000000000000000010203040607080927
:104D64000000000075150008A9030008BD1500081F
:104D74008112000825260008F91A00080000000026
:104D840000000000E515000800000000F51500080B
:104D940011130008F5260008552B00080000000038
:104DA400232D302B2000686C4C0065666745464710
:104DB40000303132333435363738396162636465F3
:044DC4006600000085
:104DC8003C21646F63747970652068746D6C3E0A69
:104DD8003C68746D6C3E3C626F64793E3C736372F0
:104DE8006970743E0A6C6F636174696F6E2E7265C8
:104DF800706C616365282268747470733A2F2F672A
:104E080069746875622E636F6D2F67656F736D6166
:104E18006C6C2F626F6F7475663222293B0A3C2FC7
:104E28007363726970743E3C2F626F64793E3C2FE5
:104E380068746D6C3E0A00EB3C905546322055462E
:104E4800322000020101000240000000F8020101C6
:104E58000001000000000009010100800029420053
:104E6800420047343733424F4F5400000046415404
:104E78003136202020000000000000000000000063
:104E88000000000000000000010000000000000019
:104E9800000000000000000009026200030100A0F9
:104EA80032080B000202020000090400000102029D
:104EB8000004052400200105240100010424020641
:104EC80005240600010705820308001009040100F3
:104ED800020A0000000705030240000007058302DC
:104EE80040000009040200020806500607050102F6
:104EF8004000000705810240000012010002EF0295
:104F080001409A236F000101010203010100000022
:104F1800100000000024F400426F6F7455463220E0
:104F2800426F6F746C6F616465722076322E302E1A
:104F3800300D0A4D6F64656C3A20426574614650C5
:104F48005620473437332046430D0A426F61726456
:104F58002D49443A2053544D3332473437332D4288
:104F68006574614650562D473437330D0A446174D1
:104F7800653A204D617220313920323032360D0ABF
:104F8800466C6173682053697A653A20307800006E
:104F98000000000000000000000000000000000009
:104FA80000000000000000000000000000000000F9
:104FB80000000000000000000000000000000000E9
:104FC80000000000000000000000000000000000D9
:104FD80000000000000000000000000000000000C9
:104FE80000000000000000000000000000000000B9
:104FF80000000000000000000000000000000000A9
:105008000000000000000000000000000000000098
:105018000000000000000000000000000000000088
:105028000000000000000000000000000000000078
:105038000000000000000000000000000000000068
:105048000000000000000000000000000000000058
:105058000000000000000000000000000000000048
:105068000000000000000000000000000000000038
:105078000000000000000000000000000000000028
:105088000000000000000000000000000000000018
:105098000000000000000000810B0008AD030020A4
:1050A80010000C0000000000FF000000494E464FB1
:1050B8005F55463254585400580100207F010000C3
:1050C80000000000494E44455820202048544D0017
:1050D800000000207600000000000000434F4E460C
:1050E80049472020494E4900302000200000000098
:1050F8000000000043555252454E54205546320098
:105108000000000000000000000000005003002024
:10511800000000000000000068000000D00000004F
:105128000000000000000000000000000000000077
:105138000000000000000000000000000000000067
:105148000000000000000000000000000000000057
:0C5158000000000000000000000000004B
:04000005080002B13C
:00000001FF
