:020000040800F2
:10000000FCFF0120F90D0008490E0008490E000808
:10001000490E0008490E0008490E000800000000C3
:10002000000000000000000000000000490E000871
:10003000490E000800000000490E000893740008F3
:10004000490E0008490E0008490E0008490E000834
:10005000490E0008490E0008490E0008490E000824
:10006000490E0008490E0008490E0008490E000814
:10007000490E0008490E0008490E0008490E000804
:10008000490E0008490E0008490E0008490E0008F4
:10009000490E0008490E0008490E0008490E0008E4
:1000A000490E0008490E0008490E0008490E0008D4
:1000B000490E0008490E0008490E0008490E0008C4
:1000C000490E0008490E0008490E0008490E0008B4
:1000D000490E0008490E0008490E0008490E0008A4
:1000E000490E0008490E000800000000490E0008F3
:1000F000490E0008490E0008490E0008490E000884
:10010000490E0008490E0008490E0008490E000873
:10011000490E0008490E0008490E0008490E000863
:10012000490E0008490E0008490E0008490E000853
:10013000490E0008490E0008490E0008490E000843
:1001400000000000000000000000000000000000AF
:10015000490E0008490E0008490E0008490E000823
:10016000490E0008490E0008490E0008490E000813
:10017000490E00088D740008490E000800000000B8
:10018000490E0008490E0008490E0008490E0008F3
:10019000490E0008490E0008490E0008490E0008E3
:1001A000490E0008490E0008490E0008490E0008D3
:1001B000490E0008490E0008490E0008490E0008C3
:1001C000490E0008490E0008490E0008490E0008B3
:1001D000490E000887740008490E0008490E0008FF
:1001E000490E0008490E0008490E0008490E000893
:1001F000490E0008490E0008490E0008490E000883
:10020000490E0008490E0008490E0008490E000872
:10021000490E0008490E0008490E0008490E000862
:10022000490E0008490E0008490E000800000000B1
:10023000490E0008490E000800000000490E0008A1
:10024000490E0008490E0008490E0008490E000832
:10025000490E0008490E0008490E0008490E000822
:10026000490E0008490E0008490E0008490E000812
:10027000490E0008490E0008490E00080000000061
:10028000490E0008490E0008490E00080000000051
:0802900000000000490E000807
:1002A00010F8012B11F8013B012A28BF9A42F7D020
:1002B000D01A7047034613F8012B002AFBD1181AF5
:1002C000013870470000000000000000000000003E
:1002D00001F0FF01102A2BDB10F0070F08D010F8F7
:1002E000013B013A8B422DD010F0070F42B3F6D1FB
:1002F000F0B441EA012141EA014122F007047FF014
:1003000000070023F0E80256083C85EA010586EA6A
:10031000010685FA47F5A3FA87F586FA47F6A5FAA6
:1003200087F68EB9EED1F0BC01F0FF0102F00702B2
:1003300032B110F8013B013A83EA010313B1F8D15D
:100340000020704701387047002D06BF354603383E
:10035000073815F0010F07D1013015F4807F02BF77
:10036000013015F4C03F0130F0BC0138704700BFC8
:1003700010B5054C237833B9044B13B10448AFF3DF
:1003800000800123237010BDA008002000000000A1
:10039000F47B000808B5034B1BB103490348AFF3D6
:1003A000008008BD00000000A4080020F47B0008C5
:1003B000002301461A46184600F092B8830730B56C
:1003C00047D0541E002A3ED0CAB2034601E0013C89
:1003D00039D303F8012B9D07F9D1032C2CD9CDB2C9
:1003E00005EB05250F2C05EB054535D9A4F11002C9
:1003F00022F00F0C03F1100EE6444FEA121C1A46CD
:10040000156055609560D56010327245F8D10CF1D9
:10041000010214F00C0F03EB021204F00F0C13D0C6
:10042000ACF1040323F003030433134442F8045BE8
:100430009A42FBD10CF003042CB1C9B21C4403F85E
:10044000011B9C42FBD130BD64461346002CF4D105
:10045000F9E703461446C0E71A46A446E0E700BFA2
:1004600070B50F4B0F4DAB42A3EB050607D0B6108E
:10047000002455F8043B01349847A642F9D807F008
:10048000B9FB094D094B5E1BAB424FEAA60606D0ED
:10049000002455F8043B01349847A642F9D870BDB2
:1004A000D87E0008D87E0008D87E0008E07E0008CC
:1004B00038B5074D074C2C1BA41005D0013C55F84E
:1004C000043D9847002CF9D1BDE8384007F098BBAF
:1004D000E47E0008E07E0008704700BF704700BF60
:1004E0002DE9F047DFF87CA00646DAF800009846D0
:1004F0000F469146FFF7F0FF184B1C6824B3656860
:100500001F2D24DC5EB96B1C0235DAF80000636035
:1005100044F82570FFF7E2FF0020BDE8F08704EB08
:1005200085010123C1F88890D4F88821AB401A4393
:10053000022EC4F88821C1F80881E4D1D4F88C21B6
:100540001A43C4F88C21DEE7054C1C60D7E7DAF8C3
:100550000000FFF7C3FF4FF0FF30DEE7900B0020F5
:10056000000A002028010020024B13B10248FFF7C7
:100570001FBF704700000000B10400082DE9F843D8
:1005800006460820894600F023FCDFF8A4800546D3
:10059000304600F0FFFBD8F808305F6827F003070B
:1005A000A7F11104A4EB09042C44B4FBF5F4013CBD
:1005B00005FB04F4A54208DC0021304600F0F6FB00
:1005C000D8F808303B44984205D0304600F0E8FBAC
:1005D0000020BDE8F8836142304600F0E7FB0130BF
:1005E0000FD0114AD8F808303F1B47F001075F6071
:1005F000136830461B1B136000F0D2FB0120BDE8DE
:10060000F8830021304600F0D1FBD8F80820831A87
:100610000F2BDADD43F001035360044B02491B68E2
:10062000C01A0860D1E700BF940B00202C01002005
:100630003801002000297DD0F8B50C46064600F0B0
:10064000A9FB54F8042C794FA4F1080522F001010C
:1006500005EB010CB868DCF80430604523F00303B7
:1006600000F08880D207CCF8043032D454F8082C3B
:10067000AD1A1144AA6807F1080082426BD00CEB56
:100680000304D4F804E0EC68D4601EF0010FA2600B
:1006900000F0898041F001036B60CCF80010B1F5E7
:1006A000007F24D27868CB080122490901338A40AF
:1006B000024357F833107A6007EBC302083AC5E9E2
:1006C000021247F83350CD603046BDE8F84000F0E4
:1006D00067BB0CEB03025268D2072CD541F0010333
:1006E000B1F5007F44F8043CCCF80010DAD3B1F542
:1006F000206F4FEA512358D28B0903F1390003F1DF
:100700003802C300F818FB580838984203D166E055
:100710009B68984204D05A6822F003028A42F7D8B4
:10072000D868C5E902308560DD603046BDE8F84034
:1007300000F036BB7047194407F10800DCF80830B8
:10074000834243D0DCF80C20DA60936041F001036F
:100750006B606950A3E70CEB03025268D0075FD4CB
:100760000B44DCE90212CA60916043F001026A6046
:10077000EB50A9E70B44D10707D454F8082CAD1A65
:100780001344D5E90212CA60916043F001026A6025
:10079000274ABD6012689A4296D8264B304619689F
:1007A000FFF7ECFE90E71944C8E7142B08D9542B47
:1007B0001DD80B0B03F16F0003F16E02C300A1E71C
:1007C00003F15C0003F15B02C3009BE741F001030E
:1007D0003D617D61A860E8606B60695074E779688D
:1007E0009210012404FA02F20A437A6099E7B3F501
:1007F000AA7F06D8CB0B03F1780003F17702C30080
:1008000080E740F25452934206D88B0C03F17D00EE
:1008100003F17C02C30075E74FF47E737E2271E71B
:1008200041F001036B60CCF800104DE73801002067
:1008300030010020C40B00202DE9F04F01F10B0521
:10084000162D85B0064623D8102900F2BC8000F092
:10085000A1FA102518230221B84F3B44A3F1080246
:100860005C68944200F029816368E26823F0030326
:100870002344A168CA6091605A6842F00102304680
:100880005A60083400F08CFA204605B0BDE8F08FBD
:1008900035F0070500F19780A94200F2948000F03E
:1008A00079FAB5F5FC7FC0F071816B0A00F08F809A
:1008B000042B00F22D81AB0903F1390103F1380C4F
:1008C000CB009E4F3B44A3F108005C68A04206D1D8
:1008D0000CE0002A80F2EE80E468A04206D0636853
:1008E00023F003035A1B0F2AF3DD6146DFF860C2D1
:1008F0003C69644500F0CC80626822F00302531B1F
:100900000F2B00F34781002BC7E904CC80F2348120
:10091000B2F5007F80F0D780D308786801334FEAC2
:10092000521E012202FA0EF2024357F833E0C4F8D5
:1009300008E007EBC3000838E0607A6047F833400E
:10094000CEF80C408B1001209840904245D81042C0
:1009500006D121F003014000104201F10401FAD058
:1009600007EBC1094C468E46D4F80C80444508D1AB
:10097000DAE0002B80F2F080D8F80C80444500F0DB
:10098000D380D8F8042022F00302531B0F2BF0DD94
:100990003046D8E9026408EB050145F00105C8F8C6
:1009A0000450F460A66043F00104C7E904114C60F0
:1009B000C1F808C0C1F80CC048F8023000F0F0F9E6
:1009C00008F1080460E70C23336000245CE74FF46F
:1009D000007340214FF03F0C73E7BC68636823F05D
:1009E0000309A94503D3A9EB05030F2B52DC544B94
:1009F000DFF860B11B68082003F1100800F0E8F987
:100A0000DBF8003001900133A84404EB090205D063
:100A100008F1FF388044434203EA08084146304663
:100A2000029200F0C3F9B0F1FF3F029A824600F053
:100A3000CC80824200F2C780424B01991868404442
:100A40001860844601F1FF3140F0EB801AEA010F93
:100A500040F0E780D7F808A0C84448F00102CAF87F
:100A60000420394B1968814238BF1860374B196828
:100A7000814238BF1860544622F00308A845A8EB0D
:100A8000050301D30F2B05DC304600F089F99CE704
:100A90007A6857E7621943F0010345F00105656084
:100AA0003046BA60536000F07BF90834204605B048
:100AB000BDE8F08FE2682344DBE6DC68A3427FF404
:100AC000D3AE023112E7B2F5206F4FEA522374D34E
:100AD000142B00F2098103F15C00C0005B3307EBCB
:100AE000000E3858AEF1080E864503D1E2E080686A
:100AF000864504D0436823F003039342F7D8D0F827
:100B00000CE07A68C4E9020ECEF80840C46019E728
:100B1000142B5DD9542B00F2EF802B0B03F16F01E6
:100B200003F16E0CCB00CCE60EF1010E1EF0030FAC
:100B300004F108047FF418AF55E000BF380100202D
:100B4000C40B0020940B0020C00B0020BC0B002025
:100B5000400100202C010020424444465368D8F84C
:100B60000C1043F00103536054F8083F3046D9603D
:100B70008B6000F015F987E622443046536843F055
:100B800001035360083400F00BF97DE6E90805F134
:100B9000080361E6611945F00105656043F0010550
:100BA000C7E904113046C1F808C0C1F80CC04D6057
:100BB000A35000F0F5F8083466E6930903F1390014
:100BC000C00038338BE7BC4223D0BC68626853E76F
:100BD00003F15C0103F15B0CCB0072E659F80839B4
:100BE0004B4540F0D28011F0030F01F1FF31F5D1F8
:100BF0007B6823EA00037B60400098423FF6EDAE3D
:100C000018B9EAE640000EF1040E1842FAD0714617
:100C1000A6E65F4B0199186808EB000C0139C3F890
:100C200000C0DBF8000001301BBFAAEB02026244E7
:100C3000CBF800A01A601AF00702CDE9022342D0D7
:100C4000C2F10802019B9244D044134408EA010017
:100C50001A1A02EA010B5946304600F0A7F8421C66
:100C6000039B76D0A0EB0A0000EB0B081868C7F8CE
:100C700008A048F001025844BC42CAF80420186099
:100C80003FF4EFAEB9F10F0F40D96168A9F10C0242
:100C900022F0070201F0010111436160A1184FF039
:100CA000050C0F2AC1F804C0C1F808C046D8DAF80C
:100CB0000420D6E69A104FF001087B6808FA02F289
:100CC0001A437A601EE7019B0AEB08020A409A1A4F
:100CD00002EA010B5946304600F068F8431C039BBA
:100CE000C0D1DDF808B0C1E7542B13D8130B03F1C2
:100CF0006F00C0006E33F2E6B3F5AA7F13D8EB0B9A
:100D000003F1780103F1770CCB00DAE50123CAF88F
:100D10000430B9E6B3F5AA7F23D8D30B03F17800EA
:100D2000C0007733DBE640F25452934223D8AB0C39
:100D300003F17D0103F17C0CCB00C2E5304604F1E8
:100D400008010193FFF776FC019BD7F808A018680B
:100D5000ADE7029A083A9044A8EB0A084FF0000B5E
:100D600084E740F2545083420BD8930C03F17D008A
:100D7000C0007C33B3E64FF47E737F214FF07E0CCE
:100D80009FE54FF47E707E23A9E67B6834E700BFC1
:100D9000940B00200148FFF79FBB00BFF80900201B
:100DA0000148FFF79BBB00BFF809002038B5074D8D
:100DB0000022044608462A6006F00EFF431C00D0BD
:100DC00038BD2B68002BFBD0236038BDF409002010
:100DD000082802D14FF48050704708B500F006F89B
:100DE000162303604FF0FF3008BD00BF014B1868A9
:100DF000704700BF00000020DFF834D002F0E4FCB0
:100E0000002103E00B4B5B58435004310A480B4B65
:100E100042189A42F6D30A4A02E0002342F8043B01
:100E2000084B9A42F9D3FFF71BFB00F079FA7047A1
:100E3000FCFF0120E47E000800000020980800204C
:100E4000A0080020342C0020FEE700000B49002001
:100E5000022310B50A6906308B821831C2F30804E8
:100E6000520A002C18BF0132182813449BB203F118
:100E7000FF3221F8022CEDD110BD00BF800500200B
:100E80002DE9F04186B0294F06F0B9F8284B294EDC
:100E900005461860030A38465B02B365FFF70AFA95
:100EA000C0F5BF7304460133082B31D9224B07EB41
:100EB000000E01AA03F110081868083353F8041C47
:100EC00094464345ACE803006246F5D11B780EF129
:100ED000FF311C228CF8003025FA02F3043A03F0AB
:100EE0000F0318336B4413F8143C01F8013F131D32
:100EF000F2D1002304F108008EF80830C4F5BB736A
:100F00000133062B10D90E340C49384406F026FB69
:100F10004FF4EE710A48346106F0ACF9306406B063
:100F2000BDE8F041FFF792BF0446F1E75706002005
:100F3000A40D002080050020137C00080C7C000814
:100F4000C80B0020034610B51C1A944200DB10BDEC
:100F50000C781CB1013103F8014BF5E72024FAE7C6
:100F60002DE9F8430C4605464FF400720021204657
:100F7000FFF724FA9DB9794B224603F13C0153F85F
:100F8000040B8B4242F8040BF9D11B8813805523C4
:100F900084F8FE31AA2384F8FF31BDE8F883B5F563
:100FA000017F33D8691E6E4BB1F5817FB3F85E00C7
:100FB00028BF6FF4817100F1010028BF6918A51ED8
:100FC0000A0202F580771346834203F101032CBF26
:100FD00000269EB2BB4225F8026FF5D129B94FF623
:100FE000F87323804FF6FF7363805D4804214FF64A
:100FF000FF75C38A9A4204D89B1AFF2B98BF24F826
:101000001350013900F11800F3D1C6E7B5F5027F9E
:1010100041D86FF401721544ADBB20460B225149F3
:101020002034FFF78FFF282304F8153C18234C4E7B
:101030000027DFF8388103FB0566032DADD80B22AE
:1010400031462046B6F81490FFF77CFF5C236FF022
:1010500021026FF049002D216773A073E1732274A0
:101060006374A274E37427756775A075E1752276C1
:101070006376A4F81A90F36843B13369E3610135EC
:1010800020341836D9E72D01013DCFE7D8F80030DC
:101090001B0A5B02F2E7344B9D423FF67EAF6FF4D2
:1010A00002732F490022EB180846A5F207258E8A05
:1010B000B54202D3CE8AB54204D901321831042A8E
:1010C000F5D103221821032A01FB0200818AA3EB38
:1010D000010303F1020512D002696B02B2EB452F46
:1010E0007FF65BAFD21AC1682046B2F5007F194483
:1010F00028BF4FF40072BDE8F84306F037BA1B4A28
:1011000003F50023126803F2022302F100611802C2
:10111000B1EB032F7FF641AF154B120A04F120010A
:101120006561236003F11443A2614FF4807203F5FB
:101130002C13E060226103F6023363600D4BC4F8A8
:10114000FC314FF40053A36003F1DB4303F5591363
:101150008233E361BDE8F84305F056BF4005002047
:10116000800500206B05002008010100A40D00206F
:101170005546320A306FB10A73B5484B15460A68B6
:101180000C469A426AD103F114434A6803F52C13C2
:1011900003F602339A4261D1D1F8FC21404B9A42C6
:1011A0005CD18B68DA0759D413F4405F56D0DB0466
:1011B00022D50969B1F5EE7F03D34FF4007002B078
:1011C00070BD01F12000374D204415F8012B002A95
:1011D00047D010F8013B002BEFD0A2F14106192EA9
:1011E000A3F141069CBF2032D2B2192E9CBF2033FE
:1011F000DBB29A42E9D0E0E7CA692B4B9A422DD183
:101200000A692031E06805F01DFFA369002BD4D0E6
:101210002A68934207D044F263018B4200D80AB196
:101220004FF0FF332B60636944F263029342C4D8EA
:1012300003F00702012105EBD30391405A7AC8B2AB
:10124000114204D16968024301315A726960D5E9DB
:1012500000329A42B1D305F0D5FEAEE74FF0FF3031
:10126000ADE70378002BA8D1A36904F12000019316
:1012700063690093E369E26806F040F86369A26974
:101280000133934299D34FF4EE71084805F0F2FF11
:10129000074B1864FFF7DAFD8FE700BF5546320AA7
:1012A000306FB10A247C00088260B66DC80B002044
:1012B0008005002008B5154B1860013803281FD899
:1012C000DFE800F00F02151F012005F0BDFC1048FB
:1012D000104B1A8802809B788370BDE8084006F0A6
:1012E000D1B8052005F0B0FC09480B4BF1E71920F7
:1012F00005F0AAFC094A064B1188927819809A7069
:1013000008BD05F0BDFC0548E7E700BFAC0D0020B7
:10131000A80D0020E0070020DD070020DA070020EC
:1013200007B505F0B5F9324B0BB1AFF3008005F00E
:1013300097FB20B12F4BD3B906F098F8E0B105F038
:1013400031FB05F05AFEFFF79BFD012301A90020A8
:10135000ADF8043000F02CFD0220FFF7ABFF0021B8
:101360004FF0FF3000F08AFF05F092FCF7E7AFF393
:1013700000800028E0D1E2E71F4C204A2368934216
:1013800029D01F4A934204D01E4A93420BD12060B9
:10139000D5E720600320FFF78DFF05F017FF04203D
:1013A000FFF788FFCBE7184D22602860012005F089
:1013B0004BFCFF2006F050F8144806F063F82B6849
:1013C000B3F5FA7FFBD305F05BFC114806F05AF841
:1013D000002006F041F8002323600E4B0BB1AFF361
:1013E00000800D4B0BB1AFF3008005F07FFBFEE7F3
:1013F0000000000000000000FCFF0120EF6926F063
:10140000B40AE8F5EF6916F0B00D0020D707002008
:10141000B40D002000000000000000000120FFF7D4
:1014200049BF0220FFF746BF08B5144B1A680132C6
:101430001A60134A1268022A0CD86AB118681B682D
:10144000C0B2DB0548BFC043BDE8084048BFC0B2DA
:1014500006F002B8032A00D008BD186810F0010099
:1014600007D0FF2005F0F8FF0648BDE8084006F069
:1014700009B805F0F1FF0448F7E700BFB00D002000
:10148000AC0D0020A80D0020B40D0020F0B51F4DBC
:1014900089B00F46286801AC696804AE03C4297A94
:1014A000354621701A4C04F1080E2068083454F8AF
:1014B000041CB4467445ACE803006646F5D12068C8
:1014C00006AEA179CCF800008CF80610A08801AC1B
:1014D0001049ACF80400009103CC2C4638607960C8
:1014E0002546083203CDB54242F8080C42F8041CE8
:1014F0002C46F5D128681060A9889180BDF80010AD
:101500009DF8022019809A7009B0F0BD2F7C000868
:10151000387C0008312E30000120704710B51C4681
:101520000B781E2B06D000232022052101F0E0FDC0
:10153000204610BD0024FBE7F8B5069F14460D4673
:1015400018463A4600211E46FEF738FF7CB14FF0A0
:10155000E023D3F8F03DDB0700D500BE4FF0FF30AD
:10156000F8BD284604F500740135FFF7F9FCBC42CC
:1015700006EB0401F5D32046F2E70000F8B50D466E
:101580001E460024084F069B31199C4201D3204679
:10159000F8BD3A462846FFF7EFFD0028F7D00135A1
:1015A00004F50074EFE700BFB80D002010B50E4C35
:1015B000227A22B10420BDE81040FFF77BBE2368E9
:1015C00083B10A4B197819B103201A70FFF772FE24
:1015D000D4E900329A4205D30420FFF76BFE05F0F0
:1015E0003BFAFEE710BD00BFB80D0020E307002066
:1015F000024B0B604FF40073138070470901010028
:10160000012070470048704762080020004870477A
:10161000000800202DE9F04389B0B8B1032825D097
:1016200006285FD8304B53F820402046FEF742FE94
:101630002E4AC3B22046302B28BF3023E118814206
:101640000AD010F8014B22F8024FF8E7264B1B682E
:101650001A88264B5A80012301332448DBB25B00F1
:1016600043F44073038009B0BDE8F08368466C46DC
:1016700005F0DEFA1D4E430084464FF00008DBB251
:101680005FFA88F26245E7D2194A04AF02F1100905
:101690003D461068083252F8041CBE464A45AEE882
:1016A00003007746F5D114F8017B07F00F022032D2
:1016B0006A4412F8102CB2800D4A1068083252F8B1
:1016C000041CAE464A45AEE803007546F5D108AAAB
:1016D00008F10108043602EB171717F8102C26F84A
:1016E000022CCDE70020BEE7E4070020D015002043
:1016F000137C00080378024613F0010011D113781F
:10170000C3F380015B070FD4137813F001000AD1F3
:1017100013785B0708D41378012043F00403137097
:101720007047002070470846704702780346C2F3AE
:101730008000520709D51A7812F0010104D11A78F5
:1017400061F382021A7070470020704730B5C47888
:10175000858804F00304C5F30A03022C0CD0032C83
:1017600031D0012C14D1022940F2FF3208BF4FF4CE
:1017700080629A4216D204E002290BD1B3F5007FB1
:1017800010D04FF0E023D3F8F03DDA0700D500BECB
:10179000002030BD42B1B3F5007F05D14023037175
:1017A000002343710120F4E7202B0AD815F4FF6FC2
:1017B000E7D0083B064A9BB222FA03F3DB07E0D5E9
:1017C000F0E7402BDCE7022918BF4022CEE700BF3C
:1017D000010100010A4430B5914200D330BD4C787C
:1017E000052C06D18C7804F07F05E40900EB450553
:1017F0002B550C782144EFE70A44400092B2914205
:1018000001D8824201DB121A92B21046704738B5F5
:101810000546D41A9A420846A4B2A9883CBF04EBF4
:101820004104A4B2B4B1A14205D2914294BF521A6C
:10183000521893B26B81994209D9EA882968C2F398
:101840000E0202FB031105F091FE012038BD5B1A68
:101850009BB2F0E72046F9E7930813B501EB830349
:10186000044699420BD112F0030206D0002301A8CE
:10187000019305F07BFE019B236002B010BD51F87F
:10188000040B2060EDE72DE9F74FBDF830408046AE
:1018900085880F461E1BA342B6B23CBF06EB450629
:1018A000B6B276B3B54206D29D422E4694BF5B1BBC
:1018B0005B199CB24481964228BF1646A54224D9A2
:1018C000B8F80620A5EB0409D8F80010751BC2F380
:1018D0000E031FFA89F0254403FB04149DF834100D
:1018E00019FB03F91A4615FB03F501291FFA89F9BB
:1018F000ADB218D086420BD872432146384605F067
:1019000035FE304603B0BDE8F08F641BA4B2D5E7C6
:101910004A462146384605F029FE2A46D8F80010E6
:1019200007EB0900EBE7864207D816FB03F22146D6
:1019300092B23846FFF790FFE3E729F0030B214608
:1019400038461FFA8BFB5A46FFF786FF19F003094A
:1019500022D0C9F1040A002304EB0B014A461FFA06
:101960008AFA01A80193AA4528BFAA4605F0FEFD00
:10197000D8F8004001ABA5EB0A055246214603EB1F
:10198000090005F0F3FD019BADB204EB0A013B60D9
:10199000002DB6D02A46CCE7D8F80010F8E7930817
:1019A00000EB830313B5984209D112F0030204D06F
:1019B0000B6801A9019305F0D9FD02B010BD0C68B8
:1019C00040F8044BEFE72DE9F04F8946C179164600
:1019D0000289C909448985B0074692B28588A4B2B4
:1019E00014D1A24236BFC4EB4504141BA418A4B200
:1019F000AC4280F099802C1BA4B2A64228BF264698
:101A0000144616BB304605B0BDE8F08FAE4208D391
:101A10002BB9C288761BC2F30E0202FB06992E4632
:101A2000EFE7A2424FEA450036BF011B111B8918A0
:101A300089B23144814207DBAA1B2146284692B273
:101A4000FFF7DAFE0446DCE71446A246AA4523D295
:101A5000A5EB0A08FA88751B3868C2F30E011FFA55
:101A600088FC5544012B18FB01F80A4615FB01F5CB
:101A700001FB0A0A1FFA88F8ADB21CD0B44510D396
:101A800072434946504605F071FD32462146B888FA
:101A9000FFF7B2FE3881B5E7AAEB050A1FFA8AFA0A
:101AA000D4E742464946504605F060FD2A4609EB18
:101AB00008013868E7E7B44507D311FB06F2504642
:101AC000494692B2FFF76BFFDFE728F00303494670
:101AD00050469BB21A460193FFF761FF18F00308C6
:101AE00020D0C8F1040BD9F80020019B03A91FFAEC
:101AF0008BFB03920AEB03004246AB4528BFAB4683
:101B000005F034FD3B6803A9A5EB0B055A4641449B
:101B1000184605F02BFD5844ADB2002DB5D02A462D
:101B20004946CFE73868F8E700266BE7B2F5004F83
:101B30000DD88280C3F30E039DF80020016043EAB4
:101B4000C233C380002343810381012070470020FA
:101B5000704702468088138952899BB292B29342A1
:101B600036BFC2EB40029B1A9B189BB2984228BF1B
:101B7000184670470289438992B29BB2D31A5842E1
:101B800058417047038942899BB2818892B293423F
:101B900036BFC2EB41029B1A9B189BB299428CBF85
:101BA000002001207047038941899BB2828889B255
:101BB0008B4236BFC1EB42015B1A5B189BB29A4263
:101BC00086BFD01A80B20020704710B50289044643
:101BD000438992B29BB2FFF71AFE6189034602461F
:101BE00089B2A088FFF708FE6081184610BD73B562
:101BF00003890026458904469BB2ADB2CDE9005663
:101C0000FFF741FE61890346024689B2A088FFF7CB
:101C1000F3FD6081184602B070BD73B503890126DB
:101C2000458904469BB2ADB2CDE90056FFF72BFEC5
:101C300061890346024689B2A088FFF7DDFD608115
:101C4000184602B070BD70B5058904460E46ADB2A7
:101C5000FFF798FF10B1E079C00913D0A388284698
:101C6000834210D9E28831462368C2F30E0202FB98
:101C7000003005F07BFC01222946A088FFF7BCFD5F
:101C80002081012070BDC01A80B2E9E712B10023A3
:101C9000FFF799BE1046704712B10123FFF793BEBC
:101CA0001046704700234381038101207047C379A8
:101CB000B1EBD31F1CBF61F3C713C3710120704781
:101CC000002070472DE9F0411A4E002405461A4FB6
:101CD00032782346DFF87080A2420DD9D8F8003060
:101CE00013EB44130BD14FF0E023D3F8F03DDB07A7
:101CF00000D500BEBDE8F0819B1A07EB4313DB68FB
:101D00002846984701343278E4B2511C2346A14258
:101D1000E2DA382200210948FEF750FB1022FF21A9
:101D20000748FEF74BFB1222FF210648BDE8F041B1
:101D3000FEF744BB081700206C7C00081117002038
:101D400015170020251700200C17002070B50C4631
:101D500005461646486900F035FE63693246284656
:101D60000121BDE8704018470346034A10780BB1C3
:101D700003F0FCBF04F010B88408002070477047DF
:101D80000020704700207047002070477047704760
:101D9000024B5878003818BF0120704711170020F7
:101DA000024B1878C0F38000704700BF1117002065
:101DB0002DE9F047294F05460E463B78FF2B46D1CB
:101DC00049B94FF0E023D3F8F03DDB0700D500BE62
:101DD0000020BDE8F087382200212148FEF7EEFA06
:101DE000204B00222048DFF894801A70FFF75AFF3A
:101DF0001E4B1F4A1A601F4B23B14046AFF30080B1
:101E00001D4B1860002498F80020DFF874902346DA
:101E1000DFF864A0A2421CD9DAF8003013EB4413B7
:101E2000CFD05B68002BCCD09847013498F80020C5
:101E3000E4B2511C2346A142ECDA314628463D70FB
:101E400003F0E4FF0028BCD0284603F08FFF0120F8
:101E5000BFE79B1A09EB4313E3E700BF84080020A8
:101E600011170020101700207808002044160020C9
:101E700074080020000000000C1700200817002044
:101E80006C7C00082DE9F043437885B004460D468C
:101E9000023B042B00F28780DFE813F07600050098
:101EA0009B00A300DB00704F0026DFF8CC813A785E
:101EB0003346DFF8C891B24240F29C80D9F8003036
:101EC00013EB461340F0998001363A78F6B2511C74
:101ED000B1423346EFDA654F3B78580726D53B7859
:101EE0006FF382033B700023CDF80630CDF80A3043
:101EF000ADF80E3023788DF8043005238DF80530C9
:101F00005B4BD3F8008008F10406002D7DD03046ED
:101F100001A9FFF798FE0646002E40F084804FF09E
:101F2000E023D3F8F03DD90700D500BEFB78DA07EF
:101F300027D50023CDF80630CDF80A30ADF80E30A5
:101F400023788DF8043003238DF8053063680293FD
:101F5000474B1E68341D002D6DD1336828469847C5
:101F6000204601A9FFF76FFE336804460120984719
:101F7000002C66D14FF0E023D3F8F03DDB0700D50D
:101F800000BE05B0BDE8F083384B00211A786FF32E
:101F900000021A701A786FF341021A7059701A7899
:101FA00061F382021A70324B1F683E1D002D55D11D
:101FB0003B682846984730462146FFF744FE3B6879
:101FC000064601209847002ED4D02A466178207812
:101FD0003CE0264B1A78D707D3D51A7842F0040292
:101FE000E0E7224A1378DE07CBD513786FF382033C
:101FF0001370D8E79B1A08EB4313DB69002B3FF4FF
:1020000063AF6168207898475EE7D8F800302846CB
:10201000984701A93046FFF716FED8F8003006466B
:102020000120984778E72A469DF805109DF804009E
:10203000FFF7A4FE7AE7204601A9FFF704FE044655
:1020400096E72A469DF805109DF80400FFF796FED6
:1020500097E7084A13780133DBB2C9E730462146D7
:10206000FFF7F1FD0646AEE7081700201117002024
:1020700044160020101700206C7C00080C1700206C
:1020800008B9FFF771BE704710B90120FFF76CBEA9
:102090007047000038B50F4B0C461D788B7803F065
:1020A0007F03082B08D94FF0E023D3F8F03DDB077E
:1020B00000D500BE002038BD074B0022204699788D
:1020C000FFF744FB0028EED021462846BDE8384003
:1020D00003F00CBF84080020111700202DE9F04701
:1020E00081460C4690469A460025DDE90867A845DA
:1020F00001DC01200FE06378052B04D1E37803F0C5
:102100000303534509D04FF0E023D3F8F03DDB073C
:1021100000D500BE0020BDE8F08721464846FFF705
:10212000B9FF0028EFD0A3780135DA0914BF3B705E
:10213000337023781C44DAE7CB0901F07F020448AE
:102140000021263303EB42031844FFF7D3BA00BF44
:1021500011170020CB0901F07F020448002126332B
:1021600003EB42031844FFF7E0BA00BF1117002049
:1021700070B501F07F06134C134804EB4604007859
:1021800004EBD11494F826502034ED0708D54FF015
:10219000E023D3F8F03DDB0700D500BE002070BD82
:1021A000A57945F00105A57103F00AFF0028F6D1D5
:1021B000A27960F30002A271A27960F38202A27197
:1021C000E5E700BF111700208408002001F07F021E
:1021D000044B03EB420303EBD11191F8260000F00E
:1021E00001007047111700200C4B10B50C461878F1
:1021F00003F02CFF0A4904F07F0301EB430101EBDC
:10220000D41191F8263043F0020381F8263091F87A
:10221000263043F0010381F8263010BD84080020E9
:10222000111700200C4B10B50C46187803F020FF56
:102230000A4904F07F0301EB430101EBD41191F84B
:1022400026306FF3410381F8263091F826306FF382
:10225000000381F8263010BD8408002011170020EB
:1022600001F07F02044B03EB420303EBD11191F821
:102270002600C0F340007047111700209E4B2DE947
:10228000F04F1B7887B0FF2B3FD0DFF878929B4B45
:1022900000201D682C4654F8043B984703A92046AB
:1022A000FFF793FC04462B68012098476CB39DF818
:1022B0000D30013B072B00F2FD82DFE813F0080030
:1022C0001300F202D702E3021C009402EB029DF815
:1022D0000C00FFF7F7FC00F06DFB9DF8103089F85B
:1022E0000230D4E79DF80C00FFF7ECFC00F062FB35
:1022F000FFF797F8CBE7824A13784BB94FF0E0230A
:10230000D3F8F03DDC0700D500BE07B0BDE8F08F84
:102310001378013BDBB21370137803F0FF00002B3E
:10232000B5D1784C9DF80C50237843F0010323700D
:1023300094F8263060F3000384F8263094F82630B1
:1023400060F3820384F8263094F8273060F30003AA
:1023500084F8273094F8273060F3820384F827301C
:1023600000F030FB9DF8102002F06003602B07D1D5
:102370004FF0E023D3F8F03DDD072AD500BE28E07A
:10238000402B0BD1604800F01DFB04AA0121284618
:10239000FFF796FC00287FF47AAF1AE002F01F02E4
:1023A000012A00F09481022A00F0C881002ADFD1BE
:1023B000202B25D19DF814300F2B0AD82344534AE3
:1023C0001B79127893420FD2514A116811EB4311D5
:1023D00011D19DF80C00002103F038FE80219DF8FA
:1023E0000C0003F033FE52E7511C9942F1DB9B1ABB
:1023F000484901EB431104AA2846FFF7A7FCC9E7A7
:10240000002BB5D19DF81130092BB1D801A252F89B
:1024100023F000BFAD2600089B26000871230008AA
:1024200087260008712300083D240008DF250008E6
:1024300071230008572400086124000804A800F054
:10244000C7FA9DF81210284603F0E8FD237843F000
:10245000020323701BE763788DF80A3001232FE114
:102460009DF8126063789E4241D063785BB1002191
:10247000284603F023FD284603F052FDA77828469E
:10248000FFF720FCA7706670002E00F0A580701E7C
:10249000C0B2FFF7BBF810B14378022B10D04FF059
:1024A000E023D3F8F03DDB0700D500BE4FF0E0237A
:1024B000D3F8F03DDF0700D500BE0023637088E746
:1024C000C37900F10906C3F38012C3F340131B0163
:1024D00043EA4213227822F03002134323704388E8
:1024E000C3180093009BB34216D8FEF797FF04A9C8
:1024F000284600F021FACAE684080020441600208D
:102500001017002011170020C11C00080817002018
:102510000C1700206C7C000873780B2B09BF3378F4
:102520004FF0010A96F803A0F6187378042BB6D181
:10253000009B4FF000089B1BC3469BB20193B84B16
:102540001F78B84B47452AD91F6817EB4817A6D004
:10255000019A31463B692846984708280246B14B04
:102560002FD9019981422CD3BAF1010F05D13969D4
:10257000AD4B994208BF4FF0020A0021CBB29A45F9
:1025800013D843463146A9480192FFF723F9A44BDB
:10259000019A1B78164401339B45A3DD7FE7ABEB23
:1025A0000707A34A02EB4717D2E7B078013103448B
:1025B00054FA83F31879FF287FF471AF83F804800D
:1025C000DCE7974A08F1010817785FFA88F87A1C67
:1025D000C3469045B6DD62E7FEF723FF87E7BDF807
:1025E00012301A0AD8B2531E0E2B3FF6F2AE01A1DA
:1025F00051F823F031260008532600086D26000804
:10260000D3230008D323000881260008532600089E
:10261000D3230008D3230008D3230008D3230008C2
:10262000D3230008D3230008D32300084926000839
:10263000FEF7E8FF024600283FF49AAE122304A9F1
:10264000284600F08BF9A5E6FFF79AFB024640B951
:10265000BFE6022A07D1FEF7D9FF024600283FF461
:1026600087AE5388EBE7FFF78FFBEFE7BDF8141059
:10267000FEF7D0FF024600283FF4ABAE0378DEE75A
:10268000FFF780FBF6E7BDF81230012B7FF4A1AE17
:10269000237843F00803237029E7BDF81230012B9B
:1026A0007FF497AE23786FF3C303F4E72378C3F383
:1026B00040129B0803F002031343ADF80A300223D3
:1026C0000DF10A0204A9284600F048F9DFE59DF85B
:1026D00014300F2B3FF67DAE2344514A1B791278FC
:1026E000934222D24F4A116811EB43113FF471AE6D
:1026F00004AA2846FFF72AFB00287FF4C8AD9DF8FE
:10270000103013F060047FF464AE9DF811300A3B82
:10271000012B3FF65EAE00F055F99DF811300A2B03
:102720007FF4E5AE8DF80A4098E6511C9942FFF619
:1027300050AE9B1A3E4901EB4311D9E79DF81410A6
:1027400001F07F02082A3FF613AE04EB4202344840
:1027500002EBD1120078127D824213D23148066812
:1027600006EB4216FBB99DF8113003F0FD02012A79
:102770001DD0002B7FF4FCAD2846FFF771FDADF8AE
:102780000A009CE7461C964208DB121A284E06EB0C
:102790004216002BE7D004AA31462DE6002B7FF429
:1027A00018AE0026DFE7002E3FF413AEF3E7BDF8C6
:1027B000122022B9012B284612D1FFF733FD002E3B
:1027C0003FF465AD314604AA2846FFF7BFFA002062
:1027D00000F0F8F894F82730DE073FF558AD86E6AC
:1027E000FFF702FDEBE79DF8101001F07F0409EB05
:1027F000440303EBD11393F826006FF3000083F832
:10280000260093F826006FF3820083F826008CB927
:10281000059B9DF811209DF80C0000F0E7F836E5C7
:10282000081700200C170020ED2C000825170020A9
:102830006C7C00081A7D244B1B789A420DD2234BE6
:102840001B6813EB42133FF459AD9C699DF81120AE
:10285000059B9DF80C00A04719E5581C9042FFF617
:102860004DADD21A1A4B03EB4213EEE799F8003044
:10287000D8077FF50CAD99F80000C0F3C000FFF752
:1028800085FA04E599F80030D9077FF500ADFFF728
:102890007EFAFCE4049B002B3FF4F9AC05989847C2
:1028A000F5E499F80330DA077FF5F1AC0498FFF707
:1028B00066FAECE44FF0E023D3F8F03DDB077FF558
:1028C000E6AC00BEE3E400BF081700200C170020B0
:1028D0006C7C0008124B70B599890546DA8993F92A
:1028E00000008C1AA4B2402C28BF402400280EDA25
:1028F000914212D0996822460A4804F037FE80219E
:10290000084A23462846BDE87040FFF731BC914293
:102910004FF00001F4D10A46F3E780210022F0E7EE
:102920008C1700204C170020C943002301F08001C0
:102930001A46FFF71DBC704730B4074C05460B46DE
:1029400008682246496803C200222846C4E90222D8
:10295000197830BCFFF7E8BF8C170020F8B5144E8B
:102960000C460546086837464968B26003C700212F
:10297000F181E1888B4228BF0B46B381E18889B1A0
:102980004BB142B94FF0E023D3F8F03DDB0700D55F
:1029900000BE002005E02846FFF79CFF0028F1D08C
:1029A0000120F8BD21782846FFF7BEFFF6E700BFFB
:1029B0008C170020142200210148FDF7FFBC00BF46
:1029C0008C170020014B1861704700BF8C17002046
:1029D00010B50246044C00685168234603C3002327
:1029E000C4E9023310BD00BF8C17002070B5284C1D
:1029F0001E46C90905462378B1EBD31F13D03EB15B
:102A00004FF0E023D3F8F03DDB073FD4002070BD4A
:102A10002146FFF790FF23691BB122460321284678
:102A200098470120F3E794F90030A068002B05DBFC
:102A30000028EBD03246174904F098FDE389A268DC
:102A4000334432449BB2A260E288E3819A4201D0CF
:102A50003F2E17D8236933B921782846FFF764FF42
:102A60000028DED1CCE70221094A284698470146D2
:102A70000028F1D1284603F0E9FA8021284603F026
:102A8000E5FACEE72846FFF725FFE9E700BEBDE7F8
:102A90008C1700204C1700202DE9F0410646FFF767
:102AA00077F948B3FFF77CF9054628BB134CE823B8
:102AB00003FB0647FA78FAB13C4610342046FFF78C
:102AC00072F83F2818D9F9782846FFF735FB98B1F6
:102AD0002046FFF768F83F28F97808D9084A2846C1
:102AE000402302EBC612BDE8F041FFF741BB284688
:102AF000BDE8F041FFF72EBBBDE8F08120180020B3
:102B0000A017002010B50446FFF742F908B90020CD
:102B100010BDFFF745F90028F9D10448E82202FB6F
:102B20000400007900F00100F2E700BF2018002047
:102B3000E82208B5102302FB003302481844FFF7CF
:102B400008F808BD2018002038B54FF6FF7304467A
:102B500010209A4228BF1A46E82313FB04030548B5
:102B600092B21844FFF743F805462046FFF794FF5A
:102B7000284638BD201800202DE9F0410446FFF713
:102B800007F970B3FFF70CF9064650BB4FF0E808A1
:102B90001C25184F18FB04553D442846FEF7D9FF65
:102BA000F8B108FB04773046B978FFF7C5FAC0B131
:102BB0004022114B284602EBC4141C442146FFF767
:102BC00016F8B978054688B1034622463046FFF725
:102BD000CFFA48B94FF0E023D3F8F03DDB0700D53A
:102BE00000BE0020BDE8F0812846FBE7FFF7B2FAFF
:102BF000F7E700BF20180020A017002070B51C23A5
:102C0000E824054614FB00340A4B1C444FF6FF73BE
:102C10009A42204628BF1A4692B2FFF737F8064676
:102C20002046FEF796FF3F2802D92846FFF7A4FF6B
:102C3000304670BD20180020E82208B51C2302FB96
:102C4000003302481844FEF7AEFF08BD20180020EC
:102C500013B5134CE82200212046FDF7AFFBFF23FC
:102C600004F12801402263714FF4E13304F11000B4
:102C7000A3600823A373002300930123FEF756FFEC
:102C8000084B802204F168011B7804F11C00C3F397
:102C9000800300930123FEF749FF02B010BD00BF7F
:102CA00020180020850800200120704710B500235F
:102CB0000B480C4C036003712378DA0702D4103000
:102CC000FEF7F0FF23789B0702D40748FEF7EAFFE0
:102CD00021780548C1F38001BDE81040FEF7E7BF49
:102CE00020180020850800203C180020F7B54B79FB
:102CF0000646022B3CD18B79022B39D1224FBB786F
:102D00007BBB8B7809253B700B78CC186378242B20
:102D100020D1954219D96378042B12D163790A2BFB
:102D20000FD11A4B3046277801930133E1190093F4
:102D300002231A46FFF7D2F998B10E3517FA85F536
:102D4000ADB20020FFF7A8FE13E023781D441C4419
:102D5000ADB2DBE7052BDED121463046FFF79AF90D
:102D600050B94FF0E023D3F8F03DDB0700D500BEAB
:102D70000025284603B0F0BDA3787B7023781D445E
:102D80001C44ADB2C7E700BF201800202218002065
:102D90000B46114670B5127802F06002202A4CD121
:102DA000274E8A883478944247D14A78203A032AB9
:102DB00043D8DFE802F002141736012B05D10723B0
:102DC000204AFFF7CBFD012070BD032BFBD11E4B2A
:102DD000002BF8D01B490020AFF30080F3E7012B54
:102DE000F1D1ECE7012B02D1FFF7A6FDEBE7032BB6
:102DF000E9D1164B4C88197804F00105144811F0FC
:102E00000401347118BF85F00101FEF750FF114B2A
:102E1000002BD8D0C4F340022946002004F02CF83F
:102E2000D1E7012BE0D0032BCDD10B4B002BCAD027
:102E300049880020AFF30080C5E70020C4E700BF49
:102E4000201800202818002000000000850800201D
:102E50003C180020796E0008000000002DE9F047C2
:102E6000344C1D4680460F46E3788B4213D1324ED8
:102E7000AAB204F110003146FEF708FF2F4BB3B998
:102E80002F4B5BBB0020FFF707FEA378BB422DD082
:102E90000120BDE8F087A3788B42F6D04FF0E02305
:102EA000D3F8F03DDB0700D500BE0020F1E76379E1
:102EB000FF2BE5D006EB050904F1100A4E45DFD0E3
:102EC00016F8013B62799A42F8D15046FEF752FE5D
:102ED0000028F3D16179AFF30080EFE71948FEF7DE
:102EE00049FE0028CED1AFF30080CBE7164B13B1DB
:102EF0000020AFF300800020FFF73EFE0028C7D17E
:102F00001248FEF726FE0028C2D1002DC0D015F0D1
:102F10003F05BDD1A1784046FFF70EF90028B7D094
:102F20002B462A46A1784046FFF722F90028AFD168
:102F3000B4E700BF20180020A01700200000000008
:102F40000000000030180020000000003C180020A5
:102F5000034B43F602229A87002283F83E207047F3
:102F600008290020104B30B402249A6B83F82C10EF
:102F7000996883F830408A1A93F83C409A6224B9E1
:102F800042F2050583F83E409D8751B14AB11A7B54
:102F9000D20930BC14BF93F82E1093F82F10FFF70E
:102FA00023B930BC704700BF0829002038B5154B45
:102FB0000546154C73B1607BAFF3008050B942F207
:102FC000077384F83E0001212846A387BDE83840F6
:102FD000FFF7C8BFA26B2846A36894F82F109B1A6E
:102FE0000A4AB3F5805F28BF4FF480539BB2FFF7C6
:102FF000BFF830B94FF0E023D3F8F03DDB0700D540
:1030000000BE38BD0000000008290020081900207B
:10301000F0B40C4C07460C4EA26BA36835469B1AC5
:10302000A362032384F8303004F120030FCB07C5DB
:1030300032462B7094F82E1038460D23F0BCFFF763
:1030400097B800BF082900200819002070B5264C49
:1030500086B00546E28AA36822B152BA92B2B3FBA7
:10306000F2F292B2A06BD4F811101B1A09BAB3F5A0
:10307000805FB0FBF2F628BF4FF4805302FB1602CC
:1030800031440093194B607BFEF756FA031E08DAB1
:1030900001212846FFF75CFF06B0BDE87040FFF74E
:1030A00061BF94F82E100FD107228DF8101003A8DD
:1030B00019468DF80C508DF80D2005938DF81130C0
:1030C000FEF7E0FE06B070BD9BB2084A2846FFF747
:1030D0004FF80028F6D14FF0E023D3F8F03DDB079E
:1030E000F0D500BEEEE700BF082900200819002037
:1030F000044880F83C1080F83D2080F83E300120E4
:10310000704700BF08290020402200210148FDF738
:1031100055B900BF08290020402200210148FDF7D1
:103120004DB900BF0829002073B54B790546082B1F
:103130000ED18B79062B0BD1CB79502B08D1162AC7
:1031400009D84FF0E023D3F8F03DDA0700D500BEF0
:10315000002002B070BD8B78124C84F82D3004F141
:103160002E030E78019304F12F03314400930223C0
:103170001A46FEF7B3FF0028E3D000230A4A94F86A
:103180002F10284684F830301F23FEF7F1FF28B9AE
:103190004FF0E023D3F8F03DDB0701D41720D8E748
:1031A00000BEFBE70829002008190020012973B59B
:1031B0000546144602D0012002B070BD137803F01A
:1031C0007F02022A3FD16278012A3CD16288002A1C
:1031D00039D1A388394CDBB294F83020042A03D1CA
:1031E0001946FFF701F8E6E794F82E1099420ED140
:1031F000022AE0D1FFF70CFF0028DCD14FF0E023DA
:10320000D3F8F03DDB0700D500BE0020D4E794F8EA
:103210002F609E42CFD1002ACDD13146FEF7D6FF96
:103220000028C8D131462846FFF71AF80028C2D135
:103230000023234A94F82F10284684F830301F23A7
:10324000FEF796FFD8E703F06003202BDDD163780B
:10325000FE2B15D0FF2BD8D16388002BD5D1E18868
:103260008AB2002AD1D1154B28469987214683F886
:10327000302083F83E20C3E90D22FFF75DFB9AE77B
:103280006388002BC1D1E388012BBED18DF80730B4
:103290000C4B1BB1AFF300808DF807009DF8073091
:1032A000002BB2D0013B0DF10702214628468DF8D4
:1032B00007300123FFF752FB7DE700BF08290020FC
:1032C00008190020000000002DE9F047AD4C8EB039
:1032D00005468C4694F830A01E46BAF1010F00F066
:1032E000BD81BAF1030F00F03282BAF1000F54D160
:1032F00094F82F308B4268D1DFF894821F2ED8F8D3
:103300000020C14602D1A04B9A4210D0042394F869
:103310002E10284684F83030FEF766FF94F82F1000
:103320002846FEF761FF00200EB0BDE8F087474653
:1033300026460FCF0FC697E80F0007C626F8023BB8
:103340001B0CE27B3370914B282A84F82CA023625B
:103350006368C4E9093A4FF0010384F83030A36888
:10336000C4E90D3A0ED1E28A83B1217BC90910D09C
:10337000002A3FD052BA92B293420AD32846FFF7AE
:1033800065FE0AE02A2A2ED1E28A03BB002A00F059
:10339000618102212846FFF7E5FD94F83030022BC9
:1033A00013D194F82E102846FEF75AFF68B9A26888
:1033B000A36B9A4240F2F481237BDB0900F0F08199
:1033C00094F82E102846FEF70FFF0120ACE7217B72
:1033D000C909DED172B152BA92B29342D9D328460A
:1033E000FFF7E4FDD9E783B1217BC9090DD1B3F51E
:1033F000805F01D90121CDE79BB2654A614628462D
:10340000FEF7B6FE0028C8D12BE1252A677B08D835
:10341000192A14D8032A00F0DF80122A00F09480C1
:1034200062B394F83C30002BE4D1A38E584A59493A
:10343000607BFEF773F8002880F20581DAE71A3A1C
:103440000B2AEED801A353F822F000BFA5350008DF
:10345000973400082334000823340008B3340008EC
:1034600023340008233400082334000823340008E0
:103470000335000823340008C73400083846FEF737
:103480004BF8002840F0E28094F83C30002BC8D183
:10349000FFF75EFDC5E7404B002B00F0D780E17CD5
:1034A0003846C1F3400301F001020909FEF7A8F80C
:1034B000E7E73A4B002B00F0C980227D3846E17CDB
:1034C000AFF30080DDE704AA05A93846FEF790F8BF
:1034D000059BBDF81020002BD6D0002AD4D0013B8C
:1034E00012BA08201BBAC8E90032A368002B81D0A9
:1034F0008342274A94F82E1028BF034663639BB289
:103500007DE7002305AE0DF10E0204A905933846B0
:10351000C6E90133FEF76CF8049A002AB4D0BDF86E
:103520000E30002BB0D012BA08215BBA06920222EC
:103530008DF817108DF81C20ADF81E3096E80700A6
:1035400089E807000C20D0E71F2315494FF02036EB
:10355000102209A8CDE905132021CDE90766FCF763
:103560002DFF384605AF0DAB09AA07A90D96FDF74B
:103570008DFF074E0FCF0FC60FCF0FC63B6824201D
:103580003360B2E708290020555342435553425354
:10359000081900201729002001160008000000006B
:1035A00000800202059B03F4000343F0030305932C
:1035B0007F4B7BB13846AFF3008080F001009DF86F
:1035C000163060F3C71304208DF81630059BC8F839
:1035D00000308AE70120F0E794F83C6012220021D5
:1035E00005A806F00F0694F83D9094F83E80FCF78D
:1035F000E5FEF0238DF8166005AE8DF820908DF86D
:1036000014300A238DF821808DF81B30DFF8A8C113
:103610000FCEACE80F003368ACF80030654B23B92F
:103620001220A38784F83E305FE74FF48052ACF15C
:1036300010013846AFF3008000230028A38784F8E8
:103640003E30FFF6EEAE00287FF44FAFA368002BAC
:103650007FF4D0AE022384F830309EE6B3F5805F6D
:1036600008D94FF0E023D3F8F03DDA077FF55BAEE1
:1036700000BE58E6E37BA06B282B05D13044636B7A
:103680009842A063E6D279E62A2B41D1E28A2AB198
:1036900052BAA36892B2B3FBF2F39AB2D4F8111003
:1036A000454F09BA00963B46B0FBF2FC02FB1C02F8
:1036B0006144607BFDF762FF011E05DAA36B3344B2
:1036C000A363FFF745FC95E68E421AD9761A39B105
:1036D000A36B324638460B443944A36303F024FFFE
:1036E00094F82F300722002105A88DF814508DF88A
:1036F00015208DF8183007968DF81910FEF7C2FBCB
:103700004BE6A36B626B33449342A363A2D266E69B
:10371000237B3044DB09A0630CD1A38E04F10F019D
:10372000254A607BFDF7FAFE002803DA5146284659
:10373000FFF718FCD4E90D329A428BD24FF0E02308
:10374000D3F8F03DDB077FF528AE00BE25E694F800
:103750002E308B427FF421AE0D2E7FF41EAEE37B24
:10376000282B09D02A2B14D0144B53B104F10F018C
:10377000607BAFF3008004E0114B13B1607BAFF3CB
:10378000008000230C4A94F82F1084F830301F2357
:1037900035E60C4B002BF4D0607BFDF707FFF0E71C
:1037A0002846FFF735FC00287FF40FAE59E700BF2D
:1037B00000000000000000000819002000000000C8
:1037C00000000000AD150008274AD2F8883043F405
:1037D0007003C2F88830254A136803F00F03062BE4
:1037E00005D8136823F00F0343F007031360204B41
:1037F0001A6842F001021A6000221A611D4A196813
:103800000A401A491A600A68120705D50A6822F0A8
:103810000F0242F007020A60002217499A61DA613A
:103820001A6299621549D962154919635A639963F5
:10383000DA6319645A64196821F4802119601A66E0
:10384000104B1B681B0C1B04B3F1005F03D20E4B23
:103850000122C3F808210D4B43F2D2021A604FF047
:103860000062014B9A60704700ED00E000200052BA
:10387000004402587FEDF6EA000202020000FF0158
:10388000800201010010005C0080005100400052E5
:10389000484A30B5136903F03803102B00F08580D7
:1038A000182B1BD0002B40F082801268424BC2F3D1
:1038B000C102D3403F4841498269C2F303228A5C76
:1038C000D340826902F00F028A5C3D4902F01F0278
:1038D00023FA02F20A603B4A136030BD906A956A8F
:1038E000D46A15F47C7FC5F30513516BE2D007EE63
:1038F000903AC1F3CC0304F0010100F00300B8EEEC
:10390000E77A4B430128F7EE005A06EE903AFAEEBA
:10391000E96A3CD0022828D0C8BB1168136BC1F3F8
:10392000C101254AC3F30803CA4007EE902AB8EE46
:10393000E76AC6EE077A07EE103AB8EEC77A37EEB6
:10394000267A37EE257A67EE877A1A4B1B6BC3F31C
:103950004623013307EE103AF8EEC76A87EEA67ADF
:10396000FCEEC77A17EE903AA4E7136B9FED166A48
:10397000C3F3080307EE903AF8EEE77A77EEA67AFB
:1039800077EEA57AC6EE076A67EEA67ADDE7136BD7
:103990009FED0E6AC3F3080307EE903AF8EEE77A5C
:1039A00077EEA67A77EEA57AECE7094B82E7094B2A
:1039B00080E700BF004402580090D003AC7C0008B0
:1039C000880800208C0800200024F44A0024744A4F
:1039D00000127A0000093D007047000038B50F4B17
:1039E00005461A780AB9012038BD4FF47A73B3FB43
:1039F000F2F30B4A1068B0FBF3F000F0B1F80446A4
:103A00000028F0D10F2DEED8024629464FF0FF30A6
:103A100000F074F8034B20461D60E5E79008002095
:103A20008C0800209408002010B5032000F054F802
:103A300000F00AFC0F49104A8B69C3F30323D35CDF
:103A400003F01F03D8408B6903F00F03D35C0B4ACC
:103A500003F01F0320FA03F31360094B18600F20D3
:103A6000FFF7BCFF044618B9FFF7B6FF204610BDAC
:103A70000124FBE700440258AC7C000888080020C1
:103A80008C080020034A044B11681B780B44136018
:103A9000704700BF4829002090080020014B18689B
:103AA000704700BF4829002038B50446FFF7F6FFED
:103AB0000546631C1EBF044B1B78E418FFF7EEFF9E
:103AC000431BA342FAD338BD90080020014B18686D
:103AD000000C70470010005C07490302CA6803F439
:103AE000E06322F4E0621204120C134343F0BF635C
:103AF00043F40033CB60704700ED00E0164B30B567
:103B0000DC68C4F30224C4F10703251D042B28BF7D
:103B10000423062D4FF0FF358CBF033C002405FA2B
:103B200003F3002805FA04F521EA030322EA05025B
:103B300003FA04F343EA02034FEA0313DBB206DBA2
:103B400000F1604000F5614080F8003330BD00F0C6
:103B50000F00024A1354F9E700ED00E014ED00E015
:103B60000138B0F1807F0BD24FF0E023054AF021FD
:103B70005861002082F82310072298611A6170476B
:103B80000120704700ED00E05F4AF8B5136803F0CC
:103B90000F03062B40F282805C4CFFF77FFF054647
:103BA000236843F00103236023685E0740F18580AA
:103BB0006368574A43F08043636000232361554B99
:103BC0001360554A1360554B1868FFF707FF054609
:103BD00000286FD1FFF762FF4C4C064641F2883750
:103BE000236913F0380F70D1FFF758FF22684C4B50
:103BF000064613402360454C236898036BD4FFF7B7
:103C00004DFF2368064623F0807323603F4C2368F2
:103C1000990166D4FFF742FF2368064623F08063CC
:103C200023603A4C23681A0161D4FFF737FF2368F9
:103C3000064623F080532360344C236813F000536E
:103C40005BD1384AA361E3612362A262364AE26231
:103C5000364A22636363A263E36322646364226877
:103C600022F48022226023664FF0FF33264AA366A7
:103C7000D4F8D03043F48033C4F8D03013681B0735
:103C800019D5136823F00F0343F007031360156879
:103C900005F00F05073D18BF01250CE0136823F060
:103CA0000F0343F007031360136803F00F03072BA0
:103CB0003FF472AF01252846F8BDFFF7EFFE401B29
:103CC00002287FF671AF0325F5E7FFF7E7FE801BBB
:103CD000B84285D9F7E7FFF7E1FE801B64288BD94E
:103CE000F1E7FFF7DBFE801B022890D9EBE7FFF737
:103CF000D5FE801B022895D9E5E7FFF7CFFE801B94
:103D000002289AD9DFE700BF002000520044025881
:103D10008C0800200090D003880800209408002020
:103D200045EDF6FF000202020000FF0180020101E2
:103D3000F8B50446002878D00368D80762D4236811
:103D4000990700F1AD802368DA0627D59F4A1369E9
:103D5000916A03F03803082B07D0182B40F00A8132
:103D600001F00303012B40F005811368DB0502D548
:103D7000E369802B59D1FFF7A9FE41F20303216AC1
:103D80009842924B00F2EF805A68202922F0F842C4
:103D90000CBF42F0804242EA81625A6023681907F0
:103DA00000F1298123689A0600F14A8123685D07A2
:103DB00022D5874D2B6843F480732B60FFF76EFE8E
:103DC00006462B68DA0540F16081A2687F4B012A24
:103DD00040F062811A6F42F001021A67A368002B5B
:103DE00000F07181FFF75AFE784E054641F28837A0
:103DF000336F9B0740F16081626A002A40F0738153
:103E000000202DE0714A1369916A03F03803102BEA
:103E100005D0182B0BD101F00303022B07D1136837
:103E20009A038CD56368002B89D1012018E0626861
:103E3000664BB2F5803F14D11A6842F480321A60A2
:103E40006368FBB1FFF72AFE604E054633689B03AB
:103E50003FF575AFFFF722FE401B6428F6D903201B
:103E6000F8BD3AB91A6822F480321A601A6822F44E
:103E70008022E4E7B2F5A02F1A68F4D142F4802240
:103E80001A60D9E7FFF70AFE504E054633689F03D4
:103E90007FF555AFFFF702FE401B6428F6D9DEE739
:103EA0004A4A1369916A13F0380303D0182B1FD1C3
:103EB0008E071DD113685D0702D5E368002BB4D0CF
:103EC000FFF704FE41F20303216998423F4B5A6811
:103ED00009D822F47C3240290CBF42F4003242EA75
:103EE00001325A602FE722F0FE4242EA0162F8E70F
:103EF000364DE2682B6832B323F0190313432B606D
:103F0000FFF7CCFD06462B68580711D5FFF7DEFDFD
:103F100041F20303226998426B680FD823F47C3383
:103F2000402A0CBF43F4003343EA02336B600AE7D4
:103F3000FFF7B4FD801B0228E5D990E723F0FE438C
:103F400043EA0263F2E723F001032B60FFF7A6FDCB
:103F500006462B6859077FF5F6AEFFF79FFD801BDD
:103F60000228F6D97BE7DA6822F07C5242EA016245
:103F7000DA6013E7E369154D63B32B6843F0800300
:103F80002B60FFF78BFD06462B68DF0511D5FFF789
:103F90009DFD41F20303226A984210D86B68202AE3
:103FA00023F0F8430CBF43F0804343EA82636B6025
:103FB000F4E6FFF773FD801B0228E5D94FE7EB68B5
:103FC00023F07C5343EA0263EB60E7E600440258C7
:103FD000004802582B6823F080032B60FFF75EFD3A
:103FE00006462B68D8057FF5D9AEFFF757FD801B35
:103FF0000228F6D933E76369924D83B16B6F43F0C2
:1040000001036B67FFF74AFD06466B6F9B073FF5A1
:10401000C9AEFFF743FD801B0228F6D91FE76B6F7F
:1040200023F001036B67FFF739FD06466B6F9F07AF
:104030007FF5B8AEFFF732FD801B0228F6D90EE7F8
:10404000A369804D83B12B6843F480532B60FFF745
:1040500025FD06462B6898043FF5A8AEFFF71EFD28
:10406000801B0228F6D9FAE62B6823F480532B60D4
:10407000FFF714FD06462B6899047FF597AEFFF70E
:104080000DFD801B0228F6D9E9E6FFF707FD801B2E
:1040900064287FF696AEE2E63AB91A6F22F0010282
:1040A0001A671A6F22F0040297E6052A1A6FF5D1F3
:1040B00042F004021A678DE6FFF7F0FC401BB8429D
:1040C0007FF696AECBE6FFF7E9FC5E4E054641F281
:1040D0008837336F98077FF58FAEFFF7DFFC401B03
:1040E000B842F6D9BBE6574D2B6903F03803182BBD
:1040F0007AD02B68022A23F080732B6067D1FFF7F8
:10410000CDFC06462B6899015BD4AB6AA26A23F406
:104110007C7323F003031343E26A43EA0213AB62A6
:10412000636BA26B013B013A5B0212049BB202F487
:10413000FE021343226B013AC2F308021343E26BFF
:10414000013A120602F0FE4213432B63EB6A23F09E
:104150000103EB626B6BA26C23F47F4323F0F80343
:1041600043EAC2036B63EB6A226C23F00C03134334
:10417000EB62EB6A626C23F002031343EB62EB6ABF
:1041800043F48033EB62EB6A43F40033EB62EB6A97
:1041900043F48023EB62EB6A43F00103EB622B688C
:1041A00043F080732B60FFF779FC264D04462B68A3
:1041B0009A013FF525AEFFF771FC001B0228F6D9E6
:1041C0004DE6FFF76BFC801B02289BD947E6FFF703
:1041D00065FC04462B689B017FF512AEFFF75EFC81
:1041E000001B0228F6D93AE6012AAB6A286B3FF495
:1041F0001CAE03F00302A16A8A427FF416AEC3F339
:104200000513E26A93427FF410AE236BC0F30802F9
:10421000013B9A427FF409AE636BC0F34622013B37
:104220009A427FF402AEA36BC0F30642013B9A426E
:104230007FF4FBADE36BC0F30660013BC01A18BF0F
:1042400001200DE600440258494B30B51A6902F0CE
:104250003802102A00F08880182A0CD0002A40F07A
:1042600085801A68434812F0200F03D01B68C3F3FF
:10427000C103D84030BD996A9D6ADC6A15F47C7F21
:10428000C5F305105A6BF5D0C2F3CC0204F001045B
:1042900001F0030107EE900A6243B7EE006A0129BC
:1042A000B8EEE77A06EE902AFAEEE96A4ED00229D5
:1042B0003ED000294AD11A68920627D519682D4A9E
:1042C000C1F3C1011B6BCA40C3F3080307EE902A78
:1042D000F8EEE75AC5EE877A07EE103AB8EEC77ADD
:1042E00037EE267A37EE067A67EE877A204B1B6B1D
:1042F000C3F34623013307EE103AF8EEC76A87EEA0
:10430000A67AFCEEC77A17EE900AB3E71B6BC3F3ED
:10431000080307EE903AF8EEE77A77EEA67A77EEA2
:10432000867A9FED156AC6EE076A67EEA67ADDE724
:104330001B6BC3F3080307EE903AF8EEE77A77EECB
:10434000A67A77EE867A9FED0D6AECE71B6BC3F3D6
:10435000080307EE903AF8EEE77A77EEA67A77EE62
:10436000867A9FED076ADEE7064883E7064881E71D
:10437000004402580090D0030024744C0024F44AF6
:104380000024744A00127A0000093D002DE9F04132
:104390000D46044610B90120BDE8F0818D4A13682E
:1043A00003F00F038B42C0F09C8023685E0700F18E
:1043B000A480236818070BD5874A6169D36903F085
:1043C0007003994204D9D36923F070030B43D3617E
:1043D0002368D9060BD5804AA169D36903F4E06349
:1043E000994204D9D36923F4E0630B43D361236872
:1043F0009A060BD5784AE169136A03F07003994273
:1044000004D9136A23F070030B43136223689B07DC
:104410000BD5714AE168936903F00F03994204D9FF
:10442000936923F00F030B4393612368DF0772D472
:1044300023689E0700F1A580664A136803F00F0306
:10444000AB4200F2AC802368580700F1B4802368C7
:1044500019070BD5604A6169D36903F0700399426B
:1044600004D2D36923F070030B43D3612368DA06C7
:104470000BD5594AA169D36903F4E063994204D288
:10448000D36923F4E0630B43D36123689B060BD508
:10449000514AE169136A03F07003994204D2136A26
:1044A00023F070030B431362FFF7CEFE4A494B4AD9
:1044B0008B69C3F30323D35C03F01F03D8408B69DC
:1044C00003F00F03D35C464A03F01F0320FA03F303
:1044D0001360444B1860444BBDE8F0411868FFF787
:1044E0007DBA136823F00F030B431360136803F0C6
:1044F0000F038B427FF44FAF57E7374A2169936927
:1045000003F0700399427FF654AF936923F0700370
:104510000B4393614DE7304BA1689A6922F47062B6
:104520000A439A6161681A6802291DD112F4003F9A
:104530003FF431AF1A6941F28838274F22F0070261
:104540000A431A61FFF7AAFA06463B69626803F05C
:104550003803B3EBC20F3FF46BAFFFF79FFA801B3A
:104560004045F2D9032017E7032902D112F0007F5A
:10457000DEE7012902D112F4807FD9E712F0040F9F
:10458000D6E7154AE168936903F00F039942BFF437
:1045900053AF936923F00F030B4393614CE7136808
:1045A00023F00F032B431360136803F00F03AB4298
:1045B0007FF4F1AE47E7084A2169936903F070037D
:1045C0009942BFF444AF936923F070030B439361A6
:1045D0003DE700BF0020005200440258AC7C0008B8
:1045E000880800208C08002094080020F8B53A4C78
:1045F00006460D46A36A03F00303032B69D0236824
:1046000023F080632360FFF749FA074623681A0105
:104610004BD4A36A326823F47C3343EA0233A362A7
:10462000B368F268013B013A5B0212049BB202F4E8
:10463000FE0213437268013AC2F30802134332695F
:10464000013A120602F0FE421343A363E36A726961
:1046500023F0C0031343E362E36AB26923F020034B
:104660001343E362E36A23F01003E362E36BF2694E
:1046700023F47F4323F0F80343EAC203E363E36ACE
:1046800043F01003E362E36AB5B943F40023E36245
:10469000114C236843F080632360FFF7FFF9054660
:1046A00023681B010FD5002005E0FFF7F7F9C01BB9
:1046B0000228ABD90320F8BD012D0CBF43F48013B1
:1046C00043F40013E3E7FFF7E9F9401B0228E7D9B9
:1046D000F0E70120EFE700BF00440258F8B53A4C7C
:1046E00006460D46A36A03F00303032B69D0236833
:1046F00023F080532360FFF7D1F9074623689A001F
:104700004BD4A36A326823F07C7343EA0253A3625A
:10471000B368F268013B013A5B0212049BB202F4F7
:10472000FE0213437268013AC2F30802134332696E
:10473000013A120602F0FE4213432364E36A7269EF
:1047400023F440631343E362E36AB26923F4007322
:104750001343E362E36A23F48073E362636CF269F8
:1047600023F47F4323F0F80343EAC2036364E36A5C
:1047700043F48073E362E36AB5B943F48003E36210
:10478000114C236843F080532360FFF787F90546F7
:1047900023689B000FD5002005E0FFF77FF9C01BC1
:1047A0000228ABD90320F8BD012D0CBF43F4000350
:1047B00043F08073E3E7FFF771F9401B0228E7D964
:1047C000F0E70120EFE700BF004402582DE9F8436D
:1047D000036805461E011ED5436EB3F5001F2AD09F
:1047E0000FD8D3B1B3F5801F1DD001262B68DC058F
:1047F0004ED56B6D042B4AD8DFE803F0223D4327EA
:104800002700B3F5401FF0D1824A696E136D23F47F
:1048100040130B4313650026E8E77E4AD36A43F44E
:104820000033D362F0E702210430FFF7DFFE0646D3
:104830000028DBD1E8E702212430FFF74FFFF6E73D
:10484000744AD36A43F40033D362344614BB714ACA
:10485000696D136D23F007030B4313652B689805EF
:1048600027D5AB6D802B41D016D89BB3402B37D0CA
:10487000012634461DE00021281DFFF7B7FE04463F
:10488000E4E7002105F12400FFF728FFF7E7012600
:104890003446E3E72646E1E7C02B02D0B3F5807F3C
:1048A000E6D14CBB5B4AA96D136D23F4E0730B4357
:1048B00013652B68590530D5D5F8A430B3F5800FB2
:1048C00047D01BD8002B38D0B3F5001F3BD00126B2
:1048D000344622E04F4AD36A43F40033D362E0E720
:1048E0000021281DFFF782FE0446DAE7002105F1CA
:1048F0002400FFF7F3FEF7E72646DAE7B3F5C00F2B
:1049000002D0B3F5000FE2D14CBB424AD5F8A41057
:10491000936D23F460030B4393652B681A052FD521
:10492000D5F8A830B3F1007F43D01AD8ABB3B3F1B8
:10493000807F38D00126344622E0364AD36A43F4D9
:104940000033D362E0E70021281DFFF74FFE044645
:10495000DAE7002105F12400FFF7C0FEF7E726465D
:10496000DBE7B3F1407F02D0B3F1806FE2D134BB1B
:10497000284AD5F8A810936D23F0E0630B439365A4
:104980002B689B0127D5AB6C202B3AD019D8D3B11B
:10499000102B30D0012634461DE01E4AD36A43F462
:1049A0000033D362E3E70021281DFFF71FFE044612
:1049B000DDE7002105F12400FFF790FEF7E726462A
:1049C000DEE7302BE6D114BB124AA96CD36C23F07E
:1049D00030030B43D3642B68DF042CD5EB6DB3F5A8
:1049E000005F75D018D8002B66D0B3F5805F69D012
:1049F000012634461FE0074AD36A43F40033D362EA
:104A0000E1E70221281DFFF7F1FD0446DBE726461A
:104A1000E1E700BF00440258B3F5405F02D0B3F5B0
:104A2000804FE5D1002C59D19D4AE96D136D23F4D7
:104A3000E0430B4313652B6898040BD52B6EB3F53D
:104A4000003F64D04CD8002B52D0B3F5803F58D0F3
:104A5000012634462B6859040CD5D5F8AC30B3F197
:104A6000005F74D05BD8002B61D0B3F1805F68D059
:104A7000012634462B681A0411D5EB6EB3F1805F22
:104A80006DD0B3F1005F70D0002B74D1002C75D1C4
:104A9000834AE96E136D23F040530B4313652B6873
:104AA000DB017BD56B6C032B00F2D780DFE813F0C2
:104AB0006D006800CF006D00794AD36A43F400337B
:104AC000D362AFE70021281DFFF790FD0446A9E758
:104AD000002105F12400FFF701FEF7E72646AAE7CB
:104AE00023F48032B2F5802F02D0B3F5403FAFD12E
:104AF0009CB96B4A296E136D23F4E0230B431365B5
:104B0000A8E70121281DFFF771FD0446F0E7012108
:104B100005F12400FFF7E2FDF7E726469AE723F0C8
:104B20008052B2F1804F02D0B3F1405FA0D1A4B95E
:104B30005B4AD5F8AC10936D23F0E0430B439365CB
:104B400098E70121281DFFF751FD0446EFE70121F9
:104B500005F12400FFF7C2FDF7E726468AE7504A31
:104B6000D36A43F40033D36290E70121281DFFF795
:104B70003DFD04468AE70126344690E726468EE747
:104B8000474AD36A43F40033D362002C68D1444AC5
:104B9000696CD36C23F003030B43D3642B685F026F
:104BA0003DD5404F3B6843F480733B60FEF776FF92
:104BB00080463B68D80555D5002C77D1384BD5F8C1
:104BC000B0101A6F4A4012F4407F0BD01A6F196F61
:104BD00022F4407241F480311967196F21F4803159
:104BE00019671A67D5F8B030B3F5807F43D0D5F890
:104BF000B0002B4A00F44073B3F5407F4CD11169EB
:104C0000294B21F47C5103EA10130B431361244A0E
:104C1000D5F8B030116FC3F30B030B4313672B6848
:104C2000DA0709D5AB6F102B57D041D8002B45D0F0
:104C3000082B4CD0012634462B689B0762D56B6F3E
:104C4000052B75D8DFE803F056516E5656560221F3
:104C5000281DFFF7CBFC044697E7012634469DE765
:104C600026469BE7FEF71AFFA0EB08006428A0D9B0
:104C700003263446D3E7FEF711FFDFF8248007460A
:104C800041F28839D8F870309907B0D4FEF706FFA2
:104C9000C01B4845F6D9EBE7136923F47C53B5E70D
:104CA0000044025800480258CFFFFF002646B6E7EE
:104CB00023F00802202A01D0182BBBD19CB9AC4AA2
:104CC000A96F536D23F038030B435365B4E70121FB
:104CD000281DFFF78BFC0446F0E7012105F12400B5
:104CE000FFF7FCFCF7E72646A6E70121281DFFF7A2
:104CF0007DFC0446FCB99E4A696F536D23F007039F
:104D00000B4353652B685F0727D5D5F89030052BEB
:104D100000F22881DFE813F01600110020011600D0
:104D200016001600012105F12400FFF7D7FCE0E78B
:104D300001263446E6E72646E4E70121281DFFF771
:104D400055FC0446002C40F01081894AD5F890109B
:104D5000936D23F007030B4393652B68980610D5DA
:104D6000D5F88C30B3F1005F00F01D8100F20281B4
:104D7000002B00F00881B3F1805F00F00E81012666
:104D800034462B68590610D5D5F89830B3F5006F26
:104D900000F02A8100F20F81002B00F01581B3F59D
:104DA000806F00F01B81012634462B681A0610D54F
:104DB000D5F89C30B3F5804F00F0378100F21C81AC
:104DC000002B00F02281B3F5005F00F0288101265E
:104DD00034462B681B0714D5D5F88030B3F5805FB7
:104DE00007D1022105F12400FFF778FC002818BF45
:104DF00001265F4AD5F88010536D23F440530B43CE
:104E000053652B68DF0614D5D5F89430B3F5807F51
:104E100007D1022105F12400FFF760FC002818BF2C
:104E20000126534AD5F89410936D23F440730B4335
:104E300093652B6818031AD5D5F8A010B1F5803FFB
:104E400000F0FB80B1F5003F06D0002940F0FB8068
:104E5000281DFFF7CBFB0446002C40F0F780444AA6
:104E6000D5F8A010936D23F440330B4393652B6862
:104E700059030FD5D5F88430B3F5001F00F0F78043
:104E8000B3F5401F00F0E980B3F5801F00F0E0802B
:104E9000012634462B68DA0309D5EB6C002B00F0B1
:104EA000EF80B3F5803F00F0F980012634462B688F
:104EB0009B0007D5022105F12400FFF70FFC002815
:104EC00018BF01262B689F0340F10081EB6FB3F5FB
:104ED000807F00F0FD8000F2E980002B00F0EC8084
:104EE00001242B68D80206D5214A296F136D23F0BF
:104EF00000430B4313652B68D90007D51C4AD5F82E
:104F0000B410136923F480430B4313612B689A0296
:104F100006D5174AA96E136D23F080730B431365F2
:104F20002B685B0009D5124B1A6922F400421A6102
:104F30001A69D5F8B8100A431A612B68002B06DAF3
:104F40000B4A296DD36C23F040530B43D364201ECE
:104F500018BF0120BDE8F883012105F12400FFF707
:104F6000BDFBEEE601263446F7E62646F5E600BF31
:104F70000044025823F08052B2F1804F03D0B3F1C5
:104F8000405F7FF4FCAEA4B9544AD5F88C10536D41
:104F900023F0E0430B435365F3E60021281DFFF7A0
:104FA00025FB0446EFE7022105F12400FFF796FBFD
:104FB000F7E72646E5E623F48062B2F5805F03D08A
:104FC000B3F5406F7FF4EFAEA4B9444AD5F898101A
:104FD000936D23F4E0530B439365E6E60021281D0F
:104FE000FFF704FB0446EFE7022105F12400FFF779
:104FF00075FBF7E72646D8E623F40052B2F5004FDA
:1050000003D0B3F5C04F7FF4E2AEA4B9334AD5F86C
:105010009C10936D23F460430B439365D9E6002104
:10502000281DFFF7E3FA0446EFE7022105F124000B
:10503000FFF754FBF7E72646CBE6022105F12400F3
:10504000FFF74CFB07E70126344610E726460EE73C
:10505000224AD36A43F40033D3627CB91F4AD5F89D
:105060008410536D23F440130B43536512E7012161
:1050700005F12400FFF732FB0446EEE7264609E778
:10508000164AD36A43F40033D3626CB9134AE96C0D
:10509000D36C23F480330B43D36408E70221281D2B
:1050A000FFF7A4FA0446F0E7264600E723F48073EE
:1050B000B3F5007F7FF414AF002C7FF412AF074AE2
:1050C000E96F536D23F440730B435365344608E78F
:1050D000024AD36A43F40033D362EDE70044025836
:1050E0002DE9F74F00234FF001084FF00F0E4FF05E
:1050F000B0440A6832FA03F502D103B0BDE8F08F7C
:1051000008FA03F919EA020200F0B98003255E00EB
:1051100005FA06FC4D6825F010056FEA0C0C013D00
:10512000012D11D8856805EA0C0ACD68B54045EA1D
:105130000A058560456825EA09094D68C5F300152B
:105140009D4045EA09054560C56805EA0C098D687A
:10515000B54045EA0905C5604D6825F01005022DEA
:1051600014D14FEAD30903F0070A00EB89094FEA8B
:105170008A0AD9F820500EFA0AFB25EA0B0B0D69B2
:1051800005FA0AF545EA0B05C9F82050056805EA55
:105190000C0C4D6805F00305B54045EA0C050560AB
:1051A0004D68ED006BD5404E03F0030CD6F8F4507B
:1051B0004FEA8C0C45F002050EFA0CF9C6F8F450D3
:1051C000D6F8F45023F0030606F1B04605F00205C8
:1051D00006F580660195019DB56825EA0909334DFC
:1051E000A8424ED005F58065A8424CD005F58065F3
:1051F000A8424AD005F58065A84248D005F58065EB
:10520000A84246D005F58065A84244D005F58065E2
:10521000A84242D005F58065A84240D005F58065DA
:10522000A8423ED005F58065A84214BF0A2509258D
:1052300005FA0CF545EA0905B560D6434F68D4F880
:105240008050FF034CBF15433540C4F880504F6871
:10525000D4F88450BF034CBF15433540C4F8845084
:105260004F682568FF024CBF1543354025604F68E5
:105270006568BF0254BF06EA05022A436260013333
:1052800037E70025D4E70125D2E70225D0E703253B
:10529000CEE70425CCE70525CAE70625C8E707259C
:1052A000C6E70825C4E700BF0044025800000258C2
:1052B0002DE9F04F00224FF0010A4FF00F084FF098
:1052C000030B4FF0B04431FA02F301D1BDE8F08F87
:1052D0000AFA02FC1CEA010670D022F0030502F073
:1052E000030705F1B045BF00D5F8083408FA07F9FF
:1052F00005F5806509EA030E3A4B984260D003F544
:10530000806398425ED003F5806398425CD003F5D9
:10531000806398425AD003F58063984258D003F5D1
:105320008063984256D003F58063984254D003F5C9
:105330008063984252D003F58063984250D003F5C1
:10534000806398420CBF09230A23BB40734517D1E1
:10535000D4F8803023EA0603C4F88030D4F88430CF
:1053600023EA0603C4F88430236823EA0603236093
:10537000636823EA06036360AB6823EA0903AB6052
:1053800053000568D6080BFA03F300EB86061D43AD
:10539000056002F00705376AAD0008FA05F527EA4F
:1053A00005073762C56825EA0305C560456825EA33
:1053B0000C054560856825EA03038360013282E7B6
:1053C0000023C2E70123C0E70223BEE70323BCE7B3
:1053D0000423BAE70523B8E70623B6E70723B4E7B3
:1053E0000823B2E7000002580369194214BF0120E4
:1053F000002070470AB1816170470904FBE7000093
:10540000104BDA68D20706D40E4BD3F80C0110F01B
:1054100001000AD170470C4A5A6002F188325A6082
:10542000DB68DB07F0D501207047074AC3F8042189
:1054300002F18832C3F80421D3F80C0100F0010016
:10544000704700BF00200052230167450A4BDA680D
:1054500042F00102DA60DA68D2070BD5D3F80C21EA
:1054600042F00102C3F80C21D3F80C01C04300F054
:105470000100704701207047002000522DE9F843D9
:105480000F46294C0546D4F81080FEF707FB022F83
:105490000646264B28D1D4F81041DFF898901C40DE
:1054A00044F00044DFF88080B9F1040F21D1D8F82E
:1054B000103058070DD434F0004120D01C4A002C85
:1054C000936943EA04039361174B15DB5C61012088
:1054D0001FE06B1CE8D0FEF7E1FA801BA84201D860
:1054E000002DE1D1032014E008EA03044FF0040981
:1054F000D8E7D8F81031DCE7C3F81411E7E7012F3B
:10550000094B08D11A69D10302D54FF480325A6190
:105510000020BDE8F883D3F81021D203F8D54FF46A
:105520008032C3F81421F3E7002000520000EE1788
:105530004C29002004000080F8B52D4D0F4616467A
:105540002B7D012B4FD001F178430124B3F5801F4F
:105550002C750AD2002321464CF25030AB61FFF784
:105560008DFFC8B100232B75F8BDA1F10163B3F520
:10557000801F3AD2002302214CF25030AB61FFF77A
:105580007DFF0028EED11B4A0224D2F80C3143F0F3
:105590000203C2F80C3104E0164AD36843F0020358
:1055A000D360BFF36F8FBFF34F8F0023F258FA50D1
:1055B0000433202BFAD1BFF36F8FBFF34F8F4CF220
:1055C00050302146FFF75AFF012C0A4B04D1DA680C
:1055D00022F00202DA60C5E7D3F80C2122F00202C1
:1055E000C3F80C21BEE70220BEE72046BCE700BF9F
:1055F0004C2900200020005201F00303032B17D197
:105600001D4BDA6822F03002DA60D3F80C2122F068
:105610003002C3F80C21DA680243DA60D3F80C21B7
:105620000243C3F80C219A6942F010029A61704754
:10563000CA070BD5104BDA6822F03002DA60DA685C
:105640000243DA60DA6842F08802DA608B0711D52B
:10565000094BD3F80C2122F03002C3F80C21D3F807
:105660000C211043C3F80C01D3F80C2142F088023E
:10567000C3F80C21704700BF0020005210B5CC07C2
:105680000BD50F4CE36823F4E663E360E36843EA79
:105690000023134343F08403E3608B070FD50849CD
:1056A000D1F80C3123F4E663C1F80C31D1F80C3198
:1056B00043EA0020024342F08402C1F80C2110BDED
:1056C000002000522DE9F0474A4F054688463B7DB1
:1056D000012B00F08D8000230121BB6139754368E7
:1056E000DA072CD49E073FD42E68012E44D1696876
:1056F0002869FFF781FF6C6814F001040CD0314673
:105700004CF25030FFF7BAFE3B4A041ED36818BF74
:10571000012423F00803D3606B68980719D5022190
:105720004CF25030FFF7AAFE334A0028D2F80C3171
:1057300018BF012423F00803C2F80C3109E04CF231
:105740005030FFF79BFE6B680028CBD09C0705D438
:10575000012400233B752046BDE8F08702214CF26E
:105760005030FFF78BFEF3E702214CF25030FFF789
:1057700085FE0028ECD1B7E74FF0FF33DFF87890D3
:10578000DFF878A0C8F80030AE68D5E902231344EA
:10579000B34201D80024DCE7696830462A69FFF784
:1057A0006DFF6B68D90711D49A071FD502214CF2FF
:1057B0005030FFF763FED9F80C31044603EA0A03C0
:1057C000C9F80C3194B1C8F80060C2E701214CF26D
:1057D0005030FFF753FED9F80C30044603EA0A03B1
:1057E000C9F80C306B689B07E0D4EBE70136CCE7D7
:1057F0000224B0E74C29002000200052FBF8FFFFF4
:1058000038B5104CE36813F0040FE36805D103F0DA
:105810000703181A18BF012038BD23F007031843E7
:10582000E060FEF73BF9054663689B0401D5002064
:10583000F2E7FEF733F9401BB0F57A7FF4D9012087
:10584000EAE700BF00480258024AD36843F0807379
:10585000D360704700480258022870B538BF03462D
:10586000244D28BF002305EB00101B01067AEC58DD
:1058700001F07F05AE4208D84FF0E023D3F8F03DA9
:10588000D90700D500BE002070BDD31CC9094FEA5E
:1058900093030FD1C3F30D03626A083333445B00F3
:1058A0009BB29A4204D2144A92889A42E4D3636229
:1058B0000120E9E7407A104920B18A799042DBD98A
:1058C00001328A71A268606A12068A885CBF5B0036
:1058D0009BB218448242CFD3D21A92B242EA034317
:1058E0008A800DB9A362E3E705F13F0204EB82046D
:1058F0006360DDE7BC7C00087029002002280C4BA7
:1059000034BF014600210901595803EB00131A7AEC
:10591000DB6818329B0852004A628A6C054A938001
:105920001A0412FA83F34022CB658021FFF794BF5B
:10593000BC7C00087029002070B502288C781D4BB3
:1059400028BF002004F07F021B4D000156001858AC
:1059500006EBD4168B8805EB0615C3F30A036B819F
:1059600043F400438E792E73C97801F00305691E54
:1059700043EA854318BF0121E40943EA017319464C
:105980000DD102F15801490143501023D0F81C18E1
:105990001A44012393400B43C0F81C3870BD02F138
:1059A000480362F399515B01C1500023D0F81C18E1
:1059B000EEE700BFBC7C0008782900200228404B9D
:1059C00028BF002030B5000101F07F04C909185834
:1059D00081F001031B0100293CD034B1191900EBFF
:1059E0004111D1F80059002D15DB2344002A00EBAA
:1059F00043130CBF4FF000624FF00262D3F800195E
:105A00000A43C3F80029A40144F020040461036997
:105A10009B06FCD430BDD1F8005945F00065C1F8B3
:105A20000059D1F808596D06FBD5002AD1F8005964
:105A3000244A234408BF4FF0804200EB43132A431B
:105A4000C1F80029D3F808299207FBD50222C3F830
:105A50000829D8E734B1191900EB4111D1F80059E0
:105A6000002D09DB234400EB4313D3F8001941EA6E
:105A70004252C3F80029CDE7D0F8045845F4007528
:105A8000C0F8045845692D06FCD5002AD1F8005904
:105A90000C4A234408BF4FF0804200EB43132A43D3
:105AA000C1F80029D3F808299207FBD50222C3F8D0
:105AB0000829D0F8043843F48063C0F80438A9E713
:105AC000BC7C00080000204002282E4B28BF00208C
:105AD000F0B50001551E2C4E1C5818BF0125002999
